:020000040800F2
:10000000000003205D0600083D2400083F2400088E
:100010004124000843240008452400080000000093
:10002000000000000000000000000000E170000877
:10003000472400080000000071710008F3690008FF
:10004000AD060008AD060008AD060008AD060008C4
:10005000AD060008AD060008AD060008AD060008B4
:10006000AD060008AD060008AD060008AD060008A4
:10007000AD060008AD060008AD060008AD06000894
:10008000AD060008AD060008AD060008AD06000884
:10009000AD060008AD060008AD060008AD06000874
:1000A000AD060008AD060008AD060008AD06000864
:1000B000AD060008AD060008AD060008AD06000854
:1000C000AD060008AD060008AD060008AD06000844
:1000D000AD060008AD060008AD060008AD06000834
:1000E000AD060008AD060008AD060008AD06000824
:1000F000AD060008AD060008AD060008AD06000814
:10010000AD060008AD060008AD060008AD06000803
:10011000AD060008AD06000849240008AD06000839
:10012000AD060008AD060008AD060008AD060008E3
:10013000AD060008AD060008AD060008AD060008D3
:10014000AD060008AD060008AD060008AD060008C3
:10015000AD060008AD060008AD060008AD060008B3
:10016000AD060008AD060008AD060008AD060008A3
:10017000AD060008AD060008AD060008000000004E
:10018000AD060008AD060008AD060008AD06000883
:10019000AD060008AD060008AD060008AD06000873
:0C01A00055240008AD060008612400088A
:1001B00010B5054C237833B9044B13B10448AFF3A1
:1001C00000800123237010BD800300200000000088
:1001D000401B020808B5034B1BB103490348AFF3AA
:1001E000008008BD0000000084030020401B0208BE
:1001F00001F0FF01102A2BDB10F0070F08D010F8D8
:10020000013B013A8B422DD010F0070F42B3F6D1DB
:10021000F0B441EA012141EA014122F007047FF0F4
:1002200000070023F0E80256083C85EA010586EA4B
:10023000010685FA47F5A3FA87F586FA47F6A5FA87
:1002400087F68EB9EED1F0BC01F0FF0102F0070293
:1002500032B110F8013B013A83EA010313B1F8D13E
:100260000020704701387047002D06BF354603381F
:10027000073815F0010F07D1013015F4807F02BF58
:10028000013015F4C03F0130F0BC0138704700BFA9
:100290007BB972B90029BEBF00204FF0004106E0D3
:1002A00008BF00281CBF6FF000414FF0FF3000F086
:1002B000D3B9ADF1080C6DE904CE002909DB002BA0
:1002C0001ADB00F04DF8DDF804E0DDE9022304B0AC
:1002D0007047404261EB4101002B1BDB00F040F80E
:1002E000DDF804E0DDE9022304B0404261EB4101A6
:1002F000524263EB43037047524263EB430300F007
:100300002FF8DDF804E0DDE9022304B0404261EBA0
:1003100041017047524263EB430300F021F8DDF8DE
:1003200004E0DDE9022304B0524263EB430370476B
:1003300053B94AB9002908BF00281CBF4FF0FF314C
:100340004FF0FF3000F088B9ADF1080C6DE904CE34
:1003500000F006F8DDF804E0DDE9022304B07047A0
:100360002DE9F047089D8E4604468846002B4AD169
:100370008A42174662D9B2FA82F64EB1C6F120031C
:1003800001FA06F820FA03F3B74043EA0808B4403C
:100390004FEA174E1FFA87FCB8FBFEF1230C0EFB49
:1003A000118843EA084301FB0CF29A4209D9FB1871
:1003B00001F1FF3080F0EA809A4240F2E780023992
:1003C0003B449A1AA3B2B2FBFEF00EFB102243EAA2
:1003D000024300FB0CFC9C4509D9FB1800F1FF32DD
:1003E00080F0D6809C4540F2D3803B44023840EAFE
:1003F0000140A3EB0C0300211DB1F3400022C5E92D
:100400000032BDE8F0878B4205D90DB1C5E9000186
:1004100000210846F5E7B3FA83F1002946D1734578
:1004200002D3824200F20581841A6EEB030201209E
:100430009046002DE5D0C5E90048E2E7002A00F02B
:100440009080B2FA82F6002E40F0A4808A1A030C43
:100450004FEA174E80B2BCB20121B2FBFEFC0EFB8C
:100460001C2243EA024304FB0CF29A4207D9FB1810
:100470000CF1FF3802D29A4200F2E080C4469B1A87
:10048000B3FBFEF20EFB123340EA034302FB04F41B
:100490009C4207D9FB1802F1FF3002D29C4200F2C5
:1004A000CA8002461B1B42EA0C40A5E7C1F12006A8
:1004B0008B4022FA06F71F430EFA01F420FA06F3E6
:1004C0002EFA06FE4FEA1749234300FA01F81FFAF5
:1004D00087FCBEFBF9F01C0C09FB10EE44EA0E444D
:1004E00000FB0CFEA64502FA01F209D93C1900F105
:1004F000FF3A80F09C80A64540F2998002383C4447
:10050000A4EB0E041FFA83FEB4FBF9F309FB1344BA
:100510004EEA044403FB0CFCA44508D93C1903F142
:10052000FF3E80F08280A4457FD9023B3C4443EAF1
:100530000040A4EB0C04A0FB02EC64457346E146CA
:1005400062D35FD05DB1B8EB030264EB090404FA37
:1005500006F622FA01F31E43CC40C5E900640021EF
:100560004FE7B1FBF2FC010C41EA0E4180B240EAD8
:1005700001423B4638463C46B846BE462026B1FBC3
:10058000F7F1A2EB080241EA0C4166E7014618E7E1
:1005900010462CE7C6F120022EFA02F3B740B14014
:1005A00020FA02F24FEA174E0A43B3FBFEF8BCB240
:1005B0000EFB1833110C41EA034108FB04F9B0406B
:1005C00089454FEA104380B23ED9791808F1FF3CC3
:1005D00001D289451FD8A1EB0901B1FBFEF909FB46
:1005E00004F80EFB191192B242EA0142424529D2A7
:1005F000BA1809F1FF31C4D24245C2D2A9F10201B1
:100600003A44BEE7F0459DD2BEEB02036CEB070C0B
:100610000138E14696E7A7EB09094944A8F1020C25
:10062000B1FBFEF909FB04F8DBE773467FE75046B0
:1006300066E70846FDE63B44023A33E7ACF1020CBC
:100640003B441CE749469CE7A1EB0901C446B1FBCA
:10065000FEF909FB04F8C4E7704700BFDFF834D0A7
:10066000002103E00C4B5B58435004310B480C4B0A
:1006700042189A42F6D30B4A02E0002342F8043BA8
:10068000094B9A42F9D303F0D5FB20F0EBFC01F0C3
:10069000B1F87047000003207C4C0C0800000020DB
:1006A000640100208003002044390120FEE77047E8
:1006B00008B500F0BBFDBDE8084000F03FBD00F00C
:1006C000B7BD704710B5042104461FF0DEFA20467E
:1006D00010BD000038B50C4B0C4C18800C4B822020
:1006E00019806368984740F6110398420AD1094D72
:1006F00023682C60822098472B688220DB6898470B
:10070000002038BD0120FCE7A60300204C0000209B
:10071000A4030020A80300204FF4A071F020FFF7ED
:10072000D9BF0000F7B5394D2B6804461B698220FC
:100730009847208000284ED02B680DF106025B6997
:1007400001A982209847324B1B78002B4BD0BDF873
:10075000062040F674639A423FD9ADF80630BDF8E2
:1007600006209B1A9BB20A2B42D90B22B3FBF2F351
:10077000284A1288934201D9013A93B2BDF8042065
:10078000254840F6B8318A4234D8C2F571620E323B
:10079000016892B20F25B2FBF5F2204D2D88AA42D6
:1007A00084BF05F1FF35AAB28A4215468EB22AD916
:1007B000921B91B21A4E3768BB42BAB28CBF9A1ADA
:1007C000D21A92B211440529C4BF05603360036890
:1007D00063803368A38003B0F0BDB32A9CBFB4220A
:1007E000ADF80620BBE7BDF80630A3F5B473B9E752
:1007F0000023C3E7C2F56D62083292B20E2A016887
:10080000C8D800252A46891A89B2D3E7A803002050
:10081000E0190020A4030020A0030020A60300206C
:100820009C03002037B568460D461446FFF77AFF53
:10083000BDF8000030B1BDF802302B60BDF80430C7
:100840002360012003B030BD032821D8DFE800F089
:10085000020B12190F4B1A68B2FA82F252090421E4
:100860000D4803F091BF0B4B5A68B2FA82F252095D
:100870000821F5E7074B9A68B2FA82F25209102173
:10088000EEE7044BDA68B2FA82F252092021E7E778
:10089000704700BFAC03002000100240032821D89D
:1008A000DFE800F0020B12190F4B1A68003A18BF6C
:1008B000012204210D4803F067BF0B4B5A68003A30
:1008C00018BF01220821F5E7074B9A68003A18BFC4
:1008D00001221021EEE7044BDA68003A18BF01222A
:1008E0002021E7E7704700BFAC0300200010024062
:1008F00003280DD8DFE800F00206080A04210548A5
:1009000003F047BF0821FAE71021F8E72021F6E7B6
:10091000704700BF0010024008B5032811D8DFE877
:1009200000F0020A0C0E0421074803F027FF431EC3
:100930005842584108BD0821F6E71021F4E720216C
:10094000F2E70020F3E700BF0010024070B5084D49
:1009500000240126E0B2FFF7DFFF18B12B68012B5E
:1009600018BF2E600134052C05F10405F2D170BDCD
:10097000AC030020012380F8781080F879307047AC
:100980007047002070470000034B4164003918BFD6
:1009900001211970704700BF032C0120704700200F
:1009A0007047836B0BB10846184770474FF6FF70CE
:1009B0007047406803689B691847704770477047E5
:1009C0007047704710B5044600F048FD236803499E
:1009D000D3F890302046BDE810401847000000D002
:1009E00008B503680446D3F8843098472368204646
:1009F000DB6F984700F0ECF8236820465B6F984760
:100A0000292001F0D3F900F0E3F8236820465B6F5A
:100A10009847F8E710B5044609F078F923682046AE
:100A2000D3F8BC30BDE81040184700F0FBBC00F024
:100A3000FFBC00F031BD00F0D1BC00F041BD00F0C2
:100A400049BD00F0D5BC08F08FBB10B58421044629
:100A50001FF01BF9204610BD10B590F8341090F827
:100A600078400C4B8C421A7809D03AB90A4A0B49A3
:100A70001488088810800C8001221A7010BD002A8A
:100A8000FCD0054A05491488088810800C80002293
:100A9000F3E700BFFC2B0120F82B0120FA2B0120EB
:100AA00070B50D46194635B9094B0A4A0A4840F255
:100AB000FF2120F027F8C0E90F52084B003A18BF79
:100AC00001221A700368BDE87040D3F890301847CF
:100AD000B01B0208E81B0208361C0208022C012089
:100AE00008B5094B1B888B4203D8084B1B889342DF
:100AF00005D9074B074A0848A32120F003F8074B04
:100B00001980074B1A8008BDF82B0120FA2B012011
:100B10007B1C0208DE1C0208361C0208FE2B01208A
:100B2000002C0120034690F87A0018B15868036839
:100B30001B68184770470000012108B500220846CD
:100B400005F0E0FF0A4B186028B90A4B0A4A282131
:100B50000A481FF0D7FF00220421012006F07AF88E
:100B6000074B186018B9074B034A2C21F0E708BD62
:100B7000C0030020211D02086A1D0208991D0208F9
:100B8000BC030020D31D0208024B4FF0FF31186850
:100B900006F002B8C0030020014B186806F028B820
:100BA000C0030020024B0021186805F0F5BF00BF0C
:100BB000C0030020FFF7F0BF03480449006800238A
:100BC0001A4606F082B800BFBC03002004000020D3
:100BD00013B5084C00231A4601A9206806F0A6F8B0
:100BE00020684FF0FF33002201A906F09FF802B001
:100BF00010BD00BFBC03002003685B6C18470120D8
:100C0000704703689B6A1847FEE740F2EF30704771
:100C1000054B0360054B4FF08062C3F88820BFF39B
:100C20004F8FBFF36F8F7047A027020800E100E0ED
:100C300010B504464FF45A61FFF7EAFF20461FF053
:100C400024F8204610BD000082B0002301930E4B13
:100C50001A6B42F400021A631A6B02F4000201924A
:100C6000019A1A6942F400021A611A6922F4000218
:100C70001A61064B064A1A61064A5A61064B4FF042
:100C800080629A6002B0704700380240BC1B0020AE
:100C9000E90E0008090C000800E100E008B50A2888
:100CA00009D8DFE800F006100E0808080810101038
:100CB0001000022008BD054B054A064890211FF090
:100CC00021FF0020F6E70120F4E700BF151E02080F
:100CD000301E02087B1E020838B50C46887FFFF7DD
:100CE000DDFFA58AE28A164B2169586342EA054274
:100CF0005A64628BD963521B1A642568082D0ED181
:100D00009A611A615862207F0E4A42EA0062DA61F3
:100D1000E2681A620C4A5961D9601A6038BD002233
:100D2000D8611A61E1680A0A480902F4784200F4BD
:100D3000FC600243C1F3C4010A439A63034AECE72F
:100D400000B002400900010001230200012303005A
:100D500008B50B280BD8DFE800F00612100A0A0AC3
:100D60000A0808080808022008BD0520FCE7054B12
:100D7000054A06486F211FF0C5FE0020F4E7012058
:100D8000F2E700BF151E0208B31E02087B1E020810
:100D90002DE9F04191F81D800C464046FFF7D8FF41
:100DA000A77F05463846FFF7D3FF06463846FFF7CC
:100DB00075FFA18A628B444B521A1A649A61228B86
:100DC000521A1A61E28A586342EA01425A6421695E
:100DD0006268D963DA602068802828D0227F0FD823
:100DE000202867D0402865D004281AD0364B45EA21
:100DF000026545F40035B845DD6161D0334A44E011
:100E0000B0F5807F04D0B0F5007FEFD1304800E02E
:100E1000304840EA0262DA61E2681A625E62596151
:100E200032E045EA026242F40032DA61F6E7A06895
:100E3000021DDA62227F45EA026545F40035DD6174
:100E40005E625961017841B1012921D0224B234AC8
:100E500023484FF48D711FF055FEDA69418822F462
:100E60007F42013922F0100242EA0122DA610121B7
:100E7000154BDA6942F02002DA61DA699206FCD495
:100E800010229A600029B9D0164A1A60BDE8F08194
:100E9000B2F1FF01DA69408822F47F4200F1FF30AD
:100EA00022F0100242EA002242F0100218BF012193
:100EB000DA61DDE745EA0262034B42F40032B4E74F
:100EC00042F20132E1E700BF00B00240012301001D
:100ED000090002000A000200FD1E0208171F020896
:100EE0007B1E020801230200024B1B68586803683E
:100EF0005B691847042C012070B5044625460A4B4F
:100F00000C30002660602672667245F8203B602235
:100F1000294609F051F804F55A63EE6024359D42E4
:100F2000FBD1204670BD00BFA0270208034B1A6802
:100F3000D207FCD423229A60704700BF00B0024061
:100F40007047000030B50F4C2568ED07FCD4232511
:100F50000904A56041F001010225FF2B656361646E
:100F6000E0630AD00849656241EA0363E361074B25
:100F700022626061E060236030BDE561039BA36392
:100F8000034BF8E700B00240090001000100020035
:100F90000100030030B50E4C2568ED07FCD4232575
:100FA0001204A56042F001020225FF2B6563626412
:100FB000E063E16008D01B0643F00213E361054BD8
:100FC00065626061236030BD034BE3610123F9E793
:100FD00000B0024001000200020002FF30B50B4CDD
:100FE0002568ED07FCD4232512041B06A56043F4F5
:100FF0000033022542F0010265636264E063E16050
:10100000E361034B65626061236030BD00B0024064
:1010100001000200012070470C2070470C2303FBE5
:101020000100083070470C2303FB010008307047B3
:101030000120704740F2C440704740F2C44303FBB4
:1010400001000830704740F2C44303FB0100083040
:101050007047012070471020704700EB01100830E6
:10106000704700EB011008307047084601F082BC61
:1010700010B5034B0360044607F0CDFD204610BDBC
:101080005828020810B50446FFF7F2FF2046142145
:101090001EF0FBFD204610BD10B5034B0360044657
:1010A00007F0B9FD204610BD2428020810B50446FB
:1010B000FFF7F2FF204640F2CC411EF0E6FD20464D
:1010C00010BD000010B5034B0360044607F0A3FDFC
:1010D000204610BDF027020810B50446FFF7F2FFC6
:1010E000204618211EF0D1FD204610BD10B5084B3A
:1010F0000360044600F59F60FFF7BAFF04F12C007F
:10110000FFF7CAFF04F11400FFF7DCFF204610BD13
:101110008C28020808B50248FFF7E8FF08BD00BFA9
:101120009C12002010B50446FFF7E0FF204640F275
:101130006C611EF0AAFD204610BD00002DE9F341B0
:1011400001F0F4F9054601F0F5F9002401462346C3
:101150002846224600940FF005FD274B274A1A60C7
:10116000204602F037F8264D264B274A27489A603A
:101170000FF060FC2B68BFF35B8FDB0735D428468C
:101180001EF085FD88B3224C224B236004F5A26635
:1011900004F1140004F12C0804F59F676060C4F8A2
:1011A0000880E760266107F037FD1B4B636140460E
:1011B00007F032FD194BE362384607F02DFD184B5E
:1011C000C4F8F83404F20C5002F0BEFA224604F2DD
:1011D0000C51304602F06AF8304601F0CBFB114862
:1011E0001FF0AEFC28461EF05EFD0F4802B0BDE8C1
:1011F000F041FFF7E7BB00BF682C01204804002046
:1012000098120020680400204C04002008000020F0
:101210009C1200208C280208F027020824280208CB
:101220005828020815110008C40300207047000068
:101230000148FFF7D5BB00BFC403002070B5264EA0
:10124000264C274D274B23603046FFF755FE284696
:1012500014F08EFD24480DF077FD244B2448DC600B
:1012600000224FF48071C3E9121222491A86C3E9A1
:101270001A12214983F85820C3E91E011F49C3F8F7
:1012800080101F491F480B60F021C3E90422C3E905
:101290000622C3E90822C3E90A22C3E90E22C3E9F0
:1012A0001022C3E91422C3E917225A6683F870207A
:1012B0005A67C3E9016501801348018013484FF460
:1012C000A07101801248018012490A70012283F83E
:1012D0003420114A1A6070BDF404002094120020DA
:1012E00068040020A01B02084C040020C403002056
:1012F0000000010101000001000450001A00140068
:10130000042C0120F82B0120FE2B0120FA2B0120B8
:10131000002C0120FC2B0120B42602080148FFF715
:1013200077BC00BFF4040020002070478180704724
:10133000C180704701817047418170477047704795
:1013400070477047704710B4C4880368121B8488C4
:101350005B6D091B12B25DF8044B09B218474FF6DA
:10136000FF7383814FF0FF3303621368C361106022
:101370007047002070478B8883800120704770473A
:1013800080F82610704790F82600704710B50022AC
:10139000B1F90840B1F90A10028042808480C1800E
:1013A00010BD0022028042808280C2807047017797
:1013B000704780ED080A704780F82410704780F865
:1013C0002510704701207047983070478C30704767
:1013D000843070477047704770470000034B90227D
:1013E00083F85A2383F85823704700BF00E100E0D8
:1013F000094A0A49D3680A48C3F30A03013B9BB26E
:101400000B801169C1F30A01013901801364536B28
:1014100043F0010353637047006801400A1900203C
:1014200008190020014BD3F8AC0070470068014058
:10143000024B0122C3F8AC105A62704700680140A9
:1014400010B52C2104461EF020FC204610BD10B51E
:10145000BC2104461EF019FC204610BD70B50446A0
:1014600007F0D7FE23689D6E0CF006FA0146204671
:10147000A8472368054AD3F88C502046AC46002381
:10148000BDE87040A2F51631604700BF00B004D03F
:1014900007F0A6BE07F0B0BE07F06CBE07F0DBBFDA
:1014A00090F8252012B103685B691847704790F8DF
:1014B00025201AB190F8242002B11860704700006E
:1014C000034B4FF080629A604FF080729A607047D1
:1014D00000E100E0084B4FF08062C3F88820BFF3C2
:1014E0004F8FBFF36F8F4FF08072C3F88820BFF328
:1014F0004F8FBFF36F8F704700E100E070B500239E
:10150000124E8380124B0360336893F858200546CF
:101510000AB1D86C00B998680368DB6A98473368E9
:10152000B0FA80F4D86C640930B10368DB6A98477C
:10153000002808BF44F001042CB9064B064A0748AE
:101540002C211FF0DFFA284670BD00BF042C0120BB
:10155000A0280208551F0208B31F0208EC1F02084A
:1015600070B5254E3568BFF35B8F15F0010540D18E
:1015700030461EF08CFB00283BD0204C204B2561D0
:1015800004F13400C4E90035C4E90255E584A562DC
:10159000A5850DF0BEFE04F158000AF0C1F9194B03
:1015A000A3652046184B40F8843BFFF7A7FF174B75
:1015B000C4F884302433C4F88C304FF4C803C4E931
:1015C00028350023C4F8AC30C4F8B030C4F8B430C7
:1015D000C4F8B8300E480F4BC4F89050C4F89C5073
:1015E000C4F8A850C4F898301FF0AAFA30461EF08C
:1015F0005AFB024870BD00BF0C19002010190020D2
:10160000F82F0208C028020838290208AC2F020867
:10161000D91300088C2F020838B5184C23685BB327
:10162000174B184A1B6C11888B4216D1164B198820
:1016300003F0B2FE236893F86A200025013283F894
:101640006A2083F87C50FFF7B7FA206808F05EFB49
:101650002846BDE83840FFF7F7B803F09DFE246840
:10166000236820461B6A9847012384F87C300020B9
:10167000BDE83840FFF712B938BD00BF042C012087
:10168000006801400A1900200819002007B5064B20
:10169000ADF806001B68054801220DF1060104F0B3
:1016A0002BFC03B05DF804FB0C000020681A00203E
:1016B00007B51D4C1D4D1E4E204602F0AFFC0A2101
:1016C000204602F029FD204602F079FDDC28286042
:1016D0001ED91848522300688DF8073000220A23CB
:1016E0000DF1070105F0F1FA1348042103F046F863
:1016F000024648B9114846238DF8073000680A238E
:101700000DF1070105F0E1FA102005F0EFF9D3E73C
:101710001D28E9D84C238DF8073030680A230022B1
:101720000DF10701DEE700BF041C0020D0190020E6
:10173000D8190020DC19002000180240D41900201C
:1017400010B54FF0FF331446024892B205F06BF823
:10175000204610BD201A002030B595B0102200217F
:101760000AA81FF0D6FB1422002103A81FF0D1FB0A
:1017700000241E4B01941A6C42F080521A641B6CB8
:1017800003F080530193019B194B02941A6842F4B1
:1017900040421A601B6803F4404302930122029BFB
:1017A0004FF48033CDE9082302254FF4800308214C
:1017B000CDE90E534FF4B473CDE9101308A80423F8
:1017C0001393129503F040FE03F004FE0F23CDE9BE
:1017D00003354FF4A0504FF48053CDE906030521A3
:1017E00003A8059404F00CF815B030BD0038024091
:1017F000007000402DE980489BB002F029FBFFF704
:10180000ABFF142200210DA81FF083FB0024C84B5E
:1018100000941A6BC748DFF85883DFF8589342F0FA
:1018200010021A631A6B02F010020092009A0194DF
:101830001A6B42F020021A631A6B02F02002019226
:10184000019A02941A6B42F080021A631A6B02F03A
:1018500080020292029A03941A6B42F004021A6305
:101860001A6B02F004020392039A04941A6B42F07A
:1018700001021A631A6B02F001020492049A0594A1
:101880001A6B42F002021A631A6B02F0020205920E
:10189000059A06941A6B42F040021A631A6B02F022
:1018A00040020692069A07941A6B42F008021A63E5
:1018B0001B6B03F00803224607933C21079B02F0B1
:1018C00063FF9D480122022102F05EFF22469A48F2
:1018D000042102F059FF224698484FF4405102F08B
:1018E00053FF01263C23CDE90D3692480F94032384
:1018F0000DA90227109302F05DFE8F480DA9CDE9D6
:101900000D760425CDE90F4402F054FE8A480DA956
:10191000CDE90D56CDE90F4702F04CFE4FF4405390
:1019200086480DA9CDE90D36CDE90F4702F042FEFC
:101930000DA983480F96CDE90D5402F03BFE814876
:10194000814B824D036002F02BFD814B2C62C5E977
:10195000008328464FF48043C5E90434C5E90244B6
:10196000C5E9064403F01EF91021284603F062FB86
:1019700021462846774D03F07CFB4FF48273C5E97E
:1019800000934FF4007A1823C5E906A328460A23DA
:10199000C5E90244C5E90444C5E90844AC62EB6208
:1019A00004F04EFA8F232246394663488DF82430DE
:1019B0008DF8344002F0E8FE32464FF47A7309A9FC
:1019C000284604F099FA4FF47A7332460DA9284656
:1019D00004F03EFC3246394657485F4D02F0D4FED3
:1019E0009DF83430D32B04BF5C4B1E705C4B01263A
:1019F0004FF01008C5E9003640230024C5E90483F0
:101A00004FF4C073C5E906344FF40063C5E90834E8
:101A10004FF4005302274FF0040AAB624FF0030B60
:101A200007230DA92846CDE90D73CDE90FA34FF08B
:101A30000809C5E9024ACDE911B7139704F0E4F8A3
:101A40004FF6FF7209A92846CDE90A96089409962F
:101A50000C9404F0F9F8304602F026FA4FF6FF72C3
:101A600009A92846CDE90979CDE90B6404F0ECF821
:101A70004FF6FF7209A92846CDE909B9CDE90BA4B3
:101A800004F0E2F84FF40C730893089B0C934FF6A4
:101A9000FF7209A92846CDE909A90B9604F0D4F8EC
:101AA00040F26A51284604F0EDF8342221460DEB4D
:101AB00002001FF02EFA2B4D2B4B2C61C5E9003490
:101AC0000923C5E905361D23C5E9073B40F20D1280
:101AD00040F24313C5E9092340F2171140F24713BE
:101AE0002846C5E90B13C5E90244AC8685F83640A3
:101AF00003F05AFBFF21F022CDE912144FF480606D
:101B000005214FF4A073CDE91401CDE90E240DA9F0
:101B1000CDE9164228462246144D1893CDE91037D8
:101B20000D94ADF864408DF8664003F008FC23E0A6
:101B3000003802400010024000080240000C024041
:101B400000180240FC1B002000300240681B0020EF
:101B5000A0860100681A0020EC190020E01900207E
:101B6000400100A0C01A002000680140CC190020EC
:101B7000005C0040005001403C4B2B601B689847C4
:101B80002B683B4DDB6898473A4B2846C5E9003443
:101B9000C5E90274C5E90A47C5E90C4402F010FC26
:101BA0003146284602F0C2FC424621460DA81FF0ED
:101BB000B0F9314DDFF8FCC02C614FF48033C5E93A
:101BC00000C34FF00073AB6028462C4BAB622C7601
:101BD00085F82040EC62EC60EE6185F830406E6183
:101BE00002F076F90DA90D232846CDE90D360F94A4
:101BF00002F0E8FADFF8C0E021484FF4E133C0E931
:101C000000E30C23C0E90534C0E902440461C46167
:101C100004F0DAFDFEF74CFDFEF749FD04F0F6FE98
:101C2000184A3946404605F015F8174B174A186010
:101C30003946404605F00EF8154B164A18603946ED
:101C4000404605F007F8144B144A18602146144822
:101C500004F008FF134B144A18602146134804F09F
:101C600001FF134B186004F0E3FEFEE714000020B0
:101C7000BC1B002000B00240041C00200100000F2B
:101C8000201A0020AC290208DC190020942902083F
:101C9000D81900207C290208D4190020E82902085C
:101CA000B1160008E8190020C4290208BF06000880
:101CB000E4190020002001400010014070477047E7
:101CC0007FB5094B8DF817201B6802930DF11702A1
:101CD0000123009201930A460146044803F00AF8E2
:101CE00007B05DF804FB00BF10000020681B002057
:101CF0007FB500238DF81730084B1B6802930A4606
:101D000001230DF11701009101930146044803F0EE
:101D100081F89DF8170007B05DF804FB1000002063
:101D2000681B00201FB5084C24680092CDE90134DF
:101D30000A4601230146054803F06CF8003818BF35
:101D4000012004B010BD00BF10000020681B00205F
:101D500002F0AAB810B5064C00222046042102F079
:101D600013FD20460122BDE81040042102F00CBD05
:101D70000008024038B50B4D044601220A484FF4D2
:101D8000005102F001FD00220421284602F0FCFC73
:101D90002046FFF77BFC28460122BDE8384004219D
:101DA00002F0F2BC00080240000C024038B50B4DB6
:101DB000044600220A484FF4005102F0E5FC0022DC
:101DC0000421284602F0E0FC2046FFF75FFC28468D
:101DD0000122BDE83840042102F0D6BC00080240D0
:101DE000000C0240F7B5144E144F05460C46304621
:101DF0000022042102F0C8FC00224FF400513846B2
:101E000002F0C2FC2846FFF741FC0D4B0D481B6851
:101E1000224601A904F01CFA384601224FF4005171
:101E2000019C02F0B1FC30460122042102F0ACFC1E
:101E3000204603B0F0BD00BF00080240000C024085
:101E40000C000020681A002002F02EB80268034B34
:101E50009A4201D102F016B8704700BF001000404E
:101E60007047000082B00E4B00220092596C41F482
:101E700080415964596C01F48041009100990192AC
:101E8000196C41F0805119641B6C03F0805301936D
:101E9000019B0F216FF0010002B002F041BA00BFB8
:101EA0000038024010B5044688B01422002103A86F
:101EB0001FF02FF82268124B9A421ED103F58C3383
:101EC000002101915A6C0F4842F480725A645A6C96
:101ED00002F480720192019A02911A6B42F004029C
:101EE0001A631B6B03F004030293029B0822032373
:101EF00003A9CDE9032302F05DFB08B010BD00BFCC
:101F000000200140000802400268094B9A4282B05A
:101F10000BD100230193074B1A6B42F480521A63D2
:101F20001B6B03F480530193019B02B0704700BF09
:101F3000003002400038024007B50F4B02689A4259
:101F400016D10022A3F5F0430192196B41F4000170
:101F500019631B6B03F40003019305215A20019BB5
:101F600002F0DEF95A2003B05DF804EB02F00ABA81
:101F700003B05DF804FB00BF00B002402DE9F04360
:101F8000044689B01422002103A81EF0C2FF226873
:101F9000244B9A4243D1244C244800250095236BBE
:101FA00043F004032363236B03F004030093009BBB
:101FB0000195236B43F001032363236B03F00103BB
:101FC0000193019B4FF012094FF400734FF0010889
:101FD0000327042603A9CDE90339CDE90587079630
:101FE00002F0E8FA4FF480731148079603A9CDE98F
:101FF0000339CDE9058702F0DDFA0295236C43F43D
:1020000000032364236C03F400030293029B236AFE
:1020100043F400032362236A23F40003236209B01C
:10202000BDE8F083005C0040003802400008024038
:1020300000000240F0B599B004461422002107A820
:102040001EF067FF30220DEB020000211EF061FF41
:1020500022685E4B9A4240F0B78008230C93C0235D
:102060001093042312930CA84FF40033159303F03C
:102070009FFC08B1FFF7F4FE554B5648002400942E
:102080005A6C42F080625A645A6C02F0806200928C
:10209000009A01941A6B42F020021A631A6B02F044
:1020A00020020192019A02941A6B42F001021A6313
:1020B0001A6B02F001020292029A03941A6B42F028
:1020C00002021A631A6B02F002020392039A04944A
:1020D0001A6B42F040021A631A6B02F0400204923B
:1020E000049A05941A6B42F004021A631A6B02F008
:1020F00004020592059A06941A6B42F008021A63CC
:102100001B6B03F00803069302250E26069B0B9615
:102110004FF4806307A9CDE90735CDE9094502F001
:1021200049FA41F658032C480B9607A9CDE9073523
:102130000927CDE9094502F03DFA032327480B970B
:1021400007A9CDE90735CDE9094502F033FA4FF487
:10215000706322480B9607A9CDE90735CDE90945FB
:1021600002F028FA4FF40C631D480B9607A9CDE93D
:102170000735CDE9094502F01DFAC02319480B9631
:1021800007A9CDE90735CDE9094502F013FA08237F
:1021900015480B9607A9CDE90735CDE9094502F0A9
:1021A00009FA4FF4A0530E480B9707A9CDE907355C
:1021B000CDE9094502F0FEF958202246052102F03A
:1021C000AFF8582002F0DEF819B0F0BD0068014009
:1021D00000380240001402400000024000040240A7
:1021E0000018024000080240000C024010B50446EE
:1021F00088B01422002103A81EF08BFE2268144B25
:102200009A4223D103F56843002101915A6C114889
:1022100042F480125A645A6C02F480120192019ABC
:1022200002911A6B42F020021A631B6B03F0200329
:102230000293029B4FF4607202230321CDE9032332
:102240000523CDE9061303A902F0B4F908B010BDC7
:10225000005001400014024010B5044688B014221A
:10226000002103A81EF055FE2268144B9A4223D188
:1022700003F59433002101915A6C114842F0100289
:102280005A645A6C02F010020192019A02911A6B80
:1022900042F001021A631B6B03F001030293029BDD
:1022A0004FF4C06202230321CDE903230723CDE9C4
:1022B000061303A902F07EF908B010BD001001401A
:1022C000000002402DE9F04186B0002303932B4B20
:1022D0001C68002C4FD14FF00108C3F80080284B38
:1022E00000949A6B274842EA08029A639B6B03EAC0
:1022F00008030093022703260C25009B01A94FF633
:102300003F03CDE90137CDE9046502F053F91E48DA
:10231000059501A9CDE90187CDE9034602F04AF907
:1023200048F233131948059501A9CDE90137CDE9E4
:10233000034602F03FF94FF683731548059501A94E
:10234000CDE90137CDE9034602F034F94CF20373CD
:102350001048059501A9CDE90137CDE9034602F002
:1023600029F960230C48059501A9CDE90137CDE98C
:10237000034602F01FF906B0BDE8F0814C1C0020B6
:1023800000380240001402400008024000180240D9
:1023900000100240000C02400004024070B588B0FA
:1023A00000230293204B1A6C42F010021A641B6C3B
:1023B00003F010030293054601A903A8029B03F052
:1023C000D9FA069B4BBB03F0B5FA184E184B336095
:1023D00040F2E733F360174BB0FBF3F3013B73605C
:1023E000304600233361B360B36104F001F9044661
:1023F00080B9304603F0D2FF044658B9362001F0C8
:10240000C1FF0F2D0DD822462946362001F088FF46
:10241000094B1D60204608B070BD03F08BFA4000E8
:10242000D3E70124F6E700BF00380240501C00202B
:102430000010004040420F007C0000207047FEE783
:10244000FEE7FEE7FEE77047014803F0E5BF00BF87
:10245000501C0020014802F015BF00BFC01A002028
:10246000014801F0D9BF00BFBC1B0020012070470C
:1024700008B51EF0F1FD162303604FF0FF3008BDD4
:1024800008B51EF0E9FD16230360FEE770B50D46A2
:1024900014460E46731B9C4201DC204670BDAFF310
:1024A000008006F8010BF5E74FF0FF3070474FF45E
:1024B00000534B6000207047012070470020704798
:1024C0000A4A116808B5034609B90949116010683C
:1024D000694603448B4206D91EF0BEFD0C230360FF
:1024E0004FF0FF3008BD1360FCE700BF981C0020D0
:1024F00048390120704710B5042104461DF0C5FB82
:10250000204610BD012908B506D0022908D059B9C6
:1025100000F09EFE006808BD00F09AFE4068FAE7F1
:1025200000F096FE8068F6E70020F4E70048704768
:10253000202A02080F20704713B5002451B1036808
:1025400001948DF8034001AA9C680DF10303A04794
:1025500002B010BD0846FBE7C0897047008A70478B
:10256000C088704780887047807A00F07F0070478D
:10257000807AC00970470020704700009FED010A73
:10258000704700BF000000007047704700F5987367
:102590000868496803C370477047704741607047D7
:1025A00070477047064BC0F84C310023C0F85031DB
:1025B00000F5A273C0F84801C0F84031704700BF71
:1025C000B1270008012303727047704710B4C26836
:1025D00041685410034601EB6200D20748BF0A5914
:1025E0009B685DF8044B48BFD358184703464068C2
:1025F00030B19A681AB9D86800F00100704701201C
:10260000704710B50C2104461DF03FFB204610BD5D
:1026100010B5102104461DF038FB204610BD10B542
:102620004FF4AE7104461DF030FB204610BD10B5CE
:102630000BF022F90368BDE81040DB6B184710B5BA
:102640000446D0F8400158B10368DB68984738B1B8
:10265000D4F8400103689B6898470023C4F84031D0
:1026600010BD00002DE9F14FD0E9556A0746B0686A
:1026700003681B6A984740F2C343984205D8444B0D
:10268000444AA32144481EF03DFA706803681B6A5F
:1026900098470F2803D8414B3E4AA421F2E7F0683F
:1026A00003681B6A98470B2803D83D4B394AA5217C
:1026B000E8E70BF0E1F8DFF8F09004300BF001F9F7
:1026C000D9F8000010B10368DB689847D9F800001A
:1026D00010B103681B689847DFF8D080D8F8000075
:1026E00010B103685B699847D7F83C0110B10368E3
:1026F0005B689847D8F8000010B103681B689847DA
:10270000D7F83C0110B103689B689847F0680368EC
:1027100000215B6A98474FF0000B224BC0F804B0D1
:10272000044680F808B00360B068036859465B6AE5
:102730009847054600F0D6FE7068036859465B6A04
:1027400098472946064600F0C9FD331DC7F83C618D
:10275000C9F80040C8F80050CAF800302B68C6F825
:1027600008A02846DB68EE639847336830461B684C
:102770009847214628460DF02FFA236820461B690A
:10278000984723685B69204601B0BDE8F04F1847C1
:102790007820020806210208DE210208252202080C
:1027A000C8220208C02B02084C2C0120482C012012
:1027B0002DE9F14FD0E9556A0746B06803681B6AF6
:1027C0009847B0F5CE7F05D2444B454AA3214548F2
:1027D0001EF098F9706803681B6A98470F2803D8A1
:1027E000414B3F4AA421F2E7F06803681B6A98470F
:1027F0000B2803D83D4B3A4AA521E8E70BF03CF8FB
:10280000DFF8F09004300BF05CF8D9F8000010B15C
:102810000368DB689847D9F8000010B103681B68AB
:102820009847DFF8D480D8F8000010B103685B69DE
:102830009847D7F83C0110B103685B689847D8F80F
:10284000000010B103681B689847D7F83C0110B12D
:1028500003689B689847F068036800215B6A9847A3
:102860004FF0000B224BC0F804B0044680F808B0CB
:102870000360B068036859465B6A9847054600F0F4
:10288000D9FE7068036859465B6A98472946064630
:1028900000F0AEFE331DC7F83C61C9F80040C8F82F
:1028A0000050CAF800302B68C6F808A02846DB683C
:1028B000EE639847336830461B68984721462846A0
:1028C0000DF08AF9236820461B69984723685B69E5
:1028D000204601B0BDE8F04F184700BF782002083D
:1028E0006B230208DE21020825220208C822020802
:1028F000C02B02084C2C0120482C0120044B1B68E3
:1029000093F858200AB1D86C00B99868704700BF96
:10291000042C012070B504460D4616460BF06EF8E7
:10292000104A1460104A2260104A0023C4E951235F
:10293000C4E95333C4E94F330D4B186803680121D0
:102940009B68C4E955659847FFF7D8FF15F0B9F8BB
:10295000FFF7D4FF15F030F9FFF7D0FF15F038F985
:10296000204670BD582C01206C2B0208542B020805
:10297000042C0120064BC0F84C310023C0F8503124
:1029800000F5A273C0F84801C0F84031704700BF9D
:10299000B1270008064BC0F84C310023C0F8503175
:1029A00000F5A273C0F84801C0F84031704700BF7D
:1029B000652600087047704770477047704770473A
:1029C000704710B54FF48E7104461DF05EF9204635
:1029D00010BD70B5036804461B6B15469847236805
:1029E000294620465B6BBDE870401847002310B5B0
:1029F000C0E90133C0E90333C0E90733C0E9053357
:102A00004FF480738384064B03600B88C384FF23D9
:102A1000044680F8283008F0DEFF204610BD00BFD5
:102A2000243102082DE9F74F04460CF029FF4A4BE8
:102A300023604A4B0025C4E910354FF4807304F13C
:102A40006C0AA4F86430FF2384F866304FF6FF76F2
:102A500004F1980901A9C4E91255C4E91455C4E95F
:102A60001655E5632566A566504604F1C408ADF821
:102A70000460FFF7BBFF01A9484604F1F007ADF879
:102A80000460FFF7B3FF01A9404604F1400BADF825
:102A90000460FFF7ABFF01A93846ADF80460FFF70B
:102AA000A5FF2A4629465846FFF793FF5846F021CE
:102AB000FEF740FC58464FF4A071FEF73DFC261D82
:102AC0004FF07F43A3665946304606F0B7F82A46D2
:102AD00029465046FFF77DFF4FF0010B01A95046F4
:102AE000ADF804B008F077FF5146DFF874A0304627
:102AF00006F0A4F8524629464846FFF76AFF01A9A6
:102B00004846ADF804B008F066FF4946304606F086
:102B100095F82A4629464046FFF75BFF01A9404643
:102B2000ADF8045008F057FF4146304606F086F8ED
:102B3000524629463846FFF74CFF01A93846ADF802
:102B4000045008F048FF3046394606F077F8204632
:102B500003B0BDE8F08F00BFE42B0208BC300208D0
:102B6000C0FEFFFF406A7047806A704770478A88DE
:102B70000B8810B5D20A4C88C1699BB251F822006B
:102B800043EA0443184410BD10B50446BAB1107BA3
:102B900068B1537BD27A1B0203F4E0631A43236AC1
:102BA00003EB82031A888A4202D193F9020010BD16
:102BB00005D8013880B204330028F3D1F7E70020AC
:102BC000F5E710B52C2104461DF05FF8204610BD36
:102BD00030B58BB00446BDF860500895BDF85C5028
:102BE00007959DF8505006959DF84C5005959DF819
:102BF000485004959DF8445003959DF84050029527
:102C00009DF83C500195BDF8385000950CF03EFC05
:102C1000064B2360159BE361169B2362199B63623D
:102C20001A9BA36220460BB030BD00BF182C0208CF
:102C3000806A7047704770477047704730B4C26809
:102C400044685510034604EB6200D20748BF62593E
:102C50009B6830BC48BFD35818470346406830B122
:102C60009A681AB9D86800F00100704701207047CF
:102C700090F82D3080F85C3070470146343091F880
:102C80002C3013B1623108F0A6BE6031FBE710B5FD
:102C9000642104461CF0F9FF204610BD10B5102138
:102CA00004461CF0F2FF204610BD10B54FF4C87169
:102CB00004461CF0EAFF204610BD10B50446006B28
:102CC00050B10368DB68984730B1206B0368214638
:102CD0009B68BDE81040184710BD0B7970B590F89F
:102CE0002C6004460D460BB916B170BD002EFCD009
:102CF000B3FA83F35B0984F82C3023682046D3F8B9
:102D00008C309847236820465B699847002EECD0AA
:102D10002B79012BE9D123682046D3F88830BDE810
:102D20007040184700F58E70884208B505D10AF04A
:102D3000A3FDBDE80840FFF72DBE08BD074A0260AD
:102D40000022C0E90122C0E90322C0E90522C0E94E
:102D500007224FF480728284704700BFF43102086A
:102D600070B5036804469B6B15469847236829464F
:102D70002046DB6BBDE8704018470B8870B5A0F8A3
:102D800060300546138825F8623F044628460DF05A
:102D9000FDFE064628460DF02DFF31460246204630
:102DA000FFF7DEFF23682046D3F88C30BDE8704083
:102DB000184700002DE9F04F804685B045460024B5
:102DC0000CF05EFD714AC8F83C4045F8402B2146A6
:102DD000262228461EF09DF82846FFF7AFFF6C4AD2
:102DE000C8F8402008F16C0BFF224FF6FF7688F8F8
:102DF000662008F1980A03A9C8F86840584608F107
:102E0000C409ADF80C60FFF7F1FD03A95046ADF819
:102E10000C60FFF7EBFD03A94846ADF80C60FFF727
:102E2000E5FD08F1F00308F58E7703A91846009335
:102E3000ADF80C60FFF7DAFD3846FFF77FFF4FF47F
:102E40007F424FF00103A8F8482188F84031514AE9
:102E5000C8F81C2108F5A873184603A9C8F844410E
:102E6000C8F84C410193ADF80C60FFF7BFFD224656
:102E70000198A8F87C61A8F87E612146FFF7A9FDBA
:102E80000199384605F0DAFE434AC8E96028434A0A
:102E90002146C8E9622428462246FFF79AFD2846C3
:102EA0004FF4A072F021FFF75BFF08F104064FF02A
:102EB0007F42C8F868202946304605F0BFFE22460A
:102EC00021465846FFF785FD354D4FF0010303A914
:102ED0005846ADF80C3008F07EFD5946304605F0F6
:102EE000ADFE2A4621465046FFF773FD4FF0010321
:102EF00003A95046ADF80C3008F06DFD5146304640
:102F000005F09CFE224621464846FFF762FD03A9D4
:102F10004846ADF80C4008F05EFD4946304605F0E5
:102F20008DFE2A4600982146FFF753FD0098ADF824
:102F30000C4003A908F04FFD0099304605F07EFED5
:102F40000E22ADF80820ADF80C2002A903AA3846DD
:102F5000FFF713FF019822462146FFF73AFD08F5D7
:102F6000C072C8F84C2138467C223521FFF731FD6C
:102F70000F2238468721FFF7F3FE3046394605F029
:102F80005DFE404605B0BDE8F08F00BF382D020859
:102F9000BC300208802C0208202D0208252D0008D4
:102FA000C0FEFFFF7047000030B5164D2C6814F0CE
:102FB00001048FB0BFF35B8F20D128461CF067FE61
:102FC000E0B13F230993104B0893104B104911486F
:102FD0000A940122CDE906430423CDE903320A23F2
:102FE0000093CDE90B44CDE901440594FFF7F0FDD2
:102FF00009481DF0A5FD28461CF055FE05480FB0F8
:1030000030BD00BF9C1C0020FC3B0208083C0208AD
:10301000CC3B0208A01C0020A52F00087047000030
:1030200030B5164D2C6814F001048FB0BFF35B8FE0
:1030300020D128461CF02BFEE0B13F230993104B12
:103040000893104B104911480A940122CDE9064318
:103050000423CDE9033214230093CDE90B44CDE9D9
:1030600001440594FFF7B4FD09481DF069FD2846A9
:103070001CF019FE05480FB030BD00BFCC1C00206D
:10308000003C02080C3C0208DC3B0208D01C00207B
:103090001D3000087047000030B5164D2C6814F044
:1030A00001048FB0BFF35B8F20D128461CF0EFFDE9
:1030B000E0B13F230993104B0893104B104911487E
:1030C0000A940122CDE906430423CDE903322823E3
:1030D0000093CDE90B44CDE901440594FFF778FD59
:1030E00009481DF02DFD28461CF0DDFD05480FB0F8
:1030F00030BD00BFFC1C0020043C0208103C02084C
:10310000EC3B0208001D00209530000800207047AD
:10311000002070470EB403B503AB002153F8042B15
:1031200001930BF031FC02B05DF804EB03B0704783
:103130000CB407B504AB53F8042B01930BF024FC3B
:1031400003B05DF804EB02B070470000436C10B5AB
:10315000044673B3038F2BB9184B194AC52119487C
:103160001DF0D0FCC38E00EB43035B8C0BB30DF062
:1031700026FA238F012B03D8134B144ACB21EEE7F9
:10318000E28E531C9BB2092B194688BFA3F10A019A
:1031900004EB410140F63F10498C814209D10A2BD2
:1031A00004EB420228BF002304EB4303508C5884F5
:1031B00051842046BDE810400DF004B943240208B4
:1031C0004C240208F7240208412502084F25020872
:1031D0000DF0BFB838B518BB124B13481C68134923
:1031E000B4B1226822440260626822440A60A26884
:1031F00014440F4B00221A8000F02AF8054600F014
:1032000025F80C4B1C600C4B1D600C4B188007E024
:103210000B4B03600B4B0B600B4B1C68002CE8D175
:1032200038BD00BF381D0020301D00202C1D00209F
:10323000341D00205C2C0120642C0120602C012016
:10324000183C0208143C02081C3C0208002070478D
:10325000004870473C1D002010B5FFF7E1FE044C0C
:103260002060FFF719FF6060FFF79EFEA06010BDB1
:103270003C1D002010B5002404600C6014601C602C
:1032800010BD704710B54FF4AE7104461CF0FDFC44
:10329000204610BD10B50446D0F8580100F057FA8A
:1032A0002046BDE810400AF069BB000010B5044696
:1032B000FFF730FB014B2360204610BD6C2D020848
:1032C000704704387047704710B5102104461CF051
:1032D000DCFC204610BDA0F10400F5E7002282606E
:1032E000024A026018324260C1607047C02D020875
:1032F00070470000D0F81C312DE9F74F01330A2246
:10330000C0F81C31B3FBF2F102FB1133044633B9B0
:1033100090F82431B3FA83F35B0980F82431B4F8D0
:103320002021B4F822315949023202331BB212B2C1
:10333000002A08BF0A46B3F5A07F08BF0023A4F8FF
:103340002231A4F8CA30A4F8723094F82431A4F8D9
:103350002021A4F8F620A4F89E20002B72D0012B87
:103360007BD04B4D286803F011FD70B14FF0FF3357
:10337000286800220DF1070103F0D8FC9DF8073002
:10338000522B02D1434800F056FA434D286803F00F
:10339000FDFC70B14FF0FF33286800220DF10701EA
:1033A00003F0C4FC9DF807304C2B02D1394800F0E3
:1033B0003CFA3A4D374F286803F0E8FC002857D014
:1033C0004FF0FF33286800220DF1070103F0AEFC37
:1033D0009DF80730462B01D10123FB712D4E04F5DA
:1033E000AA7504F2C44A4FF0000B96F80E80B8F1AB
:1033F000020F3FD0B8F1030F45D0B8F1010F0ED145
:10340000B1462B6839F9081F9B6DB6F90A2028468A
:10341000984785F825800221484600F0C9F92C35E7
:10342000554506F11006E0D1B7F90220B7F90010B2
:1034300004F59470FDF787FF201D0BF0CFFB03B060
:10344000BDE8F08FFF2384F8183184F8EC30602356
:1034500084F8C03084F8943083E7FF2384F8C030C8
:1034600084F89430602384F8183184F8EC3078E7DD
:10347000F871B3E72B68B6F90A209B6DB6F908100E
:1034800028469847CBE785F825B0C8E7C0FEFFFF80
:10349000DC1900204C1D0020D8190020D419002070
:1034A00038B5094B036004464FF49365B5F5947F36
:1034B00005D0635960191B6898472C3DF6E72046F4
:1034C000FFF77DFA204638BDE82D020810B5044606
:1034D000FFF7E6FF204640F2C4411CF0D6FB204631
:1034E00010BD00002DE9F743044604F59475FFF77D
:1034F00099FA274B23604FF6FF7701A92846ADF8CC
:103500000470FFF773FA04F5AA7604F2C448304653
:1035100001A92C36ADF80470FFF768FA4645F6D1DC
:103520004FF6C063C4F820310023284684F82431C4
:1035300001A90823ADF80430271D08F04CFA2846ED
:103540004FF48C727021FFF744FA2946384605F093
:1035500075FB4FF4AA754FF0090940F2C44863594E
:1035600066191B6EADF8049001A9304698470022F9
:1035700011463046FFF72DFA2C353146384605F016
:103580005DFB4545EBD1204603B0BDE8F08300BFAD
:10359000E82D020800B58BB0FFF712FA20220021B7
:1035A00002A81DF0B6FC084B01934FF4804218238B
:1035B000CDE90623002101AA044803F053FA044B85
:1035C00018600BB05DF804FB21260208C138000822
:1035D000481D0020704704387047704710B510210F
:1035E00004461CF052FB204610BDA0F10400F5E794
:1035F00000228260024A026018324260C160704755
:103600001C2E02087047000010B5034B03600446EF
:10361000FFF712FB204610BD442E020810B50446E9
:10362000FFF7F2FF20464FF4CE711CF02EFB204630
:1036300010BD000010B50446FFF7BCFB064B23602D
:103640004FF6C063C4F894310023A4F89831FF23E7
:1036500084F89A31204610BD442E0208FFF7EDBAD7
:10366000D0F89031354A01335A43B2F1333FC0F8B4
:1036700090311DD8324A5343B3F1113F9FBF90F8A8
:103680009831B3FA83F35B0980F8983190F8993157
:1036900093B31F2B4FF0FF3318BF0023DBB280F82A
:1036A000993190F89A31FF2B28D11F2380F89A3155
:1036B000B0F89421B0F896312249023202331BB29D
:1036C00012B2002A08BF0A46B3F5A07F08BF002344
:1036D000A0F89631A0F8CA30A0F8723090F898316E
:1036E000A0F89421A0F8F620A0F89E205BB1012B51
:1036F00016D004300BF072BA1F23D0E71F2B0CBF7B
:103700000023FF23D2E790F8993180F8183180F830
:10371000EC3090F89A3180F8C03080F89430E8E7C7
:1037200090F8993180F8C03080F8943090F89A3150
:1037300080F8183180F8EC30DBE700BFCDCCCCCC82
:10374000EFEEEEEEC0FEFFFF002202607047704712
:1037500010B5044600F02AF80023236040F6030366
:10376000A3800323A3713C23A360204610BD70B542
:1037700004460E46154600F019F840F60303A380F0
:103780000123A3713C2326806580A360204670BD81
:103790004388053B43808368002B02DC032100F053
:1037A00007B8013B8360002BF8D070477047704723
:1037B0008171704770B50446FFF7F8FF0023E3718D
:1037C00004F1080504F5A47628461035FFF7C0FF7C
:1037D000B542F9D1034B236041F21003A380204688
:1037E00070BD00BF3200180170B5044600F5A47525
:1037F00000F10806B54204D0103D2846FFF7D7FF78
:10380000F8E72046FFF7D3FF204670BD38B500F13A
:10381000080500F5A474AB79022B02D12846FFF706
:10382000B7FF1035A542F6D138BD0388022B84BFFF
:10383000033B038070470388DD2B9CBF0333038069
:1038400070477FB50446002300F10E021E01915D12
:10385000032917D1628821886D460832063192B259
:1038600089B22846FFF783FF95E80F00344404F13E
:10387000080686E80F002846FFF799FF0123A37387
:1038800004B070BD0133142BE0D1F9E710B5044644
:10389000FFF790FF0023C4F84C31204610BDD0F84C
:1038A0004C310133062B10B50446C0F84C3106DD0F
:1038B000C3790BB1FFF7C5FF0023C4F84C3110BD2D
:1038C00008B5054C2046FFF7EAFF2046FFF79EFFAC
:1038D000102003F00BF9F5E74C1D00200148FFF71D
:1038E000D5BF00BF4C1D00200148FFF77DBF00BFC2
:1038F0004C1D0020F02070474FF4A0707047292025
:10390000FEF754BA2820FEF751BA08B5FEF722FA9E
:10391000CA20FEF74BFAC320FEF72CFA0820FEF768
:1039200029FA5020FEF726FACF20FEF73FFA0020B2
:10393000FEF720FAC120FEF71DFA3020FEF71AFA32
:10394000ED20FEF733FA6420FEF714FA0320FEF7A9
:1039500011FA1220FEF70EFA8120FEF70BFAE8208A
:10396000FEF724FA8520FEF705FA0020FEF702FA9A
:103970007820FEF7FFF9CB20FEF718FA3920FEF782
:10398000F9F92C20FEF7F6F90020FEF7F3F93420C0
:10399000FEF7F0F90220FEF7EDF9F720FEF706FA40
:1039A0002020FEF7E7F9EA20FEF700FA0020FEF7F4
:1039B000E1F90020FEF7DEF9B120FEF7F7F900206B
:1039C000FEF7D8F91B20FEF7D5F9B620FEF7EEF981
:1039D0000A20FEF7CFF9A220FEF7CCF9C020FEF7AF
:1039E000E5F91020FEF7C6F9C120FEF7DFF9102037
:1039F000FEF7C0F9C520FEF7D9F94520FEF7BAF960
:103A00001520FEF7B7F9C720FEF7D0F99020FEF792
:103A1000B1F93620FEF7CAF9C820FEF7ABF9F2205B
:103A2000FEF7C4F90020FEF7A5F9B020FEF7BEF9B5
:103A3000C220FEF79FF9B620FEF7B8F90A20FEF77C
:103A400099F9A720FEF796F92720FEF793F90420AD
:103A5000FEF790F92A20FEF7A9F90020FEF78AF96F
:103A60000020FEF787F90020FEF784F9EF20FEF72B
:103A700081F92B20FEF79AF90020FEF77BF9002050
:103A8000FEF778F90120FEF775F93F20FEF772F98D
:103A9000F620FEF78BF90120FEF76CF90020FEF707
:103AA00069F90620FEF766F92C20FEF77FF9C82099
:103AB000FEF7CAF92620FEF779F90120FEF75AF938
:103AC000E020FEF773F90F20FEF754F92920FEF7E6
:103AD00051F92420FEF74EF90C20FEF74BF90E2089
:103AE000FEF748F90920FEF745F94E20FEF742F9A6
:103AF0007820FEF73FF93C20FEF73CF90920FEF75D
:103B000039F91320FEF736F90520FEF733F91720AF
:103B1000FEF730F91120FEF72DF90020FEF72AF903
:103B2000E120FEF743F90020FEF724F91620FEF706
:103B300021F91B20FEF71EF90420FEF71BF91120C6
:103B4000FEF718F90720FEF715F93120FEF712F9F4
:103B50003320FEF70FF94220FEF70CF90520FEF79F
:103B600009F90C20FEF706F90A20FEF703F92820D0
:103B7000FEF700F92F20FEF7FDF80F20FEF7FAF808
:103B80001120FEF713F9C820FEF75EF92920FEF791
:103B90000DF9BDE808402C20FEF708B908B5FEF77E
:103BA000D9F80321D320FEF71DF980B208BD10B566
:103BB000C4B2022203212046FEF782F80A20FEF753
:103BC000C7F8204600220321FEF77AF8BDE810402E
:103BD0000220FEF7BDB838B50446E4B2FEF76EF831
:103BE00000212046FEF784F8012105462046FEF715
:103BF0007FF840EA052080B238BD10B5C4B240213C
:103C00002046FEF775F8030607D54C212046FEF73F
:103C10006FF8003818BF012010BD01224B2120464B
:103C2000FEF74EF8204600224B21FEF749F800200F
:103C3000F2E773B50423C4B20E461546D7210DEB47
:103C400003022046FEF76EF8019B1BBA1A0DC3F360
:103C50000B23328020462B8001224B21FEF730F8C7
:103C600000224B212046FEF72BF802B070BD000069
:103C700010B50A4A1378984204460DD0517888420C
:103C80000AD00BB141B90123D454FEF717F82046EE
:103C9000BDE81040FFF78BBF10BD00BF9C1E002089
:103CA00010B5C4B209212046FEF722F840F0010207
:103CB000D2B220460921BDE81040FEF701B810B588
:103CC000C4B209212046FEF713F8092100F0FE02D4
:103CD0002046BDE81040FDF7F3BF38B5C4B20D462D
:103CE00020460A21FEF704F840EA0502D2B2204637
:103CF0000A21BDE83840FDF7E3BF10B50446FDF7E3
:103D0000DEFF20461F21FFF7E8FF2046BDE81040F8
:103D1000FFF7C6BF38B5C4B20D4620460A21FDF7ED
:103D2000E7FF20EA0502D2B220460A21BDE838406A
:103D3000FDF7C6BF10B50446FFF7C1FF20461F219F
:103D4000BDE81040FFF7E6BF10B5C0B20C460B212E
:103D5000FDF7CEFF204010BD1F21FFF7F5BF0A463B
:103D6000C0B20B21FDF7ACBF1F21FFF7F8BF38B57C
:103D7000C4B20D4620461721FDF7BAFF20EA05021E
:103D8000D2B220461721BDE83840FDF799BF70B583
:103D9000C4B2064604212046FDF7AAFF042100F024
:103DA000FB0205462046FDF78BFF3046F021FFF76A
:103DB000DEFF05F0F80220460421FDF781FF4922CD
:103DC00020212046FDF77CFF0220FDF7C1FF2046A1
:103DD00001222121FDF774FF20469A224121FDF79F
:103DE0006FFF204601224A21FDF76AFF204601228B
:103DF0004B21FDF765FF204600224B21FDF760FFB8
:103E0000204601225621FDF75BFF20460122582162
:103E1000FDF756FF204601224021FDF751FF2046C5
:103E2000FF220B21FDF74CFFBDE870400220FDF79B
:103E30008FBF0000054BD3F8882042F47002C3F80E
:103E400088204FF000629A60704700BF00ED00E0EC
:103E500008B50B4B1A6842F400721A601A6842F4F3
:103E600080621A601A6842F480721A60032000F0BF
:103E700045FA0020FEF792FAFDF7F4FF002008BD96
:103E8000003C0240034A044B11681B780B4413604A
:103E9000704700BFA01E002078000020014B18686A
:103EA000704700BFA01E002038B50446FFF7F6FF9C
:103EB000631C1CBF054B1B78054618BFE418FFF7B1
:103EC000EDFF431BA342FAD338BD00BF78000020AA
:103ED00038B50446002800F09B80056C25B9FDF735
:103EE000E1FF656484F83C50236CDB0600F18E80B2
:103EF000236C23F4885323F0020343F0020323646A
:103F0000444B5A6822F440325A605A6861680A4346
:103F10005A60236821695A6822F480725A605A688C
:103F200042EA01225A605A68A16822F040725A603F
:103F30005A680A435A609A68E16822F400629A60FB
:103F40009A680A439A603449A26A8A4252D09968B0
:103F500021F07061996099680A439A609A68E16AF1
:103F600022F040529A609A680A439A609A6822F056
:103F700002029A609A68217E42EA41029A6094F8AD
:103F80002020002A3ED05A68616A42F400625A60DA
:103F90005A6822F460425A605A68013942EA413252
:103FA0005A60DA6AE16922F47002DA62DA6A013987
:103FB00042EA0152DA629A6822F400729A609A68C0
:103FC00094F8301042EA41229A609A68616922F4BA
:103FD00080629A609A68002042EA81229A60606456
:103FE000236C23F0030343F001032364002384F8CC
:103FF0003C3038BD9A6822F070629A609A6822F06C
:104000004052B2E75A6822F40062C9E70120EDE7A6
:104010000120EEE7002301400100000F82B00023E1
:10402000019390F83C30012B69D0012380F83C309B
:1040300003689A68D2070BD59A68D1071AD4036C23
:1040400043F010030364436C43F0010343644CE00A
:104050009A682C4942F001029A602B4A1268B2FB1E
:10406000F1F202EB42020192019A002AE4D0019A95
:10407000013AF8E7026C22F4E06222F0010242F415
:10408000807202645A68520541BF026C22F44052A9
:1040900042F480520264026C12F480521CBF426CE3
:1040A00022F006024264002280F83C206FF02202D7
:1040B0001A60164A516811F01F0F15491CD18B4226
:1040C00007D001F580718B420CD1526812F01F0F9E
:1040D0000BD19A6812F0405F07D19A6842F0804293
:1040E0009A6002E00B498B4202D0002002B0704778
:1040F000526812F0100FEBE78B42F6D1E9E702208D
:10410000F4E700BF40420F0074000020002301408C
:10411000002001400022014003689A68520570B5F2
:1041200004460D460BD59B68DE0508D5036C43F0AD
:1041300020030364002380F83C30012070BDFFF7AA
:10414000ADFE064623681A6891070CD56FF012027F
:104150001A60226C42F4007222649A6812F0405F86
:1041600017D00020EAE7681CEDD065B923681B680A
:1041700013F00203E6D1226C84F83C3042F00402D2
:1041800022640320DAE7FFF789FE801BA842EDD8FE
:10419000D8E7227E002AE4D1DA6A12F4700F02D046
:1041A0009B685A05DDD4236C23F480732364236C4D
:1041B000DB04D6D4236C43F001032364D1E7036806
:1041C000D86C7047F7B50023019390F83C30012B71
:1041D000054600F08680012380F83C3008682B6893
:1041E0008E68092884B233D904EB4402DF681E3A92
:1041F0004FF0070C0CFA02FC27EA0C07DF60DF68BF
:1042000006FA02F23A43DA604968062901EB8102B4
:104210002DD8596B053A1F26964021EA06015963AD
:10422000596B04FA02F20A435A632F4A93420AD1A5
:10423000122837D12D4B5A6822F400025A605A686E
:1042400042F480025A60002085F83C0003B0F0BDC3
:104250001A6900EB400C072707FA0CF722EA07025D
:104260001A611A6906FA0CF616431E61CCE70C298E
:104270004FF01F010BD81E6B233A914026EA010133
:104280001963196B04FA02F20A431A63CDE7DE6A76
:10429000413A914026EA0101D962D96A94400C431F
:1042A000DC62C2E7124B984201D01128CBD10F4BF0
:1042B0005A6822F480025A605A6842F400025A6036
:1042C0000B4B9842BFD10B4B0B4A1B68B3FBF2F36D
:1042D0000A2253430193019B002BB4D0019B013B65
:1042E000F8E70220B2E700BF0020014000230140B0
:1042F000120000107400002040420F000749CA68F5
:1043000022F4E0620302120403F4E063120C13438C
:1043100043F0BF6343F40033CB60704700ED00E02F
:10432000164B30B5DC68C4F30224C4F10703251D25
:10433000042B28BF0423062D4FF0FF358CBF033C10
:10434000002405FA03F321EA0303A54022EA05024B
:10435000A340002843EA0203ACBF00F16040084AD2
:104360004FEA0313B8BF00F00F00DBB2AABF00F59D
:104370006140135480F8003330BD00BF00ED00E011
:1043800014ED00E0002807DB044A4109012300F096
:104390001F00834042F82130704700BF00E100E079
:1043A00010B5044650B1437903F0FF0213B902710E
:1043B000FDF7AAFD01236371002010BD0120FCE779
:1043C00010B5044620B390F8393003F0FF021BB952
:1043D00080F83820FDF7B0FD022384F839302368D7
:1043E00061681A6822F440320A431A605A6BA16865
:1043F00022F007020A435A631A6CE1686FF30D0258
:104400000A431A6400200123E06384F8393010BDA8
:104410000120FCE770477047036870B55E681D684F
:10442000F207044614D5E90512D51A6822F4807201
:104430001A60C26B42F00102C26301229A60042337
:1044400080F83930002380F83830436903B1984749
:10445000B20616D5AB0414D523681A6822F40052AC
:104460001A6020229A60E36B43F00203E3630423A3
:1044700084F83930002384F8383063690BB1204662
:104480009847300716D5290514D523681A6822F4F1
:1044900000621A6008229A60E36B43F00403E3634E
:1044A000042384F83930002384F8383063690BB171
:1044B0002046984772070BD56B0509D523681A6803
:1044C00022F480621A6004229A602046FFF7A2FF5D
:1044D000B00714D5A90512D523681A6822F4007212
:1044E0001A6002229A60E36BE363012384F8393097
:1044F000002384F8383023690BB120469847F20630
:1045000013D5EB0411D523681A6822F480521A607F
:1045100010229A60E36BE363012384F839300023AF
:1045200084F838302046FFF776FF70BDF0B590F87C
:104530003820012A03464FF002002BD0012283F8D5
:10454000382083F8390003EB0112D2E90740556A9D
:10455000174F44EA0040093C012C9CBF05F07F4204
:1045600010434FEA01161A6888BF40EA056091B906
:10457000516A394001435162012C9969916103D814
:10458000596A21F07F4191620122002083F839208D
:1045900083F83800F0BDD16939400143D1619919E0
:1045A000012C896911619CBF25F07F451562EBE7FD
:1045B000F0FFFC002DE9F74FDFF8BC916C4A0023B7
:1045C0000D6801249C4004EA0506AC4340F0B78026
:1045D0004D68032705F003044FEA430807FA08FC77
:1045E000671E012F6FEA0C0C34D8876807EA0C0E9F
:1045F000CF6807FA08F747EA0E078760476827EA97
:10460000060EC5F300179F4047EA0E074760C768CC
:1046100007EA0C0E8F6807FA08F747EA0E07022C24
:10462000C76019D14FEAD30A00EB8A0A03F0070BDF
:10463000DAF820704FEA8B0B4FF00F0E0EFA0BFEDC
:1046400027EA0E0E0F6907FA0BF747EA0E07CAF8BA
:10465000207001E0032CDAD1076804FA08F407EAB5
:104660000C073C4315F4403F046068D000240194DB
:10467000D9F8444044F48044C9F84440D9F844404F
:1046800023F0030707F1804704F4804407F59C37C3
:10469000019403F0030C019CD7F808E04FEA8C0C5E
:1046A0000F2404FA0CF42EEA040E324CA0424DD032
:1046B00004F58064A0424BD004F58064A04249D048
:1046C00004F58064A04247D004F58064A04245D040
:1046D00004F58064A04243D004F58064A04241D038
:1046E00004F58064A0423FD004F58064A0423DD030
:1046F00004F58064A04214BF0A24092404FA0CF4CF
:1047000044EA0E04BC609468F74315F4801F0CBFA4
:104710003C4034439460D46815F4001F0CBF3C4007
:104720003443D460546815F4003F0CBF3C4034431C
:1047300054601468ED0354BF3C40344314600133AB
:10474000102B7FF43DAF03B0BDE8F08F0024D5E718
:104750000124D3E70224D1E70324CFE70424CDE7E3
:104760000524CBE70624C9E70724C7E70824C5E7E3
:10477000003C014000000240003802400369194239
:1047800014BF0120002070470AB1816170470904FD
:10479000FBE7436901EA030221EA030141EA02411E
:1047A0008161704701684B6913F480634FF0000228
:1047B00010D06FF480634B612023026380F83D309A
:1047C00080F83E20036C80F83C2043F0040303642F
:1047D00001207047184670472DE9F84606460F46F7
:1047E00091461D464FEA114A3368BAF1010F0CBFDA
:1047F0005C699C6927EA0404A4B2B4FA84F46409ED
:10480000A14501D0002025E06A1CEED0FFF746FB51
:10481000089BC01AA84201D8002DE5D13368BAF12F
:10482000010F0CBF5B699B6927EA03039BB2B3FAD4
:1048300083F35B099945D7D100232022336386F89F
:104840003D2086F83E30326C86F83C3042F0200243
:1048500032640120BDE8F8862DE9F04104460F4698
:10486000164698462568686927EA000080B2C0B1FC
:104870006B695A0517D52B6843F400732B606FF4EE
:1048800080636B6120220023236384F83D2084F839
:104890003E30236C43F004032364002384F83C304F
:1048A0000120BDE8F081731CDDD0FFF7F7FAA0EB23
:1048B0000800B04201D8002ED4D123685A6927EAF3
:1048C000020292B2002ACDD000232022236384F872
:1048D0003D2084F83E30236C1343DDE770B5044679
:1048E0000D46164623685B691B0601D500201EE0B5
:1048F0002046FFF757FFC8B96A1CF3D0FFF7CEFA7E
:10490000801BA84201D8002DECD123685B6913F00D
:104910008003E7D12022236384F83D2084F83E30D1
:10492000226C84F83C3042F020022264012070BDE9
:104930002DE9F0431546026885B0DDE90C7899460B
:10494000136843F4807313600E463B46CDF8008035
:1049500000224FF001110446FFF73EFF236838B1F3
:104960001B68DB0502D54FF400732364032620E0A7
:1049700006F0FE061E611A4943463A462046FFF7F6
:104980006BFFA8B9236803905A6903929B6903934C
:10499000424639462046039BFFF7A0FF064660B11A
:1049A000236C042B01BF2268136843F40073136067
:1049B0000126304605B0BDE8F083B9F1010F236848
:1049C00002D1EDB21D61F4E72A0A1A613946424666
:1049D0002046FFF783FF0028E2D12368F1E700BFFC
:1049E000020001002DE9FF479A46036815461A6840
:1049F00042F480621A601A68DDE90C7842F4807231
:104A00001A600E463B46CDF8008000224FF001119F
:104A10000446FFF7E1FE236838B11B68DB0544BF9D
:104A20004FF400732364032021E05FFA86F906F057
:104A3000FE061E612B4943463A462046FFF70CFF0F
:104A4000A0B9236803905A6903929B690393424675
:104A500039462046039BFFF741FF58B1236C042BD6
:104A600001BF2268136843F400731360012004B08F
:104A7000BDE8F087BAF1010F23681AD1EDB24246C2
:104A80001D6139462046FFF729FF02460028E5D17F
:104A900021680B6843F480730B602046CDF80080DA
:104AA0003B464FF00111FFF797FE226860B1136893
:104AB000B4E72A0A1A61394642462046FFF70EFF3C
:104AC0000028CBD12368D9E749F0010313610549D8
:104AD00043463A462046FFF7BFFE003818BF012084
:104AE000C5E700BF0200010070B504460D4616463A
:104AF00023685B695B0701D500201EE02046FFF7B5
:104B000051FEC8B96A1CF3D0FFF7C8F9801BA84250
:104B100001D8002DECD123685B6913F00403E7D1C1
:104B20002022236384F83D2084F83E30226C84F8F0
:104B30003C3042F020022264012070BD70B5044672
:104B40000D46164621684B6913F0400301D0002042
:104B500011E04A69D2060FD56FF010024A61202297
:104B6000236384F83D2084F83E30236C23640023C3
:104B700084F83C30012070BDFFF790F9801BA842FB
:104B800001D8002DDED123685B6913F04003D9D131
:104B90002022236384F83D2084F83E30236C1343A5
:104BA000E4E7000070B5044608B9012070BD90F834
:104BB0003D3003F0FF021BB980F83C20FDF7DEF921
:104BC000242384F83D3023681A6822F001021A6019
:104BD0001A6842F400421A601A6822F400421A600D
:104BE00000F0A8FE3F4B65689D4294BF3E4B3F4B93
:104BF00098428CBF00230123002BD6D12268394E66
:104C000051683B4BB0FBF3F321F03F011943B54230
:104C1000516088BF4FF49676116A88BF734321F0C4
:104C20003F0184BF4FF47A76B3FBF6F301330B43B5
:104C30001362D169431E2B4821F44F41854221F074
:104C4000FF0132D86D0040F6FC70B3FBF5F3013381
:104C5000034242D0C3F30B031943D161D4E90730B7
:104C60001168034321F0C0010B4313609168D4E93C
:104C7000030321F40341034321F0FF010B4393603D
:104C8000D4E90530D168034321F0FF010B43D36021
:104C9000136843F00103136000202023206484F88C
:104CA0003D30206384F83E0080E7A06850B905EBF2
:104CB0004505B3FBF5F30133C3F30B037BB143F4B9
:104CC0000043C9E719206843B3FBF0F30133C3F392
:104CD0000B0323B143F44043BEE70423BCE70123A5
:104CE000BAE700BFA08601007F841E00FF083D00D8
:104CF00040420F002DE9F743044699460C9E0F46AB
:104D00009046FFF7CBF894F83D30202B054603D0B2
:104D1000022003B0BDE8F08300903C491923012232
:104D20002046FFF759FD0028F2D194F83C30012BC2
:104D3000EED02068012384F83C300368D9075EBFB9
:104D4000036843F001030360036823F40063036016
:104D5000212384F83D30402384F83E30002323642F
:104D60000A9B6362BDF82C306385638D2385284BD5
:104D7000E3624246CDE900654B4639462046FFF7DF
:104D8000D7FD00282AD00120C3E7FFF7A7FD40B1D7
:104D9000236C042B01BF2268136843F40073136073
:104DA000F1E7636A27681A4612F8011B39616262EB
:104DB000628D218D013A92B262857A69481E80B275
:104DC000520720850AD548B15A783A6102336362A6
:104DD000638D013B02399BB221856385238D2A4671
:104DE00031462046002BD0D1FFF77EFE0028CFD1E0
:104DF0002268136843F400731360202384F83D3065
:104E000084F83C0084F83E0083E700BF02001000F5
:104E10000000FFFF2DE9F043044687B09946109F3C
:104E20000D469046FFF73AF894F83D30202B0646A1
:104E300004D00225284607B0BDE8F08300907A49E7
:104E4000192301222046FFF7C7FC0028F1D194F86E
:104E50003C30012BEDD02068012384F83C300368FE
:104E6000DB075EBF036843F001030360036823F4BC
:104E700000630360222384F83D30402384F83E30F1
:104E8000002323640E9B6362BDF83C306385638D11
:104E90002385664BE3622946CDE900764B464246C0
:104EA0002046FFF79FFD054608B10125C2E7228D88
:104EB0002368B2B902905A6902929A690292029AE0
:104EC0001A6842F400721A60DFF86481238D002BA7
:104ED0002CD1202284F83D2084F83C3084F83E30E8
:104EE000A8E7012A0AD11A6822F480621A600390A6
:104EF0005A6903929A690392039AE1E7022A0ED152
:104F00001A6822F480621A601A6842F400621A6019
:104F100004905A6904929B690493049BD4E705901A
:104F20005A6905929B690593059BCDE7032B56D8DB
:104F3000012B15D1324639462046FFF7FFFD0028E8
:104F4000B3D123681A69636A1A70636A01336362B2
:104F5000238D013B2385638D013B9BB26385B5E7C0
:104F6000022B00963B464FF000024146204619D1E5
:104F7000FFF732FC002898D123681A6842F40072C7
:104F80001A601A69636A1A70626A531C6362238D1D
:104F9000013B2385638D013B9BB2638523681B69BD
:104FA0005370D2E7FFF718FC024600287FF47DAF6C
:104FB0002368196821F4806119601969636A19709E
:104FC000636A01336362238D013B2385638D013B5B
:104FD0009BB26385414600963B462046C8E7324671
:104FE00039462046FFF7AAFD00287FF45EAF23680C
:104FF0001A69636A1A70628D616A013A92B24B1C37
:10500000628522686362238D5069013B9BB2400731
:1050100023857FF55BAF032B02BF136823F4806306
:10502000136013694B7090E7020010000000FFFF4F
:105030000400010010B590F83D30202BDCB216D1F1
:10504000242380F83D3003681A6822F001021A60B8
:105050005A6A22F010025A625A6A114359621A6857
:1050600042F001021A6080F83D40002010BD02208D
:10507000FCE730B590F83D30202BDCB216D1026849
:10508000242380F83D30136823F001031360556A30
:105090004FF6F0732B400B439BB25362136843F0FF
:1050A0000103136080F83D40002030BD0220FCE782
:1050B0000068D1F800C0D201843283182DE9F04392
:1050C000C6685D684C68D1F8189005F470455D605D
:1050D000C5680CF10107C5F30B45C6F30B46264422
:1050E0003D4445EA06455D60C668CD68C6F30A06DC
:1050F0002E449D6805F470459D60C7688D68C7F3B0
:105100000A0701353D4445EA06459D601D690E6963
:1051100025F007051D614FF0000E1E6191F83270F9
:105120009D6991F83180C3F818E091F8305045EA54
:10513000096545EA082545EA07459D615D6925F051
:10514000FF055D614D695D61DD6925F4E06525F070
:105150000705DD61D1E907573D43DD619D6A4D6A71
:10516000C3F828E0072E9D629CBF0E4DAE5DDD6A40
:1051700005F0E025DD6288BF01268D6AC96AA4EBCF
:105180000C0474437543033444EA0544DC621C6B2D
:105190006FF30A041C631963835843F001038350BF
:1051A000BDE8F083882E020838B50446002863D095
:1051B00090F8A13003F0FF021BB980F8A020FCF7A3
:1051C00039FF022384F8A13023689A6922F07042E3
:1051D0009A61D4E901200243E06899690243206999
:1051E00002430A439A619A68244960690A409A60B6
:1051F0009A6842EA0042A06902439A60DA68E0696C
:105200000A40DA60DA6842EA0042206A0243DA6061
:105210001A69606A0A401A611A6942EA0042A06A81
:1052200002431A615A690A405A615A69E16A42EABC
:105230000142216B0A435A61DA6A94F8350094F806
:10524000361002F07F42DA62DD6A94F834202A4395
:1052500042EA002242EA0142DA625A6B42F0060256
:105260005A639A6942F001029A6100200123C4F84E
:10527000A40084F8A13038BD0120FCE700F800F05C
:1052800070477047036870B59E6B5D6B720704468C
:1052900014D5690712D55A6B22F004025A6304220E
:1052A000DA63D0F8A43043F00103C0F8A43000233F
:1052B00080F8A12080F8A030FFF7E2FFB20716D5F2
:1052C000AB0714D523685A6B22F002025A630222FC
:1052D000DA63D4F8A4301343C4F8A430042384F868
:1052E000A130002384F8A0302046FFF7C9FFF00763
:1052F00010D5E9070ED523685A6B22F001025A63D4
:105300000122DA63002384F8A12084F8A03020462B
:10531000FCF782F9320711D52B070FD523685A6B9A
:1053200022F008025A630822DA63012384F8A130CC
:10533000002384F8A0302046FFF7A3FF70BD2DE9BD
:10534000F04190F8A030012B06460F4694464FF0EE
:1053500002001FD04FF0010886F8A08086F8A10057
:1053600034240D4604FB02640FCD38340FC40FCD36
:105370000FC40FCD0FC42B682360304662463946F8
:10538000FFF796FE33680020C3F8248086F8A180DA
:1053900086F8A000BDE8F08190F8A020012A03461D
:1053A0004FF0020012D01A6883F8A100506B20F071
:1053B0000100506306480164516B41F001015163E3
:1053C0000020012283F8A12083F8A000704700BFCD
:1053D0000068014037B500230193184B184D1A6C33
:1053E00042F080521A641B6C03F080530193019BBE
:1053F000144B01221A64FEF751FD04466B68DA0370
:105400000BD5104B0E4D01225A64FEF747FD0446A2
:105410006B689B030AD5002006E0FEF73FFD001BEA
:10542000B0F57A7FEAD9032003B030BDFEF736FD30
:10543000001BB0F57A7FEBD9F5E700BF00380240DA
:105440000070004000000E422DE9F341044640B3D5
:105450000368DE0710D423689D075BD4236819070F
:1054600000F19D8023685A0700F1BD80A369002BDD
:1054700040F0248100202CE08D4B9A6802F00C0251
:10548000042A07D09A6802F00C02082A0BD15B6844
:10549000590208D5864B1B689A03DCD56368002B3C
:1054A000D9D1012015E06368814DB3F5803F13D158
:1054B0002B6843F480332B60FEF7F0FC7C4E0546EE
:1054C00033689B03C7D4FEF7E9FC401B6428F7D977
:1054D000032002B0BDE8F081B3F5A02F04D12B6802
:1054E00043F480232B60E3E72A6822F480322A60A9
:1054F0002A6822F480222A60002BDDD1FEF7CEFC40
:1055000006462B689F03A6D5FEF7C8FC801B6428BF
:10551000F7D9DDE7664B9A6812F00C0F07D09A684E
:1055200002F00C02082A11D15B685D020ED4604AB9
:105530001368990702D5E368012BB2D1136821697A
:1055400023F0F80343EAC103136087E7E268594B8D
:10555000B2B101221A60FEF7A1FC554D06462B6838
:105560009B0707D52B68226923F0F80343EAC2039F
:105570002B6073E7FEF792FC801B0228EFD9A7E7A8
:105580001A60FEF78BFC4A4E054633689F077FF58D
:1055900065AFFEF783FC401B0228F6D998E76269E5
:1055A000444B82B10122C3F8802EFEF777FC404EB7
:1055B0000546736F9B073FF555AFFEF76FFC401B29
:1055C0000228F6D984E7C3F8802EFEF767FC384E30
:1055D0000546736F9F077FF545AFFEF75FFC401BE5
:1055E0000228F6D974E7324B1A6C12F0805228D197
:1055F00001921A6C42F080521A641B6C03F08053C3
:105600000193019B01272C4D2B68D8051BD5A3685E
:10561000274D012B27D12B6F43F001032B67FEF79A
:105620003DFC234E054641F28838336F9A0739D541
:10563000002F3FF41BAF1E4A136C23F080531364FA
:1056400014E70027DFE72B6843F480732B60FEF735
:1056500025FC06462B68D905D9D4FEF71FFC801B14
:105660000228F7D934E7052B04D12B6F43F004034C
:105670002B67D0E72A6F22F001022A672A6F22F0F7
:1056800004022A67002BCAD1FEF708FC41F28838D1
:1056900006462B6F9B07CBD5FEF700FC801B4045D1
:1056A000F7D915E7FEF7FAFB401B4045BDD90FE7D8
:1056B000003802400000474200700040374DAA68A1
:1056C00002F00C02082A3ED0022B354B4FF00002AC
:1056D0001A662BD1FEF7E2FB06462B6899011FD410
:1056E000D4E907321343626A43EA8213E26A43EA67
:1056F0000263A26A5208013A43EA02436B60284BF4
:10570000264D01221A66FEF7C9FB04462B689A0152
:105710003FF5B0AEFEF7C2FB001B0228F6D9D7E674
:10572000FEF7BCFB801B0228D7D9D1E6FEF7B6FBFB
:1057300004462B689B017FF59DAEFEF7AFFB001B77
:105740000228F6D9C4E6012B3FF4ABAE6B68E269E0
:1057500003F4800191427FF4A4AE216A03F03F027A
:105760008A427FF49EAE616A47F6C0721A40B2EB7D
:10577000811F7FF496AEA26A520803F44031013AC9
:10578000B1EB024F7FF48DAEE26A03F07063B3EBCE
:10579000026F14BF012000209BE600BF00380240CA
:1057A00000004742134908B58B6803F00C03042B33
:1057B0001CD0082B1CD14A684B68496813F480033D
:1057C00014BF0D480D48C1F3881118BF002302F023
:1057D0003F02A1FB0001FAF7ABFD064B5B68C3F388
:1057E000014301335B00B0FBF3F008BD0248FCE766
:1057F0000248FAE70038024000127A000024F40060
:105800002DE9F0410D46044610B90120BDE8F081B4
:10581000434B1A6802F00F028A4228D321688F078F
:105820002DD4C80740D43E4B1A6802F00F02AA429A
:1058300065D8226851076BD4130707D5394A216907
:10584000936823F4604343EAC1039360FFF7AAFF20
:10585000344B354A9B68C3F30313D35CD840334BB6
:105860001860334B1868FCF799FD0020CEE7CAB2E8
:105870001A701B6803F00F038B42C6D1CEE7294B89
:1058800011F0040F1EBF9A6842F4E0529A600E07AE
:1058900042BF9A6842F460429A609A68A06822F017
:1058A000F00202439A60BCE762681E4B012A1CD1D9
:1058B0001B6813F4003FA8D01A4EB36823F003030B
:1058C0001343B360FEF7EAFA41F288380746B3683B
:1058D000626803F00C03B3EB820FA4D0FEF7DEFA8C
:1058E000C01B4045F3D9032090E7911E01291B6896
:1058F00002D813F0007FDEE713F0020FDBE7EAB215
:105900001A701B6803F00F03AB427FF47EAF90E781
:105910000449E0688B6823F4E05303438B608BE712
:10592000003C024000380240782E0208740000203B
:105930007C000020044B054A9B68C3F38223D35CA0
:10594000034A1068D840704700380240702E0208A1
:1059500074000020044B054A9B68C3F34233D35CB8
:10596000034A1068D840704700380240702E020881
:10597000740000200F2303600B4B9A6802F00302AF
:1059800042609A6802F0F00282609A6802F4E05283
:10599000C2609B68DB0803F4E0530361034B1B68A0
:1059A00003F00F030B60704700380240003C0240D8
:1059B000036813F0430FF7B5044640F0888023686E
:1059C00013F00C0F45D08C4B8C4D00221A67FEF75C
:1059D00065FA06462B68990000F1CB8021684A07DA
:1059E00015D5D4E90403D5F888201B0602F0E0425F
:1059F00043EA80131343C5F88830D5F88C30226A07
:105A000023F4F853013A43EA0223C5F88C300B071C
:105A100014D57A4AA369D2F8881020691B0701F0CF
:105A2000706143EA80130B43C2F88830D2F88C309F
:105A3000616A23F440330B43C2F88C306E4B6F4ED7
:105A400001221A67FEF72AFA054633689F0040F1E3
:105A500097802368980634D500230193674B684DDF
:105A60001A6C42F080521A641B6C03F0805301934D
:105A7000019B2B6843F480732B60FEF70FFA0646F8
:105A80002B68D80540F183805C4DA26A2B6F13F41C
:105A9000407340F08380A36A03F44072B2F5407F04
:105AA000564A40F09E80916823F0704021F4F8112E
:105AB00020F4407001439160116FC3F30B030B435B
:105AC00013672368DB0600F1908000204FE04A4B0B
:105AD0004A4E00229A66FEF7E1F9054633681F0137
