:020000040800F2
:10000000000003205D060008812400088324000806
:1000100085240008872400088924000800000000C7
:10002000000000000000000000000000D17D00087A
:100030008B24000800000000617E0008D7760008CD
:10004000AD060008AD060008AD060008AD060008C4
:10005000AD060008AD060008AD060008AD060008B4
:10006000AD060008AD060008AD060008AD060008A4
:10007000AD060008AD060008AD060008AD06000894
:10008000AD060008AD0600088D240008AD06000886
:10009000AD060008AD060008AD060008AD06000874
:1000A000AD060008AD060008AD060008AD06000864
:1000B000AD060008AD060008AD060008AD06000854
:1000C000AD060008AD060008AD060008AD06000844
:1000D000AD060008AD060008AD060008AD06000834
:1000E000AD060008AD060008AD060008AD06000824
:1000F000AD060008AD060008AD060008AD06000814
:10010000AD060008AD060008AD060008AD06000803
:10011000AD060008AD06000899240008AD060008E9
:10012000AD060008AD060008AD060008AD060008E3
:10013000AD060008AD060008AD060008AD060008D3
:10014000AD060008AD060008AD060008AD060008C3
:10015000AD060008AD060008AD060008AD060008B3
:10016000AD060008AD060008AD060008AD060008A3
:10017000AD060008AD060008AD060008000000004E
:10018000AD060008AD060008AD060008AD06000883
:10019000AD060008AD060008AD060008AD06000873
:0C01A000A5240008AD060008B1240008EA
:1001B00010B5054C237833B9044B13B10448AFF3A1
:1001C00000800123237010BD800300200000000088
:1001D0003028020808B5034B1BB103490348AFF3AD
:1001E000008008BD000000008403002030280208C1
:1001F00001F0FF01102A2BDB10F0070F08D010F8D8
:10020000013B013A8B422DD010F0070F42B3F6D1DB
:10021000F0B441EA012141EA014122F007047FF0F4
:1002200000070023F0E80256083C85EA010586EA4B
:10023000010685FA47F5A3FA87F586FA47F6A5FA87
:1002400087F68EB9EED1F0BC01F0FF0102F0070293
:1002500032B110F8013B013A83EA010313B1F8D13E
:100260000020704701387047002D06BF354603381F
:10027000073815F0010F07D1013015F4807F02BF58
:10028000013015F4C03F0130F0BC0138704700BFA9
:100290007BB972B90029BEBF00204FF0004106E0D3
:1002A00008BF00281CBF6FF000414FF0FF3000F086
:1002B000D3B9ADF1080C6DE904CE002909DB002BA0
:1002C0001ADB00F04DF8DDF804E0DDE9022304B0AC
:1002D0007047404261EB4101002B1BDB00F040F80E
:1002E000DDF804E0DDE9022304B0404261EB4101A6
:1002F000524263EB43037047524263EB430300F007
:100300002FF8DDF804E0DDE9022304B0404261EBA0
:1003100041017047524263EB430300F021F8DDF8DE
:1003200004E0DDE9022304B0524263EB430370476B
:1003300053B94AB9002908BF00281CBF4FF0FF314C
:100340004FF0FF3000F088B9ADF1080C6DE904CE34
:1003500000F006F8DDF804E0DDE9022304B07047A0
:100360002DE9F047089D8E4604468846002B4AD169
:100370008A42174662D9B2FA82F64EB1C6F120031C
:1003800001FA06F820FA03F3B74043EA0808B4403C
:100390004FEA174E1FFA87FCB8FBFEF1230C0EFB49
:1003A000118843EA084301FB0CF29A4209D9FB1871
:1003B00001F1FF3080F0EA809A4240F2E780023992
:1003C0003B449A1AA3B2B2FBFEF00EFB102243EAA2
:1003D000024300FB0CFC9C4509D9FB1800F1FF32DD
:1003E00080F0D6809C4540F2D3803B44023840EAFE
:1003F0000140A3EB0C0300211DB1F3400022C5E92D
:100400000032BDE8F0878B4205D90DB1C5E9000186
:1004100000210846F5E7B3FA83F1002946D1734578
:1004200002D3824200F20581841A6EEB030201209E
:100430009046002DE5D0C5E90048E2E7002A00F02B
:100440009080B2FA82F6002E40F0A4808A1A030C43
:100450004FEA174E80B2BCB20121B2FBFEFC0EFB8C
:100460001C2243EA024304FB0CF29A4207D9FB1810
:100470000CF1FF3802D29A4200F2E080C4469B1A87
:10048000B3FBFEF20EFB123340EA034302FB04F41B
:100490009C4207D9FB1802F1FF3002D29C4200F2C5
:1004A000CA8002461B1B42EA0C40A5E7C1F12006A8
:1004B0008B4022FA06F71F430EFA01F420FA06F3E6
:1004C0002EFA06FE4FEA1749234300FA01F81FFAF5
:1004D00087FCBEFBF9F01C0C09FB10EE44EA0E444D
:1004E00000FB0CFEA64502FA01F209D93C1900F105
:1004F000FF3A80F09C80A64540F2998002383C4447
:10050000A4EB0E041FFA83FEB4FBF9F309FB1344BA
:100510004EEA044403FB0CFCA44508D93C1903F142
:10052000FF3E80F08280A4457FD9023B3C4443EAF1
:100530000040A4EB0C04A0FB02EC64457346E146CA
:1005400062D35FD05DB1B8EB030264EB090404FA37
:1005500006F622FA01F31E43CC40C5E900640021EF
:100560004FE7B1FBF2FC010C41EA0E4180B240EAD8
:1005700001423B4638463C46B846BE462026B1FBC3
:10058000F7F1A2EB080241EA0C4166E7014618E7E1
:1005900010462CE7C6F120022EFA02F3B740B14014
:1005A00020FA02F24FEA174E0A43B3FBFEF8BCB240
:1005B0000EFB1833110C41EA034108FB04F9B0406B
:1005C00089454FEA104380B23ED9791808F1FF3CC3
:1005D00001D289451FD8A1EB0901B1FBFEF909FB46
:1005E00004F80EFB191192B242EA0142424529D2A7
:1005F000BA1809F1FF31C4D24245C2D2A9F10201B1
:100600003A44BEE7F0459DD2BEEB02036CEB070C0B
:100610000138E14696E7A7EB09094944A8F1020C25
:10062000B1FBFEF909FB04F8DBE773467FE75046B0
:1006300066E70846FDE63B44023A33E7ACF1020CBC
:100640003B441CE749469CE7A1EB0901C446B1FBCA
:10065000FEF909FB04F8C4E7704700BFDFF834D0A7
:10066000002103E00C4B5B58435004310B480C4B0A
:1006700042189A42F6D30B4A02E0002342F8043BA8
:10068000094B9A42F9D304F001FA21F063FB01F01F
:10069000B1F8704700000320C0950C08000000204E
:1006A000640100208003002030710120FEE77047C4
:1006B00008B500F0BDFDBDE8084000F03FBD00F00A
:1006C000B9BD704710B50421044620F056F9204604
:1006D00010BD000038B50C4B0C4C18800C4B822020
:1006E00019806368984740F6110398420AD1094D72
:1006F00023682C60822098472B688220DB6898470B
:10070000002038BD0120FCE7A60300204C0000209B
:10071000A4030020A80300204FF4A071F020FFF7ED
:10072000D9BF0000F7B5394D2B6804461B698220FC
:100730009847208000284ED02B680DF106025B6997
:1007400001A982209847324B1B78002B4BD0BDF873
:10075000062040F674639A423FD9ADF80630BDF8E2
:1007600006209B1A9BB20A2B42D90B22B3FBF2F351
:10077000284A1288934201D9013A93B2BDF8042065
:10078000254840F6B8318A4234D8C2F571620E323B
:10079000016892B20F25B2FBF5F2204D2D88AA42D6
:1007A00084BF05F1FF35AAB28A4215468EB22AD916
:1007B000921B91B21A4E3768BB42BAB28CBF9A1ADA
:1007C000D21A92B211440529C4BF05603360036890
:1007D00063803368A38003B0F0BDB32A9CBFB4220A
:1007E000ADF80620BBE7BDF80630A3F5B473B9E752
:1007F0000023C3E7C2F56D62083292B20E2A016887
:10080000C8D800252A46891A89B2D3E7A803002050
:10081000682A0020A4030020A0030020A6030020D3
:100820009C03002037B568460D461446FFF77AFF53
:10083000BDF8000030B1BDF802302B60BDF80430C7
:100840002360012003B030BD032821D8DFE800F089
:10085000020B12190F4B1A68B2FA82F252090421E4
:100860000D4804F003BE0B4B5A68B2FA82F25209EB
:100870000821F5E7074B9A68B2FA82F25209102173
:10088000EEE7044BDA68B2FA82F252092021E7E778
:10089000704700BFAC03002000100240032821D89D
:1008A000DFE800F0020B12190F4B1A68003A18BF6C
:1008B000012204210D4804F0D9BD0B4B5A68003ABF
:1008C00018BF01220821F5E7074B9A68003A18BFC4
:1008D00001221021EEE7044BDA68003A18BF01222A
:1008E0002021E7E7704700BFAC0300200010024062
:1008F00003280DD8DFE800F00206080A04210548A5
:1009000004F0B9BD0821FAE71021F8E72021F6E745
:10091000704700BF0010024008B5032811D8DFE877
:1009200000F0020A0C0E0421074804F099FD431E52
:100930005842584108BD0821F6E71021F4E720216C
:10094000F2E70020F3E700BF0010024070B5084D49
:1009500000240126E0B2FFF7DFFF18B12B68012B5E
:1009600018BF2E600134052C05F10405F2D170BDCD
:10097000AC030020012380F8781080F879307047AC
:100980007047002070470000034B4164003918BFD6
:1009900001211970704700BFEF63012070470020EC
:1009A0007047836B0BB10846184770474FF6FF70CE
:1009B0007047406803689B691847704770477047E5
:1009C0007047704710B5044600F04AFD236803499C
:1009D000D3F890302046BDE810401847000000D002
:1009E00008B503680446D3F8843098472368204646
:1009F000DB6F984700F0ECF8236820465B6F984760
:100A0000292001F0DBF900F0E3F8236820465B6F52
:100A10009847F8E710B5044609F0F0FF2368204630
:100A2000D3F8BC30BDE81040184700F0FDBC00F022
:100A300001BD00F033BD00F0D3BC00F043BD00F0B9
:100A40004BBD00F0D7BC09F007BA10B584210446AD
:100A50001FF093FF204610BD10B590F8341090F8A9
:100A600078400C4B8C421A7809D03AB90A4A0B49A3
:100A70001488088810800C8001221A7010BD002A8A
:100A8000FCD0054A05491488088810800C80002293
:100A9000F3E700BFE8630120E4630120E66301207F
:100AA00070B50D46194635B9094B0A4A0A4840F255
:100AB000FF2120F09FFEC0E90F52084B003A18BFFB
:100AC00001221A700368BDE87040D3F890301847CF
:100AD000A0280208D828020826290208EE6301206F
:100AE00008B5094B1B888B4203D8084B1B889342DF
:100AF00005D9074B074A0848A32120F07BFE074B86
:100B00001980074B1A8008BDE4630120E6630120C9
:100B10006B290208CE29020826290208EA6301206F
:100B2000EC630120034690F87A0018B15868036816
:100B30001B68184770470000012108B500220846CD
:100B400006F052FE0A4B186028B90A4B0A4A2821BF
:100B50000A4820F04FFE00220421012006F0ECFE9E
:100B6000074B186018B9074B034A2C21F0E708BD62
:100B7000C0030020112A02085A2A0208892A020802
:100B8000BC030020C32A0208024B4FF0FF31186853
:100B900006F074BEC0030020014B186806F09ABE30
:100BA000C0030020024B0021186806F067BE00BF9A
:100BB000C0030020FFF7F0BF03480449006800238A
:100BC0001A4606F0F4BE00BFBC030020040000205B
:100BD00013B5084C00231A4601A9206806F018FF37
:100BE00020684FF0FF33002201A906F011FF02B088
:100BF00010BD00BFBC03002003685B6C18470120D8
:100C0000704703689B6A1847FEE740F2EF30704771
:100C1000054B0360054B4FF08062C3F88820BFF39B
:100C20004F8FBFF36F8F70479034020800E100E0F0
:100C300010B504464FF45A61FFF7EAFF20461FF053
:100C40009CFE204610BD000082B0002301930E4B95
:100C50001A6B42F400021A631A6B02F4000201924A
:100C6000019A1A6942F400021A611A6922F4000218
:100C70001A61064B064A1A61064A5A61064B4FF042
:100C800080629A6002B0704700380240442C002015
:100C9000E90E0008090C000800E100E008B50A2888
:100CA00009D8DFE800F006100E0808080810101038
:100CB0001000022008BD054B054A0648902120F08F
:100CC00099FD0020F6E70120F4E700BF052B02089C
:100CD000202B02086B2B020838B50C46887FFFF7E3
:100CE000DDFFA58AE28A164B2169586342EA054274
:100CF0005A64628BD963521B1A642568082D0ED181
:100D00009A611A615862207F0E4A42EA0062DA61F3
:100D1000E2681A620C4A5961D9601A6038BD002233
:100D2000D8611A61E1680A0A480902F4784200F4BD
:100D3000FC600243C1F3C4010A439A63034AECE72F
:100D400000B002400900010001230200012303005A
:100D500008B50B280BD8DFE800F00612100A0A0AC3
:100D60000A0808080808022008BD0520FCE7054B12
:100D7000054A06486F2120F03DFD0020F4E70120E0
:100D8000F2E700BF052B0208A32B02086B2B020819
:100D90002DE9F04191F81D800C464046FFF7D8FF41
:100DA000A77F05463846FFF7D3FF06463846FFF7CC
:100DB00075FFA18A628B444B521A1A649A61228B86
:100DC000521A1A61E28A586342EA01425A6421695E
:100DD0006268D963DA602068802828D0227F0FD823
:100DE000202867D0402865D004281AD0364B45EA21
:100DF000026545F40035B845DD6161D0334A44E011
:100E0000B0F5807F04D0B0F5007FEFD1304800E02E
:100E1000304840EA0262DA61E2681A625E62596151
:100E200032E045EA026242F40032DA61F6E7A06895
:100E3000021DDA62227F45EA026545F40035DD6174
:100E40005E625961017841B1012921D0224B234AC8
:100E500023484FF48D7120F0CDFCDA69418822F4EB
:100E60007F42013922F0100242EA0122DA610121B7
:100E7000154BDA6942F02002DA61DA699206FCD495
:100E800010229A600029B9D0164A1A60BDE8F08194
:100E9000B2F1FF01DA69408822F47F4200F1FF30AD
:100EA00022F0100242EA002242F0100218BF012193
:100EB000DA61DDE745EA0262034B42F40032B4E74F
:100EC00042F20132E1E700BF00B00240012301001D
:100ED000090002000A000200ED2B0208072C02089C
:100EE0006B2B020801230200024B1B685868036841
:100EF0005B691847F063012070B5044625460A4B2C
:100F00000C30002660602672667245F8203B602235
:100F1000294609F0C9FE04F55A63EE6024359D4266
:100F2000FBD1204670BD00BF90340208034B1A6805
:100F3000D207FCD423229A60704700BF00B0024061
:100F40007047000030B50F4C2568ED07FCD4232511
:100F50000904A56041F001010225FF2B656361646E
:100F6000E0630AD00849656241EA0363E361074B25
:100F700022626061E060236030BDE561039BA36392
:100F8000034BF8E700B00240090001000100020035
:100F90000100030030B50E4C2568ED07FCD4232575
:100FA0001204A56042F001020225FF2B6563626412
:100FB000E063E16008D01B0643F00213E361054BD8
:100FC00065626061236030BD034BE3610123F9E793
:100FD00000B0024001000200020002FF30B50B4CDD
:100FE0002568ED07FCD4232512041B06A56043F4F5
:100FF0000033022542F0010265636264E063E16050
:10100000E361034B65626061236030BD00B0024064
:1010100001000200012070470C2070470C2303FBE5
:101020000100083070470C2303FB010008307047B3
:101030000120704741F24C50704741F24C5303FB82
:1010400001000830704741F24C5303FB01000830A7
:101050007047012070471020704700EB01100830E6
:10106000704700EB011008307047084601F0AABC39
:1010700010B5034B0360044608F045FC204610BD44
:101080004835020810B50446FFF7F2FF2046142148
:101090001FF073FC204610BD10B5034B03600446DF
:1010A00008F031FC204610BD1435020810B5044686
:1010B000FFF7F2FF204641F254511FF05EFC20463C
:1010C00010BD000010B5034B0360044608F01BFC84
:1010D000204610BDE034020810B50446FFF7F2FFC9
:1010E000204618211FF049FC204610BD10B5084BC2
:1010F0000360044600F5AC50FFF7BAFF04F12C0082
:10110000FFF7CAFF04F11400FFF7DCFF204610BD13
:101110007C35020808B50248FFF7E8FF08BD00BFAC
:101120009C12002010B50446FFF7E0FF204641F274
:10113000F4611FF022FC204610BD00002DE9F341B0
:1011400001F01CFA054601F01DFA00240146234671
:1011500028462246009410F07DFB284B284A1A604E
:10116000204602F091F8274D274B284A28489A60DC
:1011700010F0D8FA2B68BFF35B8FDB0737D4284613
:101180001FF0FDFB98B3234C234B236004F5AC57B1
:1011900007F1180604F1140004F12C086060C4F88B
:1011A0000880E760266108F0AFFB1C4B6361404696
:1011B00008F0AAFB1A4BE362384608F0A5FB04F5D9
:1011C000805303F29450174AC3F8802502F0DAFEE8
:1011D000224607F11401304602F0C2F8304601F011
:1011E000F1FB114820F024FB28461FF0D4FB0F48E8
:1011F00002B0BDE8F041FFF7E5BB00BF5464012039
:101200004804002098120020680400204C040020AC
:10121000080000209C1200207C350208E0340208FF
:10122000143502084835020815110008C4030020CF
:10123000704700000148FFF7D3BB00BFC403002084
:1012400070B5264E264C274D274B23603046FFF7BE
:1012500053FE284615F004FC24480EF0EDFB244B09
:101260002448DC6000224FF48071C3E91212224945
:101270001A86C3E91A12214983F85820C3E91E01CE
:101280001F49C3F880101F491F480B60F021C3E9B4
:101290000422C3E90622C3E90822C3E90A22C3E9FA
:1012A0000E22C3E91022C3E91422C3E917225A66A9
:1012B00083F870205A67C3E90165018013480180F3
:1012C00013484FF4A07101801248018012490A703E
:1012D000012283F83420114A1A6070BDF404002002
:1012E0009412002068040020902802084C0400207A
:1012F000C4030020000001010100000100045000AF
:101300001A001400F0630120E4630120EA63012065
:10131000E6630120EC630120E8630120A4330208A6
:101320000148FFF775BC00BFF4040020002070479F
:1013300081807047C180704701817047418170474B
:101340007047704770477047704710B4C48803688F
:10135000121B84885B6D091B12B25DF8044B09B245
:1013600018474FF6FF7383814FF0FF330362136812
:10137000C36110607047002070478B888380012014
:101380007047704780F82610704790F82600704725
:1013900010B50022B1F90840B1F90A10028042806C
:1013A0008480C18010BD0022028042808280C28081
:1013B00070470177704780ED080A704780F8241065
:1013C000704780F8251070470120704798307047AB
:1013D0008C3070478430704770477047704700000A
:1013E000034B902283F85A2383F85823704700BF99
:1013F00000E100E0094A0A49D3680A48C3F30A0336
:10140000013B9BB20B801169C1F30A0101390180D4
:101410001364536B43F0010353637047006801404A
:101420009229002090290020014BD3F8AC0070478E
:1014300000680140024B0122C3F8AC105A627047A9
:101440000068014010B52C2104461FF096FA204692
:1014500010BD10B5BC2104461FF08FFA204610BD08
:1014600070B5044608F04DFD23689D6E0DF07CF8C4
:1014700001462046A8472368054AD3F88C502046E9
:10148000AC460023BDE87040A2F51631604700BFAE
:1014900000B004D008F01CBD08F026BD08F0E2BC86
:1014A00008F051BE90F8252012B103685B69184717
:1014B000704790F825201AB190F8242002B11860E6
:1014C00070470000034B4FF080629A604FF08072CB
:1014D0009A60704700E100E0084B4FF08062C3F86B
:1014E0008820BFF34F8FBFF36F8F4FF08072C3F828
:1014F0008820BFF34F8FBFF36F8F704700E100E08C
:1015000070B50023124E8380124B0360336893F84A
:10151000582005460AB1D86C00B998680368DB6AA0
:1015200098473368B0FA80F4D86C640930B1036826
:10153000DB6A9847002808BF44F001042CB9064B29
:10154000064A07482C2120F055F9284670BD00BFF7
:10155000F063012090350208452C0208A32C0208F4
:10156000DC2C020870B5254E3568BFF35B8F15F093
:10157000010540D130461FF002FA00283BD0204C34
:10158000204B256104F13400C4E90035C4E902555B
:10159000E584A562A5850EF034FD04F158000BF03A
:1015A00037F8194BA3652046184B40F8843BFFF7EA
:1015B000A7FF174BC4F884302433C4F88C304FF4A1
:1015C000C803C4E928350023C4F8AC30C4F8B030EF
:1015D000C4F8B430C4F8B8300E480F4BC4F890507B
:1015E000C4F89C50C4F8A850C4F8983020F020F9F2
:1015F00030461FF0D0F9024870BD00BF942900208A
:1016000098290020983E0208B035020828360208C2
:101610004C3E0208DD1300082C3E020838B5184C79
:1016200023685BB3174B184A1B6C11888B4216D189
:10163000164B198804F022FD236893F86A200025D0
:10164000013283F86A2083F87C50FFF7B5FA2068EE
:1016500009F0D4F92846BDE83840FFF7F5B804F0A2
:101660000DFD2468236820461B6A9847012384F8EF
:101670007C300020BDE83840FFF710B938BD00BF0E
:10168000F063012000680140922900209029002089
:1016900007B5064BADF806001B68054801220DF1A1
:1016A000060105F09BFA03B05DF804FB0C00002076
:1016B000F02A002007B51B4C1B4D2378012B12D1BB
:1016C0002B78DC2B23D9522318488DF807300022C1
:1016D0000A230DF10701006806F069F90023144898
:1016E000237003F0C7FA1348042103F0B9FE024641
:1016F00048B9114846238DF8073000680A230DF1D8
:10170000070106F054F9102006F062F8D5E71D2B0A
:10171000E4D84C238DF8073008480A2300220DF145
:101720000701D8E7582A0020592A0020642A0020FF
:101730008C2C0020001802405C2A0020602A002027
:1017400010B54FF0FF331446024892B205F0DDFEAB
:10175000204610BDA82A002030B595B010220021E7
:101760000AA820F04EFA1422002103A820F049FA1A
:1017700000241E4B01941A6C42F080521A641B6CB8
:1017800003F080530193019B194B02941A6842F4B1
:1017900040421A601B6803F4404302930122029BFB
:1017A0004FF48033CDE9082302254FF4800308214C
:1017B000CDE90E534FF4B473CDE9101308A80423F8
:1017C0001393129504F0B2FC04F076FC0F23CDE9DC
:1017D00003354FF4A0504FF48053CDE906030521A3
:1017E00003A8059404F07EFE15B030BD0038024019
:1017F000007000402DE980489BB003F055F9FFF7D9
:10180000ABFF142200210DA820F0FBF90024C84BE7
:1018100000941A6BC748DFF85883DFF8589342F0FA
:1018200010021A631A6B02F010020092009A0194DF
:101830001A6B42F020021A631A6B02F02002019226
:10184000019A02941A6B42F080021A631A6B02F03A
:1018500080020292029A03941A6B42F004021A6305
:101860001A6B02F004020392039A04941A6B42F07A
:1018700001021A631A6B02F001020492049A0594A1
:101880001A6B42F002021A631A6B02F0020205920E
:10189000059A06941A6B42F040021A631A6B02F022
:1018A00040020692069A07941A6B42F008021A63E5
:1018B0001B6B03F00803224607933C21079B03F0B0
:1018C000D5FD9D480122022103F0D0FD22469A4811
:1018D000042103F0CBFD224698484FF4405103F019
:1018E000C5FD01263C23CDE90D3692480F94032314
:1018F0000DA90227109303F0CFFC8F480DA9CDE965
:101900000D760425CDE90F4403F0C6FC8A480DA9E5
:10191000CDE90D56CDE90F4703F0BEFC4FF440531F
:1019200086480DA9CDE90D36CDE90F4703F0B4FC8B
:101930000DA983480F96CDE90D5403F0ADFC814805
:10194000814B824D036003F09DFB814B2C62C5E906
:10195000008328464FF48043C5E90434C5E90244B6
:10196000C5E9064403F090FF1021284604F0D4F99D
:1019700021462846774D04F0EEF94FF48273C5E90D
:1019800000934FF4007A1823C5E906A328460A23DA
:10199000C5E90244C5E90444C5E90844AC62EB6208
:1019A00005F0C0F88F232246394663488DF824306D
:1019B0008DF8344003F05AFD32464FF47A7309A98A
:1019C000284605F00BF94FF47A7332460DA92846E4
:1019D00005F0B0FA3246394657485F4D03F046FDF0
:1019E0009DF83430D32B04BF5C4B1E705C4B01263A
:1019F0004FF01008C5E9003640230024C5E90483F0
:101A00004FF4C073C5E906344FF40063C5E90834E8
:101A10004FF4005302274FF0040AAB624FF0030B60
:101A200007230DA92846CDE90D73CDE90FA34FF08B
:101A30000809C5E9024ACDE911B7139704F056FF2A
:101A40004FF6FF7209A92846CDE90A96089409962F
:101A50000C9404F06BFF304603F052F84FF6FF721F
:101A600009A92846CDE90979CDE90B6404F05EFFA8
:101A70004FF6FF7209A92846CDE909B9CDE90BA4B3
:101A800004F054FF4FF40C730893089B0C934FF62B
:101A9000FF7209A92846CDE909A90B9604F046FF73
:101AA00040F26A51284604F05FFF342221460DEBD4
:101AB000020020F0A6F82B4D2B4B2C61C5E9003419
:101AC0000923C5E905361D23C5E9073B40F20D1280
:101AD00040F24313C5E9092340F2171140F24713BE
:101AE0002846C5E90B13C5E90244AC8685F83640A3
:101AF00004F0CCF9FF21F022CDE912144FF48060FC
:101B000005214FF4A073CDE91401CDE90E240DA9F0
:101B1000CDE9164228462246144D1893CDE91037D8
:101B20000D94ADF864408DF8664004F07AFA23E035
:101B3000003802400010024000080240000C024041
:101B400000180240842C002000300240F02B0020BE
:101B5000A0860100F02A0020742A0020682A0020B4
:101B6000400100A0482B002000680140542A0020BA
:101B7000005C0040005001403F4B2B601B689847C1
:101B80002B683E4DDB6898473D4B2846C5E900343D
:101B9000C5E90274C5E90A47C5E90C4403F082FAB5
:101BA0003146284603F034FB424621460DA820F07A
:101BB00028F8344DDFF80CC12C614FF48033C5E9AF
:101BC00000C34FF00073AB6028462F4BAB622C76FE
:101BD00085F82040EC62EC60EE6185F830406E6183
:101BE00002F0A2FF0DA90D232846CDE90D360F9472
:101BF00003F058F9DFF8D0E024484FF4E133C0E9AE
:101C000000E30C23C0E90534C0E902440461C46167
:101C100005F04CFCFEF74CFDFEF749FD1C4B284639
:101C20001C7003F027F805F063FD1A4A3946404658
:101C300005F082FE184B194A18603946404605F0F7
:101C40007BFE174B174A18603946404605F074FE74
:101C5000154B164A18602146154805F075FD154BC1
:101C6000154A18602146154805F06EFD144B1860A2
:101C700005F050FDFEE700BF14000020442C0020BA
:101C800000B002408C2C00200100000FA82A002088
:101C9000582A00209C360208642A00208436020854
:101CA000602A00206C3602085C2A0020D836020820
:101CB000B5160008702A0020B4360208BF060008D6
:101CC0006C2A00200020014000100140704770473E
:101CD0007FB5094B8DF817201B6802930DF1170291
:101CE0000123009201930A460146044803F074FE62
:101CF00007B05DF804FB00BF10000020F02B0020AF
:101D00007FB500238DF81730084B1B6802930A46F5
:101D100001230DF11701009101930146044803F0DE
:101D2000EBFE9DF8170007B05DF804FB10000020E3
:101D3000F02B00201FB5084C24680092CDE9013437
:101D40000A4601230146054803F0D6FE003818BFB5
:101D5000012004B010BD00BF10000020F02B0020B7
:101D600002F0CEBE10B5064C00222046042103F03E
:101D70007DFB20460122BDE81040042103F076BB24
:101D80000008024038B50B4D044601220A484FF4C2
:101D9000005103F06BFB00220421284603F066FB90
:101DA0002046FFF775FC28460122BDE83840042193
:101DB00003F05CBB00080240000C024038B50B4D3C
:101DC000044600220A484FF4005103F04FFB002262
:101DD0000421284603F04AFB2046FFF759FC284619
:101DE0000122BDE83840042103F040BB0008024056
:101DF000000C0240F7B5144E144F05460C46304611
:101E00000022042103F032FB00224FF40051384637
:101E100003F02CFB2846FFF73BFC0D4B0D481B68DD
:101E2000224601A905F086F8384601224FF40051F8
:101E3000019C03F01BFB30460122042103F016FB3A
:101E4000204603B0F0BD00BF00080240000C024075
:101E50000C000020F02A002002F052BE08B5054B0D
:101E6000834206D102F08AFF034B1870034B012214
:101E70001A7008BD8C2C0020592A0020582A0020F6
:101E80000268034B9A4201D102F028BE704700BF9E
:101E9000001000407047000082B00E4B00220092FC
:101EA000596C41F480415964596C01F480410091AE
:101EB00000990192196C41F0805119641B6C03F078
:101EC00080530193019B0F216FF0010002B003F0DA
:101ED00099B800BF0038024010B5044688B01422FB
:101EE000002103A81FF08DFE2268164B9A4226D1CE
:101EF00003F58C33002401945A6C134842F4807229
:101F00005A645A6C02F480720192019A02941A6B1C
:101F100042F004021A631B6B03F0040302930822CD
:101F2000029B03A90323CDE9032303F0B5F9122093
:101F30002246052103F066F8122003F095F808B058
:101F400010BD00BF00200140000802400268094B9C
:101F50009A4282B00BD100230193074B1A6B42F4D3
:101F600080521A631B6B03F480530193019B02B0F0
:101F7000704700BF003002400038024007B50F4BE9
:101F800002689A4216D10022A3F5F0430192196B20
:101F900041F4000119631B6B03F400030193052155
:101FA0005A20019B03F02EF85A2003B05DF804EB91
:101FB00003F05AB803B05DF804FB00BF00B0024064
:101FC0002DE9F043044689B01422002103A81FF034
:101FD00018FE2268244B9A4243D1244C2448002501
:101FE0000095236B43F004032363236B03F0040386
:101FF0000093009B0195236B43F001032363236B44
:1020000003F001030193019B4FF012094FF4007399
:102010004FF001080327042603A9CDE90339CDE9D0
:102020000587079603F038F94FF480731148079637
:1020300003A9CDE90339CDE9058703F02DF9029510
:10204000236C43F400032364236C03F40003029322
:10205000029B236A43F400032362236A23F40003F0
:10206000236209B0BDE8F083005C00400038024004
:102070000008024000000240F0B599B00446142266
:10208000002107A81FF0BDFD30220DEB020000214A
:102090001FF0B7FD22685E4B9A4240F0B7800823DC
:1020A0000C93C0231093042312930CA84FF4003315
:1020B000159304F0EFFA08B1FFF7ECFE554B5648C4
:1020C000002400945A6C42F080625A645A6C02F008
:1020D00080620092009A01941A6B42F020021A6307
:1020E0001A6B02F020020192019A02941A6B42F0DC
:1020F00001021A631A6B02F001020292029A03941F
:102100001A6B42F002021A631A6B02F00202039287
:10211000039A04941A6B42F040021A631A6B02F09D
:1021200040020492049A05941A6B42F004021A6366
:102130001A6B02F004020592059A06941A6B42F09B
:1021400008021A631B6B03F00803069302250E2690
:10215000069B0B964FF4806307A9CDE90735CDE9BF
:10216000094503F099F841F658032C480B9607A946
:10217000CDE907350927CDE9094503F08DF803239B
:1021800027480B9707A9CDE90735CDE9094503F0A5
:1021900083F84FF4706322480B9607A9CDE9073501
:1021A000CDE9094503F078F84FF40C631D480B9610
:1021B00007A9CDE90735CDE9094503F06DF8C0233E
:1021C00019480B9607A9CDE90735CDE9094503F074
:1021D00063F8082315480B9607A9CDE90735CDE923
:1021E000094503F059F84FF4A0530E480B9707A97F
:1021F000CDE90735CDE9094503F04EF858202246D0
:10220000052102F0FFFE582002F02EFF19B0F0BDAC
:102210000068014000380240001402400000024003
:10222000000402400018024000080240000C024076
:1022300010B5044688B01422002103A81FF0E1FC69
:102240002268144B9A4223D103F56843002101917F
:102250005A6C114842F480125A645A6C02F480128B
:102260000192019A02911A6B42F020021A631B6BD1
:1022700003F020030293029B4FF4607202230321B8
:10228000CDE903230523CDE9061303A903F004F8E0
:1022900008B010BD005001400014024010B50446C3
:1022A00088B01422002103A81FF0ABFC2268144B55
:1022B0009A4223D103F59433002101915A6C1148BD
:1022C00042F010025A645A6C02F010020192019A14
:1022D00002911A6B42F001021A631B6B03F00103B7
:1022E0000293029B4FF4C06202230321CDE9032332
:1022F0000723CDE9061303A902F0CEFF08B010BDF5
:1023000000100140000002402DE9F04186B000239A
:1023100003932B4B1C68002C4FD14FF00108C3F8DE
:102320000080284B00949A6B274842EA08029A637F
:102330009B6B03EA08030093022703260C25009BEE
:1023400001A94FF63F03CDE90137CDE9046502F05D
:10235000A3FF1E48059501A9CDE90187CDE90346F4
:1023600002F09AFF48F233131948059501A9CDE907
:102370000137CDE9034602F08FFF4FF6837315480E
:10238000059501A9CDE90137CDE9034602F084FFA7
:102390004CF203731048059501A9CDE90137CDE949
:1023A000034602F079FF60230C48059501A9CDE9A9
:1023B0000137CDE9034602F06FFF06B0BDE8F081BA
:1023C000D42C0020003802400014024000080240D3
:1023D0000018024000100240000C024000040240BD
:1023E00070B588B000230293204B1A6C42F01002A3
:1023F0001A641B6C03F010030293054601A903A89D
:10240000029B04F029F9069B4BBB04F005F9184E1A
:10241000184B336040F2E733F360174BB0FBF3F334
:10242000013B7360304600233361B360B36104F055
:1024300051FF044680B9304604F022FE044658B9E4
:10244000362002F011FE0F2D0DD8224629463620E7
:1024500002F0D8FD094B1D60204608B070BD04F0A5
:10246000DBF84000D3E70124F6E700BF0038024064
:10247000D82C00200010004040420F007C000020BB
:102480007047FEE7FEE7FEE7FEE77047014802F00F
:102490007ABC00BF8C2C0020014804F02FBE00BF86
:1024A000D82C0020014803F05FBD00BF482B00205E
:1024B000014802F023BE00BF442C002001207047D9
:1024C00008B51FF041FC162303604FF0FF3008BD34
:1024D00008B51FF039FC16230360FEE770B50D4602
:1024E00014460E46731B9C4201DC204670BDAFF3C0
:1024F000008006F8010BF5E74FF0FF3070474FF40E
:1025000000534B6000207047012070470020704747
:102510000A4A116808B5034609B9094911601068EB
:10252000694603448B4206D91FF00EFC0C2303605E
:102530004FF0FF3008BD1360FCE700BF202D0020E6
:1025400030710120704710B5042104461EF015FAC1
:10255000204610BD012908B506D0022908D059B976
:1025600000F0D0FE006808BD00F0CCFE4068FAE73D
:1025700000F0C8FE8068F6E70020F4E700487047E6
:10258000103702082420704713B5002451B10368A6
:1025900001948DF8034001AA9C680DF10303A04744
:1025A00002B010BD0846FBE7C0897047008A70473B
:1025B000C088704780887047807A00F07F0070473D
:1025C000807AC00970470020704700009FED010A23
:1025D000704700BF000000007047704700F5987317
:1025E0000868496803C37047704770474160704787
:1025F00070477047064BC0F84C310023C0F850318B
:1026000000F5A273C0F84801C0F84031704700BF20
:1026100001280008012303727047704710B4C26894
:1026200041685410034601EB6200D20748BF0A59C3
:102630009B685DF8044B48BFD35818470346406871
:1026400030B19A681AB9D86800F0010070470120CB
:10265000704710B50C2104461EF08FF9204610BDBE
:1026600010B5102104461EF088F9204610BD10B5A3
:102670004FF4AE7104461EF080F9204610BD10B52F
:102680000BF072FF0368BDE81040DB6B184710B514
:102690000446D0F8400158B10368DB68984738B168
:1026A000D4F8400103689B6898470023C4F8403180
:1026B00010BD00002DE9F14FD0E9556A0746B0681A
:1026C00003681B6A984741F24B53984205D8444B24
:1026D000444AA32144481FF08DF8706803681B6AC0
:1026E00098470F2803D8414B3E4AA421F2E7F068EF
:1026F00003681B6A98470B2803D83D4B394AA5212C
:10270000E8E70BF031FFDFF8F09004300BF051FFF9
:10271000D9F8000010B10368DB689847D9F80000C9
:1027200010B103681B689847DFF8D080D8F8000024
:1027300010B103685B699847D7F83C0110B1036892
:102740005B689847D8F8000010B103681B68984789
:10275000D7F83C0110B103689B689847F06803689C
:1027600000215B6A98474FF0000B224BC0F804B081
:10277000044680F808B00360B068036859465B6A95
:102780009847054601F038F97068036859465B6A56
:1027900098472946064600F0FBFD331DC7F83C610B
:1027A000C9F80040C8F80050CAF800302B68C6F8D5
:1027B00008A02846DB68EE639847336830461B68FC
:1027C0009847214628460EF07FF8236820461B696B
:1027D000984723685B69204601B0BDE8F04F184771
:1027E000682D0208F62D0208CE2E0208152F0208C9
:1027F000B82F0208543A02083864012034640120DA
:102800002DE9F14FD0E9556A0746B06803681B6AA5
:102810009847B0F5E47F05D2444B454AA32145488B
:102820001EF0E8FF706803681B6A98470F2803D8FA
:10283000414B3F4AA421F2E7F06803681B6A9847BE
:102840000B2803D83D4B3A4AA521E8E70BF08CFE54
:10285000DFF8F09004300BF0ACFED9F8000010B1B6
:102860000368DB689847D9F8000010B103681B685B
:102870009847DFF8D480D8F8000010B103685B698E
:102880009847D7F83C0110B103685B689847D8F8BF
:10289000000010B103681B689847D7F83C0110B1DD
:1028A00003689B689847F068036800215B6A984753
:1028B0004FF0000B224BC0F804B0044680F808B07B
:1028C0000360B068036859465B6A9847054601F0A3
:1028D000EDFA7068036859465B6A984729460646D0
:1028E00001F0C2FA331DC7F83C61C9F80040C8F8CE
:1028F0000050CAF800302B68C6F808A02846DB68EC
:10290000EE639847336830461B689847214628464F
:102910000DF0DAFF236820461B69984723685B693E
:10292000204601B0BDE8F04F184700BF682D0208EF
:102930005B300208CE2E0208152F0208B82F0208BD
:10294000543A02083864012034640120044B1B68A7
:1029500093F858200AB1D86C00B99868704700BF46
:10296000F063012070B504460D4616460BF0BEFE1E
:10297000104A1460104A2260104A0023C4E951230F
:10298000C4E95333C4E94F330D4B18680368012180
:102990009B68C4E955659847FFF7D8FF15F009FF14
:1029A000FFF7D4FF15F080FFFFF7D0FF15F088FF89
:1029B000204670BD44640120003A0208E83902084C
:1029C000F0630120064BC0F84C310023C0F85031B1
:1029D00000F5A273C0F84801C0F84031704700BF4D
:1029E00001280008064BC0F84C310023C0F85031D4
:1029F00000F5A273C0F84801C0F84031704700BF2D
:102A0000B526000870477047704770477047704799
:102A1000704710B54FF4A47104461DF0AEFF204678
:102A200010BD70B5036804461B6B154698472368B4
:102A3000294620465B6BBDE870401847002310B55F
:102A4000C0E90133C0E90333C0E90733C0E9053306
:102A50004FF480738384064B03600B88C384FF2389
:102A6000044680F8283009F02EFE204610BD00BF35
:102A7000C43F02082DE9F04F044685B00DF078FD03
:102A8000564A2260564A0026C4E910264FF4807246
:102A900004F16C0AA4F86420FF2284F866204FF643
:102AA000FF7504F1980903A9C4E91266C4E9146624
:102AB000C4E91666E6632666A666504604F1C408B5
:102AC000ADF80C50FFF7BAFF03A9484604F1F00730
:102AD000ADF80C50FFF7B2FF03A94046ADF80C501B
:102AE000FFF7ACFF03A93846ADF80C50FFF7A6FF7F
:102AF00004F58E73184604F1400B03A90193ADF859
:102B00000C50FFF79BFF324631465846FFF789FFCE
:102B10005846F021FEF710FC58464FF4A071FEF71E
:102B20000DFC251D4FF07F42A2665946284606F04F
:102B3000FDFE324631465046FFF773FF4FF0010B62
:102B400003A95046ADF80CB009F0BDFD5146DFF8C1
:102B500094A0284606F0EAFE524631464846FFF762
:102B600060FF03A94846ADF80CB009F0ACFD49463A
:102B7000284606F0DBFE324631464046FFF751FF5D
:102B800003A94046ADF80C6009F09DFD414628467A
:102B900006F0CCFE524631463846FFF742FF03A905
:102BA0003846ADF80C6009F08EFD3946284606F02F
:102BB000BDFE324601985121FFF733FF11230198E2
:102BC000ADF80C3003A909F07EFD2846019906F006
:102BD000ADFE204605B0BDE8F08F00BF783A020890
:102BE0005C3F0208C0FEFFFF406A7047806A704782
:102BF00070478A880B8810B5D20A4C88C1699BB28D
:102C000051F8220043EA0443184410BD10B50446AD
:102C1000BAB1107B68B1537BD27A1B0203F4E06334
:102C20001A43236A03EB82031A888A4202D193F97A
:102C3000020010BD05D8013880B204330028F3D15A
:102C4000F7E70020F5E710B52C2104461DF095FEAE
:102C5000204610BD30B58BB00446BDF860500895D5
:102C6000BDF85C5007959DF8505006959DF84C5066
:102C700005959DF8485004959DF8445003959DF89E
:102C8000405002959DF83C500195BDF83850009594
:102C90000DF074FA064B2360159BE361169B2362CB
:102CA000199B63621A9BA36220460BB030BD00BF24
:102CB000AC3A0208806A70477047704770477047A7
:102CC00030B4C26844685510034604EB6200D20772
:102CD00048BF62599B6830BC48BFD3581847034669
:102CE000406830B19A681AB9D86800F0010070479E
:102CF0000120704790F82D3080F85C307047014615
:102D0000343091F82C3013B1623109F0DCBC603101
:102D1000FBE710B5642104461DF02FFE204610BDD0
:102D200010B5102104461DF028FE204610BD10B538
:102D30004FF4DE7104461DF020FE204610BD10B594
:102D40000446006B50B10368DB68984730B1206BD4
:102D5000036821469B68BDE81040184710BD0B79F9
:102D600070B590F82C6004460D460BB916B170BDD5
:102D7000002EFCD0B3FA83F35B0984F82C3023686F
:102D80002046D3F88C309847236820465B699847E3
:102D9000002EECD02B79012BE9D123682046D3F803
:102DA0008830BDE87040184700F58E70884208B53D
:102DB00005D10BF0D9FBBDE80840FFF713BE08BDF5
:102DC000074A02600022C0E90122C0E90322C0E9EB
:102DD0000522C0E907224FF480728284704700BF49
:102DE0009440020870B5036804469B6B15469847EB
:102DF000236829462046DB6BBDE8704018470B88E6
:102E000070B5A0F860300546138825F8623F044687
:102E100028460EF033FD064628460EF063FD314687
:102E200002462046FFF7DEFF23682046D3F88C30A9
:102E3000BDE87040184700002DE9F04F804687B08C
:102E4000464600240DF094FB7D4AC8F83C4046F805
:102E5000402B2146262230461EF0D3FE3046FFF797
:102E6000AFFF784AC8F8402008F16C0BFF224FF6FC
:102E7000FF7588F8662008F1980A05A9C8F8684027
:102E80005846ADF81450FFF7D9FD05A95046ADF8E6
:102E90001450FFF7D3FD08F1C40305A918460193A8
:102EA000ADF81450FFF7CAFD08F1F00308F58E776E
:102EB00005A918460293ADF81450FFF7BFFD384638
:102EC000FFF77EFF4FF47F424FF0010308F5A8792A
:102ED000A8F848215C4A88F84031C8F81C2105A9A7
:102EE000C8F84441C8F84C414846ADF81450FFF7C3
:102EF000A5FD2246A8F87C51A8F87E5121464846F7
:102F0000FFF78FFD4946384606F010FD08F5C073FF
:102F1000184605A90393ADF81450FFF78FFD4B4AEF
:102F2000C8E96B284A4A2146C8E96D243046224642
:102F3000FFF777FD30464FF4A072F021FFF752FF04
:102F400008F104054FF07F42C8F868203146284652
:102F500006F0ECFC224621465846FFF762FD3D4E46
:102F60004FF0010305A95846ADF8143009F0ABFB4A
:102F70005946284606F0DAFC324621465046FFF70D
:102F800050FD4FF0010305A95046ADF8143009F08B
:102F90009AFB5146284606F0C9FC22460198214674
:102FA000FFF73FFD0198ADF8144005A909F08BFB30
:102FB0000199284606F0BAFC324602982146FFF7EE
:102FC00030FD0298ADF8144005A909F07CFB029988
:102FD000284606F0ABFC2322ADF81020ADF81420F3
:102FE00004A905AA3846FFF70AFF224621464846AB
:102FF000FFF717FD08F5D672C8F84C2138467C2239
:103000003521FFF70EFD0F2238468721FFF7EAFE34
:103010003946284606F08AFC039822465121FFF7DC
:1030200000FD11220398ADF8142005A909F04BFB0F
:103030002846039906F07AFC404607B0BDE8F08FB9
:10304000CC3B02085C3F0208143B0208B43B020878
:10305000A92D0008C0FEFFFF7047000030B5164DD7
:103060002C6814F001048FB0BFF35B8F20D1284689
:103070001DF085FCE0B13F230993104B0893104BE2
:10308000104911480A940122CDE906430423CDE9F1
:1030900003320A230093CDE90B44CDE901440594A2
:1030A000FFF7D8FD09481EF0C3FB28461DF073FC4E
:1030B00005480FB030BD00BF242D00209C4A0208F7
:1030C000A84A02086C4A0208282D0020593000083E
:1030D0007047000030B5164D2C6814F001048FB015
:1030E000BFF35B8F20D128461DF049FCE0B13F23A0
:1030F0000993104B0893104B104911480A94012270
:10310000CDE906430423CDE9033214230093CDE92E
:103110000B44CDE901440594FFF79CFD09481EF0DE
:1031200087FB28461DF037FC05480FB030BD00BFB7
:10313000542D0020A04A0208AC4A02087C4A02082A
:10314000582D0020D13000087047000030B5164DD2
:103150002C6814F001048FB0BFF35B8F20D1284698
:103160001DF00DFCE0B13F230993104B0893104B69
:10317000104911480A940122CDE906430423CDE900
:10318000033228230093CDE90B44CDE90144059493
:10319000FFF760FD09481EF04BFB28461DF0FBFBC6
:1031A00005480FB030BD00BF842D0020A44A02089E
:1031B000B04A02088C4A0208882D002049310008D4
:1031C00000207047002070470EB403B503AB002108
:1031D00053F8042B01930CF04FFA02B05DF804EBA6
:1031E00003B070470CB407B504AB53F8042B01933C
:1031F0000CF042FA03B05DF804EB02B07047000037
:10320000436C10B5044673B3038F2BB9184B194A9E
:10321000C52119481EF0EEFAC38E00EB43035B8C08
:103220000BB30EF044F8238F012B03D8134B144A31
:10323000CB21EEE7E28E531C9BB2092B194688BFC7
:10324000A3F10A0104EB410140F63F10498C814291
:1032500009D10A2B04EB420228BF002304EB4303ED
:10326000508C588451842046BDE810400DF022BF98
:10327000333102083C310208E731020831320208DA
:103280003F3202080DF0DDBE38B518BB124B1348B3
:103290001C681349B4B12268224402606268224467
:1032A0000A60A26814440F4B00221A8000F02AF82A
:1032B000054600F025F80C4B1C600C4B1D600C4BB8
:1032C000188007E00B4B03600B4B0B600B4B1C682B
:1032D000002CE8D138BD00BFC02D0020B82D002043
:1032E000B42D0020BC2D0020486401205064012032
:1032F0004C640120B84A0208B44A0208BC4A0208D9
:103300000020704700487047C42D002010B5FFF71B
:10331000E1FE044C2060FFF719FF6060FFF79EFE9E
:10332000A06010BDC42D002010B5002404600C6006
:1033300014601C6010BD704710B54FF4AE710446A8
:103340001DF01BFB204610BD10B50446D0F85801F7
:1033500000F01BFE2046BDE810400BF087B90000CE
:1033600010B50446FFF7FEFA014B2360204610BD5E
:10337000003C0208704704387047704710B51021B0
:1033800004461DF0FAFA204610BDA0F10400F5E74E
:1033900000228260024A026018324260C1607047B7
:1033A000543C0208704700002DE9F04FD0F8483136
:1033B000BE4A01335A43B2F1333F85B00446C0F8E8
:1033C000483120D8BA4A5343B3F1113F9FBF90F818
:1033D0005031B3FA83F35B0980F8503190F85131E2
:1033E000002B00F0E0801F2B4FF0FF3318BF0023AD
:1033F000DBB284F8513194F85231FF2B40F0D58084
:103400001F2384F85231B4F84C21B4F84E31A94945
:10341000023202331BB212B2002A08BF0A46B3F5C9
:10342000A07F08BF0023A4F84E31A4F8CA30A4F846
:10343000723094F85031A4F84C21A4F8F620A4F886
:103440009E20002B00F0B680012B00F0C0809A4D2A
:10345000286804F00DFB70B14FF0FF33286800229C
:103460000DF10B0104F0D4FA9DF80B30522B02D170
:10347000924801F03EF8924D286804F0F9FA70B1D4
:103480004FF0FF33286800220DF10B0104F0C0FA61
:103490009DF80B304C2B02D1884801F024F8894D5F
:1034A000DFF81882286804F0E3FA002800F09C8016
:1034B0004FF0FF33286800220DF10B0104F0A8FA49
:1034C0009DF80B30462B02D1012388F807307B4D45
:1034D00004F5D56304F54E7601932F464FF0000BAB
:1034E00097F80E90B9F1020F00F08180B9F1030F47
:1034F00000F08680B9F1010F0ED1BA4633683AF96F
:10350000081F9B6DB7F90A203046984786F825902A
:103510000221504600F0D9FD019B2C369E4207F156
:103520001007DDD1B8F90220B8F9001004F5AA702F
:10353000FDF70BFF04F5805398F84C1193F84925DB
:103540008A4260D104F53D635C4F019304F618266E
:103550004FF0000941F2435B4FF0010A97F85631F2
:10356000032B00F0B180042B00F0E480022B68D123
:10357000D6F8B831B7F952219B6DB7F9501106F55D
:10358000DC7098473368B7F952219B6DB7F9501139
:103590003046984797F85B31002B4ED086F8DDA176
:1035A00086F825904DE01F2323E71F2B0CBF002337
:1035B000FF2326E794F8513184F8183184F8EC3071
:1035C00094F8523184F8C03084F894303FE794F88E
:1035D000513184F8C03084F8943094F8523184F832
:1035E000183184F8EC3032E788F807006FE7336869
:1035F000B7F90A209B6DB7F90810304698478BE75A
:1036000086F825B088E783F84915002204F2A51052
:103610002C26012791420B460ADC04F2A5122C212C
:1036200000200A2B8ED001FB03F601339055F8E7FA
:1036300006FB02F30132C754ECE786F825A086F8B2
:10364000DD31019B2C369E4207F5A87786D104F622
:10365000885604F574694FF0000B41F2435A4FF05D
:10366000010895F8763E032B00F0A080042B00F0B3
:10367000CD80022B65D1D6F8B831B5F9722E9B6D8D
:10368000B5F9701E06F5DC7098473368B5F9722EEF
:103690009B6DB5F9701E3046984795F87B3E002B20
:1036A0004BD086F8DD8186F825B04AE0CDCCCCCC75
:1036B000EFEEEEEEC0FEFFFF642A0020D42D0020C6
:1036C000602A00205C2A002086F8DD9186F825908B
:1036D00004EB0B034FF0000813F9012F013223D143
:1036E00004EB080241F244530021D1542C2303FB84
:1036F00008F841F2684308EB0300A044B7F85221F0
:10370000B7F8501158F80330083A08399B6D12B2D7
:1037100009B22044984741F28D43012208F8032062
:10372000042387F856318CE708F10108B8F1050F3A
:10373000D2D186E786F8DD9132E786F8258086F8D3
:10374000DD312C364E4505F5A8758AD104F587552F
:1037500004F5955B6D4E18350BF1100B4FF000081A
:1037600041F2435A4FF00109B379032B00F09D80D9
:10377000042B00F0C780022B4FD1D5F8B831B6F931
:1037800002209B6DB6F9001005F5DC7098472B6898
:10379000B6F902209B6DB6F9001028469847F37AD7
:1037A000BBB385F8DD9185F8258036E086F8DDB17C
:1037B00086F825B004EB0A02002312F9011F01313B
:1037C00020D1E11841F24452002088542C22534366
:1037D00041F2684CE718B5F8722EB5F8701E03EB8D
:1037E0000C0057F80C30083A08399B6D12B209B238
:1037F0002044984741F28D430122FA54042385F86E
:10380000763E9EE70133052BD7D19AE786F8DDB1E6
:1038100049E785F8259085F8DD312C355D4506F5BD
:10382000A876A1D104F5AA5804F5A35A04F5AA591B
:10383000374F08F103080AF1080A09F108090326BD
:1038400018F9013F5A1C26D001335BB293FBF6F204
:1038500002EB420188F800305B1A5DB2DDB9DAF89C
:10386000003037F812201B6EADF80C2003A950462B
:10387000984798F900300E2B0DDDFF2388F80030B3
:10388000DAF8003009221B6EADF80C2003A950466F
:1038900098478AF82550C8450AF12C0AD0D1201D36
:1038A0000CF014F805B0BDE8F08F85F8DD8185F8DF
:1038B000258004EB0A02002312F9011F01311DD1FA
:1038C000E11841F24452002088542C22534341F223
:1038D000684CE7187288318803EB0C0057F80C30FD
:1038E000083A08399B6D12B209B22044984741F258
:1038F0008D430122FA540423B3718EE70133052B63
:10390000DAD18AE785F8DD814DE700BF6449002000
:10391000A83C0208314B70B50546036041F21854CB
:1039200041F23C46B44253D141F284262B59281926
:103930001B682C3C9847B442F8D141F2CC062B5975
:1039400028191B682C3C9847B442F8D140F61476ED
:103950002B5928191B682C3C9847B442F8D140F6E3
:103960005C562B5928191B682C3C9847B442F8D157
:1039700040F6A4362B5928191B682C3C9847B442B2
:10398000F8D140F6EC162B5928191B682C3C9847A7
:10399000B442F8D140F27C662B5928191B682C3CA4
:1039A0009847B442F8D12B5928191B682C3C9847EA
:1039B000B4F5437FF7D12B5928191B682C3C984745
:1039C000B4F5AA7FF7D12846FFF721F8284670BD45
:1039D0002B5928191B6898472C3CA3E77C3C02080C
:1039E00010B50446FFF796FF204641F24C511CF0FB
:1039F000C4FF204610BD00002DE9F04F054687B0FA
:103A0000FFF738F805F5AA7AD14B2B604FF6FF7611
:103A100005A95046ADF81460FFF710F805F5C07918
:103A20004C4605F54E77204605A92C34ADF81460B8
:103A3000FFF704F8BC42F6D105F5D5664FF6FF77DF
:103A4000204605A92C34ADF81470FEF7F7FFB442F8
:103A5000F6D105F618264FF6FF77204605A92C3437
:103A6000ADF81470FEF7EAFFB442F6D105F53D63F8
:103A7000039326464FF6FF77304605A9ADF814703C
:103A8000FEF7DCFF039B2C369E42F5D11F4605F660
:103A900088564FF6FF78384605A92C37ADF81480C4
:103AA000FEF7CCFFB742F6D105F5746302933E46AC
:103AB0004FF6FF78304605A9ADF81480FEF7BEFF3B
:103AC000029B2C369E42F5D105F587581E4608F11B
:103AD00018084FF6FF7B304605A92C36ADF814B018
:103AE000FEF7ACFF4645F6D105F59553103301932B
:103AF000B0464FF6FF7B404605A9ADF814B0FEF77F
:103B00009DFF019B08F12C089845F4D105F5A35BB6
:103B100098460BF1080B4FF6FF73404605A908F1D4
:103B20002C08ADF81430FEF789FFD8454FF6FF7327
:103B3000F3D105F5AA5BCDF800800BF1040B4046EC
:103B400005A908F12C08ADF81430FEF777FFD84529
:103B50004FF6FF73F3D14FF6C062C5F84C214FF01A
:103B6000000285F852315046A5F8502105A94FF0C2
:103B7000100805F1040BADF8148008F0A4FD4FF413
:103B80008C7250467021FEF74CFF5146584605F0A6
:103B9000CDFE05F58053012283F84925484605A945
:103BA0004FF0120AADF814A008F08DFD48464FF40E
:103BB00096720021FEF735FF4946584605F0B6FEDD
:103BC00005F5D679D9F8003048461B6EADF814A03B
:103BD00005A998470FFA88F148464FF4967208F104
:103BE0001008FEF71EFF1FFA88F84946584605F0F0
:103BF0009DFE0023B8F1A00F89F8253009F12C09AA
:103C0000E0D14FF44E784FF0130A55F8083005EB29
:103C100008091B6EADF814A005A948469847002274
:103C200011464846FEF7FDFE08F12C084946584665
:103C300005F07CFEB8F5D56FE7D14FF0080A55F8CE
:103C4000083005EB08091B6EADF814A005A948461D
:103C50009847002211464846FEF7E3FE494658467B
:103C600005F064FE08F12C0840F618239845E6D1CB
:103C7000DFF8E480C24623684FF00E021B6EADF8F9
:103C80001420204605A99847002211462046FEF739
:103C9000C8FE2146584605F049FE4FF0000384F85F
:103CA0002530D4F8B83104F5DC790F221B6EADF85D
:103CB000142005A948469847BAF95221BAF950117B
:103CC0004846FEF7AEFE4946584605F02FFE039BD8
:103CD0002C349C420AF5A87ACDD14FF0000A4FF05F
:103CE00003093B684FF002021B6EADF81420384602
:103CF00005A99847002211463846FEF792FE39463C
:103D0000584605F013FED7F8B83187F825A007F517
:103D1000DC741B6EADF8149005A920469847B8F9DD
:103D2000722EB8F9701E2046FEF77BFE21465846DB
:103D300005F0FCFD029B2C379F4208F5A878D0D1F6
:103D4000044C4FF0060A4FF000094FF0070805E059
:103D50007C3C020864490020D42D002033683046A2
:103D60001B6EADF814A005A99847002211463046F5
:103D7000FEF757FE3146584605F0D8FDD6F8B83163
:103D800086F8259006F5DC771B6EADF8148005A942
:103D900038469847B4F90220B4F900103846FEF7C7
:103DA00040FE3946584605F0C1FD019B2C369E4227
:103DB00004F5A874D2D105F5AA5405F5AA56033422
:103DC00008364FF009094FF00008FF27009B0098C4
:103DD0001B6805A91B6EADF8149098470022114688
:103DE0000098FEF71EFE009B584683F82580194672
:103DF00005F09CFD009B04F8017F2C33B442009336
:103E0000E4D1284607B0BDE8F08F00BF00B58BB005
:103E1000FEF7FEFD2022002102A81DF0F2FE084B55
:103E200001934FF480421823CDE90623002101AA13
:103E3000044803F089FC044B18600BB05DF804FBE8
:103E400011330208DD430008D02D002070470438EC
:103E50007047704710B5102104461CF08EFD2046B7
:103E600010BDA0F10400F5E700228260024A026062
:103E700018324260C1607047BC3C020870470000C5
:103E800010B5034B03600446FEF718FF204610BD33
:103E9000E43C020810B50446FFF7F2FF20464FF459
:103EA000E4711CF06AFD204610BD000010B5044608
:103EB000FEF7C2FF064B23604FF6C063C4F8C03163
:103EC0000023A4F8C431FF2384F8C631204610BD76
:103ED000E43C0208FEF7F3BED0F8BC31274A0133B8
:103EE0005A43B2F1333FC0F8BC311DD8244A534382
:103EF000B3F1113F9FBF90F8C431B3FA83F35B096C
:103F000080F8C43190F8C531B3B11F2B4FF0FF33A7
:103F100018BF0023DBB280F8C53190F8C631FF2B03
:103F20000CD11F2380F8C63190F8C4315BB1012B4E
:103F300016D004300BF0CABC1F23ECE71F2B0CBFBC
:103F40000023FF23EEE790F8C53180F8183180F8A0
:103F5000EC3090F8C63180F8C03080F89430E8E753
:103F600090F8C53180F8C03080F8943090F8C631B0
:103F700080F8183180F8EC30DBE700BFCDCCCCCC3A
:103F8000EFEEEEEE002202607047704710B5044677
:103F900000F045F8204610BD10B5044600F05BF86F
:103FA000204610BD10B5044600F08DF800232360B4
:103FB00040F60303A3800323A3713C23A3602046A0
:103FC00010BDF8B504461D460F46164600F07BF8B6
:103FD00040F60303A3800123A3713C23278066805E
:103FE000E560A3602046F8BD4288C368134443805F
:103FF0008368002B02DC032100F067B8013B83607B
:10400000002BF8D0704710B5044600F008F82046A1
:1040100010BD10B5044600F01EF8204610BD70B566
:10402000044600F050F80023E3715223237204F198
:104030000C0504F5A67628461035FFF7B3FFB54208
:10404000F9D141F21003A380502363724FF48F73B0
:104050006381204670BD70B5044600F5A67500F179
:104060000C06B54204D0103D284600F02DF8F8E7C4
:10407000204600F029F8204670BD437A013B13F03A
:10408000FF030FD04372837A013B13F0FF0303BF9A
:104090001E238372C37A837202BFB3FA83F35B0970
:1040A000C372704750234372037A522B0CBF4C23C8
:1040B00052230372E7E70388013B038070470388BC
:1040C000013303807047704770478171704710B5A6
:1040D000028803790C881344A34210DD0B79234432
:1040E0009A420CDA438842794C881A44A24206DD8F
:1040F0004A7922449342ACBF0020012010BD002029
:10410000FCE72DE9F041054600F0B0F905F5A8748B
:104110002E4605F56767204604F5A874FFF77FFF74
:10412000BC42F8D105F5DC571037204604F5A874D9
:10413000FFF72CFFBC42F8D105F5225808F13008F2
:104140002746384607F5A877FFF75DFF4745F8D1C2
:1041500005F500530022C3F8B02830202A460A2370
:104160000221A2F8503114339BB2D22BA2F8520193
:1041700082F8561102F5A872F3D114235C210222B1
:10418000A6F8703E14339BB2DC2BA6F8721E86F89C
:10419000762E06F5A876F3D10A2346210222238043
:1041A00014339BB2D22B6180A27104F5A874F6D1AE
:1041B0002846BDE8F08170B500F5225600F5DC55C3
:1041C000044630361035AE4205D0A6F5A876304606
:1041D000FFF71FFFF7E704F56766AE4205D0A5F5C8
:1041E000A8752846FFF7D8FEF7E704F5A875AE4294
:1041F00005D0A6F5A8763046FFF72DFFF7E7204655
:1042000000F050F9204670BD2DE9F04F00F5005543
:1042100087B0D5F8B0380133092B0446C5F8B0385B
:104220002EDDC3790BB100F06AF90023C5F8B03870
:10423000694D4FF0000841F690392F462E4697F809
:10424000583105F5A8754C2B28464CD1FFF733FFA4
:1042500097F8783E4C2B06F5676047D1FFF72BFFA8
:1042600007F5805706EB090097F8983B4C2B40D197
:10427000FFF721FF08F10108B8F10A0FDDD101E0D5
:104280009B07D5D004F55269264604F5A07B02AF02
:1042900096F85631033B012B2ED806F5A8764E45ED
:1042A000F6D1264604F5A07B02AF96F8763E033B96
:1042B000012B46D806F5A8764E45F6D104F5DC5517
:1042C00004F52259103509F1300904F5A07B02AF3D
:1042D000AB79033B012B59D805F5A8754D45F7D1AE
:1042E00007B0BDE8F08FFFF7EAFEB1E7FFF7E7FEA2
:1042F000B6E7FFF7E4FEBDE7254606F5A87A0DF11F
:104300001008AA7B032A18D09AE8030087E8030064
:10431000D5E9020188E8030041463846FFF7D7FE99
:1043200001904046FFF7D0FE3846FFF7CDFE019BD7
:104330001BB10322AA7386F8562110355D45E0D1E2
:10434000ABE7254606F5676A0DF11008AA7B032A3C
:1043500018D09AE8030087E80300D5E9020188E84D
:10436000030041463846FFF7B2FE01904046FFF792
:10437000ABFE3846FFF7A8FE019B1BB10322AA73D0
:1043800086F8762E1035AB45E0D193E726460DF141
:1043900010084FF0030AB27B032A18D095E80300F7
:1043A00087E80300D6E9020188E803004146384661
:1043B000FFF78DFE01904046FFF786FE3846FFF777
:1043C00083FE019B1BB186F80EA085F806A010366F
:1043D000B345E0D180E700BFD42D0020F8B51B4FD6
:1043E0001A4D3846FFF710FF384600F06DF80026EA
:1043F000284690F85631022B00F5A87402D12046C9
:10440000FFF73BFE01360A2E2046F2D1002495F834
:10441000763E022B03D105F56760FFF72EFE0134CF
:104420000A2C05F5A875F2D1094C0025A379022BB9
:1044300002D12046FFF721FE01350A2D04F5A874AC
:10444000F4D1102003F0C4F9CAE700BFD42D002036
:10445000644900200148FFF754BE00BFD42D00205E
:104460000148FFF7A8BE00BFD42D002070B5044658
:10447000FFF729FE0023E37104F1080504F5A47693
:1044800028461035FFF78EFDB542F9D1044B236065
:1044900041F21003A380012384F84C31204670BD03
:1044A0003200180170B5044600F5A47500F1080645
:1044B000B54204D0103D2846FFF706FEF8E7204637
:1044C000FFF702FE204670BD38B500F1080500F583
:1044D000A474AB79022B02D12846FFF785FD103575
:1044E000A542F6D138BD0388022B84BF023B03806E
:1044F00070470388DD2B9CBF0233038070477FB574
:104500000446002300F10E021E01915D032919D11A
:10451000628821886D46083A06316FF0060392B230
:1045200089B22846FFF74DFD95E80F00264406F1B5
:10453000080484E80F002846FFF7C6FD0123B37383
:1045400004B070BD0133142BDED1F9E7F0207047C1
:104550004FF4A07070472920FDF730BC2820FDF7EC
:104560002DBC08B5FDF7FEFBCA20FDF727FCC320D4
:10457000FDF708FC0820FDF705FC5020FDF702FCC4
:10458000CF20FDF71BFC0020FDF7FCFBC120FDF751
:10459000F9FB3020FDF7F6FBED20FDF70FFC642062
:1045A000FDF7F0FB0320FDF7EDFB1220FDF7EAFB22
:1045B0008120FDF7E7FBE820FDF700FC8520FDF7F3
:1045C000E1FB0020FDF7DEFB7820FDF7DBFBCB20D5
:1045D000FDF7F4FB3920FDF7D5FB2C20FDF7D2FBCE
:1045E0000020FDF7CFFB3420FDF7CCFB0220FDF7C8
:1045F000C9FBF720FDF7E2FB2020FDF7C3FBEA2013
:10460000FDF7DCFB0020FDF7BDFB0020FDF7BAFB4A
:10461000B120FDF7D3FB0020FDF7B4FB1B20FDF715
:10462000B1FBB620FDF7CAFB0A20FDF7ABFBA220C9
:10463000FDF7A8FBC020FDF7C1FB1020FDF7A2FB92
:10464000C120FDF7BBFB1020FDF79CFBC520FDF74B
:10465000B5FB4520FDF796FB1520FDF793FBC72022
:10466000FDF7ACFB9020FDF78DFB3620FDF7A6FB98
:10467000C820FDF787FBF220FDF7A0FB0020FDF727
:1046800081FBB020FDF79AFBC220FDF77BFBB62033
:10469000FDF794FB0A20FDF775FBA720FDF772FBE1
:1046A0002720FDF76FFB0420FDF76CFB2A20FDF7A8
:1046B00085FB0020FDF766FB0020FDF763FB002073
:1046C000FDF760FBEF20FDF75DFB2B20FDF776FB90
:1046D0000020FDF757FB0020FDF754FB0120FDF7FC
:1046E00051FB3F20FDF74EFBF620FDF767FB012055
:1046F000FDF748FB0020FDF745FB0620FDF742FBD8
:104700002C20FDF75BFBC820FDF7A6FB2620FDF75C
:1047100055FB0120FDF736FBE020FDF74FFB0F2096
:10472000FDF730FB2920FDF72DFB2420FDF72AFBA8
:104730000C20FDF727FB0E20FDF724FB0920FDF7D9
:1047400021FB4E20FDF71EFB7820FDF71BFB3C20D4
:10475000FDF718FB0920FDF715FB1320FDF712FBF1
:104760000520FDF70FFB1720FDF70CFB1120FDF7CF
:1047700009FB0020FDF706FBE120FDF71FFB0020F1
:10478000FDF700FB1620FDF7FDFA1B20FDF7FAFAF6
:104790000420FDF7F7FA1120FDF7F4FA0720FDF7E2
:1047A000F1FA3120FDF7EEFA3320FDF7EBFA422063
:1047B000FDF7E8FA0520FDF7E5FA0C20FDF7E2FA2F
:1047C0000A20FDF7DFFA2820FDF7DCFA2F20FDF79D
:1047D000D9FA0F20FDF7D6FA1120FDF7EFFAC8201D
:1047E000FDF73AFB2920FDF7E9FABDE808402C2047
:1047F000FDF7E4BA08B5FDF7B5FA0321D320FDF7BC
:10480000F9FA80B208BD10B5C4B2022203212046D5
:10481000FDF75EFA0A20FDF7A3FA204600220321E5
:10482000FDF756FABDE810400220FDF799BA38B5F9
:104830000446E4B2FDF74AFA00212046FDF760FA8B
:10484000012105462046FDF75BFA40EA052080B2CB
:1048500038BD10B5C4B240212046FDF751FA030619
:1048600007D54C212046FDF74BFA003818BF012030
:1048700010BD01224B212046FDF72AFA20460022D6
:104880004B21FDF725FA0020F2E773B50423C4B2EB
:104890000E461546D7210DEB03022046FDF74AFAD6
:1048A000019B1BBA1A0DC3F30B23328020462B80C9
:1048B00001224B21FDF70CFA00224B212046FDF787
:1048C00007FA02B070BD000010B50A4A137898428A
:1048D00004460DD0517888420AD00BB141B901236A
:1048E000D454FDF7F3F92046BDE81040FFF78BBF25
:1048F00010BD00BF8856002010B5C4B20921204663
:10490000FDF7FEF940F00102D2B220460921BDE8D0
:104910001040FDF7DDB910B5C4B209212046FDF7FE
:10492000EFF9092100F0FE022046BDE81040FDF736
:10493000CFB938B5C4B20D4620460A21FDF7E0F9DB
:1049400040EA0502D2B220460A21BDE83840FDF710
:10495000BFB910B50446FDF7BAF920461F21FFF78D
:10496000E8FF2046BDE81040FFF7C6BF38B5C4B227
:104970000D4620460A21FDF7C3F920EA0502D2B20E
:1049800020460A21BDE83840FDF7A2B910B504461B
:10499000FFF7C1FF20461F21BDE81040FFF7E6BF2B
:1049A00010B5C0B20C460B21FDF7AAF9204010BD8E
:1049B0001F21FFF7F5BF0A46C0B20B21FDF788B9EA
:1049C0001F21FFF7F8BF38B5C4B20D4620461721A6
:1049D000FDF796F920EA0502D2B220461721BDE87C
:1049E0003840FDF775B970B5C4B2064604212046BB
:1049F000FDF786F9042100F0FB0205462046FDF78D
:104A000067F93046F021FFF7DEFF05F0F802204697
:104A10000421FDF75DF9492220212046FDF758F9D0
:104A20000220FDF79DF9204601222121FDF750F9D2
:104A300020469A224121FDF74BF9204601224A21C6
:104A4000FDF746F9204601224B21FDF741F92046AA
:104A500000224B21FDF73CF9204601225621FDF7AB
:104A600037F9204601225821FDF732F9204601226C
:104A70004021FDF72DF92046FF220B21FDF728F9F3
:104A8000BDE870400220FDF76BB90000054BD3F87C
:104A9000882042F47002C3F888204FF000629A60C8
:104AA000704700BF00ED00E008B50B4B1A6842F4F8
:104AB00000721A601A6842F480621A601A6842F43E
:104AC00080721A60032000F08BFA0020FDF788FC4A
:104AD000FDF7E2F9002008BD003C0240034A044B08
:104AE00011681B780B441360704700BF8C56002080
:104AF00078000020014B1868704700BF8C560020DA
:104B000038B50446FFF7F6FF631C1CBF054B1B7846
:104B1000054618BFE418FFF7EDFF431BA342FAD385
:104B200038BD00BF7800002038B50446002800F0EA
:104B30009B80056C25B9FDF7CFF9656484F83C507E
:104B4000236CDB0600F18E80236C23F4885323F062
:104B5000020343F002032364444B5A6822F44032B8
:104B60005A605A6861680A435A60236821695A6822
:104B700022F480725A605A6842EA01225A605A68E6
:104B8000A16822F040725A605A680A435A609A68D3
:104B9000E16822F400629A609A680A439A60344994
:104BA000A26A8A4252D0996821F07061996099682E
:104BB0000A439A609A68E16A22F040529A609A68C1
:104BC0000A439A609A6822F002029A609A68217EEB
:104BD00042EA41029A6094F82020002A3ED05A68A6
:104BE000616A42F400625A605A6822F460425A6074
:104BF0005A68013942EA41325A60DA6AE16922F4BC
:104C00007002DA62DA6A013942EA0152DA629A68BB
:104C100022F400729A609A6894F8301042EA4122B5
:104C20009A609A68616922F480629A609A680020AA
:104C300042EA81229A606064236C23F0030343F00C
:104C400001032364002384F83C3038BD9A6822F0C5
:104C500070629A609A6822F04052B2E75A6822F471
:104C60000062C9E70120EDE70120EEE700230140E3
:104C70000100000F82B00023019390F83C30012B1B
:104C80006FD0012380F83C3003689A68D2070BD5B7
:104C90009A68D1071AD4036C43F010030364436C81
:104CA00043F00103436452E09A682F4942F0010245
:104CB0009A602E4A1268B2FBF1F202EB42020192B4
:104CC000019A002AE4D0019A013AF8E7026C22F432
:104CD000E06222F0010242F4807202645A685205D6
:104CE00041BF026C22F4405242F480520264026CD2
:104CF00012F480521CBF426C22F006024264002271
:104D000080F83C206FF022021A605A6842F08062FC
:104D100042F020025A60164A516811F01F0F1549DF
:104D20001CD18B4207D001F580718B420CD15268A7
:104D300012F01F0F0BD19A6812F0405F07D19A68EA
:104D400042F080429A6002E00B498B4202D0002080
:104D500002B07047526812F0100FEBE78B42F6D1A9
:104D6000E9E70220F4E700BF40420F007400002092
:104D70000023014000200140002201400368D86C5C
:104D8000704770477047036870B51E685D68B2076A
:104D900004462BD5A80629D5226CD1065EBF226C0D
:104DA00042F4007222649A6812F0405F17D1227EAA
:104DB000AAB9DA6A12F4700F02D09A6852050ED4BA
:104DC0005A6822F020025A60236C23F48073236413
:104DD000236CD8045EBF236C43F001032364204698
:104DE000FDF73CF823686FF012021A60710733D5A3
:104DF0002A0631D5236CDB065EBF236C43F40053D7
:104E0000236423689A6812F4401F1ED19A6B12F42F
:104E1000401F02D09A68500517D45A68510514D41F
:104E20009A6812F0405F10D1227E72B95A6822F05F
:104E300080025A60236C23F480532364236CDA05C8
:104E40005EBF236C43F001032364204600F0C6F8E4
:104E500023686FF00C021A60F30710D568060ED5B0
:104E600023681B68D9070AD5236C43F48033236475
:104E70002046FFF786FF23686FF001021A60B20632
:104E80000ED56B010CD5636C43F002036364236899
:104E90006FF020051D602046FFF774FF23681D603A
:104EA00070BD0000F7B50023019390F83C30012B52
:104EB000054600F08680012380F83C3008682B68A6
:104EC0008E68092884B233D904EB4402DF681E3AA5
:104ED0004FF0070C0CFA02FC27EA0C07DF60DF68D2
:104EE00006FA02F23A43DA604968062901EB8102C8
:104EF0002DD8596B053A1F26964021EA06015963C1
:104F0000596B04FA02F20A435A632F4A93420AD1B8
:104F1000122837D12D4B5A6822F400025A605A6881
:104F200042F480025A60002085F83C0003B0F0BDD6
:104F30001A6900EB400C072707FA0CF722EA070270
:104F40001A611A6906FA0CF616431E61CCE70C29A1
:104F50004FF01F010BD81E6B233A914026EA010146
:104F60001963196B04FA02F20A431A63CDE7DE6A89
:104F7000413A914026EA0101D962D96A94400C4332
:104F8000DC62C2E7124B984201D01128CBD10F4B03
:104F90005A6822F480025A605A6842F400025A6049
:104FA0000B4B9842BFD10B4B0B4A1B68B3FBF2F380
:104FB0000A2253430193019B002BB4D0019B013B78
:104FC000F8E70220B2E700BF0020014000230140C3
:104FD000120000107400002040420F0070470000D3
:104FE0000749CA6822F4E0620302120403F4E06392
:104FF000120C134343F0BF6343F40033CB6070479C
:1050000000ED00E0164B30B5DC68C4F30224C4F1B7
:105010000703251D042B28BF0423062D4FF0FF3561
:105020008CBF033C002405FA03F321EA0303A540E7
:1050300022EA0502A340002843EA0203ACBF00F1C4
:105040006040084A4FEA0313B8BF00F00F00DBB21C
:10505000AABF00F56140135480F8003330BD00BF93
:1050600000ED00E014ED00E0002807DB044A4109F0
:10507000012300F01F00834042F82130704700BF39
:1050800000E100E010B5044650B1437903F0FF029F
:1050900013B90271FCF75AFF01236371002010BDA0
:1050A0000120FCE710B5044620B390F8393003F036
:1050B000FF021BB980F83820FCF760FF022384F858
:1050C0003930236861681A6822F440320A431A6052
:1050D0005A6BA16822F007020A435A631A6CE1680E
:1050E0006FF30D020A431A6400200123E06384F881
:1050F000393010BD0120FCE770477047036870B578
:105100005E681D68F207044614D5E90512D51A68D1
:1051100022F480721A60C26B42F00102C263012263
:105120009A60042380F83930002380F838304369CE
:1051300003B19847B20616D5AB0414D523681A6894
:1051400022F400521A6020229A60E36B43F00203BB
:10515000E363042384F83930002384F8383063692A
:105160000BB120469847300716D5290514D523687A
:105170001A6822F400621A6008229A60E36B43F016
:105180000403E363042384F83930002384F83830BF
:1051900063690BB12046984772070BD56B0509D59B
:1051A00023681A6822F480621A6004229A602046FA
:1051B000FFF7A2FFB00714D5A90512D523681A6816
:1051C00022F400721A6002229A60E36BE363012307
:1051D00084F83930002384F8383023690BB1204635
:1051E0009847F20613D5EB0411D523681A6822F408
:1051F00080521A6010229A60E36BE363012384F803
:105200003930002384F838302046FFF776FF70BD30
:10521000F0B590F83820012A03464FF002002BD059
:10522000012283F8382083F8390003EB0112D2E918
:105230000740556A174F44EA0040093C012C9CBFC7
:1052400005F07F4210434FEA01161A6888BF40EA12
:10525000056091B9516A394001435162012C996945
:10526000916103D8596A21F07F41916201220020A7
:1052700083F8392083F83800F0BDD1693940014303
:10528000D1619919012C896911619CBF25F07F4575
:105290001562EBE7F0FFFC002DE9F74FDFF8BC915A
:1052A0006C4A00230D6801249C4004EA0506AC43C7
:1052B00040F0B7804D68032705F003044FEA430828
:1052C00007FA08FC671E012F6FEA0C0C34D88768B8
:1052D00007EA0C0ECF6807FA08F747EA0E0787605F
:1052E000476827EA060EC5F300179F4047EA0E07F6
:1052F0004760C76807EA0C0E8F6807FA08F747EAA5
:105300000E07022CC76019D14FEAD30A00EB8A0AB4
:1053100003F0070BDAF820704FEA8B0B4FF00F0EFB
:105320000EFA0BFE27EA0E0E0F6907FA0BF747EA93
:105330000E07CAF8207001E0032CDAD1076804FADE
:1053400008F407EA0C073C4315F4403F046068D0BA
:1053500000240194D9F8444044F48044C9F84440FE
:10536000D9F8444023F0030707F1804704F4804450
:1053700007F59C37019403F0030C019CD7F808E073
:105380004FEA8C0C0F2404FA0CF42EEA040E324C73
:10539000A0424DD004F58064A0424BD004F5806457
:1053A000A04249D004F58064A04247D004F580644F
:1053B000A04245D004F58064A04243D004F5806447
:1053C000A04241D004F58064A0423FD004F580643F
:1053D000A0423DD004F58064A04214BF0A240924F1
:1053E00004FA0CF444EA0E04BC609468F74315F424
:1053F000801F0CBF3C4034439460D46815F4001FF8
:105400000CBF3C403443D460546815F4003F0CBFDB
:105410003C40344354601468ED0354BF3C40344373
:1054200014600133102B7FF43DAF03B0BDE8F08F63
:105430000024D5E70124D3E70224D1E70324CFE7F2
:105440000424CDE70524CBE70624C9E70724C7E7F2
:105450000824C5E7003C014000000240003802403B
:105460000369194214BF0120002070470AB181610D
:1054700070470904FBE7436901EA030221EA0301DB
:1054800041EA02418161704701684B6913F480630E
:105490004FF0000210D06FF480634B612023026351
:1054A00080F83D3080F83E20036C80F83C2043F0CB
:1054B0000403036401207047184670472DE9F8463D
:1054C00006460F4691461D464FEA114A3368BAF127
:1054D000010F0CBF5C699C6927EA0404A4B2B4FA0A
:1054E00084F46409A14501D0002025E06A1CEED0B7
:1054F000FFF700FB089BC01AA84201D8002DE5D198
:105500003368BAF1010F0CBF5B699B6927EA03039B
:105510009BB2B3FA83F35B099945D7D100232022CC
:10552000336386F83D2086F83E30326C86F83C3096
:1055300042F0200232640120BDE8F8862DE9F041F6
:1055400004460F46164698462568686927EA000013
:1055500080B2C0B16B695A0517D52B6843F400734C
:105560002B606FF480636B6120220023236384F837
:105570003D2084F83E30236C43F004032364002371
:1055800084F83C300120BDE8F081731CDDD0FFF7CA
:10559000B1FAA0EB0800B04201D8002ED4D12368A4
:1055A0005A6927EA020292B2002ACDD000232022B3
:1055B000236384F83D2084F83E30236C1343DDE7F9
:1055C00070B504460D46164623685B691B0601D577
:1055D00000201EE02046FFF757FFC8B96A1CF3D031
:1055E000FFF788FA801BA84201D8002DECD1236870
:1055F0005B6913F08003E7D12022236384F83D2008
:1056000084F83E30226C84F83C3042F02002226460
:10561000012070BD2DE9F0431546026885B0DDE933
:105620000C789946136843F4807313600E463B462A
:10563000CDF8008000224FF001110446FFF73EFF35
:10564000236838B11B68DB0502D54FF4007323646F
:10565000032620E006F0FE061E611A4943463A463C
:105660002046FFF76BFFA8B9236803905A6903929D
:105670009B690393424639462046039BFFF7A0FFF0
:10568000064660B1236C042B01BF2268136843F403
:10569000007313600126304605B0BDE8F083B9F110
:1056A000010F236802D1EDB21D61F4E72A0A1A61E5
:1056B000394642462046FFF783FF0028E2D123689F
:1056C000F1E700BF020001002DE9FF479A46036899
:1056D00015461A6842F480621A601A68DDE90C788F
:1056E00042F480721A600E463B46CDF800800022DC
:1056F0004FF001110446FFF7E1FE236838B11B6843
:10570000DB0544BF4FF400732364032021E05FFAFC
:1057100086F906F0FE061E612B4943463A462046AE
:10572000FFF70CFFA0B9236803905A6903929B69A5
:105730000393424639462046039BFFF741FF58B189
:10574000236C042B01BF2268136843F400731360B9
:10575000012004B0BDE8F087BAF1010F23681AD127
:10576000EDB242461D6139462046FFF729FF024649
:105770000028E5D121680B6843F480730B60204654
:10578000CDF800803B464FF00111FFF797FE2268ED
:1057900060B11368B4E72A0A1A61394642462046C6
:1057A000FFF70EFF0028CBD12368D9E749F00103AA
:1057B0001361054943463A462046FFF7BFFE0038CD
:1057C00018BF0120C5E700BF0200010070B5044604
:1057D0000D46164623685B695B0701D500201EE075
:1057E0002046FFF751FEC8B96A1CF3D0FFF782F9D3
:1057F000801BA84201D8002DECD123685B6913F00F
:105800000403E7D12022236384F83D2084F83E304E
:10581000226C84F83C3042F020022264012070BDEA
:1058200070B504460D46164621684B6913F04003D7
:1058300001D0002011E04A69D2060FD56FF01002A6
:105840004A612022236384F83D2084F83E30236C93
:105850002364002384F83C30012070BDFFF74AF92F
:10586000801BA84201D8002DDED123685B6913F0AC
:105870004003D9D12022236384F83D2084F83E30B0
:10588000236C1343E4E7000070B5044608B9012017
:1058900070BD90F83D3003F0FF021BB980F83C204A
:1058A000FCF78EFB242384F83D3023681A6822F02D
:1058B00001021A601A6842F400421A601A6822F45F
:1058C00000421A6000F0A8FE3F4B65689D4294BFFD
:1058D0003E4B3F4B98428CBF00230123002BD6D177
:1058E0002268394E51683B4BB0FBF3F321F03F0186
:1058F0001943B542516088BF4FF49676116A88BF4C
:10590000734321F03F0184BF4FF47A76B3FBF6F383
:1059100001330B431362D169431E2B4821F44F41DD
:10592000854221F0FF0132D86D0040F6FC70B3FBD8
:10593000F5F30133034242D0C3F30B031943D161A2
:10594000D4E907301168034321F0C0010B43136011
:105950009168D4E9030321F40341034321F0FF01DB
:105960000B439360D4E90530D168034321F0FF0174
:105970000B43D360136843F001031360002020231E
:10598000206484F83D30206384F83E0080E7A068FE
:1059900050B905EB4505B3FBF5F30133C3F30B0336
:1059A0007BB143F40043C9E719206843B3FBF0F32C
:1059B0000133C3F30B0323B143F44043BEE7042395
:1059C000BCE70123BAE700BFA08601007F841E0068
:1059D000FF083D0040420F002DE9F7430446994679
:1059E0000C9E0F469046FFF785F894F83D30202B2B
:1059F000054603D0022003B0BDE8F08300903C4987
:105A0000192301222046FFF759FD0028F2D194F80E
:105A10003C30012BEED02068012384F83C30036831
:105A2000D9075EBF036843F001030360036823F4F2
:105A300000630360212384F83D30402384F83E3026
:105A4000002323640A9B6362BDF82C306385638D59
:105A50002385284BE3624246CDE900654B46394633
:105A60002046FFF7D7FD00282AD00120C3E7FFF723
:105A7000A7FD40B1236C042B01BF2268136843F4D7
:105A800000731360F1E7636A27681A4612F8011B76
:105A900039616262628D218D013A92B262857A69C2
:105AA000481E80B2520720850AD548B15A783A611B
:105AB00002336362638D013B02399BB221856385AA
:105AC000238D2A4631462046002BD0D1FFF77EFE9B
:105AD0000028CFD12268136843F400731360202399
