:020000040800F2
:10000000000003205D060008C1240008C324000886
:10001000C5240008C7240008C92400080000000007
:10002000000000000000000000000000A1820008A5
:10003000CB2400080000000031830008AF7B0008DB
:10004000AD060008AD060008AD060008AD060008C4
:10005000AD060008AD060008AD060008AD060008B4
:10006000AD060008AD060008AD060008AD060008A4
:10007000AD060008AD060008AD060008AD06000894
:10008000AD060008AD060008CD240008AD06000846
:10009000AD060008AD060008AD060008AD06000874
:1000A000AD060008AD060008AD060008AD06000864
:1000B000AD060008AD060008AD060008AD06000854
:1000C000AD060008AD060008AD060008AD06000844
:1000D000AD060008AD060008AD060008AD06000834
:1000E000AD060008AD060008AD060008AD06000824
:1000F000AD060008AD060008AD060008AD06000814
:10010000AD060008AD060008AD060008AD06000803
:10011000AD060008AD060008D9240008AD060008A9
:10012000AD060008AD060008AD060008AD060008E3
:10013000AD060008AD060008AD060008AD060008D3
:10014000AD060008AD060008AD060008AD060008C3
:10015000AD060008AD060008AD060008AD060008B3
:10016000AD060008AD060008AD060008AD060008A3
:10017000AD060008AD060008AD060008000000004E
:10018000AD060008AD060008AD060008AD06000883
:10019000AD060008AD060008AD060008AD06000873
:0C01A000E5240008AD060008F12400086A
:1001B00010B5054C237833B9044B13B10448AFF3A1
:1001C00000800123237010BD800300200000000088
:1001D0009C2D020808B5034B1BB103490348AFF33C
:1001E000008008BD00000000840300209C2D020850
:1001F00001F0FF01102A2BDB10F0070F08D010F8D8
:10020000013B013A8B422DD010F0070F42B3F6D1DB
:10021000F0B441EA012141EA014122F007047FF0F4
:1002200000070023F0E80256083C85EA010586EA4B
:10023000010685FA47F5A3FA87F586FA47F6A5FA87
:1002400087F68EB9EED1F0BC01F0FF0102F0070293
:1002500032B110F8013B013A83EA010313B1F8D13E
:100260000020704701387047002D06BF354603381F
:10027000073815F0010F07D1013015F4807F02BF58
:10028000013015F4C03F0130F0BC0138704700BFA9
:100290007BB972B90029BEBF00204FF0004106E0D3
:1002A00008BF00281CBF6FF000414FF0FF3000F086
:1002B000D3B9ADF1080C6DE904CE002909DB002BA0
:1002C0001ADB00F04DF8DDF804E0DDE9022304B0AC
:1002D0007047404261EB4101002B1BDB00F040F80E
:1002E000DDF804E0DDE9022304B0404261EB4101A6
:1002F000524263EB43037047524263EB430300F007
:100300002FF8DDF804E0DDE9022304B0404261EBA0
:1003100041017047524263EB430300F021F8DDF8DE
:1003200004E0DDE9022304B0524263EB430370476B
:1003300053B94AB9002908BF00281CBF4FF0FF314C
:100340004FF0FF3000F088B9ADF1080C6DE904CE34
:1003500000F006F8DDF804E0DDE9022304B07047A0
:100360002DE9F047089D8E4604468846002B4AD169
:100370008A42174662D9B2FA82F64EB1C6F120031C
:1003800001FA06F820FA03F3B74043EA0808B4403C
:100390004FEA174E1FFA87FCB8FBFEF1230C0EFB49
:1003A000118843EA084301FB0CF29A4209D9FB1871
:1003B00001F1FF3080F0EA809A4240F2E780023992
:1003C0003B449A1AA3B2B2FBFEF00EFB102243EAA2
:1003D000024300FB0CFC9C4509D9FB1800F1FF32DD
:1003E00080F0D6809C4540F2D3803B44023840EAFE
:1003F0000140A3EB0C0300211DB1F3400022C5E92D
:100400000032BDE8F0878B4205D90DB1C5E9000186
:1004100000210846F5E7B3FA83F1002946D1734578
:1004200002D3824200F20581841A6EEB030201209E
:100430009046002DE5D0C5E90048E2E7002A00F02B
:100440009080B2FA82F6002E40F0A4808A1A030C43
:100450004FEA174E80B2BCB20121B2FBFEFC0EFB8C
:100460001C2243EA024304FB0CF29A4207D9FB1810
:100470000CF1FF3802D29A4200F2E080C4469B1A87
:10048000B3FBFEF20EFB123340EA034302FB04F41B
:100490009C4207D9FB1802F1FF3002D29C4200F2C5
:1004A000CA8002461B1B42EA0C40A5E7C1F12006A8
:1004B0008B4022FA06F71F430EFA01F420FA06F3E6
:1004C0002EFA06FE4FEA1749234300FA01F81FFAF5
:1004D00087FCBEFBF9F01C0C09FB10EE44EA0E444D
:1004E00000FB0CFEA64502FA01F209D93C1900F105
:1004F000FF3A80F09C80A64540F2998002383C4447
:10050000A4EB0E041FFA83FEB4FBF9F309FB1344BA
:100510004EEA044403FB0CFCA44508D93C1903F142
:10052000FF3E80F08280A4457FD9023B3C4443EAF1
:100530000040A4EB0C04A0FB02EC64457346E146CA
:1005400062D35FD05DB1B8EB030264EB090404FA37
:1005500006F622FA01F31E43CC40C5E900640021EF
:100560004FE7B1FBF2FC010C41EA0E4180B240EAD8
:1005700001423B4638463C46B846BE462026B1FBC3
:10058000F7F1A2EB080241EA0C4166E7014618E7E1
:1005900010462CE7C6F120022EFA02F3B740B14014
:1005A00020FA02F24FEA174E0A43B3FBFEF8BCB240
:1005B0000EFB1833110C41EA034108FB04F9B0406B
:1005C00089454FEA104380B23ED9791808F1FF3CC3
:1005D00001D289451FD8A1EB0901B1FBFEF909FB46
:1005E00004F80EFB191192B242EA0142424529D2A7
:1005F000BA1809F1FF31C4D24245C2D2A9F10201B1
:100600003A44BEE7F0459DD2BEEB02036CEB070C0B
:100610000138E14696E7A7EB09094944A8F1020C25
:10062000B1FBFEF909FB04F8DBE773467FE75046B0
:1006300066E70846FDE63B44023A33E7ACF1020CBC
:100640003B441CE749469CE7A1EB0901C446B1FBCA
:10065000FEF909FB04F8C4E7704700BFDFF834D0A7
:10066000002103E00C4B5B58435004310B480C4B0A
:1006700042189A42F6D30B4A02E0002342F8043BA8
:10068000094B9A42F9D304F04FFC21F0E5FD01F04B
:10069000B1F8704700000320C89D0C08000000203E
:1006A00064010020800300205C4F0120FEE77047BA
:1006B00008B500F0BFFDBDE8084000F041BD00F006
:1006C000BBBD704710B50421044620F0BEFB204698
:1006D00010BD000038B50C4B0C4C18800C4B822020
:1006E00019806368984740F6110398420AD1094D72
:1006F00023682C60822098472B688220DB6898470B
:10070000002038BD0120FCE7A60300204C0000209B
:10071000A4030020A80300204FF4A071F020FFF7ED
:10072000D9BF0000F7B5394D2B6804461B698220FC
:100730009847208000284ED02B680DF106025B6997
:1007400001A982209847324B1B78002B4BD0BDF873
:10075000062040F674639A423FD9ADF80630BDF8E2
:1007600006209B1A9BB20A2B42D90B22B3FBF2F351
:10077000284A1288934201D9013A93B2BDF8042065
:10078000254840F6B8318A4234D8C2F571620E323B
:10079000016892B20F25B2FBF5F2204D2D88AA42D6
:1007A00084BF05F1FF35AAB28A4215468EB22AD916
:1007B000921B91B21A4E3768BB42BAB28CBF9A1ADA
:1007C000D21A92B211440529C4BF05603360036890
:1007D00063803368A38003B0F0BDB32A9CBFB4220A
:1007E000ADF80620BBE7BDF80630A3F5B473B9E752
:1007F0000023C3E7C2F56D62083292B20E2A016887
:10080000C8D800252A46891A89B2D3E7A803002050
:10081000D02B0020A4030020A0030020A60300206A
:100820009C03002037B568460D461446FFF77AFF53
:10083000BDF8000030B1BDF802302B60BDF80430C7
:100840002360012003B030BD032821D8DFE800F089
:10085000020B12190F4B1A68B2FA82F252090421E4
:100860000D4805F051B80B4B5A68B2FA82F25209A2
:100870000821F5E7074B9A68B2FA82F25209102173
:10088000EEE7044BDA68B2FA82F252092021E7E778
:10089000704700BFAC03002000100240032821D89D
:1008A000DFE800F0020B12190F4B1A68003A18BF6C
:1008B000012204210D4805F027B80B4B5A68003A75
:1008C00018BF01220821F5E7074B9A68003A18BFC4
:1008D00001221021EEE7044BDA68003A18BF01222A
:1008E0002021E7E7704700BFAC0300200010024062
:1008F00003280DD8DFE800F00206080A04210548A5
:1009000005F007B80821FAE71021F8E72021F6E7FB
:10091000704700BF0010024008B5032811D8DFE877
:1009200000F0020A0C0E0421074804F0E7FF431E02
:100930005842584108BD0821F6E71021F4E720216C
:10094000F2E70020F3E700BF0010024070B5084D49
:1009500000240126E0B2FFF7DFFF18B12B68012B5E
:1009600018BF2E600134052C05F10405F2D170BDCD
:10097000AC030020012380F8781080F879307047AC
:100980007047002070470000034B4164003918BFD6
:1009900001211970704700BF1B42012070470020E1
:1009A0007047836B0BB10846184770474FF6FF70CE
:1009B0007047406803689B691847704770477047E5
:1009C0007047704710B5044600F04CFD236803499A
:1009D000D3F890302046BDE810401847000000D002
:1009E00008B503680446D3F8843098472368204646
:1009F000DB6F984700F0ECF8236820465B6F984760
:100A0000292001F0E3F900F0E3F8236820465B6F4A
:100A10009847F8E710B504460AF058FA23682046CC
:100A2000D3F8BC30BDE81040184700F0FFBC00F020
:100A300003BD00F035BD00F0D5BC00F045BD00F0B1
:100A40004DBD00F0D9BC09F06FBC10B5842104463F
:100A500020F0FBF9204610BD10B590F8341090F846
:100A600078400C4B8C421A7809D03AB90A4A0B49A3
:100A70001488088810800C8001221A7010BD002A8A
:100A8000FCD0054A05491488088810800C80002293
:100A9000F3E700BF1442012010420120124201205E
:100AA00070B50D46194635B9094B0A4A0A4840F255
:100AB000FF2121F007F9C0E90F52084B003A18BF97
:100AC00001221A700368BDE87040D3F890301847CF
:100AD0000C2E0208442E0208922E02081A4201200F
:100AE00008B5094B1B888B4203D8084B1B889342DF
:100AF00005D9074B074A0848A32121F0E3F8074B23
:100B00001980074B1A8008BD1042012012420120B3
:100B1000D72E02083A2F0208922E02081642012010
:100B200018420120034690F87A0018B1586803680B
:100B30001B68184770470000012108B500220846CD
:100B400007F0BEF80A4B186028B90A4B0A4A282158
:100B50000A4821F0B7F800220421012007F058F9D3
:100B6000074B186018B9074B034A2C21F0E708BD62
:100B7000C00300207D2F0208C62F0208F52F0208AF
:100B8000BC0300202F300208024B4FF0FF311868E1
:100B900007F0E0B8C0030020014B186807F006B961
:100BA000C0030020024B0021186807F0D3B800BF33
:100BB000C0030020FFF7F0BF03480449006800238A
:100BC0001A4607F060B900BFBC03002004000020F3
:100BD00013B5084C00231A4601A9206807F084F9D0
:100BE00020684FF0FF33002201A907F07DF902B021
:100BF00010BD00BFBC03002003685B6C18470120D8
:100C0000704703689B6A1847FEE740F2EF30704771
:100C1000054B0360054B4FF08062C3F88820BFF39B
:100C20004F8FBFF36F8F7047003A020800E100E07A
:100C300010B504464FF45A61FFF7EAFF204620F052
:100C400004F9204610BD000082B0002301930E4B32
:100C50001A6B42F400021A631A6B02F4000201924A
:100C6000019A1A6942F400021A611A6922F4000218
:100C70001A61064B064A1A61064A5A61064B4FF042
:100C800080629A6002B0704700380240BC2D00209C
:100C9000E90E0008090C000800E100E008B50A2888
:100CA00009D8DFE800F006100E0808080810101038
:100CB0001000022008BD054B054A0648902121F08E
:100CC00001F80020F6E70120F4E700BF71300208C8
:100CD0008C300208D730020838B50C46887FFFF701
:100CE000DDFFA58AE28A164B2169586342EA054274
:100CF0005A64628BD963521B1A642568082D0ED181
:100D00009A611A615862207F0E4A42EA0062DA61F3
:100D1000E2681A620C4A5961D9601A6038BD002233
:100D2000D8611A61E1680A0A480902F4784200F4BD
:100D3000FC600243C1F3C4010A439A63034AECE72F
:100D400000B002400900010001230200012303005A
:100D500008B50B280BD8DFE800F00612100A0A0AC3
:100D60000A0808080808022008BD0520FCE7054B12
:100D7000054A06486F2120F0A5FF0020F4E7012076
:100D8000F2E700BF713002080F310208D7300208C5
:100D90002DE9F04191F81D800C464046FFF7D8FF41
:100DA000A77F05463846FFF7D3FF06463846FFF7CC
:100DB00075FFA18A628B444B521A1A649A61228B86
:100DC000521A1A61E28A586342EA01425A6421695E
:100DD0006268D963DA602068802828D0227F0FD823
:100DE000202867D0402865D004281AD0364B45EA21
:100DF000026545F40035B845DD6161D0334A44E011
:100E0000B0F5807F04D0B0F5007FEFD1304800E02E
:100E1000304840EA0262DA61E2681A625E62596151
:100E200032E045EA026242F40032DA61F6E7A06895
:100E3000021DDA62227F45EA026545F40035DD6174
:100E40005E625961017841B1012921D0224B234AC8
:100E500023484FF48D7120F035FFDA69418822F480
:100E60007F42013922F0100242EA0122DA610121B7
:100E7000154BDA6942F02002DA61DA699206FCD495
:100E800010229A600029B9D0164A1A60BDE8F08194
:100E9000B2F1FF01DA69408822F47F4200F1FF30AD
:100EA00022F0100242EA002242F0100218BF012193
:100EB000DA61DDE745EA0262034B42F40032B4E74F
:100EC00042F20132E1E700BF00B00240012301001D
:100ED000090002000A0002005931020873310208B9
:100EE000D730020801230200024B1B6858680368D0
:100EF0005B6918471C42012070B5044625460A4B21
:100F00000C30002660602672667245F8203B602235
:100F100029460AF031F904F55A63EE6024359D4202
:100F2000FBD1204670BD00BF003A0208034B1A688F
:100F3000D207FCD423229A60704700BF00B0024061
:100F40007047000030B50F4C2568ED07FCD4232511
:100F50000904A56041F001010225FF2B656361646E
:100F6000E0630AD00849656241EA0363E361074B25
:100F700022626061E060236030BDE561039BA36392
:100F8000034BF8E700B00240090001000100020035
:100F90000100030030B50E4C2568ED07FCD4232575
:100FA0001204A56042F001020225FF2B6563626412
:100FB000E063E16008D01B0643F00213E361054BD8
:100FC00065626061236030BD034BE3610123F9E793
:100FD00000B0024001000200020002FF30B50B4CDD
:100FE0002568ED07FCD4232512041B06A56043F4F5
:100FF0000033022542F0010265636264E063E16050
:10100000E361034B65626061236030BD00B0024064
:1010100001000200012070470C2070470C2303FBE5
:101020000100083070470C2303FB010008307047B3
:101030000120704741F2B460704741F2B46303FB92
:1010400001000830704741F2B46303FB010008302F
:101050007047012070471020704700EB01100830E6
:10106000704700EB011008307047084601F0CABC19
:1010700010B5034B0360044608F0ADFE204610BDDA
:10108000B83A020810B50446FFF7F2FF20461421D3
:101090001FF0DBFE204610BD10B5034B0360044675
:1010A00008F099FE204610BD843A020810B50446A7
:1010B000FFF7F2FF204641F2BC611FF0C6FE20465A
:1010C00010BD000010B5034B0360044608F083FE1A
:1010D000204610BD503A020810B50446FFF7F2FF53
:1010E000204618211FF0B1FE204610BD10B5094B57
:1010F0000360044600F5B7500830FFF7B9FF04F16C
:101100002C00FFF7C9FF04F11400FFF7DBFF2046B6
:1011100010BD00BFEC3A020808B50248FFF7E6FF31
:1011200008BD00BF9C12002010B50446FFF7DEFF8B
:10113000204641F65C011FF088FE204610BD0000ED
:101140002DE9F34101F03AFA054601F03BFA00249B
:101150000146234628462246009410F0E3FD274B23
:10116000274A1A60204602F0C7F8264D264B274A28
:1011700027489A6010F03EFD2B68BFF35B8FDB07BA
:1011800035D428461FF063FE88B3224C224B234FF0
:10119000236004F5B85604F1140004F12C086060D3
:1011A000C4F80880E760266108F016FE1C4B6361F6
:1011B000404608F011FE1B4BE362384608F00CFE77
:1011C00004F5805303F2FC60174AC3F8E82603F0E5
:1011D00039F82246311F304602F0FAF8304601F065
:1011E00011FC124820F08CFD28461FF03CFE1048F0
:1011F00002B0BDE8F041FFF7E5BB00BF804201202F
:101200004804002098120020680400204C040020AC
:10121000080000209C120020EC3A020884290020DB
:10122000503A0208843A0208B83A02081911000834
:10123000C4030020704700000148FFF7D1BB00BF86
:10124000C403002070B5264E264C274D274B236043
:101250003046FFF751FE284615F06AFE24480EF08E
:1012600053FE244B2448DC6000224FF48071C3E914
:10127000121222491A86C3E91A12214983F858200A
:10128000C3E91E011F49C3F880101F491F480B60A6
:10129000F021C3E90422C3E90622C3E90822C3E915
:1012A0000A22C3E90E22C3E91022C3E91422C3E9CA
:1012B00017225A6683F870205A67C3E901650180D6
:1012C0001348018013484FF4A07101801248018037
:1012D00012490A70012283F83420114A1A6070BD45
:1012E000F40400209412002068040020FC2D020861
:1012F0004C040020C4030020000001010100000193
:10130000000450001A0014001C4201201042012069
:1013100016420120124201201842012014420120ED
:10132000143902080148FFF773BC00BFF404002021
:101330000020704781807047C180704701817047ED
:10134000418170477047704770477047704710B4CD
:10135000C4880368121B84885B6D091B12B25DF898
:10136000044B09B218474FF6FF7383814FF0FF33E8
:1013700003621368C36110607047002070478B8858
:10138000838001207047704780F82610704790F8DE
:101390002600704710B50022B1F90840B1F90A10D3
:1013A000028042808480C18010BD00220280428081
:1013B0008280C28070470177704780ED080A7047CD
:1013C00080F82410704780F825107047012070477E
:1013D000983070478C307047843070477047704742
:1013E00070470000034B902283F85A2383F8582358
:1013F000704700BF00E100E0094A0A49D3680A4883
:10140000C3F30A03013B9BB20B801169C1F30A01CC
:10141000013901801364536B43F001035363704738
:1014200000680140FA2A0020F82A0020014BD3F876
:10143000AC00704700680140024B0122C3F8AC10B9
:101440005A6270470068014010B52C2104461FF015
:10145000FCFC204610BD10B5BC2104461FF0F5FC75
:10146000204610BD70B5044608F0B3FF23689D6E9A
:101470000DF0E2FA01462046A8472368054AD3F852
:101480008C502046AC460023BDE87040A2F51631D2
:10149000604700BF00B004D008F082BF08F08CBFE6
:1014A00008F048BF09F0B7B890F8252012B10368DA
:1014B0005B691847704790F825201AB190F82420EE
:1014C00002B1186070470000034B4FF080629A60D1
:1014D0004FF080729A60704700E100E0084B4FF0D7
:1014E0008062C3F88820BFF34F8FBFF36F8F4FF038
:1014F0008072C3F88820BFF34F8FBFF36F8F7047A0
:1015000000E100E070B50023124E8380124B0360AF
:10151000336893F8582005460AB1D86C00B998682A
:101520000368DB6A98473368B0FA80F4D86C6409C2
:1015300030B10368DB6A9847002808BF44F0010413
:101540002CB9064B064A07482C2120F0BBFB284645
:1015500070BD00BF1C420120003B0208B1310208EF
:101560000F3202084832020870B5254E3568BFF3C5
:101570005B8F15F0010540D130461FF068FC002854
:101580003BD0204C204B256104F13400C4E90035E8
:10159000C4E90255E584A562A5850EF09AFF04F121
:1015A00058000BF09DFA194BA3652046184B40F8E4
:1015B000843BFFF7A7FF174BC4F884302433C4F8EB
:1015C0008C304FF4C803C4E928350023C4F8AC308C
:1015D000C4F8B030C4F8B430C4F8B8300E480F4B7B
:1015E000C4F89050C4F89C50C4F8A850C4F898307F
:1015F00020F086FB30461FF036FC024870BD00BF6D
:10160000FC2A0020002B002038440208203B02085E
:10161000983B0208EC430208E1130008CC4302089F
:1016200038B5184C23685BB3174B184A1B6C1188EC
:101630008B4216D1164B198804F06EFF236893F87D
:101640006A200025013283F86A2083F87C50FFF776
:10165000B3FA206809F03AFC2846BDE83840FFF7A5
:10166000F3B804F059FF2468236820461B6A9847A2
:10167000012384F87C300020BDE83840FFF70EB924
:1016800038BD00BF1C42012000680140FA2A00203A
:10169000F82A002007B5064BADF806001B68054880
:1016A00001220DF1060105F005FD03B05DF804FB14
:1016B0000C000020582C002007B51B4C1B4D237834
:1016C000012B12D12B78DC2B23D9522318488DF80B
:1016D000073000220A230DF10701006806F0D3FB52
:1016E00000231448237003F013FD1348042104F071
:1016F00005F9024648B9114846238DF807300068BD
:101700000A230DF1070106F0BEFB102006F0CCFA0B
:10171000D5E71D2BE4D84C238DF8073008480A2361
:1017200000220DF10701D8E7C02B0020C12B0020BB
:10173000CC2B0020042E002000180240C42B0020D7
:10174000C82B002010B54FF0FF331446024892B268
:1017500006F047F9204610BD102C002030B595B09A
:10176000102200210AA820F0CEFC1422002103A898
:1017700020F0C9FC00241D4B01941A6C42F08052E9
:101780001A641B6C03F080530193019B184B029465
:101790001A6842F440421A601B6803F44043029303
:1017A0000122029B4FF48033CDE9082302254FF438
:1017B0008003CDE90E5308214FF4A873CDE910132F
:1017C00008A807231393129504F0C4FE0F23CDE954
:1017D00003354FF4A0504FF48053CDE906030521A3
:1017E00003A8059405F092F815B030BD003802400A
:1017F000007000402DE980489BB003F0A3FBFFF789
:10180000ADFF142200210DA820F07DFC0024C84B60
:1018100000941A6BC748DFF85883DFF8589342F0FA
:1018200010021A631A6B02F010020092009A0194DF
:101830001A6B42F020021A631A6B02F02002019226
:10184000019A02941A6B42F080021A631A6B02F03A
:1018500080020292029A03941A6B42F004021A6305
:101860001A6B02F004020392039A04941A6B42F07A
:1018700001021A631A6B02F001020492049A0594A1
:101880001A6B42F002021A631A6B02F0020205920E
:10189000059A06941A6B42F040021A631A6B02F022
:1018A00040020692069A07941A6B42F008021A63E5
:1018B0001B6B03F00803224607933C21079B04F0AF
:1018C00023F89D480122022104F01EF822469A487E
:1018D000042104F019F8224698484FF4405104F0CE
:1018E00013F801263C23CDE90D3692480F940323CB
:1018F0000DA90227109303F01DFF8F480DA9CDE914
:101900000D760425CDE90F4403F014FF8A480DA994
:10191000CDE90D56CDE90F4703F00CFF4FF44053CE
:1019200086480DA9CDE90D36CDE90F4703F002FF3A
:101930000DA983480F96CDE90D5403F0FBFE8148B5
:10194000814B824D036003F0EBFD814B2C62C5E9B6
:10195000008328464FF48043C5E90434C5E90244B6
:10196000C5E9064404F0DEF91021284604F022FC03
:1019700021462846774D04F03CFC4FF48273C5E9BC
:1019800000934FF4007A1823C5E906A328460A23DA
:10199000C5E90244C5E90444C5E90844AC62EB6208
:1019A00005F02CFB8F232246394663488DF82430FE
:1019B0008DF8344003F0A8FF32464FF47A7309A93A
:1019C000284605F077FB4FF47A7332460DA9284676
:1019D00005F01CFD3246394657485F4D03F094FF31
:1019E0009DF83430D32B04BF5C4B1E705C4B01263A
:1019F0004FF01008C5E9003640230024C5E90483F0
:101A00004FF4C073C5E906344FF40063C5E90834E8
:101A10004FF4005302274FF0040AAB624FF0030B60
:101A200007230DA92846CDE90D73CDE90FA34FF08B
:101A30000809C5E9024ACDE911B7139705F0C1F9C4
:101A40004FF6FF7209A92846CDE90A96089409962F
:101A50000C9405F0D6F9304603F0A0FA4FF6FF7269
:101A600009A92846CDE90979CDE90B6405F0C9F942
:101A70004FF6FF7209A92846CDE909B9CDE90BA4B3
:101A800005F0BFF94FF40C730893089B0C934FF6C5
:101A9000FF7209A92846CDE909A90B9605F0B1F90D
:101AA00040F26A51284605F0CAF9342221460DEB6E
:101AB000020020F028FB2B4D2B4B2C61C5E9003494
:101AC0000923C5E905361D23C5E9073B40F20D1280
:101AD00040F24313C5E9092340F2171140F24713BE
:101AE0002846C5E90B13C5E90244AC8685F83640A3
:101AF00004F01AFCFF21F022CDE912144FF48060AB
:101B000005214FF4A073CDE91401CDE90E240DA9F0
:101B1000CDE9164228462246144D1893CDE91037D8
:101B20000D94ADF864408DF8664004F0C8FC23E0E5
:101B3000003802400010024000080240000C024041
:101B400000180240FC2D002000300240682D0020CB
:101B5000A0860100582C0020DC2B0020D02B002078
:101B6000400100A0C02C002000680140BC2B0020D8
:101B7000005C004000500140414B2B601B689847BF
:101B80002B68404DDB6898473F4B2846C5E9003439
:101B9000C5E90274C5E90A47C5E90C4403F0D0FC65
:101BA0003146284603F082FD424621460DA820F02A
:101BB000AAFA364DDFF81CC12C614FF48033C5E919
:101BC00000C34FF00073AB602846314BAB622C76FC
:101BD00085F82040EC62EC60EE6185F830406E6183
:101BE00003F0F0F90DA90D232846CDE90D360F9429
:101BF00003F0A6FBDFF8E0E026484FF4E133C0E94C
:101C000000E30C23C0E90534C0E902440461C46167
:101C100005F0B8FE2048214B036005F07BF8FEF785
:101C200047FDFEF744FD1E4B28461C7003F070FA7A
:101C300005F0CAFF1B4A3946404606F0E9F81A4B40
:101C40001A4A18603946404606F0E2F8184B194A1D
:101C500018603946404606F0DBF8174B174A186003
:101C60002146174805F0DCFF164B174A186021463D
:101C7000164805F0D5FF164B186005F0B7FFFEE7D4
:101C800014000020BC2D002000B00240042E0020D3
:101C90000100000F102C0020B02C0020000806507E
:101CA000C02B00200C3C0208CC2B0020F43B020887
:101CB000C82B0020DC3B0208C42B0020483C020853
:101CC000B9160008D82B0020243C0208BF060008E3
:101CD000D42B0020002001400010014070477047C5
:101CE0007FB5094B8DF817201B6802930DF1170281
:101CF0000123009201930A460146044804F0BAF811
:101D000007B05DF804FB00BF10000020682D002024
:101D10007FB500238DF81730084B1B6802930A46E5
:101D200001230DF11701009101930146044804F0CD
:101D300031F99DF8170007B05DF804FB1000002092
:101D4000682D00201FB5084C24680092CDE90134AD
:101D50000A4601230146054804F01CF9003818BF63
:101D6000012004B010BD00BF10000020682D00202D
:101D700003F014B910B5064C00222046042103F0EC
:101D8000C3FD20460122BDE81040042103F0BCBD84
:101D90000008024038B50B4D044601220A484FF4B2
:101DA000005103F0B1FD00220421284603F0ACFDF0
:101DB0002046FFF76FFC28460122BDE83840042189
:101DC00003F0A2BD00080240000C024038B50B4DE4
:101DD000044600220A484FF4005103F095FD00220A
:101DE0000421284603F090FD2046FFF753FC2846C7
:101DF0000122BDE83840042103F086BD00080240FE
:101E0000000C0240F7B5144E144F05460C46304600
:101E10000022042103F078FD00224FF400513846DF
:101E200003F072FD2846FFF735FC0D4B0D481B688B
:101E3000224601A905F0EAFA384601224FF4005182
:101E4000019C03F061FD30460122042103F05CFD9A
:101E5000204603B0F0BD00BF00080240000C024065
:101E60000C000020582C002003F098B808B5054B52
:101E7000834206D103F0D0F9034B1870034B0122C3
:101E80001A7008BD042E0020C12B0020C02B00209A
:101E90000268034B9A4201D103F06EB8704700BF4D
:101EA000001000407047000082B00E4B00220092EC
:101EB000596C41F480415964596C01F4804100919E
:101EC00000990192196C41F0805119641B6C03F068
:101ED00080530193019B0F216FF0010002B003F0CA
:101EE000DFBA00BF0038024010B5044688B01422A3
:101EF000002103A820F007F92268164B9A4226D148
:101F000003F58C33002401945A6C134842F4807218
:101F10005A645A6C02F480720192019A02941A6B0C
:101F200042F004021A631B6B03F0040302930822BD
:101F3000029B03A90323CDE9032303F0FBFB12203B
:101F40002246052103F0ACFA122003F0DBFA08B0B8
:101F500010BD00BF00200140000802400268094B8C
:101F60009A4282B00BD100230193074B1A6B42F4C3
:101F700080521A631B6B03F480530193019B02B0E0
:101F8000704700BF003002400038024007B50F4BD9
:101F900002689A4216D10022A3F5F0430192196B10
:101FA00041F4000119631B6B03F400030193052145
:101FB0005A20019B03F074FA5A2003B05DF804EB39
:101FC00003F0A0BA03B05DF804FB00BF00B002400C
:101FD0002DE9F043044689B01422002103A820F023
:101FE00092F82268244B9A4243D1244C244800257D
:101FF0000095236B43F004032363236B03F0040376
:102000000093009B0195236B43F001032363236B33
:1020100003F001030193019B4FF012094FF4007389
:102020004FF001080327042603A9CDE90339CDE9C0
:102030000587079603F07EFB4FF4807311480796DF
:1020400003A9CDE90339CDE9058703F073FB0295B8
:10205000236C43F400032364236C03F40003029312
:10206000029B236A43F400032362236A23F40003E0
:10207000236209B0BDE8F083005C004000380240F4
:102080000008024000000240F0B599B00446142256
:10209000002107A820F037F830220DEB02000021C4
:1020A00020F031F822685E4B9A4240F0B780082356
:1020B0000C93C0231093042312930CA84FF4003305
:1020C000159304F0FBFC08B1FFF7ECFE554B5648A6
:1020D000002400945A6C42F080625A645A6C02F0F8
:1020E00080620092009A01941A6B42F020021A63F7
:1020F0001A6B02F020020192019A02941A6B42F0CC
:1021000001021A631A6B02F001020292029A03940E
:102110001A6B42F002021A631A6B02F00202039277
:10212000039A04941A6B42F040021A631A6B02F08D
:1021300040020492049A05941A6B42F004021A6356
:102140001A6B02F004020592059A06941A6B42F08B
:1021500008021A631B6B03F00803069302250E2680
:10216000069B0B964FF4806307A9CDE90735CDE9AF
:10217000094503F0DFFA41F658032C480B9607A9EE
:10218000CDE907350927CDE9094503F0D3FA032343
:1021900027480B9707A9CDE90735CDE9094503F095
:1021A000C9FA4FF4706322480B9607A9CDE90735A9
:1021B000CDE9094503F0BEFA4FF40C631D480B96B8
:1021C00007A9CDE90735CDE9094503F0B3FAC023E6
:1021D00019480B9607A9CDE90735CDE9094503F064
:1021E000A9FA082315480B9607A9CDE90735CDE9CB
:1021F000094503F09FFA4FF4A0530E480B9707A927
:10220000CDE90735CDE9094503F094FA5820224677
:10221000052103F045F9582003F074F919B0F0BD19
:1022200000680140003802400014024000000240F3
:10223000000402400018024000080240000C024066
:102240000268094B9A4282B00BD100230193074BDD
:102250005A6B42F040025A635B6B03F040030193F8
:10226000019B02B0704700BF0008065000380240D2
:1022700010B5044688B01422002103A81FF043FFC4
:102280002268144B9A4223D103F56843002101913F
:102290005A6C114842F480125A645A6C02F480124B
:1022A0000192019A02911A6B42F020021A631B6B91
:1022B00003F020030293029B4FF460720223032178
:1022C000CDE903230523CDE9061303A903F032FA70
:1022D00008B010BD005001400014024010B5044683
:1022E00088B01422002103A81FF00DFF2268144BB0
:1022F0009A4223D103F59433002101915A6C11487D
:1023000042F010025A645A6C02F010020192019AD3
:1023100002911A6B42F001021A631B6B03F0010376
:102320000293029B4FF4C06202230321CDE90323F1
:102330000723CDE9061303A903F0FCF908B010BD8B
:1023400000100140000002402DE9F04186B000235A
:1023500003932B4B1C68002C4FD14FF00108C3F89E
:102360000080284B00949A6B274842EA08029A633F
:102370009B6B03EA08030093022703260C25009BAE
:1023800001A94FF63F03CDE90137CDE9046503F01C
:10239000D1F91E48059501A9CDE90187CDE903468C
:1023A00003F0C8F948F233131948059501A9CDE99E
:1023B0000137CDE9034603F0BDF94FF683731548A5
:1023C000059501A9CDE90137CDE9034603F0B2F93E
:1023D0004CF203731048059501A9CDE90137CDE909
:1023E000034603F0A7F960230C48059501A9CDE940
:1023F0000137CDE9034603F09DF906B0BDE8F08151
:102400004C2E002000380240001402400008024018
:102410000018024000100240000C0240000402407C
:1024200070B588B000230293204B1A6C42F0100262
:102430001A641B6C03F010030293054601A903A85C
:10244000029B04F01DFB069B4BBB04F0F9FA184EEF
:10245000184B336040F2E733F360174BB0FBF3F3F4
:10246000013B7360304600233361B360B36105F014
:102470009DF9044680B9304605F06EF8044658B917
:10248000362003F03FF80F2D0DD82246294636207E
:1024900003F006F8094B1D60204608B070BD04F03B
:1024A000CFFA4000D3E70124F6E700BF003802402E
:1024B000502E00200010004040420F007C00002001
:1024C0007047FEE7FEE7FEE7FEE77047014802F0CF
:1024D000A8BE00BF042E0020014805F07BB800BF55
:1024E000502E0020014803F08DBF00BFC02C0020FB
:1024F000014803F051B800BFBC2D002001207047F7
:1025000008B51FF0A3FE162303604FF0FF3008BD8F
:1025100008B51FF09BFE16230360FEE770B50D465D
:1025200014460E46731B9C4201DC204670BDAFF37F
:10253000008006F8010BF5E74FF0FF3070474FF4CD
:1025400000534B6000207047012070470020704707
:102550000A4A116808B5034609B9094911601068AB
:10256000694603448B4206D91FF070FE0C230360BA
:102570004FF0FF3008BD1360FCE700BF982E00202D
:10258000604F0120704710B5042104461EF05DFC29
:10259000204610BD012908B506D0022908D059B936
:1025A00000F0E8FE006808BD00F0E4FE4068FAE7CD
:1025B00000F0E0FE8068F6E70020F4E7004870478E
:1025C000803C02082520704713B5002451B10368F0
:1025D00001948DF8034001AA9C680DF10303A04704
:1025E00002B010BD0846FBE7C0897047008A7047FB
:1025F000C088704780887047807A00F07F007047FD
:10260000807AC00970470020704700009FED010AE2
:10261000704700BF000000007047704700F59873D6
:102620000868496803C37047704770474160704746
:1026300070477047064BC0F84C310023C0F850314A
:1026400000F5A273C0F84801C0F84031704700BFE0
:1026500041280008012303727047704710B4C26814
:1026600041685410034601EB6200D20748BF0A5983
:102670009B685DF8044B48BFD35818470346406831
:1026800030B19A681AB9D86800F00100704701208B
:10269000704710B50C2104461EF0D7FB204610BD34
:1026A00010B5102104461EF0D0FB204610BD10B519
:1026B0004FF4AE7104461EF0C8FB204610BD10B5A5
:1026C0000CF0BAF90368BDE81040DB6B184710B591
:1026D0000446D0F8400158B10368DB68984738B128
:1026E000D4F8400103689B6898470023C4F8403140
:1026F00010BD00002DE9F14FD0E9556A0746B068DA
:1027000003681B6A984741F2B363984205D8444B6B
:10271000444AA32144481FF0D5FA706803681B6A35
:1027200098470F2803D8414B3E4AA421F2E7F068AE
:1027300003681B6A98470B2803D83D4B394AA521EB
:10274000E8E70CF079F9DFF8F09004300CF099F933
:10275000D9F8000010B10368DB689847D9F8000089
:1027600010B103681B689847DFF8D080D8F80000E4
:1027700010B103685B699847D7F83C0110B1036852
:102780005B689847D8F8000010B103681B68984749
:10279000D7F83C0110B103689B689847F06803685C
:1027A00000215B6A98474FF0000B224BC0F804B041
:1027B000044680F808B00360B068036859465B6A55
:1027C0009847054601F010FA7068036859465B6A3D
:1027D00098472946064600F013FE331DC7F83C61B2
:1027E000C9F80040C8F80050CAF800302B68C6F895
:1027F00008A02846DB68EE639847336830461B68BC
:102800009847214628460EF0C7FA236820461B69E0
:10281000984723685B69204601B0BDE8F04F184730
:10282000D4320208623302083A34020881340208C2
:1028300024350208D83F020864420120604201208A
:102840002DE9F14FD0E9556A0746B06803681B6A65
:102850009847B0F5E47F05D2444B454AA32145484B
:102860001FF030FA706803681B6A98470F2803D876
:10287000414B3F4AA421F2E7F06803681B6A98477E
:102880000B2803D83D4B3A4AA521E8E70CF0D4F8D1
:10289000DFF8F09004300CF0F4F8D9F8000010B133
:1028A0000368DB689847D9F8000010B103681B681B
:1028B0009847DFF8D480D8F8000010B103685B694E
:1028C0009847D7F83C0110B103685B689847D8F87F
:1028D000000010B103681B689847D7F83C0110B19D
:1028E00003689B689847F068036800215B6A984713
:1028F0004FF0000B224BC0F804B0044680F808B03B
:102900000360B068036859465B6A9847054601F062
:102910002DFC7068036859465B6A9847294606464D
:1029200001F002FC331DC7F83C61C9F80040C8F84B
:102930000050CAF800302B68C6F808A02846DB68AB
:10294000EE639847336830461B689847214628460F
:102950000EF022FA236820461B69984723685B69BA
:10296000204601B0BDE8F04F184700BFD43202083E
:10297000C73502083A3402088134020824350208B7
:10298000D83F02086442012060420120044B1B68CA
:1029900093F858200AB1D86C00B99868704700BF06
:1029A0001C42012070B504460D4616460CF006F98F
:1029B000104A1460104A2260104A0023C4E95123CF
:1029C000C4E95333C4E94F330D4B18680368012140
:1029D0009B68C4E955659847FFF7D8FF16F051F991
:1029E000FFF7D4FF16F0C8F9FFF7D0FF16F0D0F9C3
:1029F000204670BD70420120843F02086C3F0208EF
:102A00001C420120064BC0F84C310023C0F8503165
:102A100000F5A273C0F84801C0F84031704700BF0C
:102A200041280008064BC0F84C310023C0F8503153
:102A300000F5A273C0F84801C0F84031704700BFEC
:102A4000F526000870477047704770477047704719
:102A5000704710B54FF4BA7104461EF0F6F92046DF
:102A600010BD70B5036804461B6B15469847236874
:102A7000294620465B6BBDE870401847002310B51F
:102A8000C0E90133C0E90333C0E90733C0E90533C6
:102A90004FF480738384064B03600B88C384FF2349
:102AA000044680F828300AF076F8204610BD00BFB2
:102AB000644502082DE9F04F044685B00DF0C0FFD3
:102AC000624A2260624A0026C4E910264FF48072EE
:102AD00004F16C0AA4F86420FF2284F866204FF603
:102AE000FF7504F1980903A9C4E91266C4E91466E4
:102AF000C4E91666E6632666A666504604F1C40875
:102B0000ADF80C50FFF7BAFF03A9484604F1F007EF
:102B1000ADF80C50FFF7B2FF03A94046ADF80C50DA
:102B2000FFF7ACFF03A93846ADF80C50FFF7A6FF3E
:102B300004F58E7303A918460093ADF80C50FFF707
:102B40009DFF04F5A473184604F1400B03A90193FB
:102B5000ADF80C50FFF792FF324631465846FFF76A
:102B600080FF5846F021FEF7E9FB58464FF4A0716C
:102B7000251DFEF7E5FB4FF07F42A2665946284629
:102B800007F03CF9324631465046FFF76AFF4FF0F6
:102B9000010B03A95046ADF80CB009F0FCFF5146FB
:102BA000DFF8B0A0284607F029F9524631464846DA
:102BB000FFF757FF03A94846ADF80CB009F0EBFF4B
:102BC0004946284607F01AF9324631464046FFF793
:102BD00048FF03A94046ADF80C6009F0DCFF414610
:102BE000284607F00BF9524631463846FFF739FFC1
:102BF00003A93846ADF80C6009F0CDFF39462846E8
:102C000007F0FCF8009832465121FFF72AFF112205
:102C10000098ADF80C2003A909F0BDFF00992846E3
:102C200007F0ECF8324601981221FFF71AFF222331
:102C30000198ADF80C3003A909F0ADFF28460199C1
:102C400007F0DCF8204605B0BDE8F08FFC3F020835
:102C5000FC440208C0FEFFFF406A7047806A70476C
:102C600070478A880B8810B5D20A4C88C1699BB21C
:102C700051F8220043EA0443184410BD10B504463D
:102C8000BAB1107B68B1537BD27A1B0203F4E063C4
:102C90001A43236A03EB82031A888A4202D193F90A
:102CA000020010BD05D8013880B204330028F3D1EA
:102CB000F7E70020F5E710B52C2104461EF0C5F813
:102CC000204610BD30B58BB00446BDF86050089565
:102CD000BDF85C5007959DF8505006959DF84C50F6
:102CE00005959DF8485004959DF8445003959DF82E
:102CF000405002959DF83C500195BDF83850009524
:102D00000DF0A4FC064B2360159BE361169B236228
:102D1000199B63621A9BA36220460BB030BD00BFB3
:102D200030400208806A70477047704770477047AC
:102D300030B4C26844685510034604EB6200D20701
:102D400048BF62599B6830BC48BFD35818470346F8
:102D5000406830B19A681AB9D86800F0010070472D
:102D60000120704790F82D3080F85C3070470146A4
:102D7000343091F82C3013B1623109F00CBF60315E
:102D8000FBE710B5642104461EF05FF8204610BD35
:102D900010B5102104461EF058F8204610BD10B59D
:102DA0004FF4DE7104461EF050F8204610BD10B5F9
:102DB0000446006B50B10368DB68984730B1206B64
:102DC000036821469B68BDE81040184710BD0B7989
:102DD00070B590F82C6004460D460BB916B170BD65
:102DE000002EFCD0B3FA83F35B0984F82C302368FF
:102DF0002046D3F88C309847236820465B69984773
:102E0000002EECD02B79012BE9D123682046D3F892
:102E10008830BDE87040184700F58E70884208B5CC
:102E200005D10BF009FEBDE80840FFF7FBBD08BD6A
:102E3000074A02600022C0E90122C0E90322C0E97A
:102E40000522C0E907224FF480728284704700BFD8
:102E50003446020870B5036804469B6B15469847D4
:102E6000236829462046DB6BBDE8704018470B8875
:102E700070B5A0F860300546138825F8623F044617
:102E800028460EF063FF064628460EF093FF3146B3
:102E900002462046FFF7DEFF23682046D3F88C3039
:102EA000BDE87040184700002DE9F04F804687B01C
:102EB000464600240DF0C4FD7D4AC8F83C4046F863
:102EC000402B2146262230461FF01DF93046FFF7E1
:102ED000AFFF784AC8F8402008F16C0BFF224FF68C
:102EE000FF7588F8662008F1980A05A9C8F86840B7
:102EF0005846ADF81450FFF7C1FD05A95046ADF88E
:102F00001450FFF7BBFD08F1C40305A9184601934F
:102F1000ADF81450FFF7B2FD08F1F00308F58E7715
:102F200005A918460293ADF81450FFF7A7FD3846DF
:102F3000FFF77EFF4FF47F424FF0010308F5A879B9
:102F4000A8F848215C4A88F84031C8F81C2105A936
:102F5000C8F84441C8F84C414846ADF81450FFF752
:102F60008DFD2246A8F87C51A8F87E51214648469E
:102F7000FFF777FD4946384606F040FF08F5C07375
:102F8000184605A90393ADF81450FFF777FD4B4A97
:102F9000C8E96B284A4A2146C8E96D2430462246D2
:102FA000FFF75FFD30464FF4A072F021FFF752FFAC
:102FB00008F104054FF07F42C8F8682031462846E2
:102FC00006F01CFF224621465846FFF74AFD3D4EBB
:102FD0004FF0010305A95846ADF8143009F0DBFDA8
:102FE0005946284606F00AFF324621465046FFF76A
:102FF00038FD4FF0010305A95046ADF8143009F033
:10300000CAFD5146284606F0F9FE2246019821469F
:10301000FFF727FD0198ADF8144005A909F0BBFDA5
:103020000199284606F0EAFE324602982146FFF74B
:1030300018FD0298ADF8144005A909F0ACFD0299FD
:10304000284606F0DBFE2422ADF81020ADF814204F
:1030500004A905AA3846FFF70AFF2246214648463A
:10306000FFF7FFFC08F5D672C8F84C2138467C22E1
:103070003521FFF7F6FC0F2238468721FFF7EAFEDD
:103080003946284606F0BAFE039822465121FFF73A
:10309000E8FC11220398ADF8142005A909F07BFD86
:1030A0002846039906F0AAFE404607B0BDE8F08F17
:1030B00050410208FC4402089840020838410208C6
:1030C000192E0008C0FEFFFF7047000030B5164DF6
:1030D0002C6814F001048FB0BFF35B8F20D1284619
:1030E0001DF0B5FEE0B13F230993104B0893104B40
:1030F000104911480A940122CDE906430423CDE981
:1031000003320A230093CDE90B44CDE90144059431
:10311000FFF7D8FD09481EF0F3FD28461DF0A3FE79
:1031200005480FB030BD00BF9C2E00203C50020867
:10313000485002080C500208A02E0020C930000898
:103140007047000030B5164D2C6814F001048FB0A4
:10315000BFF35B8F20D128461DF079FEE0B13F23FD
:103160000993104B0893104B104911480A940122FF
:10317000CDE906430423CDE9033214230093CDE9BE
:103180000B44CDE901440594FFF79CFD09481EF06E
:10319000B7FD28461DF067FE05480FB030BD00BFE3
:1031A000CC2E0020405002084C5002081C5002084F
:1031B000D02E0020413100087047000030B5164D78
:1031C0002C6814F001048FB0BFF35B8F20D1284628
:1031D0001DF03DFEE0B13F230993104B0893104BC7
:1031E000104911480A940122CDE906430423CDE990
:1031F000033228230093CDE90B44CDE90144059423
:10320000FFF760FD09481EF07BFD28461DF02BFEF0
:1032100005480FB030BD00BFFC2E0020445002080E
:10322000505002082C500208002F0020B93100082D
:1032300000207047002070470EB403B503AB002197
:1032400053F8042B01930CF07FFC02B05DF804EB03
:1032500003B070470CB407B504AB53F8042B0193CB
:103260000CF072FC03B05DF804EB02B07047000094
:10327000436C10B5044673B3038F2BB9184B194A2E
:10328000C52119481EF01EFDC38E00EB43035B8C65
:103290000BB30EF074FA238F012B03D8134B144A8F
:1032A000CB21EEE7E28E531C9BB2092B194688BF57
:1032B000A3F10A0104EB410140F63F10498C814221
:1032C00009D10A2B04EB420228BF002304EB43037D
:1032D000508C588451842046BDE810400EF052B9FD
:1032E0009F360208A8360208533702089D370208A5
:1032F000AB3702080EF00DB938B518BB124B1348A6
:103300001C681349B4B122682244026062682244F6
:103310000A60A26814440F4B00221A8000F02AF8B9
:10332000054600F025F80C4B1C600C4B1D600C4B47
:10333000188007E00B4B03600B4B0B600B4B1C68BA
:10334000002CE8D138BD00BF382F0020302F0020DE
:103350002C2F0020342F0020744201207C420120B9
:103360007842012058500208545002085C5002086C
:1033700000207047004870473C2F002010B5FFF731
:10338000E1FE044C2060FFF719FF6060FFF79EFE2E
:10339000A06010BD3C2F002010B5002404600C601C
:1033A00014601C6010BD704710B54FF4AE71044638
:1033B0001DF04BFD204610BD10B50446D0F8580155
:1033C00000F043FF2046BDE810400BF0B7BB000003
:1033D00010B50446FFF7E6FA014B2360204610BD06
:1033E00084410208704704387047704710B51021B7
:1033F00004461DF02AFD204610BDA0F10400F5E7AB
:1034000000228260024A026018324260C160704746
:10341000D8410208704700002DE9F04FD0F8743110
:10342000BE4A01335A43B2F1333F87B00446C0F875
:10343000743120D8BA4A5343B3F1113F9FBF90F87B
:103440007C31B3FA83F35B0980F87C3190F87D31ED
:10345000002B00F033811F2B4FF0FF3318BF0023E8
:10346000DBB284F87D3194F87E31FF2B40F0288167
:103470001F2384F87E31B4F87821B4F87A31A94951
:10348000023202331BB212B2002A08BF0A46B3F559
:10349000A07F08BF0023A4F87A31A4F8CA30A4F8AA
:1034A000723094F87C31A4F87821A4F8F620A4F8BE
:1034B0009E20002B00F00981012B00F013819A4D12
:1034C0009A4E286804F040FD88B14FF0FF33286819
:1034D00000220DF1130104F007FD9DF81330522B6B
:1034E00005D1B379022B02D1304601F050FA904D4C
:1034F000286804F029FD88B14FF0FF3328680022C6
:103500000DF1130104F0F0FC9DF813304C2B05D1A4
:10351000B379022B02D1854801F033FA854D286832
:1035200004F012FD002800F0EA804FF0FF33286815
:1035300000220DF1130104F0D7FC9DF81330462B47
:1035400001D10123F371DFF8E49104F2D46304F5AF
:10355000597501934F464FF0000B97F80E80B8F164
:10356000020F00F0CE80B8F1030F00F0D380B8F165
:10357000010F0ED1BA462B683AF9081F9B6DB7F9B7
:103580000A202846984785F825800221504600F0F9
:1035900011FF019B2C359D4207F11007DDD1B6F9D3
:1035A0000220B6F9001004F5C070FDF7D0FEB37923
:1035B000032B53D1002304F5805784F8A53197F9E4
:1035C000A4356BB9728831880123083A083904F5AB
:1035D000AB5087F89D3512B209B21830FDF7B7FE2F
:1035E00097F8A45501356DB20A2287F8A45595FBCA
:1035F000F2F302FB13556DB285BB4F4A04F5AB588D
:1036000008F1180832F81330ADF8143005A9404617
:1036100009F0C1FA97F9A435272B1FDD012384F89F
:10362000A53105A9092387F8A4554046ADF8143003
:1036300009F0B1FA96F84C3187F89D55012B84BFFB
:1036400003F1FF3386F84C3196F84C312C2202FB03
:103650000343002283F8D1210223B37104F64425E9
:1036600004F6FC33314F029303954FF0000A4FF0FC
:10367000010B97F85631032B00F09980042B00F0D2
:10368000CD80022B5ED1D5F8B831B7F952219B6DB0
:10369000B7F9501105F5DC7098472B68B7F952213E
:1036A0009B6DB7F950112846984797F85B31002B6E
:1036B00044D085F8DDB185F825A043E01F23D0E68E
:1036C0001F2B0CBF0023FF23D3E694F87D3184F831
:1036D000183184F8EC3094F87E3184F8C03084F8E6
:1036E0009430ECE694F87D3184F8C03084F894305E
:1036F00094F87E3184F8183184F8EC30DFE6F0710C
:1037000021E72B68B7F90A209B6DB7F90810284606
:1037100098473EE785F825B03BE700BFCDCCCCCC41
:10372000EFEEEEEEC0FEFFFFCC2B00204C2F002072
:10373000C82B0020C42B00204042020885F825B089
:1037400085F8DD31029B2C359D4207F1180790D199
:1037500004F66C73C04F029304F6B4554FF0000AA0
:103760004FF0010B97F84632032B00F09580042BA5
:1037700000F0C980022B58D1D5F8B831B7F94222F0
:103780009B6DB7F9401205F5DC7098472B68B7F9C7
:1037900042229B6DB7F940122846984797F84B3262
:1037A000002B3ED085F8DDB185F825A03DE004F57D
:1037B000AB5385F8DDA185F825A00F334FF0000845
:1037C00013F9012F013223D104EB080241F27053A7
:1037D0000021D1542C2303FB08F841F2944308EB59
:1037E0000300A044B7F85221B7F8501158F803303D
:1037F000083A08399B6D12B209B22044984741F249
:10380000B943012208F80320042387F8563199E7C9
:1038100008F10108B8F1050FD2D193E785F8DDA1D1
:1038200049E785F825B085F8DD31029B2C359D42AE
:1038300007F1180796D104F5895504F5965B864F74
:1038400004350BF11C0B4FF0000A97F83633032BAD
:1038500000F00A81042B00F03E81022B5CD1D5F8E8
:10386000B831B7F932239B6DB7F9301305F5DC7029
:1038700098472B68B7F932239B6DB7F93013284668
:10388000984797F83B33002B40D04FF0010385F861
:10389000DD3185F825A03FE004F5AB5385F8DDA1C7
:1038A00085F825A00F334FF0000813F9012F0132DE
:1038B00023D104EB080241F270530021D1542C2390
:1038C00003FB08F841F2944308EB0300A044B7F867
:1038D0004222B7F8401258F80330083A08399B6D75
:1038E00012B209B22044984741F2B943012208F8C4
:1038F0000320042387F8463297E708F10108B8F15E
:10390000050FD2D191E785F8DDA14DE74FF0010217
:1039100085F8252085F8DD312C355D4507F1180740
:1039200093D104F5AB5704F5A45A04F5AB5B0F37FC
:103930000AF1140A0BF1140B4FF0030817F9015F99
:103940006B1C25D001356DB295FBF8F202EB4203FA
:103950003D70ED1A6DB2DDB94049DAF8003031F84A
:1039600012201B6EADF8142005A95046984797F910
:1039700000300E2B0CDDFF233B70DAF800300922FB
:103980001B6EADF8142005A9504698478AF82550BB
:103990005F450AF12C0AD1D1019D4FF0000899F83A
:1039A0002674022F00F09A80032F00F0A080012FD0
:1039B0000ED12B68B9F920149B6DB9F92224284641
:1039C000984785F82570022109F5846000F0F2FC23
:1039D000039B2C359D4209F11009E0D104F5805577
:1039E000D6F86015D5F8B03699422ED01C481EF096
:1039F0002DFBD6F86065C5F8B06604F5AB5704F545
:103A0000B45504351C374FF00A08B6FBF8FA08FB2A
:103A10001A69494612481EF019FB124A2B6832F8FF
:103A200019101B6EADF81410B34605A92846984727
:103A30000123BBF1090F564685F8253002D92C3DEC
:103A4000BD42E2D10A201EF013FB201D0CF0A6F9A6
:103A500007B0BDE8F08F00BF4C2F0020484202089D
:103A60007D3802082C42020804F5AB5385F8DDA12D
:103A700085F825A00F334FF0000813F9012F01320C
:103A800023D104EB080241F270530021D1542C23BE
:103A900003FB08F841F2944308EB0300A044B7F895
:103AA0003223B7F8301358F80330083A08399B6DC1
:103AB00012B209B22044984741F2B943012208F8F2
:103AC0000320042387F8363326E708F10108B8F10C
:103AD000050FD2D120E785F8DDA1DAE62B68B9F928
:103AE00022249B6DB9F920142846984770E785F881
:103AF00025806DE7354B70B50546036041F284645F
:103B000041F27C56B44205D02B5928191B689847BE
:103B10002C3CF7E741F2445441F268462B592819EE
:103B20001B682C3C9847B442F8D141F2B0262B597F
:103B300028191B682C3C9847B442F8D141F2F8068A
:103B40002B5928191B682C3C9847B442F8D12B59A3
:103B500028191B682C3C9847B4F5746FF7D140F6D0
:103B600088562B5928191B682C3C9847B442F8D129
:103B70002B5928191B682C3C9847B4F53D6FF7D199
:103B800040F618262B5928191B682C3C9847B4423C
:103B9000F8D12B5928191B682C3C9847B4F5D56FE0
:103BA000F7D12B5928191B682C3C9847B4F54E7F48
:103BB000F7D12B5928191B682C3C9847B4F5C07FC6
:103BC000F7D12846FEF743FF284670BD00420208A1
:103BD00010B50446FFF78EFF204641F2B4611DF098
:103BE00034F9204610BD00002DE9F04F044689B09D
:103BF000FEF760FF04F5C07BCD4B23604FF6FF76E8
:103C000007A95846ADF81C60FEF738FF04F5D679D1
:103C100004F559774D46284607A92C35ADF81C60A8
:103C2000FEF72CFFBD42F6D104F2D4664FF6FF77C3
:103C3000284607A92C35ADF81C70FEF71FFFB542CA
:103C4000F6D104F644264FF6FF77284607A92C350F
:103C5000ADF81C70FEF712FFB542F6D104F6FC3346
:103C600004932E464FF6FF77304607A9ADF81C7037
:103C7000FEF704FF049B2C369E42F5D11F4604F646
:103C8000B4564FF6FF78384607A92C37ADF81C809C
:103C9000FEF7F4FEB742F6D104F66C7303933E468A
:103CA0004FF6FF78304607A9ADF81C80FEF7E6FE18
:103CB000039B2C369E42F5D104F589581E4608F127
:103CC00004084FF6FF7A304607A92C36ADF81CA041
:103CD000FEF7D4FE4645F6D104F596531C33029305
:103CE000B0464FF6FF7A404607A9ADF81CA0FEF794
:103CF000C5FE029B08F12C089845F4D104F5A45A9E
:103D000098460AF1140A4FF6FF73404607A908F1D6
:103D10002C08ADF81C30FEF7B1FED0454FF6FF730E
:103D2000F3D104F5AB5ACDF804800AF1100A4046ED
:103D300007A908F12C08ADF81C30FEF79FFED0450E
:103D40004FF6FF73F3D104F5AB5A0AF1180A07A92D
:103D50005046ADF81C30FEF791FE04F5AD53083324
:103D60000093DDF8008004F5B55310334FF6FF7271
:103D7000404607A90593ADF81C20FEF77FFE059B82
:103D800008F12C0898454FF6FF72F1D14FF6C06349
:103D9000C4F878310023A4F87C31584684F87E2199
:103DA00007A91022ADF81C2004F1040808F0F3FE66
:103DB0004FF48C7258467021FEF753FE5946404628
:103DC00006F01CF81422504607A9ADF81C2008F094
:103DD000E2FE00231A4619465046FEF742FE5146BF
:103DE000404606F00BF804F58052002382F89D351A
:103DF0009A464FF0120BD9F8003048461B6EADF8CA
:103E00001CB007A998474FF496720FFA8AF14846FA
:103E1000FEF727FE4946404605F0F0FF0AF1100381
:103E20001FFA83FA0122BAF1A00F89F8252009F1BF
:103E30002C09E0D13F4B04F2D11093F84C114FF014
:103E40002C0C0023994200F33A814FF459794FF03A
:103E5000130B54F8093004EB090A1B6EADF81CB0C3
:103E600007A950469847002211465046FEF7F9FD33
:103E70005146404605F0C2FF09F12C0940F2D463D7
:103E80009945E6D14FF0080B54F8093004EB090AC4
:103E90001B6EADF81CB007A950469847002211468A
:103EA0005046FEF7DEFD5146404605F0A7FF09F1FA
:103EB0002C0940F644239945E6D1DFF878900E238B
:103EC000CB462A682846126EADF81C3007A99047E9
:103ED000002211462846FEF7C4FD2946404605F05B
:103EE0008DFFD5F8B8214FF0000305F5DC7A0F21DE
:103EF00085F82530126EADF81C10504607A9904782
:103F0000BBF95221BBF950115046FEF7AAFD5146AC
:103F1000404605F073FF049B2C359D420BF1180BB6
:103F20004FF00E03CDD1034D02234FF0000B03E001
:103F3000004202084C2F00203A683846126EADF855
:103F40001C3007A99047002211463846FEF789FD2C
:103F50003946404605F052FFD7F8B82187F825B01A
:103F600007F5DC7A0321126EADF81C10504607A944
:103F70009047B5F94222B5F940125046FEF771FD5F
:103F80005146404605F03AFF039B2C379F4205F10E
:103F900018054FF00203CFD14FF0060B4FF0000A87
:103FA0000727336830461B6EADF81CB007A9984749
:103FB000002211463046FEF754FD3146404605F0DA
:103FC0001DFFD6F8B83186F825A006F5DC751B6E06
:103FD000ADF81C7007A928469847B9F93223B9F9FA
:103FE00030132846FEF73DFD2946404605F006FF02
:103FF000029B2C369E4209F11809D2D104F5AB552B
:1040000004F5AB560F3514364FF0090A4FF000098E
:10401000FF27019B01981B6807A91B6EADF81CA028
:104020009847002211460198FEF71BFD019B404670
:1040300083F82590194605F0E1FE019B05F8017F04
:104040002C33AE420193E4D100254FF0180AA94663
:10405000009B00981B6807A91B6EADF81CA0984731
:1040600029B200980822FEF7FCFC009B404683F82A
:104070002590194605F0C2FE0835009BADB22C33E1
:10408000282D0093E4D104F5805704F5B456D7F8F1
:10409000843604361B6EADF81CA007A9304698473D
:1040A000082229463046FEF7DCFC4046314605F042
:1040B000A5FE2046C7F8B09609B0BDE8F08F0CFB0E
:1040C00003FE013300F80E20BCE600BF00B58BB044
:1040D000FEF7BEFC2022002102A81EF014F8084BB7
:1040E00001934FF480421823CDE90623002101AA51
:1040F000044803F095FD044B18600BB05DF804FB19
:104100008138020839470008482F002070470438DA
:104110007047704710B5102104461CF096FE2046EB
:1041200010BDA0F10400F5E700228260024A02609F
:1041300018324260C16070475C420208704700005C
:1041400010B5034B03600446FEF7F0FD204610BD9A
:104150008442020810B50446FFF7F2FF20464FF4F0
:10416000E4711CF072FE204610BD000010B504463C
:10417000FEF79AFE064B23604FF6C063C4F8C031C9
:104180000023A4F8C431FF2384F8C631204610BDB3
:1041900084420208FEF7CBBDD0F8BC31274A013378
:1041A0005A43B2F1333FC0F8BC311DD8244A5343BF
:1041B000B3F1113F9FBF90F8C431B3FA83F35B09A9
:1041C00080F8C43190F8C531B3B11F2B4FF0FF33E5
:1041D00018BF0023DBB280F8C53190F8C631FF2B41
:1041E0000CD11F2380F8C63190F8C4315BB1012B8C
:1041F00016D004300BF0D2BD1F23ECE71F2B0CBFF1
:104200000023FF23EEE790F8C53180F8183180F8DD
:10421000EC3090F8C63180F8C03080F89430E8E790
:1042200090F8C53180F8C03080F8943090F8C631ED
:1042300080F8183180F8EC30DBE700BFCDCCCCCC77
:10424000EFEEEEEE002202607047704710B50446B4
:1042500000F058F83223A382204610BD10B5044662
:1042600000F060F8204610BD10B5044600F04AF892
:104270004FF4C873A382204610BD10B5044600F069
:1042800051F8204610BD10B5044600F091F8002307
:10429000236040F60303A3800323A3715023A3608C
:1042A000204610BDF8B504461D460F46164600F0E0
:1042B0007FF840F60303A3800123A37150232780D6
:1042C0006680E560A3602046F8BD4288C368134459
:1042D00043808368002B02DC032100F06BB8013BB4
:1042E0008360002BF8D0704710B5044600F00AF840
:1042F0005023A382204610BD10B5044600F012F8EA
:10430000204610BD10B5044600F052F841F21003EB
:10431000A3800023E371024BA360204610BD00BFC1
:1043200052501E0110B5044600F043F8204610BD5F
:1043300038B5437A013B13F0FF03044615D04372AE
:10434000A37A013B13F0FF0303BF1E23A372E37A9A
:10435000A37202BFB3FA83F35B09E372237B0133D9
:10436000DBB2132B0AD8237338BD50234372037A70
:10437000522B0CBF4C2352230372E1E70025074860
:10438000257302F013FD1E23B0FBF3F202FB1300B2
:1043900010B90123E371E7E7E571E5E7B02C0020F0
:1043A0000388013B03807047038801330380704713
:1043B000704770478171704710B5028803790C8887
:1043C0001344A34210DD0B7923449A420CDA43884C
:1043D00042794C881A44A24206DD4A79224493422B
:1043E000ACBF0020012010BD0020FCE7F8B5054659
:1043F00000F088FA05F5A8742E4605F510772046DA
:104400001834FFF731FFBC42F9D105F54C7720464F
:104410001834FFF71BFFBC42F9D105F5846720462D
:104420001834FFF761FFBC42F9D105F5AC672046AF
:104430001034FFF728FFBC42F9D10023C5F86435DA
:104440002A460A2330200221A2F8503114339BB2AD
:10445000D22BA2F8520182F8561102F11802F3D1C0
:104460002A4614235C200221A2F8403214339BB266
:10447000DC2BA2F8420282F8461202F11802F3D1B4
:104480000A2346210222A6F8303314339BB2D22BE2
:10449000A6F8321386F8362306F11806F3D1002366
:1044A000C5F860352846F8BD70B5044600F5AC6621
:1044B00000F58465AE4204D0103E3046FFF779FF28
:1044C000F8E704F54C76AE4204D0183D2846FFF7D5
:1044D00013FFF8E704F51075B54204D0183E3046D6
:1044E000FFF7BCFEF8E704F5A876B54204D0183D06
:1044F0002846FFF7C2FEF8E7204600F021FA2046E2
:1045000070BD2DE9F04FD0F864350133092B87B029
:104510000446C0F8643524DDC3790BB100F03DFAE0
:104520000023C4F8643504F5107504F54C7615F8CD
:10453000E83C4C2BA5F1F0006BD1FFF731FF2B7A53
:104540004C2B284668D1FFF72BFF95F8F8304C2B01
:1045500005F1F00063D1FFF723FF1835B542E6D12E
:1045600001E09B07DFD0274604F1F008254604F55B
:10457000A0720DF1080995F85631033B012B51D873
:1045800018354545F7D1254604F5A0720DF1080907
:1045900095F84632033B012B72D818354545F7D1C3
:1045A000254604F5A0720DF1080995F83633033B52
:1045B000012B00F2938018354545F6D104F5A0781B
:1045C00002AD4FF0030997F82634032B1BD0D7F820
:1045D0002414D7F8200485E8030094E80300ADF81C
:1045E0001410090C04908DF81610284604A9FFF742
:1045F000E3FE064604A8FFF7DCFE2846FFF7D9FED7
:104600000EB184F806901037B845DCD107B0BDE88C
:10461000F08FFFF7C9FE92E7FFF7C6FE95E7FFF7B9
:10462000C3FE9AE7264605F5A87B0DF1100AB37B79
:10463000032B21D09BE8030089E80300D6E902019F
:104640008AE80300514648460192FFF7B5FE009004
:104650005046FFF7AEFE4846FFF7ABFEDDE90032FD
:1046600053B10323B37385F85631B5F86411D4F808
:1046700060350B44C4F8603510369642D7D17FE7D9
:10468000264605F5107B0DF1100AB37B032B21D0D4
:104690009BE8030089E80300D6E902018AE80300E9
:1046A000514648460192FFF787FE00905046FFF7BB
:1046B00080FE4846FFF77DFEDDE9003253B103235B
:1046C000B37385F84632B5F85412D4F860350B440C
:1046D000C4F860351036B242D7D15EE7264605F5FC
:1046E0004C7B0DF1100AB37B032B21D09BE8030018
:1046F00089E80300D6E902018AE8030051464846EA
:104700000192FFF759FE00905046FFF752FE4846CF
:10471000FFF74FFEDDE9003253B10323B37385F891
:104720003633B5F84413D4F860350B44C4F860351B
:104730001036B242D7D13EE72DE9F04FDFF8A8B1ED
:1047400085B04FF000085846FFF7DBFE5846664D2F
:1047500000F008F92E464FF00009AA4696F85631A7
:10476000022B28D106F5A870FFF7E2FD96F8573125
:104770000BB386F857812B46002493F82624032A8E
:1047800040F09E80B6F85221B6F850116F460832BC
:104790000631042392B289B23846FFF783FD97E8C9
:1047A0000F0042340AEB041484E80F003846FFF788
:1047B00000FE0123A37109F10109B9F10A0F06F105
:1047C0001806CBD1484E4FF000096F4696F8463296
:1047D000022B03D106F51070FFF7AAFD96F84732B9
:1047E000FBB186F847822B46002493F82624032A3F
:1047F0006DD1B6F84222B6F84012083206310423D1
:1048000092B289B23846FFF74DFD97E80F00423467
:104810000AEB041484E80F003846FFF7CAFD0123B1
:10482000A37109F10109B9F10A0F06F11806CDD1FA
:104830002D4E4FF000096F4696F83633022B03D108
:1048400006F54C70FFF774FD96F83733FBB186F828
:1048500037832B46002493F82624032A3DD1B6F84B
:104860003223B6F8301308320631042392B289B2EB
:104870003846FFF717FD97E80F0042340AEB04149F
:1048800084E80F003846FFF794FD0123A37109F176
:104890000109B9F10A0F06F11806CDD1002495F8E7
:1048A0002634022B03D105F58460FFF70EFD013499
:1048B000142C05F11005F2D1102003F0F5F942E7B0
:1048C0000134142C03F110037FF457AF73E7013464
:1048D000142C03F1100388D1A3E70134142C03F145
:1048E0001003B8D1D3E700BF4C2F00200148FFF7D9
:1048F0007DBD00BF4C2F00200148FFF7D5BD00BF94
:104900004C2F002070B50446FFF752FD0023E371E1
:1049100004F1080504F5A47628461035FFF7B3FC2A
:10492000B542F9D10A2384F84C31044B236041F29B
:104930001003A3800223A371204670BD320018012A
:1049400070B5044600F5A47500F10806B54204D020
:10495000103D2846FFF72DFDF8E72046FFF729FD1B
:10496000204670BD38B500F1080500F5A474AB7998
:10497000022B02D12846FFF7A8FC1035A542F6D13C
:1049800038BD0388022B84BF023B03807047038835
:10499000DD2B9CBF0233038070477FB504460023A4
:1049A00000F10E021E01915D032919D16288218850
:1049B0006D46083A06316FF0060392B289B2284676
:1049C000FFF770FC95E80F00264406F1080484E820
:1049D0000F002846FFF7EDFC0123B37304B070BD50
:1049E0000133142BDED1F9E7F02070474FF4A070AB
:1049F00070472920FDF7EAB92820FDF7E7B908B587
:104A0000FDF7B8F9CA20FDF7E1F9C320FDF7C2F9B7
:104A10000820FDF7BFF95020FDF7BCF9CF20FDF7C6
:104A2000D5F90020FDF7B6F9C120FDF7B3F9302024
:104A3000FDF7B0F9ED20FDF7C9F96420FDF7AAF9FB
:104A40000320FDF7A7F91220FDF7A4F98120FDF757
:104A5000A1F9E820FDF7BAF98520FDF79BF90020C0
:104A6000FDF798F97820FDF795F9CB20FDF7AEF921
:104A70003920FDF78FF92C20FDF78CF90020FDF788
:104A800089F93420FDF786F90220FDF783F9F72034
:104A9000FDF79CF92020FDF77DF9EA20FDF796F956
:104AA0000020FDF777F90020FDF774F9B120FDF73C
:104AB0008DF90020FDF76EF91B20FDF76BF9B6208C
:104AC000FDF784F90A20FDF765F9A220FDF762F9E8
:104AD000C020FDF77BF91020FDF75CF9C120FDF740
:104AE00075F91020FDF756F9C520FDF76FF945203F
:104AF000FDF750F91520FDF74DF9C720FDF766F9D0
:104B00009020FDF747F93620FDF760F9C820FDF742
:104B100041F9F220FDF75AF90020FDF73BF9B020EA
:104B2000FDF754F9C220FDF735F9B620FDF74EF92F
:104B30000A20FDF72FF9A720FDF72CF92720FDF714
:104B400029F90420FDF726F92A20FDF73FF9002076
:104B5000FDF720F90020FDF71DF90020FDF71AF9F7
:104B6000EF20FDF717F92B20FDF730F90020FDF7B6
:104B700011F90020FDF70EF90120FDF70BF93F2098
:104B8000FDF708F9F620FDF721F90120FDF702F9FC
:104B90000020FDF7FFF80620FDF7FCF82C20FDF7BC
:104BA00015F9C820FDF760F92620FDF70FF901205F
:104BB000FDF7F0F8E020FDF709F90F20FDF7EAF81E
:104BC0002920FDF7E7F82420FDF7E4F80C20FDF795
:104BD000E1F80E20FDF7DEF80920FDF7DBF84E20A6
:104BE000FDF7D8F87820FDF7D5F83C20FDF7D2F88E
:104BF0000920FDF7CFF81320FDF7CCF80520FDF7CD
:104C0000C9F81720FDF7C6F81120FDF7C3F80020FA
:104C1000FDF7C0F8E120FDF7D9F80020FDF7BAF85C
:104C20001620FDF7B7F81B20FDF7B4F80420FDF7B8
:104C3000B1F81120FDF7AEF80720FDF7ABF83120F1
:104C4000FDF7A8F83320FDF7A5F84220FDF7A2F8FC
:104C50000520FDF79FF80C20FDF79CF80A20FDF7D2
:104C600099F82820FDF796F82F20FDF793F80F20EC
:104C7000FDF790F81120FDF7A9F8C820FDF7F4F82A
:104C80002920FDF7A3F8BDE808402C20FDF79EB8C9
:104C900008B5FDF76FF80321D320FDF7B3F880B214
:104CA00008BD10B5C4B2022203212046FDF718F852
:104CB0000A20FDF75DF8204600220321FDF710F8D9
:104CC000BDE810400220FDF753B838B50446E4B201
:104CD000FDF704F800212046FDF71AF801210546EA
:104CE0002046FDF715F840EA052080B238BD10B522
:104CF000C4B240212046FDF70BF8030607D54C212E
:104D00002046FDF705F8003818BF012010BD01222C
:104D10004B212046FCF7E4FF204600224B21FCF704
:104D2000DFFF0020F2E773B50423C4B20E46154638
:104D3000D7210DEB03022046FDF704F8019B1BBAB7
:104D40001A0DC3F30B23328020462B8001224B2106
:104D5000FCF7C6FF00224B212046FCF7C1FF02B042
:104D600070BD000010B50A4A1378984204460DD071
:104D7000517888420AD00BB141B90123D454FCF7D1
:104D8000ADFF2046BDE81040FFF78BBF10BD00BF50
:104D9000B434002010B5C4B209212046FCF7B8FF96
:104DA00040F00102D2B220460921BDE81040FCF7D4
:104DB00097BF10B5C4B209212046FCF7A9FF09210D
:104DC00000F0FE022046BDE81040FCF789BF38B570
:104DD000C4B20D4620460A21FCF79AFF40EA0502BC
:104DE000D2B220460A21BDE83840FCF779BF10B5A1
:104DF0000446FCF774FF20461F21FFF7E8FF20461A
:104E0000BDE81040FFF7C6BF38B5C4B20D46204616
:104E10000A21FCF77DFF20EA0502D2B220460A21D2
:104E2000BDE83840FCF75CBF10B50446FFF7C1FF92
:104E300020461F21BDE81040FFF7E6BF10B5C0B205
:104E40000C460B21FCF764FF204010BD1F21FFF72B
:104E5000F5BF0A46C0B20B21FCF742BF1F21FFF786
:104E6000F8BF38B5C4B20D4620461721FCF750FFF5
:104E700020EA0502D2B220461721BDE83840FCF7EF
:104E80002FBF70B5C4B2064604212046FCF740FF90
:104E9000042100F0FB0205462046FCF721FF3046C6
:104EA000F021FFF7DEFF05F0F80220460421FCF7B1
:104EB00017FF492220212046FCF712FF0220FCF7B1
:104EC00057FF204601222121FCF70AFF20469A22A3
:104ED0004121FCF705FF204601224A21FCF700FF93
:104EE000204601224B21FCF7FBFE204600224B21ED
:104EF000FCF7F6FE204601225621FCF7F1FE204683
:104F000001225821FCF7ECFE204601224021FCF74B
:104F1000E7FE2046FF220B21FCF7E2FEBDE87040D1
:104F20000220FCF725BF0000054BD3F8882042F48F
:104F30007002C3F888204FF000629A60704700BF8B
:104F400000ED00E008B50B4B1A6842F400721A60DD
:104F50001A6842F480621A601A6842F480721A6019
:104F6000032000F08BFA0020FDF75AFAFCF79CFFB3
:104F7000002008BD003C0240034A044B11681B7826
:104F80000B441360704700BFB83400207800002045
:104F9000014B1868704700BFB834002038B504468C
:104FA000FFF7F6FF631C1CBF054B1B78054618BFB7
:104FB000E418FFF7EDFF431BA342FAD338BD00BF4F
:104FC0007800002038B50446002800F09B80056C6E
:104FD00025B9FCF789FF656484F83C50236CDB0637
:104FE00000F18E80236C23F4885323F0020343F0F6
:104FF00002032364444B5A6822F440325A605A68D0
:1050000061680A435A60236821695A6822F48072F1
:105010005A605A6842EA01225A605A68A16822F02E
:1050200040725A605A680A435A609A68E16822F4EA
:1050300000629A609A680A439A603449A26A8A4276
:1050400052D0996821F07061996099680A439A601A
:105050009A68E16A22F040529A609A680A439A601C
:105060009A6822F002029A609A68217E42EA41021E
:105070009A6094F82020002A3ED05A68616A42F46F
:1050800000625A605A6822F460425A605A680139D4
:1050900042EA41325A60DA6AE16922F47002DA6265
:1050A000DA6A013942EA0152DA629A6822F400723D
:1050B0009A609A6894F8301042EA41229A609A689D
:1050C000616922F480629A609A68002042EA812233
:1050D0009A606064236C23F0030343F001032364AC
:1050E000002384F83C3038BD9A6822F070629A60E0
:1050F0009A6822F04052B2E75A6822F40062C9E787
:105100000120EDE70120EEE7002301400100000F40
:1051100082B00023019390F83C30012B6FD0012323
:1051200080F83C3003689A68D2070BD59A68D1079B
:105130001AD4036C43F010030364436C43F001037F
:10514000436452E09A682F4942F001029A602E4A65
:105150001268B2FBF1F202EB42020192019A002ABC
:10516000E4D0019A013AF8E7026C22F4E06222F0FE
:10517000010242F4807202645A68520541BF026C17
:1051800022F4405242F480520264026C12F48052C3
:105190001CBF426C22F006024264002280F83C20D0
:1051A0006FF022021A605A6842F0806242F02002D8
:1051B0005A60164A516811F01F0F15491CD18B42D5
:1051C00007D001F580718B420CD1526812F01F0F8D
:1051D0000BD19A6812F0405F07D19A6842F0804282
:1051E0009A6002E00B498B4202D0002002B0704767
:1051F000526812F0100FEBE78B42F6D1E9E702207C
:10520000F4E700BF40420F0074000020002301407B
:1052100000200140002201400368D86C70477047AD
:105220007047036870B51E685D68B20704462BD5E9
:10523000A80629D5226CD1065EBF226C42F400720A
:1052400022649A6812F0405F17D1227EAAB9DA6A06
:1052500012F4700F02D09A6852050ED45A6822F0E8
:1052600020025A60236C23F480732364236CD804D7
:105270005EBF236C43F0010323642046FCF7F6FD78
:1052800023686FF012021A60710733D52A0631D5F0
:10529000236CDB065EBF236C43F400532364236856
:1052A0009A6812F4401F1ED19A6B12F4401F02D06C
:1052B0009A68500517D45A68510514D49A6812F0A8
:1052C000405F10D1227E72B95A6822F080025A6083
:1052D000236C23F480532364236CDA055EBF236CB4
:1052E00043F001032364204600F0C6F823686FF002
:1052F0000C021A60F30710D568060ED523681B68E8
:10530000D9070AD5236C43F4803323642046FFF782
:1053100086FF23686FF001021A60B2060ED56B019A
:105320000CD5636C43F00203636423686FF02005BF
:105330001D602046FFF774FF23681D6070BD0000EC
:10534000F7B50023019390F83C30012B054600F09F
:105350008680012380F83C3008682B688E68092815
:1053600084B233D904EB4402DF681E3A4FF0070CD5
:105370000CFA02FC27EA0C07DF60DF6806FA02F28B
:105380003A43DA604968062901EB81022DD8596B4E
:10539000053A1F26964021EA06015963596B04FA23
:1053A00002F20A435A632F4A93420AD1122837D194
:1053B0002D4B5A6822F400025A605A6842F4800267
:1053C0005A60002085F83C0003B0F0BD1A6900EB7C
:1053D000400C072707FA0CF722EA07021A611A693C
:1053E00006FA0CF616431E61CCE70C294FF01F019C
:1053F0000BD81E6B233A914026EA01011963196B01
:1054000004FA02F20A431A63CDE7DE6A413A914098
:1054100026EA0101D962D96A94400C43DC62C2E7F2
:10542000124B984201D01128CBD10F4B5A6822F46D
:1054300080025A605A6842F400025A600B4B98424C
:10544000BFD10B4B0B4A1B68B3FBF2F30A22534349
:105450000193019B002BB4D0019B013BF8E7022094
:10546000B2E700BF002001400023014012000010FD
:105470007400002040420F00704700000749CA68CE
:1054800022F4E0620302120403F4E063120C1343FB
:1054900043F0BF6343F40033CB60704700ED00E09E
:1054A000164B30B5DC68C4F30224C4F10703251D94
:1054B000042B28BF0423062D4FF0FF358CBF033C7F
:1054C000002405FA03F321EA0303A54022EA0502BA
:1054D000A340002843EA0203ACBF00F16040084A41
:1054E0004FEA0313B8BF00F00F00DBB2AABF00F50C
:1054F0006140135480F8003330BD00BF00ED00E080
:1055000014ED00E0002807DB044A4109012300F004
:105510001F00834042F82130704700BF00E100E0E7
:1055200010B5044650B1437903F0FF0213B902717C
:10553000FCF714FD01236371002010BD0120FCE77E
:1055400010B5044620B390F8393003F0FF021BB9C0
:1055500080F83820FCF71AFD022384F839302368DC
:1055600061681A6822F440320A431A605A6BA168D3
:1055700022F007020A435A631A6CE1686FF30D02C6
:105580000A431A6400200123E06384F8393010BD17
:105590000120FCE770477047036870B55E681D68BE
:1055A000F207044614D5E90512D51A6822F4807270
:1055B0001A60C26B42F00102C26301229A600423A6
:1055C00080F83930002380F83830436903B19847B8
:1055D000B20616D5AB0414D523681A6822F400521B
:1055E0001A6020229A60E36B43F00203E363042312
:1055F00084F83930002384F8383063690BB12046D1
:105600009847300716D5290514D523681A6822F45F
:1056100000621A6008229A60E36B43F00403E363BC
:10562000042384F83930002384F8383063690BB1DF
:105630002046984772070BD56B0509D523681A6871
:1056400022F480621A6004229A602046FFF7A2FFCB
:10565000B00714D5A90512D523681A6822F4007280
:105660001A6002229A60E36BE363012384F8393005
:10567000002384F8383023690BB120469847F2069E
:1056800013D5EB0411D523681A6822F480521A60EE
:1056900010229A60E36BE363012384F8393000231E
:1056A00084F838302046FFF776FF70BDF0B590F8EB
:1056B0003820012A03464FF002002BD0012283F844
:1056C000382083F8390003EB0112D2E90740556A0C
:1056D000174F44EA0040093C012C9CBF05F07F4273
:1056E00010434FEA01161A6888BF40EA056091B975
:1056F000516A394001435162012C9969916103D883
:10570000596A21F07F4191620122002083F83920FB
:1057100083F83800F0BDD16939400143D16199194E
:10572000012C896911619CBF25F07F451562EBE76B
:10573000F0FFFC002DE9F74FDFF8BC916C4A002325
:105740000D6801249C4004EA0506AC4340F0B78094
:105750004D68032705F003044FEA430807FA08FCE5
:10576000671E012F6FEA0C0C34D8876807EA0C0E0D
:10577000CF6807FA08F747EA0E078760476827EA05
:10578000060EC5F300179F4047EA0E074760C7683B
:1057900007EA0C0E8F6807FA08F747EA0E07022C93
:1057A000C76019D14FEAD30A00EB8A0A03F0070B4E
:1057B000DAF820704FEA8B0B4FF00F0E0EFA0BFE4B
:1057C00027EA0E0E0F6907FA0BF747EA0E07CAF829
:1057D000207001E0032CDAD1076804FA08F407EA24
:1057E0000C073C4315F4403F046068D0002401944A
:1057F000D9F8444044F48044C9F84440D9F84440BE
:1058000023F0030707F1804704F4804407F59C3731
:10581000019403F0030C019CD7F808E04FEA8C0CCC
:105820000F2404FA0CF42EEA040E324CA0424DD0A0
:1058300004F58064A0424BD004F58064A04249D0B6
:1058400004F58064A04247D004F58064A04245D0AE
:1058500004F58064A04243D004F58064A04241D0A6
:1058600004F58064A0423FD004F58064A0423DD09E
:1058700004F58064A04214BF0A24092404FA0CF43D
:1058800044EA0E04BC609468F74315F4801F0CBF13
:105890003C4034439460D46815F4001F0CBF3C4076
:1058A0003443D460546815F4003F0CBF3C4034438B
:1058B00054601468ED0354BF3C403443146001331A
:1058C000102B7FF43DAF03B0BDE8F08F0024D5E787
:1058D0000124D3E70224D1E70324CFE70424CDE752
:1058E0000524CBE70624C9E70724C7E70824C5E752
:1058F000003C0140000002400038024003691942A8
:1059000014BF0120002070470AB18161704709046B
:10591000FBE7436901EA030221EA030141EA02418C
:105920008161704701684B6913F480634FF0000296
:1059300010D06FF480634B612023026380F83D3008
:1059400080F83E20036C80F83C2043F0040303649D
:1059500001207047184670472DE9F84606460F4665
:1059600091461D464FEA114A3368BAF1010F0CBF48
:105970005C699C6927EA0404A4B2B4FA84F464095B
:10598000A14501D0002025E06A1CEED0FFF700FB06
:10599000089BC01AA84201D8002DE5D13368BAF19E
:1059A000010F0CBF5B699B6927EA03039BB2B3FA43
:1059B00083F35B099945D7D100232022336386F80E
:1059C0003D2086F83E30326C86F83C3042F02002B2
:1059D00032640120BDE8F8862DE9F04104460F4607
:1059E000164698462568686927EA000080B2C0B16B
:1059F0006B695A0517D52B6843F400732B606FF45D
:105A000080636B6120220023236384F83D2084F8A7
:105A10003E30236C43F004032364002384F83C30BD
:105A20000120BDE8F081731CDDD0FFF7B1FAA0EBD7
:105A30000800B04201D8002ED4D123685A6927EA61
:105A4000020292B2002ACDD000232022236384F8E0
:105A50003D2084F83E30236C1343DDE770B50446E7
:105A60000D46164623685B691B0601D500201EE023
:105A70002046FFF757FFC8B96A1CF3D0FFF788FA32
:105A8000801BA84201D8002DECD123685B6913F07C
:105A90008003E7D12022236384F83D2084F83E3040
:105AA000226C84F83C3042F020022264012070BD58
:105AB0002DE9F0431546026885B0DDE90C7899467A
:105AC000136843F4807313600E463B46CDF80080A4
:105AD00000224FF001110446FFF73EFF236838B162
