:020000040800F2
:10000000000003205D0600083D2400083F2400088E
:100010004124000843240008452400080000000093
:10002000000000000000000000000000017900084E
:100030004724000800000000917900080F720008B2
:10004000AD060008AD060008AD060008AD060008C4
:10005000AD060008AD060008AD060008AD060008B4
:10006000AD060008AD060008AD060008AD060008A4
:10007000AD060008AD060008AD060008AD06000894
:10008000AD060008AD060008AD060008AD06000884
:10009000AD060008AD060008AD060008AD06000874
:1000A000AD060008AD060008AD060008AD06000864
:1000B000AD060008AD060008AD060008AD06000854
:1000C000AD060008AD060008AD060008AD06000844
:1000D000AD060008AD060008AD060008AD06000834
:1000E000AD060008AD060008AD060008AD06000824
:1000F000AD060008AD060008AD060008AD06000814
:10010000AD060008AD060008AD060008AD06000803
:10011000AD060008AD06000849240008AD06000839
:10012000AD060008AD060008AD060008AD060008E3
:10013000AD060008AD060008AD060008AD060008D3
:10014000AD060008AD060008AD060008AD060008C3
:10015000AD060008AD060008AD060008AD060008B3
:10016000AD060008AD060008AD060008AD060008A3
:10017000AD060008AD060008AD060008000000004E
:10018000AD060008AD060008AD060008AD06000883
:10019000AD060008AD060008AD060008AD06000873
:0C01A00055240008AD060008612400088A
:1001B00010B5054C237833B9044B13B10448AFF3A1
:1001C00000800123237010BD800300200000000088
:1001D0006023020808B5034B1BB103490348AFF382
:1001E000008008BD00000000840300206023020896
:1001F00001F0FF01102A2BDB10F0070F08D010F8D8
:10020000013B013A8B422DD010F0070F42B3F6D1DB
:10021000F0B441EA012141EA014122F007047FF0F4
:1002200000070023F0E80256083C85EA010586EA4B
:10023000010685FA47F5A3FA87F586FA47F6A5FA87
:1002400087F68EB9EED1F0BC01F0FF0102F0070293
:1002500032B110F8013B013A83EA010313B1F8D13E
:100260000020704701387047002D06BF354603381F
:10027000073815F0010F07D1013015F4807F02BF58
:10028000013015F4C03F0130F0BC0138704700BFA9
:100290007BB972B90029BEBF00204FF0004106E0D3
:1002A00008BF00281CBF6FF000414FF0FF3000F086
:1002B000D3B9ADF1080C6DE904CE002909DB002BA0
:1002C0001ADB00F04DF8DDF804E0DDE9022304B0AC
:1002D0007047404261EB4101002B1BDB00F040F80E
:1002E000DDF804E0DDE9022304B0404261EB4101A6
:1002F000524263EB43037047524263EB430300F007
:100300002FF8DDF804E0DDE9022304B0404261EBA0
:1003100041017047524263EB430300F021F8DDF8DE
:1003200004E0DDE9022304B0524263EB430370476B
:1003300053B94AB9002908BF00281CBF4FF0FF314C
:100340004FF0FF3000F088B9ADF1080C6DE904CE34
:1003500000F006F8DDF804E0DDE9022304B07047A0
:100360002DE9F047089D8E4604468846002B4AD169
:100370008A42174662D9B2FA82F64EB1C6F120031C
:1003800001FA06F820FA03F3B74043EA0808B4403C
:100390004FEA174E1FFA87FCB8FBFEF1230C0EFB49
:1003A000118843EA084301FB0CF29A4209D9FB1871
:1003B00001F1FF3080F0EA809A4240F2E780023992
:1003C0003B449A1AA3B2B2FBFEF00EFB102243EAA2
:1003D000024300FB0CFC9C4509D9FB1800F1FF32DD
:1003E00080F0D6809C4540F2D3803B44023840EAFE
:1003F0000140A3EB0C0300211DB1F3400022C5E92D
:100400000032BDE8F0878B4205D90DB1C5E9000186
:1004100000210846F5E7B3FA83F1002946D1734578
:1004200002D3824200F20581841A6EEB030201209E
:100430009046002DE5D0C5E90048E2E7002A00F02B
:100440009080B2FA82F6002E40F0A4808A1A030C43
:100450004FEA174E80B2BCB20121B2FBFEFC0EFB8C
:100460001C2243EA024304FB0CF29A4207D9FB1810
:100470000CF1FF3802D29A4200F2E080C4469B1A87
:10048000B3FBFEF20EFB123340EA034302FB04F41B
:100490009C4207D9FB1802F1FF3002D29C4200F2C5
:1004A000CA8002461B1B42EA0C40A5E7C1F12006A8
:1004B0008B4022FA06F71F430EFA01F420FA06F3E6
:1004C0002EFA06FE4FEA1749234300FA01F81FFAF5
:1004D00087FCBEFBF9F01C0C09FB10EE44EA0E444D
:1004E00000FB0CFEA64502FA01F209D93C1900F105
:1004F000FF3A80F09C80A64540F2998002383C4447
:10050000A4EB0E041FFA83FEB4FBF9F309FB1344BA
:100510004EEA044403FB0CFCA44508D93C1903F142
:10052000FF3E80F08280A4457FD9023B3C4443EAF1
:100530000040A4EB0C04A0FB02EC64457346E146CA
:1005400062D35FD05DB1B8EB030264EB090404FA37
:1005500006F622FA01F31E43CC40C5E900640021EF
:100560004FE7B1FBF2FC010C41EA0E4180B240EAD8
:1005700001423B4638463C46B846BE462026B1FBC3
:10058000F7F1A2EB080241EA0C4166E7014618E7E1
:1005900010462CE7C6F120022EFA02F3B740B14014
:1005A00020FA02F24FEA174E0A43B3FBFEF8BCB240
:1005B0000EFB1833110C41EA034108FB04F9B0406B
:1005C00089454FEA104380B23ED9791808F1FF3CC3
:1005D00001D289451FD8A1EB0901B1FBFEF909FB46
:1005E00004F80EFB191192B242EA0142424529D2A7
:1005F000BA1809F1FF31C4D24245C2D2A9F10201B1
:100600003A44BEE7F0459DD2BEEB02036CEB070C0B
:100610000138E14696E7A7EB09094944A8F1020C25
:10062000B1FBFEF909FB04F8DBE773467FE75046B0
:1006300066E70846FDE63B44023A33E7ACF1020CBC
:100640003B441CE749469CE7A1EB0901C446B1FBCA
:10065000FEF909FB04F8C4E7704700BFDFF834D0A7
:10066000002103E00C4B5B58435004310B480C4B0A
:1006700042189A42F6D30B4A02E0002342F8043BA8
:10068000094B9A42F9D303F0E3FF21F0FBF801F0A4
:10069000B1F8704700000320D8750C080000002056
:1006A0006401002080030020CC5B0120FEE770473E
:1006B00008B500F0BBFDBDE8084000F03FBD00F00C
:1006C000B7BD704710B5042104461FF0EEFE20466A
:1006D00010BD000038B50C4B0C4C18800C4B822020
:1006E00019806368984740F6110398420AD1094D72
:1006F00023682C60822098472B688220DB6898470B
:10070000002038BD0120FCE7A60300204C0000209B
:10071000A4030020A80300204FF4A071F020FFF7ED
:10072000D9BF0000F7B5394D2B6804461B698220FC
:100730009847208000284ED02B680DF106025B6997
:1007400001A982209847324B1B78002B4BD0BDF873
:10075000062040F674639A423FD9ADF80630BDF8E2
:1007600006209B1A9BB20A2B42D90B22B3FBF2F351
:10077000284A1288934201D9013A93B2BDF8042065
:10078000254840F6B8318A4234D8C2F571620E323B
:10079000016892B20F25B2FBF5F2204D2D88AA42D6
:1007A00084BF05F1FF35AAB28A4215468EB22AD916
:1007B000921B91B21A4E3768BB42BAB28CBF9A1ADA
:1007C000D21A92B211440529C4BF05603360036890
:1007D00063803368A38003B0F0BDB32A9CBFB4220A
:1007E000ADF80620BBE7BDF80630A3F5B473B9E752
:1007F0000023C3E7C2F56D62083292B20E2A016887
:10080000C8D800252A46891A89B2D3E7A803002050
:1008100028220020A4030020A0030020A60300201B
:100820009C03002037B568460D461446FFF77AFF53
:10083000BDF8000030B1BDF802302B60BDF80430C7
:100840002360012003B030BD032821D8DFE800F089
:10085000020B12190F4B1A68B2FA82F252090421E4
:100860000D4804F09FBB0B4B5A68B2FA82F2520952
:100870000821F5E7074B9A68B2FA82F25209102173
:10088000EEE7044BDA68B2FA82F252092021E7E778
:10089000704700BFAC03002000100240032821D89D
:1008A000DFE800F0020B12190F4B1A68003A18BF6C
:1008B000012204210D4804F075BB0B4B5A68003A25
:1008C00018BF01220821F5E7074B9A68003A18BFC4
:1008D00001221021EEE7044BDA68003A18BF01222A
:1008E0002021E7E7704700BFAC0300200010024062
:1008F00003280DD8DFE800F00206080A04210548A5
:1009000004F055BB0821FAE71021F8E72021F6E7AB
:10091000704700BF0010024008B5032811D8DFE877
:1009200000F0020A0C0E0421074804F035FB431EB8
:100930005842584108BD0821F6E71021F4E720216C
:10094000F2E70020F3E700BF0010024070B5084D49
:1009500000240126E0B2FFF7DFFF18B12B68012B5E
:1009600018BF2E600134052C05F10405F2D170BDCD
:10097000AC030020012380F8781080F879307047AC
:100980007047002070470000034B4164003918BFD6
:1009900001211970704700BF8B4E01207047002065
:1009A0007047836B0BB10846184770474FF6FF70CE
:1009B0007047406803689B691847704770477047E5
:1009C0007047704710B5044600F048FD236803499E
:1009D000D3F890302046BDE810401847000000D002
:1009E00008B503680446D3F8843098472368204646
:1009F000DB6F984700F0ECF8236820465B6F984760
:100A0000292001F0D3F900F0E3F8236820465B6F5A
:100A10009847F8E710B5044609F088FD236820469A
:100A2000D3F8BC30BDE81040184700F0FBBC00F024
:100A3000FFBC00F031BD00F0D1BC00F041BD00F0C2
:100A400049BD00F0D5BC08F09FBF10B58421044615
:100A50001FF02BFD204610BD10B590F8341090F813
:100A600078400C4B8C421A7809D03AB90A4A0B49A3
:100A70001488088810800C8001221A7010BD002A8A
:100A8000FCD0054A05491488088810800C80002293
:100A9000F3E700BF844E0120804E0120824E0120EA
:100AA00070B50D46194635B9094B0A4A0A4840F255
:100AB000FF2120F037FCC0E90F52084B003A18BF65
:100AC00001221A700368BDE87040D3F890301847CF
:100AD000D023020808240208562402088A4E012066
:100AE00008B5094B1B888B4203D8084B1B889342DF
:100AF00005D9074B074A0848A32120F013FC074BF0
:100B00001980074B1A8008BD804E0120824E0120BB
:100B10009B240208FE24020856240208864E012067
:100B2000884E0120034690F87A0018B1586803688F
:100B30001B68184770470000012108B500220846CD
:100B400006F0EEFB0A4B186028B90A4B0A4A282126
:100B50000A4820F0E7FB00220421012006F088FC6F
:100B6000074B186018B9074B034A2C21F0E708BD62
:100B7000C0030020412502088A250208B925020881
:100B8000BC030020F3250208024B4FF0FF31186828
:100B900006F010BCC0030020014B186806F036BCFC
:100BA000C0030020024B0021186806F003BC00BF00
:100BB000C0030020FFF7F0BF03480449006800238A
:100BC0001A4606F090BC00BFBC03002004000020C1
:100BD00013B5084C00231A4601A9206806F0B4FC9E
:100BE00020684FF0FF33002201A906F0ADFC02B0EF
:100BF00010BD00BFBC03002003685B6C18470120D8
:100C0000704703689B6A1847FEE740F2EF30704771
:100C1000054B0360054B4FF08062C3F88820BFF39B
:100C20004F8FBFF36F8F7047C02F020800E100E0C5
:100C300010B504464FF45A61FFF7EAFF20461FF053
:100C400034FC204610BD000082B0002301930E4BFF
:100C50001A6B42F400021A631A6B02F4000201924A
:100C6000019A1A6942F400021A611A6922F4000218
:100C70001A61064B064A1A61064A5A61064B4FF042
:100C800080629A6002B0704700380240042400205D
:100C9000E90E0008090C000800E100E008B50A2888
:100CA00009D8DFE800F006100E0808080810101038
:100CB0001000022008BD054B054A0648902120F08F
:100CC00031FB0020F6E70120F4E700BF35260208DB
:100CD000502602089B26020838B50C46887FFFF78D
:100CE000DDFFA58AE28A164B2169586342EA054274
:100CF0005A64628BD963521B1A642568082D0ED181
:100D00009A611A615862207F0E4A42EA0062DA61F3
:100D1000E2681A620C4A5961D9601A6038BD002233
:100D2000D8611A61E1680A0A480902F4784200F4BD
:100D3000FC600243C1F3C4010A439A63034AECE72F
:100D400000B002400900010001230200012303005A
:100D500008B50B280BD8DFE800F00612100A0A0AC3
:100D60000A0808080808022008BD0520FCE7054B12
:100D7000054A06486F2120F0D5FA0020F4E701204B
:100D8000F2E700BF35260208D32602089B26020898
:100D90002DE9F04191F81D800C464046FFF7D8FF41
:100DA000A77F05463846FFF7D3FF06463846FFF7CC
:100DB00075FFA18A628B444B521A1A649A61228B86
:100DC000521A1A61E28A586342EA01425A6421695E
:100DD0006268D963DA602068802828D0227F0FD823
:100DE000202867D0402865D004281AD0364B45EA21
:100DF000026545F40035B845DD6161D0334A44E011
:100E0000B0F5807F04D0B0F5007FEFD1304800E02E
:100E1000304840EA0262DA61E2681A625E62596151
:100E200032E045EA026242F40032DA61F6E7A06895
:100E3000021DDA62227F45EA026545F40035DD6174
:100E40005E625961017841B1012921D0224B234AC8
:100E500023484FF48D7120F065FADA69418822F455
:100E60007F42013922F0100242EA0122DA610121B7
:100E7000154BDA6942F02002DA61DA699206FCD495
:100E800010229A600029B9D0164A1A60BDE8F08194
:100E9000B2F1FF01DA69408822F47F4200F1FF30AD
:100EA00022F0100242EA002242F0100218BF012193
:100EB000DA61DDE745EA0262034B42F40032B4E74F
:100EC00042F20132E1E700BF00B00240012301001D
:100ED000090002000A0002001D2702083727020845
:100EE0009B26020801230200024B1B685868036816
:100EF0005B6918478C4E012070B5044625460A4BA5
:100F00000C30002660602672667245F8203B602235
:100F1000294609F061FC04F55A63EE6024359D42D0
:100F2000FBD1204670BD00BFC02F0208034B1A68DA
:100F3000D207FCD423229A60704700BF00B0024061
:100F40007047000030B50F4C2568ED07FCD4232511
:100F50000904A56041F001010225FF2B656361646E
:100F6000E0630AD00849656241EA0363E361074B25
:100F700022626061E060236030BDE561039BA36392
:100F8000034BF8E700B00240090001000100020035
:100F90000100030030B50E4C2568ED07FCD4232575
:100FA0001204A56042F001020225FF2B6563626412
:100FB000E063E16008D01B0643F00213E361054BD8
:100FC00065626061236030BD034BE3610123F9E793
:100FD00000B0024001000200020002FF30B50B4CDD
:100FE0002568ED07FCD4232512041B06A56043F4F5
:100FF0000033022542F0010265636264E063E16050
:10100000E361034B65626061236030BD00B0024064
:1010100001000200012070470C2070470C2303FBE5
:101020000100083070470C2303FB010008307047B3
:101030000120704740F60C50704740F60C5303FBFC
:1010400001000830704740F60C5303FB01000830E4
:101050007047012070471020704700EB01100830E6
:10106000704700EB011008307047084601F082BC61
:1010700010B5034B0360044608F0DDF9204610BDAF
:101080007830020810B50446FFF7F2FF204614211D
:101090001FF00BFA204610BD10B5034B0360044649
:1010A00008F0C9F9204610BD4430020810B50446C6
:1010B000FFF7F2FF204640F614511FF0F6F92046E4
:1010C00010BD000010B5034B0360044608F0B3F9EF
:1010D000204610BD1030020810B50446FFF7F2FF9D
:1010E000204618211FF0E1F9204610BD10B5084B2D
:1010F0000360044600F55460FFF7BAFF04F12C00CA
:10110000FFF7CAFF04F11400FFF7DCFF204610BD13
:10111000AC30020808B50248FFF7E8FF08BD00BF81
:101120009C12002010B50446FFF7E0FF204640F671
:10113000B4611FF0BAF9204610BD00002DE9F3415B
:1011400001F0F4F9054601F0F5F9002401462346C3
:1011500028462246009410F015F9274B274A1A60BA
:10116000204602F09BF8264D264B274A27489A60D6
:1011700010F070F82B68BFF35B8FDB0735D428467F
:101180001FF095F988B3224C224B236004F6585681
:1011900004F1140004F12C0804F554676060C4F8ED
:1011A0000880E760266108F047F91B4B6361404601
:1011B00008F042F9194BE362384608F03DF9184B44
:1011C000C4F8403D04F6545002F050FD224604F6A7
:1011D0005451304602F0CEF8304601F0CBFB1148B6
:1011E00020F0BEF828461FF06EF90F4802B0BDE8A7
:1011F000F041FFF7E7BB00BFF04E0120480400209C
:1012000098120020680400204C04002008000020F0
:101210009C120020AC300208103002084430020852
:101220007830020815110008C40300207047000040
:101230000148FFF7D5BB00BFC403002070B5264EA0
:10124000264C274D274B23603046FFF755FE284696
:1012500015F09EF924480EF087F9244B2448DC60F1
:1012600000224FF48071C3E9121222491A86C3E9A1
:101270001A12214983F85820C3E91E011F49C3F8F7
:1012800080101F491F480B60F021C3E90422C3E905
:101290000622C3E90822C3E90A22C3E90E22C3E9F0
:1012A0001022C3E91422C3E917225A6683F870207A
:1012B0005A67C3E9016501801348018013484FF460
:1012C000A07101801248018012490A70012283F83E
:1012D0003420114A1A6070BDF404002094120020DA
:1012E00068040020C02302084C040020C40300202E
:1012F0000000010101000001000450001A00140068
:101300008C4E0120804E0120864E0120824E01200D
:10131000884E0120844E0120D42E02080148FFF798
:1013200077BC00BFF4040020002070478180704724
:10133000C180704701817047418170477047704795
:1013400070477047704710B4C4880368121B8488C4
:101350005B6D091B12B25DF8044B09B218474FF6DA
:10136000FF7383814FF0FF3303621368C361106022
:101370007047002070478B8883800120704770473A
:1013800080F82610704790F82600704710B50022AC
:10139000B1F90840B1F90A10028042808480C1800E
:1013A00010BD0022028042808280C2807047017797
:1013B000704780ED080A704780F82410704780F865
:1013C0002510704701207047983070478C30704767
:1013D000843070477047704770470000034B90227D
:1013E00083F85A2383F85823704700BF00E100E0D8
:1013F000094A0A49D3680A48C3F30A03013B9BB26E
:101400000B801169C1F30A01013901801364536B28
:1014100043F00103536370470068014052210020EC
:1014200050210020014BD3F8AC0070470068014008
:10143000024B0122C3F8AC105A62704700680140A9
:1014400010B52C2104461FF030F8204610BD10B511
:10145000BC2104461FF029F8204610BD70B5044693
:1014600008F0E7FA23689D6E0CF016FE0146204650
:10147000A8472368054AD3F88C502046AC46002381
:10148000BDE87040A2F51631604700BF00B004D03F
:1014900008F0B6BA08F0C0BA08F07CBA08F0EBBBA6
:1014A00090F8252012B103685B691847704790F8DF
:1014B00025201AB190F8242002B11860704700006E
:1014C000034B4FF080629A604FF080729A607047D1
:1014D00000E100E0084B4FF08062C3F88820BFF3C2
:1014E0004F8FBFF36F8F4FF08072C3F88820BFF328
:1014F0004F8FBFF36F8F704700E100E070B500239E
:10150000124E8380124B0360336893F858200546CF
:101510000AB1D86C00B998680368DB6A98473368E9
:10152000B0FA80F4D86C640930B10368DB6A98477C
:10153000002808BF44F001042CB9064B064A0748AE
:101540002C211FF0EFFE284670BD00BF8C4E0120FD
:10155000C030020875270208D32702080C280208A9
:1015600070B5254E3568BFF35B8F15F0010540D18E
:1015700030461EF09CFF00283BD0204C204B2561BC
:1015800004F13400C4E90035C4E90255E584A562DC
:10159000A5850EF0CEFA04F158000AF0D1FD194BE2
:1015A000A3652046184B40F8843BFFF7A7FF174B75
:1015B000C4F884302433C4F88C304FF4C803C4E931
:1015C00028350023C4F8AC30C4F8B030C4F8B430C7
:1015D000C4F8B8300E480F4BC4F89050C4F89C5073
:1015E000C4F8A850C4F898301FF0BAFE30461EF078
:1015F0006AFF024870BD00BF54210020582100201E
:10160000B0380208E0300208583102086438020895
:10161000D91300084438020838B5184C23685BB366
:10162000174B184A1B6C11888B4216D1164B198820
:1016300004F0C0FA236893F86A200025013283F889
:101640006A2083F87C50FFF7B7FA206808F06EFF35
:101650002846BDE83840FFF7F7B804F0ABFA246835
:10166000236820461B6A9847012384F87C300020B9
:10167000BDE83840FFF712B938BD00BF8C4E0120DD
:1016800000680140522100205021002007B5064B80
:10169000ADF806001B68054801220DF1060105F0B2
:1016A00039F803B05DF804FB0C000020B0220020E4
:1016B00007B51D4C1D4D1E4E204603F0BDF80A21F6
:1016C000204603F037F9204603F087F9DC2828602C
:1016D0001ED91848522300688DF8073000220A23CB
:1016E0000DF1070105F0FFFE1348042103F054FC3F
:1016F000024648B9114846238DF8073000680A238E
:101700000DF1070105F0EFFE102005F0FDFDD3E718
:101710001D28E9D84C238DF8073030680A230022B1
:101720000DF10701DEE700BF4C2400201822002045
:101730002022002024220020001802401C22002029
:1017400010B54FF0FF331446024892B205F079FC11
:10175000204610BD6822002030B595B0102200212F
:101760000AA81FF0E6FF1422002103A81FF0E1FFE2
:1017700000241E4B01941A6C42F080521A641B6CB8
:1017800003F080530193019B194B02941A6842F4B1
:1017900040421A601B6803F4404302930122029BFB
:1017A0004FF48033CDE9082302254FF4800308214C
:1017B000CDE90E534FF4B473CDE9101308A80423F8
:1017C0001393129504F04EFA04F012FA0F23CDE9A8
:1017D00003354FF4A0504FF48053CDE906030521A3
:1017E00003A8059404F01AFC15B030BD003802407F
:1017F000007000402DE980489BB002F037FFFFF7F2
:10180000ABFF142200210DA81FF093FF0024C84B4A
:1018100000941A6BC748DFF85883DFF8589342F0FA
:1018200010021A631A6B02F010020092009A0194DF
:101830001A6B42F020021A631A6B02F02002019226
:10184000019A02941A6B42F080021A631A6B02F03A
:1018500080020292029A03941A6B42F004021A6305
:101860001A6B02F004020392039A04941A6B42F07A
:1018700001021A631A6B02F001020492049A0594A1
:101880001A6B42F002021A631A6B02F0020205920E
:10189000059A06941A6B42F040021A631A6B02F022
:1018A00040020692069A07941A6B42F008021A63E5
:1018B0001B6B03F00803224607933C21079B03F0B0
:1018C00071FB9D480122022103F06CFB22469A48DD
:1018D000042103F067FB224698484FF4405103F07F
:1018E00061FB01263C23CDE90D3692480F9403237A
:1018F0000DA90227109303F06BFA8F480DA9CDE9CB
:101900000D760425CDE90F4403F062FA8A480DA94B
:10191000CDE90D56CDE90F4703F05AFA4FF4405385
:1019200086480DA9CDE90D36CDE90F4703F050FAF1
:101930000DA983480F96CDE90D5403F049FA81486B
:10194000814B824D036003F039F9814B2C62C5E96C
:10195000008328464FF48043C5E90434C5E90244B6
:10196000C5E9064403F02CFD1021284603F070FF62
:1019700021462846774D03F08AFF4FF48273C5E96C
:1019800000934FF4007A1823C5E906A328460A23DA
:10199000C5E90244C5E90444C5E90844AC62EB6208
:1019A00004F05CFE8F232246394663488DF82430CC
:1019B0008DF8344003F0F6FA32464FF47A7309A9F1
:1019C000284604F0A7FE4FF47A7332460DA9284644
:1019D00005F04CF83246394657485F4D03F0E2FABD
:1019E0009DF83430D32B04BF5C4B1E705C4B01263A
:1019F0004FF01008C5E9003640230024C5E90483F0
:101A00004FF4C073C5E906344FF40063C5E90834E8
:101A10004FF4005302274FF0040AAB624FF0030B60
:101A200007230DA92846CDE90D73CDE90FA34FF08B
:101A30000809C5E9024ACDE911B7139704F0F2FC91
:101A40004FF6FF7209A92846CDE90A96089409962F
:101A50000C9404F007FD304602F034FE4FF6FF729E
:101A600009A92846CDE90979CDE90B6404F0FAFC0F
:101A70004FF6FF7209A92846CDE909B9CDE90BA4B3
:101A800004F0F0FC4FF40C730893089B0C934FF692
:101A9000FF7209A92846CDE909A90B9604F0E2FCDA
:101AA00040F26A51284604F0FBFC342221460DEB3B
:101AB00002001FF03EFE2B4D2B4B2C61C5E900347C
:101AC0000923C5E905361D23C5E9073B40F20D1280
:101AD00040F24313C5E9092340F2171140F24713BE
:101AE0002846C5E90B13C5E90244AC8685F83640A3
:101AF00003F068FFFF21F022CDE912144FF480605B
:101B000005214FF4A073CDE91401CDE90E240DA9F0
:101B1000CDE9164228462246144D1893CDE91037D8
:101B20000D94ADF864408DF8664004F016F823E09B
:101B3000003802400010024000080240000C024041
:101B4000001802404424002000300240B02300204E
:101B5000A0860100B022002034220020282200208C
:101B6000400100A00823002000680140142200204A
:101B7000005C0040005001403C4B2B601B689847C4
:101B80002B683B4DDB6898473A4B2846C5E9003443
:101B9000C5E90274C5E90A47C5E90C4403F01EF81B
:101BA0003146284603F0D0F8424621460DA81FF0E2
:101BB000C0FD314DDFF8FCC02C614FF48033C5E926
:101BC00000C34FF00073AB6028462C4BAB622C7601
:101BD00085F82040EC62EC60EE6185F830406E6183
:101BE00002F084FD0DA90D232846CDE90D360F9492
:101BF00002F0F6FEDFF8C0E021484FF4E133C0E91F
:101C000000E30C23C0E90534C0E902440461C46167
:101C100005F0E8F9FEF74CFDFEF749FD05F004FB81
:101C2000184A3946404605F023FC174B174A1860FE
:101C30003946404605F01CFC154B164A18603946DB
:101C4000404605F015FC144B144A18602146144810
:101C500005F016FB134B144A18602146134805F093
:101C60000FFB134B186005F0F1FAFEE7140000209B
:101C70000424002000B002404C2400200100000F8A
:101C800068220020CC31020824220020B43102084E
:101C9000202200209C3102081C2200200832020869
:101CA000B116000830220020E4310208BF06000807
:101CB0002C22002000200140001001407047704796
:101CC0007FB5094B8DF817201B6802930DF11702A1
:101CD0000123009201930A460146044803F018FCD0
:101CE00007B05DF804FB00BF10000020B023002007
:101CF0007FB500238DF81730084B1B6802930A4606
:101D000001230DF11701009101930146044803F0EE
:101D10008FFC9DF8170007B05DF804FB1000002051
:101D2000B02300201FB5084C24680092CDE901348F
:101D30000A4601230146054803F07AFC003818BF23
:101D4000012004B010BD00BF10000020B02300200F
:101D500002F0B8BC10B5064C00222046042103F066
:101D600021F920460122BDE81040042103F01AB9F0
:101D70000008024038B50B4D044601220A484FF4D2
:101D8000005103F00FF900220421284603F00AF95C
:101D90002046FFF77BFC28460122BDE8384004219D
:101DA00003F000B900080240000C024038B50B4DAA
:101DB000044600220A484FF4005103F0F3F80022D1
:101DC0000421284603F0EEF82046FFF75FFC284682
:101DD0000122BDE83840042103F0E4B800080240C5
:101DE000000C0240F7B5144E144F05460C46304621
:101DF0000022042103F0D6F800224FF400513846A7
:101E000003F0D0F82846FFF741FC0D4B0D481B6846
:101E1000224601A904F02AFE384601224FF400515F
:101E2000019C03F0BFF830460122042103F0BAF808
:101E3000204603B0F0BD00BF00080240000C024085
:101E40000C000020B022002002F03CBC0268034BD2
:101E50009A4201D102F024BC704700BF001000403C
:101E60007047000082B00E4B00220092596C41F482
:101E700080415964596C01F48041009100990192AC
:101E8000196C41F0805119641B6C03F0805301936D
:101E9000019B0F216FF0010002B002F04FBE00BFA6
:101EA0000038024010B5044688B01422002103A86F
:101EB0001FF03FFC2268124B9A421ED103F58C336F
:101EC000002101915A6C0F4842F480725A645A6C96
:101ED00002F480720192019A02911A6B42F004029C
:101EE0001A631B6B03F004030293029B0822032373
:101EF00003A9CDE9032302F06BFF08B010BD00BFBA
:101F000000200140000802400268094B9A4282B05A
:101F10000BD100230193074B1A6B42F480521A63D2
:101F20001B6B03F480530193019B02B0704700BF09
:101F3000003002400038024007B50F4B02689A4259
:101F400016D10022A3F5F0430192196B41F4000170
:101F500019631B6B03F40003019305215A20019BB5
:101F600002F0ECFD5A2003B05DF804EB02F018BE5D
:101F700003B05DF804FB00BF00B002402DE9F04360
:101F8000044689B01422002103A81FF0D2FB226866
:101F9000244B9A4243D1244C244800250095236BBE
:101FA00043F004032363236B03F004030093009BBB
:101FB0000195236B43F001032363236B03F00103BB
:101FC0000193019B4FF012094FF400734FF0010889
:101FD0000327042603A9CDE90339CDE90587079630
:101FE00002F0F6FE4FF480731148079603A9CDE97D
:101FF0000339CDE9058702F0EBFE0295236C43F42B
:1020000000032364236C03F400030293029B236AFE
:1020100043F400032362236A23F40003236209B01C
:10202000BDE8F083005C0040003802400008024038
:1020300000000240F0B599B004461422002107A820
:102040001FF077FB30220DEB020000211FF071FB27
:1020500022685E4B9A4240F0B78008230C93C0235D
:102060001093042312930CA84FF40033159304F03B
:10207000ADF808B1FFF7F4FE554B56480024009424
:102080005A6C42F080625A645A6C02F0806200928C
:10209000009A01941A6B42F020021A631A6B02F044
:1020A00020020192019A02941A6B42F001021A6313
:1020B0001A6B02F001020292029A03941A6B42F028
:1020C00002021A631A6B02F002020392039A04944A
:1020D0001A6B42F040021A631A6B02F0400204923B
:1020E000049A05941A6B42F004021A631A6B02F008
:1020F00004020592059A06941A6B42F008021A63CC
:102100001B6B03F00803069302250E26069B0B9615
:102110004FF4806307A9CDE90735CDE9094502F001
:1021200057FE41F658032C480B9607A9CDE9073511
:102130000927CDE9094502F04BFE032327480B97F9
:1021400007A9CDE90735CDE9094502F041FE4FF475
:10215000706322480B9607A9CDE90735CDE90945FB
:1021600002F036FE4FF40C631D480B9607A9CDE92B
:102170000735CDE9094502F02BFEC02319480B961F
:1021800007A9CDE90735CDE9094502F021FE08236D
:1021900015480B9607A9CDE90735CDE9094502F0A9
:1021A00017FE4FF4A0530E480B9707A9CDE907354A
:1021B000CDE9094502F00CFE58202246052102F027
:1021C000BDFC582002F0ECFC19B0F0BD00680140E5
:1021D00000380240001402400000024000040240A7
:1021E0000018024000080240000C024010B50446EE
:1021F00088B01422002103A81FF09BFA2268144B18
:102200009A4223D103F56843002101915A6C114889
:1022100042F480125A645A6C02F480120192019ABC
:1022200002911A6B42F020021A631B6B03F0200329
:102230000293029B4FF4607202230321CDE9032332
:102240000523CDE9061303A902F0C2FD08B010BDB5
:10225000005001400014024010B5044688B014221A
:10226000002103A81FF065FA2268144B9A4223D17B
:1022700003F59433002101915A6C114842F0100289
:102280005A645A6C02F010020192019A02911A6B80
:1022900042F001021A631B6B03F001030293029BDD
:1022A0004FF4C06202230321CDE903230723CDE9C4
:1022B000061303A902F08CFD08B010BD0010014008
:1022C000000002402DE9F04186B0002303932B4B20
:1022D0001C68002C4FD14FF00108C3F80080284B38
:1022E00000949A6B274842EA08029A639B6B03EAC0
:1022F00008030093022703260C25009B01A94FF633
:102300003F03CDE90137CDE9046502F061FD1E48C8
:10231000059501A9CDE90187CDE9034602F058FDF5
:1023200048F233131948059501A9CDE90137CDE9E4
:10233000034602F04DFD4FF683731548059501A93C
:10234000CDE90137CDE9034602F042FD4CF20373BB
:102350001048059501A9CDE90137CDE9034602F002
:1023600037FD60230C48059501A9CDE90137CDE97A
:10237000034602F02DFD06B0BDE8F0819424002054
:1023800000380240001402400008024000180240D9
:1023900000100240000C02400004024070B588B0FA
:1023A00000230293204B1A6C42F010021A641B6C3B
:1023B00003F010030293054601A903A8029B03F052
:1023C000E7FE069B4BBB03F0C3FE184E184B336071
:1023D00040F2E733F360174BB0FBF3F3013B73605C
:1023E000304600233361B360B36104F00FFD04464F
:1023F00080B9304604F0E0FB044658B9362002F0BC
:10240000CFFB0F2D0DD822462946362002F096FB31
:10241000094B1D60204608B070BD03F099FE4000D6
:10242000D3E70124F6E700BF0038024098240020DB
:102430000010004040420F007C0000207047FEE783
:10244000FEE7FEE7FEE77047014804F0F3BB00BF7C
:1024500098240020014803F023BB00BF082300207C
:10246000014802F0E7BB00BF0424002001207047B0
:1024700008B51FF001FA162303604FF0FF3008BDC6
:1024800008B51FF0F9F916230360FEE770B50D4695
:1024900014460E46731B9C4201DC204670BDAFF310
:1024A000008006F8010BF5E74FF0FF3070474FF45E
:1024B00000534B6000207047012070470020704798
:1024C0000A4A116808B5034609B90949116010683C
:1024D000694603448B4206D91FF0CEF90C230360F2
:1024E0004FF0FF3008BD1360FCE700BFE024002080
:1024F000D05B0120704710B5042104461DF0D5FFC4
:10250000204610BD012908B506D0022908D059B9C6
:1025100000F002FF006808BD00F0FEFE4068FAE728
:1025200000F0FAFE8068F6E70020F4E70048704704
:10253000403202081620704713B5002451B10368D9
:1025400001948DF8034001AA9C680DF10303A04794
:1025500002B010BD0846FBE7C0897047008A70478B
:10256000C088704780887047807A00F07F0070478D
:10257000807AC00970470020704700009FED010A73
:10258000704700BF000000007047704700F5987367
:102590000868496803C370477047704741607047D7
:1025A00070477047064BC0F84C310023C0F85031DB
:1025B00000F5A273C0F84801C0F84031704700BF71
:1025C000B1270008012303727047704710B4C26836
:1025D00041685410034601EB6200D20748BF0A5914
:1025E0009B685DF8044B48BFD358184703464068C2
:1025F00030B19A681AB9D86800F00100704701201C
:10260000704710B50C2104461DF04FFF204610BD49
:1026100010B5102104461DF048FF204610BD10B52E
:102620004FF4AE7104461DF040FF204610BD10B5BA
:102630000BF032FD0368BDE81040DB6B184710B5A6
:102640000446D0F8400158B10368DB68984738B1B8
:10265000D4F8400103689B6898470023C4F84031D0
:1026600010BD00002DE9F14FD0E9556A0746B0686A
:1026700003681B6A984740F60B53984205D8444BB1
:10268000444AA32144481EF04DFE706803681B6A4B
:1026900098470F2803D8414B3E4AA421F2E7F0683F
:1026A00003681B6A98470B2803D83D4B394AA5217C
:1026B000E8E70BF0F1FCDFF8F09004300BF011FDCF
:1026C000D9F8000010B10368DB689847D9F800001A
:1026D00010B103681B689847DFF8D080D8F8000075
:1026E00010B103685B699847D7F83C0110B10368E3
:1026F0005B689847D8F8000010B103681B689847DA
:10270000D7F83C0110B103689B689847F0680368EC
:1027100000215B6A98474FF0000B224BC0F804B0D1
:10272000044680F808B00360B068036859465B6AE5
:102730009847054601F0A6F87068036859465B6A39
:1027400098472946064600F02DFE331DC7F83C6128
:10275000C9F80040C8F80050CAF800302B68C6F825
:1027600008A02846DB68EE639847336830461B684C
:102770009847214628460DF03FFE236820461B69F6
:10278000984723685B69204601B0BDE8F04F1847C1
:102790009828020826290208FE290208452A02086C
:1027A000E82A02086C340208D44E0120D04E0120E1
:1027B0002DE9F14FD0E9556A0746B06803681B6AF6
:1027C0009847B0F5E47F05D2444B454AA3214548DC
:1027D0001EF0A8FD706803681B6A98470F2803D88D
:1027E000414B3F4AA421F2E7F06803681B6A98470F
:1027F0000B2803D83D4B3A4AA521E8E70BF04CFCE7
:10280000DFF8F09004300BF06CFCD9F8000010B148
:102810000368DB689847D9F8000010B103681B68AB
:102820009847DFF8D480D8F8000010B103685B69DE
:102830009847D7F83C0110B103685B689847D8F80F
:10284000000010B103681B689847D7F83C0110B12D
:1028500003689B689847F068036800215B6A9847A3
:102860004FF0000B224BC0F804B0044680F808B0CB
:102870000360B068036859465B6A9847054601F0F3
:1028800089F97068036859465B6A98472946064685
:1028900001F05EF9331DC7F83C61C9F80040C8F883
:1028A0000050CAF800302B68C6F808A02846DB683C
:1028B000EE639847336830461B68984721462846A0
:1028C0000DF09AFD236820461B69984723685B69D1
:1028D000204601B0BDE8F04F184700BF9828020815
:1028E0008B2B0208FE290208452A0208E82A020862
:1028F0006C340208D44E0120D04E0120044B1B68DA
:1029000093F858200AB1D86C00B99868704700BF96
:102910008C4E012070B504460D4616460BF07EFC29
:10292000104A1460104A2260104A0023C4E951235F
:10293000C4E95333C4E94F330D4B186803680121D0
:102940009B68C4E955659847FFF7D8FF15F0C9FCA7
:10295000FFF7D4FF15F040FDFFF7D0FF15F048FD5D
:10296000204670BDE04E01201834020800340208F1
:102970008C4E0120064BC0F84C310023C0F850317A
:1029800000F5A273C0F84801C0F84031704700BF9D
:10299000B1270008064BC0F84C310023C0F8503175
:1029A00000F5A273C0F84801C0F84031704700BF7D
:1029B000652600087047704770477047704770473A
:1029C000704710B54FF4D07104461DF06EFD2046DF
:1029D00010BD70B5036804461B6B15469847236805
:1029E000294620465B6BBDE870401847002310B5B0
:1029F000C0E90133C0E90333C0E90733C0E9053357
:102A00004FF480738384064B03600B88C384FF23D9
:102A1000044680F8283009F0EEFB204610BD00BFC8
:102A2000DC3902082DE9F04F044687B00DF038FB81
:102A30006F4A22606F4A0026C4E910264FF4807264
:102A400004F16C0AA4F86420FF2284F866204FF693
:102A5000FF7504F1980905A9C4E91266C4E9146672
:102A6000C4E91666E6632666A666504604F1C40805
:102A7000ADF81450FFF7BAFF05A9484604F1F00776
:102A8000ADF81450FFF7B2FF05A94046ADF8145059
:102A9000FFF7ACFF05A93846ADF81450FFF7A6FFC5
:102AA00004F58E7305A918460193ADF81450FFF78D
:102AB0009DFF04F5A47305A918460293ADF81450C0
:102AC000FFF794FF04F5BA73184604F1400B05A90B
:102AD0000393ADF81450FFF789FF3246314658464C
:102AE000FFF777FF5846F021FEF724FC58464FF4D5
:102AF000A071251DFEF720FC4FF07F42A2665946CB
:102B0000284606F0ABFC324631465046FFF761FFDF
:102B10004FF0010B05A95046ADF814B009F06BFB5E
:102B20005146DFF8D4A0284606F098FC52463146BC
:102B30004846FFF74EFF05A94846ADF814B009F026
:102B40005AFB4946284606F089FC32463146404643
:102B5000FFF73FFF05A94046ADF8146009F04BFBB5
:102B60004146284606F07AFC524631463846FFF781
:102B700030FF05A93846ADF8146009F03CFB394632
:102B8000284606F06BFC4FF4967201983146FFF729
:102B900020FF0E270198ADF8147005A909F02BFB52
:102BA0000199284606F05AFC4FF4967202981021BB
:102BB000FFF70FFF0298ADF8147005A909F01BFB91
:102BC0000299284606F04AFC324603985121FFF745
:102BD00000FF0F230398ADF8143005A909F00BFB93
:102BE0002846039906F03AFC204607B0BDE8F08F6E
:102BF0009034020874390208C0FEFFFF406A704733
:102C0000806A704770478A880B8810B5D20A4C8852
:102C1000C1699BB251F8220043EA0443184410BD35
:102C200010B50446BAB1107B68B1537BD27A1B024F
:102C300003F4E0631A43236A03EB82031A888A428F
:102C400002D193F9020010BD05D8013880B20433D7
:102C50000028F3D1F7E70020F5E710B52C21044652
:102C60001DF023FC204610BD30B58BB00446BDF8E6
:102C700060500895BDF85C5007959DF8505006953A
:102C80009DF84C5005959DF8485004959DF844508A
:102C900003959DF8405002959DF83C500195BDF874
:102CA000385000950DF002F8064B2360159BE36148
:102CB000169B2362199B63621A9BA36220460BB08A
:102CC00030BD00BFC4340208806A70477047704747
:102CD0007047704730B4C26844685510034604EB2F
:102CE0006200D20748BF62599B6830BC48BFD358C6
:102CF00018470346406830B19A681AB9D86800F09E
:102D0000010070470120704790F82D3080F85C304A
:102D100070470146343091F82C3013B1623109F01C
:102D20006ABA6031FBE710B5642104461DF0BDFBB3
:102D3000204610BD10B5102104461DF0B6FB2046FC
:102D400010BD10B54FF4DE7104461DF0AEFB2046F9
:102D500010BD10B50446006B50B10368DB6898479E
:102D600030B1206B036821469B68BDE810401847CE
:102D700010BD0B7970B590F82C6004460D460BB968
:102D800016B170BD002EFCD0B3FA83F35B0984F852
:102D90002C3023682046D3F88C309847236820468F
:102DA0005B699847002EECD02B79012BE9D1236881
:102DB0002046D3F88830BDE87040184700F58E7083
:102DC000884208B505D10BF067F9BDE80840FFF768
:102DD000E1BD08BD074A02600022C0E90122C0E946
:102DE0000322C0E90522C0E907224FF480728284E1
:102DF000704700BFAC3A020870B5036804469B6B8D
:102E000015469847236829462046DB6BBDE870408D
:102E100018470B8870B5A0F860300546138825F870
:102E2000623F044628460EF0C1FA064628460EF0D8
:102E3000F1FA314602462046FFF7DEFF23682046BE
:102E4000D3F88C30BDE87040184700002DE9F04FF2
:102E5000804687B0464600240DF022F97D4AC8F826
:102E60003C4046F8402B2146262230461EF061FCAD
:102E70003046FFF7AFFF784AC8F8402008F16C0BE6
:102E8000FF224FF6FF7588F8662008F1980A05A919
:102E9000C8F868405846ADF81450FFF7A7FD05A9DB
:102EA0005046ADF81450FFF7A1FD08F1C40305A981
:102EB00018460193ADF81450FFF798FD08F1F003A0
:102EC00008F58E7705A918460293ADF81450FFF760
:102ED0008DFD3846FFF77EFF4FF47F424FF0010330
:102EE00008F5A879A8F848215C4A88F84031C8F864
:102EF0001C2105A9C8F84441C8F84C414846ADF822
:102F00001450FFF773FD2246A8F87C51A8F87E51B3
:102F100021464846FFF75DFD4946384606F09EFAD1
:102F200008F5C073184605A90393ADF81450FFF7D0
:102F30005DFD4B4AC8E96B284A4A2146C8E96D2421
:102F400030462246FFF745FD30464FF4A072F0218F
:102F5000FFF752FF08F104054FF07F42C8F86820E0
:102F60003146284606F07AFA224621465846FFF7AF
:102F700030FD3D4E4FF0010305A95846ADF8143021
:102F800009F039F95946284606F068FA32462146D2
:102F90005046FFF71EFD4FF0010305A95046ADF85E
:102FA000143009F028F95146284606F057FA22460F
:102FB00001982146FFF70DFD0198ADF8144005A9D1
:102FC00009F019F90199284606F048FA32460298A4
:102FD0002146FFF7FEFC0298ADF8144005A909F060
:102FE0000AF90299284606F039FA1522ADF81020A0
:102FF000ADF8142004A905AA3846FFF70AFF2246B7
:1030000021464846FFF7E5FC08F5D672C8F84C2182
:1030100038467C223521FFF7DCFC0F223846872119
:10302000FFF7EAFE3946284606F018FA03982246CA
:103030005121FFF7CEFC0F220398ADF8142005A90B
:1030400009F0D9F82846039906F008FA404607B077
:10305000BDE8F08FE4350208743902082C35020807
:10306000CC350208BD2D0008C0FEFFFF70470000F0
:1030700030B5164D2C6814F001048FB0BFF35B8F90
:1030800020D128461DF013FAE0B13F230993104BDD
:103090000893104B104911480A940122CDE90643C8
:1030A0000423CDE903320A230093CDE90B44CDE993
:1030B00001440594FFF7D8FD09481EF051F9284650
:1030C0001DF001FA05480FB030BD00BFE424002018
:1030D000B4440208C044020884440208E8240020E2
:1030E0006D3000087047000030B5164D2C6814F0A4
:1030F00001048FB0BFF35B8F20D128461DF0D7F9B4
:10310000E0B13F230993104B0893104B104911482D
:103110000A940122CDE906430423CDE903321423A6
:103120000093CDE90B44CDE901440594FFF79CFDE4
:1031300009481EF015F928461DF0C5F905480FB0DD
:1031400030BD00BF14250020B8440208C444020862
:103150009444020818250020E5300008704700005C
:1031600030B5164D2C6814F001048FB0BFF35B8F9F
:1031700020D128461DF09BF9E0B13F230993104B65
:103180000893104B104911480A940122CDE90643D7
:103190000423CDE9033228230093CDE90B44CDE984
:1031A00001440594FFF760FD09481EF0D9F8284650
:1031B0001DF089F905480FB030BD00BF442500203F
:1031C000BC440208C8440208A44402084825002060
:1031D0005D31000800207047002070470EB403B531
:1031E00003AB002153F8042B01930BF0DDFF02B079
:1031F0005DF804EB03B070470CB407B504AB53F8AB
:10320000042B01930BF0D0FF03B05DF804EB02B088
:1032100070470000436C10B5044673B3038F2BB99D
:10322000184B194AC52119481EF07CF8C38E00EBD3
:1032300043035B8C0BB30DF0D2FD238F012B03D81E
:10324000134B144ACB21EEE7E28E531C9BB2092BA1
:10325000194688BFA3F10A0104EB410140F63F1073
:10326000498C814209D10A2B04EB420228BF00237A
:1032700004EB4303508C588451842046BDE8104031
:103280000DF0B0BC632C02086C2C0208172D02084C
:10329000612D02086F2D02080DF06BBC38B518BB0C
:1032A000124B13481C681349B4B1226822440260CF
:1032B000626822440A60A26814440F4B00221A80FC
:1032C00000F02AF8054600F025F80C4B1C600C4B6A
:1032D0001D600C4B188007E00B4B03600B4B0B6021
:1032E0000B4B1C68002CE8D138BD00BF80250020A6
:1032F00078250020742500207C250020E44E012044
:10330000EC4E0120E84E0120D0440208CC440208D3
:10331000D4440208002070470048704784250020EC
:1033200010B5FFF7E1FE044C2060FFF719FF606065
:10333000FFF79EFEA06010BD8425002010B500247C
:1033400004600C6014601C6010BD704710B54FF431
:10335000AE7104461DF0A9F8204610BD10B5044614
:10336000D0F8580100F085FC2046BDE810400AF076
:1033700015BF000010B50446FFF7CCFA014B2360DF
:10338000204610BD18360208704704387047704751
:1033900010B5102104461DF088F8204610BDA0F19C
:1033A0000400F5E700228260024A0260183242609F
:1033B000C16070476C360208704700002DE9F04F7D
:1033C000D0F8A031BE4A01335A43B2F1333F85B041
:1033D0000446C0F8A03120D8BA4A5343B3F1113F94
:1033E0009FBF90F8A831B3FA83F35B0980F8A83146
:1033F00090F8A931002B00F0C8801F2B4FF0FF334D
:1034000018BF0023DBB284F8A93194F8AA31FF2B4E
:1034100040F0BD801F2384F8AA31B4F8A421B4F889
:10342000A631A949023202331BB212B2002A08BFE8
:103430000A46B3F5A07F08BF0023A4F8A631A4F87C
:10344000CA30A4F8723094F8A831A4F8A421A4F8E2
:10345000F620A4F89E20002B00F09E80012B00F0A7
:10346000A8809A4D286804F09FF870B14FF0FF33A0
:10347000286800220DF10B0104F066F89DF80B306E
:10348000522B02D1924800F018FE924D286804F0A9
:103490008BF870B14FF0FF33286800220DF10B015B
:1034A00004F052F89DF80B304C2B02D1884800F004
:1034B000FEFD894D286804F077F8002800F086802A
:1034C0004FF0FF33286800220DF10B0104F03CF8A7
:1034D0009DF80B30462B02D17D4A0123D3717C4EDF
:1034E00004F5A96304F5EC75A046019337464FF047
:1034F000000B97F80E90B9F1020F6AD0B9F1030FE3
:1035000070D0B9F1010F0ED1BA462B683AF9081FF5
:103510009B6DB7F90A202846984785F82590022127
:10352000504600F037FC019B2C359D4207F11007F7
:10353000DFD104F5E063664F01934FF0000A4FF0CE
:10354000010B97F85231032B00F08680042B00F01A
:10355000B480022B4DD1D5F8B831B7F94E219B6D0F
:10356000B7F94C1105F5DC7098472B68B7F94E2177
:103570009B6DB7F94C112846984797F85731A3B37C
:1035800085F8DDB185F825A033E01F233BE71F2B2D
:103590000CBF0023FF233EE794F8A93184F81831CB
:1035A00084F8EC3094F8AA3184F8C03084F8943070
:1035B00057E794F8A93184F8C03084F8943094F82F
:1035C000AA3184F8183184F8EC304AE7404BD871BE
:1035D00085E72B68B7F90A209B6DB7F908102846D4
:1035E0009847A0E785F825B09DE785F825B085F8D0
:1035F000DD31019B2C359D4207F5A877A1D104F65A
:10360000B80504F5276B4FF000094FF0010A96F852
:10361000723E032B00F0B280042B00F0DB80022B03
:1036200060D1D5F8B831B6F96E2E9B6DB6F96C1E27
:1036300005F5DC7098472B68B6F96E2E9B6DB6F9D0
:103640006C1E2846984796F8773E002B46D085F8A2
:10365000DDA185F8259045E085F8DDA185F825A058
:1036600004F603534FF0000913F9012F01321ED164
:1036700004EB0903002283F8042D2C2303FB09F932
:1036800009F62840A144B7F84E21B7F84C11D9F8F3
:10369000283C083A08399B6D12B209B22044984779
:1036A000012389F84D3C042387F85231A1E709F141
:1036B0000109B9F1050FD7D19BE785F8DDA161E7D5
:1036C000CDCCCCCCEFEEEEEEC0FEFFFF24220020EE
:1036D00094250020202200201C22002085F825A00F
:1036E00085F8DD312C355D4506F5A8768FD1DFF8FC
:1036F000F09004F6035A04F6085605271AF9013F1C
:103700005A1C28D001335BB293FBF7F202EB820123
:103710008AF800305B1A5DB2EDB9D8F8283C39F868
:1037200012201B6EADF80C2008F6284B03A9584652
:1037300098479AF90030182B0DDDFF238AF80030E6
:10374000D8F8283C07221B6EADF80C2003A9584678
:10375000984788F84D5CB24508F12C08CED11F4B34
:1037600004F5D670B3F90220B3F90010FDF7EBFDB4
:10377000201D0BF043FE05B0BDE8F08F85F8DD910C
:1037800085F8259004F60353002713F9012F013221
:103790001CD1E319002283F8042D2C235F4307F684
:1037A00028402744B6F86E2EB6F86C1ED7F8283C91
:1037B000083A08399B6D12B209B220449847012398
:1037C00087F84D3C042386F8723E8BE70137052FBE
:1037D000DBD187E785F8DD913BE700BF942500202A
:1037E000C0360208204B70B50546036040F6D84449
:1037F00040F6FC36B44230D140F644262B59281905
:103800001B682C3C9847B442F8D140F68C062B59E3
:1038100028191B682C3C9847B442F8D140F2D46672
:103820002B5928191B682C3C9847B442F8D140F218
:103830001C562B5928191B682C3C9847B442F8D1C8
:103840002B5928191B682C3C9847B4F5D67FF7D123
:103850002846FFF7B4F8284670BD2B5928191B6875
:1038600098472C3CC6E700BF9436020810B50446C2
:10387000FFF7B8FF204640F60C511CF016FE20461C
:1038800010BD00002DE9F04F044685B0FFF7CAF8DF
:1038900004F5D679954B23604FF6FF7503A948468A
:1038A000ADF80C50FFF7A2F804F5EC7604F5A96723
:1038B000304603A92C36ADF80C50FFF797F8BE42FE
:1038C000F6D104F5E06A35464FF6FF77284603A99E
:1038D0002C35ADF80C70FFF789F85545F6D15546F3
:1038E00004F6B8074FF6FF78284603A92C35ADF843
:1038F0000C80FFF77BF8BD42F6D104F527630193F6
:103900002F464FF6FF78384603A9ADF80C80FFF735
:103910006DF8019B2C379F42F5D11F4604F62848CD
:103920004FF6FF7B384603A92C37ADF80CB0FFF7F4
:103930005DF84745F6D104F60453B8464FF6FF7BD1
:10394000404603A90093ADF80CB0FFF74FF8009B79
:1039500008F12C089845F3D14FF6C063C4F8A431A0
:1039600000234846A4F8A83103A90E2384F8AAB17D
:10397000ADF80C3004F1040808F03DFC48464FF463
:103980008C727021FFF725F84946404605F066FD28
:103990004FF4EC79102354F8092004EB090B126E54
:1039A000ADF80C3003A958469047002211465846FE
:1039B000FFF70FF809F12C095946404605F04EFD76
:1039C000B9F5A96F4FF01003E5D1DFF82491CB468C
:1039D00032684FF00C03126EADF80C30304603A97C
:1039E0009047002211463046FEF7F3FF314640462D
:1039F00005F034FD4FF00003D6F8B82186F82530E5
:103A000006F5DC7300934FF00D03126E0098ADF8CD
:103A10000C3003A99047BBF94E21BBF94C1100981B
:103A2000FEF7D7FF2C360099404605F017FD5645A6
:103A30000BF5A87BCCD102234FF0000B4FF0030A0B
:103A40002A682846126EADF80C3003A99047002270
:103A500011462846FEF7BDFF2946404605F0FEFC0C
:103A6000D5F8B82185F825B005F5DC76126EADF8ED
:103A70000CA003A930469047B9F96E2EB9F96C1E17
:103A80003046FEF7A6FF3146404605F0E7FC019BB5
:103A90002C359D4209F5A8794FF00203D0D104F6E8
:103AA000035504F608564FF0070B4FF0000A4FF08D
:103AB000FF093B6838461B6EADF80CB003A9984768
:103AC000002211463846FEF784FF87F825A03946C4
:103AD000404605F0C3FC05F8019FB54207F12C07ED
:103AE000E7D1204605B0BDE8F08F00BF943602084C
:103AF0009425002000B58BB0FEF762FF2022002144
:103B000002A81DF016FE084B01934FF480421823C3
:103B1000CDE90623002101AA044803F0B1FB044BC0
:103B200018600BB05DF804FB412E0208C93F000885
:103B300090250020704704387047704710B5102159
:103B400004461CF0B2FC204610BDA0F10400F5E7CD
:103B500000228260024A026018324260C1607047EF
:103B6000D43602087047000010B5034B03600446CA
:103B7000FFF7AEF8204610BDFC36020810B504462B
:103B8000FFF7F2FF20464FF4E4711CF08EFC204654
:103B900010BD000010B50446FFF758F9064B23602E
:103BA0004FF6C063C4F8C0310023A4F8C431FF232A
:103BB00084F8C631204610BDFC360208FFF789B8EC
:103BC000D0F8BC31274A01335A43B2F1333FC0F831
:103BD000BC311DD8244A5343B3F1113F9FBF90F825
:103BE000C431B3FA83F35B0980F8C43190F8C5316E
:103BF000B3B11F2B4FF0FF3318BF0023DBB280F8A7
:103C0000C53190F8C631FF2B0CD11F2380F8C63187
:103C100090F8C4315BB1012B16D004300BF0EEBB31
:103C20001F23ECE71F2B0CBF0023FF23EEE790F8C8
:103C3000C53180F8183180F8EC3090F8C63180F842
:103C4000C03080F89430E8E790F8C53180F8C03093
:103C500080F8943090F8C63180F8183180F8EC3054
:103C6000DBE700BFCDCCCCCCEFEEEEEE0022026065
:103C70007047704710B5044600F036F8204610BD76
:103C800010B5044600F04CF8204610BD10B50446AF
:103C900000F07EF80023236040F60303A380032393
:103CA000A3713C23A360204610BD70B504460E46A8
:103CB000154600F06DF840F60303A3800123A371BD
:103CC0003C2326806580A360204670BD4388073B67
:103CD00043808368002B02DC032100F05BB8013BCA
:103CE0008360002BF8D0704770B5044600F050F8A0
:103CF0000023E3715223237204F10C0504F5A67628
:103D000028461035FFF7C2FFB542F9D141F2100342
:103D1000A380502363724FF48F736381204670BD7C
:103D200070B5044600F5A67500F10C06B54204D046
:103D3000103D284600F02DF8F8E7204600F029F85D
:103D4000204670BD437A013B13F0FF030FD043724E
:103D5000837A013B13F0FF0303BF1E238372C37AF0
:103D6000837202BFB3FA83F35B09C37270475023B7
:103D70004372037A522B0CBF4C2352230372E7E7A2
:103D80000388013B03807047038801330380704739
:103D9000704770478171704710B5028803790C88AD
:103DA0001344A34210DD0B7923449A420CDA438872
:103DB00042794C881A44A24206DD4A792244934251
:103DC000ACBF0020012010BD0020FCE7F8B505467F
:103DD00000F032F905F5A6742E4605F66C6720460C
:103DE00004F5A874FFF780FFBC42F8D105F5DC5755
:103DF0000C37204604F5A874FFF73CFFBC42F8D10D
:103E000005F580530022C3F88C2B30202A460A2364
:103E10000221A2F84C3114339BB2D22BA2F84E01EE
:103E200082F8521102F5A872F3D11423462102221E
:103E3000A6F86C3E14339BB2DC2BA6F86E1E86F8F7
:103E4000722E06F5A876F3D12846F8BD70B500F5B8
:103E5000DC5504460C3500F66C66B54205D0A5F578
:103E6000A8752846FFF70CFFF7E704F5A675AE42E4
:103E700005D0A6F5A8763046FFF752FFF7E72046B3
:103E800000F0F4F8204670BD2DE9F04F00F58055A4
:103E900087B0D5F88C3B0133092B0446C5F88C3B21
:103EA0001EDDC3790BB100F00EF90023C5F88C3B81
:103EB000444D002695F854314C2B05F5A67030D1B1
:103EC000FFF75EFF95F8743E4C2B05F66C602BD126
:103ED000FFF756FF01360A2E05F5A875EAD101E075
:103EE0009B07E5D004F55269264604F5A07B02AF96
:103EF00096F85231033B012B19D806F5A8764E45AA
:103F0000F6D1264604F5A07B02AF96F8723E033B3D
:103F1000012B31D806F5A8764E45F6D107B0BDE89D
:103F2000F08FFFF731FFCDE7FFF72EFFD2E72546F1
:103F300006F5A67A0DF11008AA7B032A18D09AE894
:103F4000030087E80300D5E9020188E80300414641
:103F50003846FFF721FF01904046FFF71AFF384629
:103F6000FFF717FF019B1BB10322AA7386F85221AA
:103F700010355D45E0D1C0E7254606F66C6A0DF1C7
:103F80001008AA7B032A18D09AE8030087E80300E8
:103F9000D5E9020188E8030041463846FFF7FCFEF8
:103FA00001904046FFF7F5FE3846FFF7F2FE019B11
:103FB0001BB10322AA7386F8722E1035AB45E0D1EF
:103FC000A8E700BF94250020F8B5144F134C3846DD
:103FD000FFF75AFF384600F05BF82546002695F8B3
:103FE0005231022B03D105F5A670FFF7ABFE013667
:103FF0000A2E05F5A875F2D1002594F8723E022B21
:1040000003D104F66C60FFF79DFE01350A2D04F51F
:10401000A874F2D1102003F077F9D7E79425002097
:104020000148FFF7D3BE00BF942500200148FFF7E9
:104030000DBF00BF9425002070B50446FFF7A8FE11
:104040000023E37104F1080504F5A4762846103531
:10405000FFF71CFEB542F9D1034B236041F2100378
:10406000A380204670BD00BF3200180170B5044621
:1040700000F5A47500F10806B54204D0103D2846AD
:10408000FFF787FEF8E72046FFF783FE204670BD66
:1040900038B500F1080500F5A474AB79022B02D104
:1040A0002846FFF713FE1035A542F6D138BD038828
:1040B000022B84BF023B038070470388DD2B9CBF2B
:1040C0000233038070477FB50446002300F10E02DF
:1040D0001E01915D032917D1628821886D4608323F
:1040E000063192B289B22846FFF7DFFD95E80F004E
:1040F000344404F1080686E80F002846FFF749FE1D
:104100000123A37304B070BD0133142BE0D1F9E790
:10411000F02070474FF4A07070472920FDF746BE8D
:104120002820FDF743BE08B5FDF714FECA20FDF7B1
:104130003DFEC320FDF71EFE0820FDF71BFE5020AC
:10414000FDF718FECF20FDF731FE0020FDF712FE2F
:10415000C120FDF70FFE3020FDF70CFEED20FDF72E
:1041600025FE6420FDF706FE0320FDF703FE122066
:10417000FDF700FE8120FDF7FDFDE820FDF716FEAE
:104180008520FDF7F7FD0020FDF7F4FD7820FDF711
:10419000F1FDCB20FDF70AFE3920FDF7EBFD2C20C9
:1041A000FDF7E8FD0020FDF7E5FD3420FDF7E2FD19
:1041B0000220FDF7DFFDF720FDF7F8FD2020FDF7D9
:1041C000D9FDEA20FDF7F2FD0020FDF7D3FD002028
:1041D000FDF7D0FDB120FDF7E9FD0020FDF7CAFD98
:1041E0001B20FDF7C7FDB620FDF7E0FD0A20FDF717
:1041F000C1FDA220FDF7BEFDC020FDF7D7FD1020B8
:10420000FDF7B8FDC120FDF7D1FD1020FDF7B2FD8F
:10421000C520FDF7CBFD4520FDF7ACFD1520FDF7D2
:10422000A9FDC720FDF7C2FD9020FDF7A3FD3620B4
:10423000FDF7BCFDC820FDF79DFDF220FDF7B6FDA2
:104240000020FDF797FDB020FDF7B0FDC220FDF77F
:1042500091FDB620FDF7AAFD0A20FDF78BFDA720F2
:10426000FDF788FD2720FDF785FD0420FDF782FD81
:104270002A20FDF79BFD0020FDF77CFD0020FDF7C7
:1042800079FD0020FDF776FDEF20FDF773FD2B2073
:10429000FDF78CFD0020FDF76DFD0020FDF76AFDA8
:1042A0000120FDF767FD3F20FDF764FDF620FDF7D7
:1042B0007DFD0120FDF75EFD0020FDF75BFD062082
:1042C000FDF758FD2C20FDF771FDC820FDF7BCFD62
:1042D0002620FDF76BFD0120FDF74CFDE020FDF7EA
:1042E00065FD0F20FDF746FD2920FDF743FD242045
:1042F000FDF740FD0C20FDF73DFD0E20FDF73AFDDA
:104300000920FDF737FD4E20FDF734FD7820FDF73D
:1043100031FD3C20FDF72EFD0920FDF72BFD13207C
:10432000FDF728FD0520FDF725FD1720FDF722FDEF
:104330001120FDF71FFD0020FDF71CFDE120FDF71A
:1043400035FD0020FDF716FD1620FDF713FD1B209F
:10435000FDF710FD0420FDF70DFD1120FDF70AFD0E
:104360000720FDF707FD3120FDF704FD3320FDF7A1
:1043700001FD4220FDF7FEFC0520FDF7FBFC0C20B3
:10438000FDF7F8FC0A20FDF7F5FC2820FDF7F2FC0C
:104390002F20FDF7EFFC0F20FDF7ECFC1120FDF7BF
:1043A00005FDC820FDF750FD2920FDF7FFFCBDE805
:1043B00008402C20FDF7FABC08B5FDF7CBFC032123
:1043C000D320FDF70FFD80B208BD10B5C4B20222A4
:1043D00003212046FDF774FC0A20FDF7B9FC2046B6
:1043E00000220321FDF76CFCBDE810400220FDF720
:1043F000AFBC38B50446E4B2FDF760FC00212046AE
:10440000FDF776FC012105462046FDF771FC40EAE8
:10441000052080B238BD10B5C4B240212046FDF75A
:1044200067FC030607D54C212046FDF761FC0038E8
:1044300018BF012010BD01224B212046FDF740FC92
:10444000204600224B21FDF73BFC0020F2E773B52C
:104450000423C4B20E461546D7210DEB03022046B5
:10446000FDF760FC019B1BBA1A0DC3F30B233280CE
:1044700020462B8001224B21FDF722FC00224B21FC
:104480002046FDF71DFC02B070BD000010B50A4AC1
:104490001378984204460DD0517888420AD00BB167
:1044A00041B90123D454FDF709FC2046BDE8104072
:1044B000FFF78BBF10BD00BF2441002010B5C4B270
:1044C00009212046FDF714FC40F00102D2B220463B
:1044D0000921BDE81040FDF7F3BB10B5C4B20921B6
:1044E0002046FDF705FC092100F0FE022046BDE84C
:1044F0001040FDF7E5BB38B5C4B20D4620460A2191
:10450000FDF7F6FB40EA0502D2B220460A21BDE8DB
:104510003840FDF7D5BB10B50446FDF7D0FB20466B
:104520001F21FFF7E8FF2046BDE81040FFF7C6BF98
:1045300038B5C4B20D4620460A21FDF7D9FB20EA62
:104540000502D2B220460A21BDE83840FDF7B8BBCB
:1045500010B50446FFF7C1FF20461F21BDE81040FB
:10456000FFF7E6BF10B5C0B20C460B21FDF7C0FB4C
:10457000204010BD1F21FFF7F5BF0A46C0B20B2136
:10458000FDF79EBB1F21FFF7F8BF38B5C4B20D463B
:1045900020461721FDF7ACFB20EA0502D2B22046E7
:1045A0001721BDE83840FDF78BBB70B5C4B2064695
:1045B00004212046FDF79CFB042100F0FB02054688
:1045C0002046FDF77DFB3046F021FFF7DEFF05F0CA
:1045D000F80220460421FDF773FB492220212046E2
:1045E000FDF76EFB0220FDF7B3FB204601222121DF
:1045F000FDF766FB20469A224121FDF761FB20462C
:1046000001224A21FDF75CFB204601224B21FDF7E8
:1046100057FB204600224B21FDF752FB204601228A
:104620005621FDF74DFB204601225821FDF748FB9E
:10463000204601224021FDF743FB2046FF220B21AB
:10464000FDF73EFBBDE870400220FDF781BB000096
:10465000054BD3F8882042F47002C3F888204FF04D
:1046600000629A60704700BF00ED00E008B50B4B98
:104670001A6842F400721A601A6842F480621A6082
:104680001A6842F480721A60032000F045FA002094
:10469000FDF784FEFDF7E6FB002008BD003C02406C
:1046A000034A044B11681B780B441360704700BF2A
:1046B0002841002078000020014B1868704700BF97
:1046C0002841002038B50446FFF7F6FF631C1CBFE5
:1046D000054B1B78054618BFE418FFF7EDFF431B99
:1046E000A342FAD338BD00BF7800002038B5044695
:1046F000002800F09B80056C25B9FDF7D3FB6564AD
:1047000084F83C50236CDB0600F18E80236C23F48C
:10471000885323F0020343F002032364444B5A6896
:1047200022F440325A605A6861680A435A6023682A
:1047300021695A6822F480725A605A6842EA01225A
:104740005A605A68A16822F040725A605A680A4357
:104750005A609A68E16822F400629A609A680A4393
:104760009A603449A26A8A4252D0996821F07061F5
:10477000996099680A439A609A68E16A22F0405207
:104780009A609A680A439A609A6822F002029A60D4
:104790009A68217E42EA41029A6094F82020002A19
:1047A0003ED05A68616A42F400625A605A6822F444
:1047B00060425A605A68013942EA41325A60DA6A04
:1047C000E16922F47002DA62DA6A013942EA0152DE
:1047D000DA629A6822F400729A609A6894F830104B
:1047E00042EA41229A609A68616922F480629A6082
:1047F0009A68002042EA81229A606064236C23F068
:10480000030343F001032364002384F83C3038BDE4
:104810009A6822F070629A609A6822F04052B2E779
:104820005A6822F40062C9E70120EDE70120EEE7B3
:10483000002301400100000F82B00023019390F893
:104840003C30012B69D0012380F83C3003689A6822
:10485000D2070BD59A68D1071AD4036C43F0100322
:104860000364436C43F0010343644CE09A682C49B1
:1048700042F001029A602B4A1268B2FBF1F202EB9D
:1048800042020192019A002AE4D0019A013AF8E723
:10489000026C22F4E06222F0010242F480720264AF
:1048A0005A68520541BF026C22F4405242F48052D1
:1048B0000264026C12F480521CBF426C22F00602A9
:1048C0004264002280F83C206FF022021A60164AEF
:1048D000516811F01F0F15491CD18B4207D001F50B
:1048E00080718B420CD1526812F01F0F0BD19A6865
:1048F00012F0405F07D19A6842F080429A6002E06D
:104900000B498B4202D0002002B07047526812F06F
:10491000100FEBE78B42F6D1E9E70220F4E700BF86
:1049200040420F007400002000230140002001409D
:104930000022014003689A68520570B504460D468E
:104940000BD59B68DE0508D5036C43F02003036498
:10495000002380F83C30012070BDFFF7ADFE064615
:1049600023681A6891070CD56FF012021A60226C46
:1049700042F4007222649A6812F0405F17D000205F
:10498000EAE7681CEDD065B923681B6813F00203E1
:10499000E6D1226C84F83C3042F004022264032009
:1049A000DAE7FFF789FE801BA842EDD8D8E7227E20
:1049B000002AE4D1DA6A12F4700F02D09B685A051B
:1049C000DDD4236C23F480732364236CDB04D6D4FE
:1049D000236C43F001032364D1E70368D86C70476C
:1049E000F7B50023019390F83C30012B054600F009
:1049F0008680012380F83C3008682B688E6809287F
:104A000084B233D904EB4402DF681E3A4FF0070C3E
:104A10000CFA02FC27EA0C07DF60DF6806FA02F2F4
:104A20003A43DA604968062901EB81022DD8596BB7
:104A3000053A1F26964021EA06015963596B04FA8C
:104A400002F20A435A632F4A93420AD1122837D1FD
:104A50002D4B5A6822F400025A605A6842F48002D0
:104A60005A60002085F83C0003B0F0BD1A6900EBE5
:104A7000400C072707FA0CF722EA07021A611A69A5
:104A800006FA0CF616431E61CCE70C294FF01F0105
:104A90000BD81E6B233A914026EA01011963196B6A
:104AA00004FA02F20A431A63CDE7DE6A413A914002
:104AB00026EA0101D962D96A94400C43DC62C2E75C
:104AC000124B984201D01128CBD10F4B5A6822F4D7
:104AD00080025A605A6842F400025A600B4B9842B6
:104AE000BFD10B4B0B4A1B68B3FBF2F30A225343B3
:104AF0000193019B002BB4D0019B013BF8E70220FE
:104B0000B2E700BF00200140002301401200001066
:104B10007400002040420F000749CA6822F4E06296
:104B20000302120403F4E063120C134343F0BF6367
:104B300043F40033CB60704700ED00E0164B30B516
:104B4000DC68C4F30224C4F10703251D042B28BF2D
:104B50000423062D4FF0FF358CBF033C002405FADB
:104B600003F321EA0303A54022EA0502A34000283B
:104B700043EA0203ACBF00F16040084A4FEA031366
:104B8000B8BF00F00F00DBB2AABF00F561401354BC
:104B900080F8003330BD00BF00ED00E014ED00E010
:104BA000002807DB044A4109012300F01F0083406D
:104BB00042F82130704700BF00E100E010B5044624
:104BC00050B1437903F0FF0213B90271FDF79CF96C
:104BD00001236371002010BD0120FCE710B50446DD
:104BE00020B390F8393003F0FF021BB980F8382069
:104BF000FDF7A2F9022384F83930236861681A6846
:104C000022F440320A431A605A6BA16822F007026C
:104C10000A435A631A6CE1686FF30D020A431A647F
:104C200000200123E06384F8393010BD0120FCE747
:104C300070477047036870B55E681D68F2070446E8
:104C400014D5E90512D51A6822F480721A60C26B75
:104C500042F00102C26301229A60042380F83930D5
:104C6000002380F83830436903B19847B20616D55F
:104C7000AB0414D523681A6822F400521A6020226B
:104C80009A60E36B43F00203E363042384F8393052
:104C9000002384F8383063690BB120469847300709
:104CA00016D5290514D523681A6822F400621A6003
:104CB00008229A60E36B43F00403E363042384F85F
:104CC0003930002384F8383063690BB120469847A7
:104CD00072070BD56B0509D523681A6822F4806228
:104CE0001A6004229A602046FFF7A2FFB00714D58D
:104CF000A90512D523681A6822F400721A600222EC
:104D00009A60E36BE363012384F83930002384F86D
:104D1000383023690BB120469847F20613D5EB04CF
:104D200011D523681A6822F480521A6010229A6002
:104D3000E36BE363012384F83930002384F83830CF
:104D40002046FFF776FF70BDF0B590F83820012AB5
:104D500003464FF002002BD0012283F8382083F85D
:104D6000390003EB0112D2E90740556A174F44EAB4
:104D70000040093C012C9CBF05F07F4210434FEAE4
:104D800001161A6888BF40EA056091B9516A394036
:104D900001435162012C9969916103D8596A21F04C
:104DA0007F4191620122002083F8392083F8380086
:104DB000F0BDD16939400143D1619919012C89694C
:104DC00011619CBF25F07F451562EBE7F0FFFC0009
:104DD0002DE9F74FDFF8BC916C4A00230D680124E0
:104DE0009C4004EA0506AC4340F0B7804D680327B9
:104DF00005F003044FEA430807FA08FC671E012F79
:104E00006FEA0C0C34D8876807EA0C0ECF6807FAF3
:104E100008F747EA0E078760476827EA060EC5F3DA
:104E200000179F4047EA0E074760C76807EA0C0E65
:104E30008F6807FA08F747EA0E07022CC76019D1F6
:104E40004FEAD30A00EB8A0A03F0070BDAF8207066
:104E50004FEA8B0B4FF00F0E0EFA0BFE27EA0E0EE9
:104E60000F6907FA0BF747EA0E07CAF8207001E04E
:104E7000032CDAD1076804FA08F407EA0C073C436C
:104E800015F4403F046068D000240194D9F84440F0
:104E900044F48044C9F84440D9F8444023F003075F
:104EA00007F1804704F4804407F59C37019403F030
:104EB000030C019CD7F808E04FEA8C0C0F2404FA8D
:104EC0000CF42EEA040E324CA0424DD004F580645E
:104ED000A0424BD004F58064A04249D004F5806420
:104EE000A04247D004F58064A04245D004F5806418
:104EF000A04243D004F58064A04241D004F5806410
:104F0000A0423FD004F58064A0423DD004F5806407
:104F1000A04214BF0A24092404FA0CF444EA0E0443
:104F2000BC609468F74315F4801F0CBF3C403443C9
:104F30009460D46815F4001F0CBF3C403443D46027
:104F4000546815F4003F0CBF3C403443546014686F
:104F5000ED0354BF3C40344314600133102B7FF405
:104F60003DAF03B0BDE8F08F0024D5E70124D3E7BF
:104F70000224D1E70324CFE70424CDE70524CBE7BF
:104F80000624C9E70724C7E70824C5E7003C014019
:104F900000000240003802400369194214BF01209A
:104FA000002070470AB1816170470904FBE743693B
:104FB00001EA030221EA030141EA024181617047EB
:104FC00001684B6913F480634FF0000210D06FF456
:104FD00080634B612023026380F83D3080F83E20DF
:104FE000036C80F83C2043F0040303640120704705
:104FF000184670472DE9F84606460F4691461D466D
:105000004FEA114A3368BAF1010F0CBF5C699C6921
:1050100027EA0404A4B2B4FA84F46409A14501D0D7
:10502000002025E06A1CEED0FFF746FB089BC01A63
:10503000A84201D8002DE5D13368BAF1010F0CBFA9
:105040005B699B6927EA03039BB2B3FA83F35B09AD
:105050009945D7D100232022336386F83D2086F876
:105060003E30326C86F83C3042F02002326401203F
:10507000BDE8F8862DE9F04104460F4616469846ED
:105080002568686927EA000080B2C0B16B695A05DB
:1050900017D52B6843F400732B606FF480636B614A
:1050A00020220023236384F83D2084F83E30236CC3
:1050B00043F004032364002384F83C300120BDE85E
:1050C000F081731CDDD0FFF7F7FAA0EB0800B042C7
:1050D00001D8002ED4D123685A6927EA020292B27D
:1050E000002ACDD000232022236384F83D2084F8B9
:1050F0003E30236C1343DDE770B504460D4616467B
:1051000023685B691B0601D500201EE02046FFF7DF
:1051100057FFC8B96A1CF3D0FFF7CEFA801BA8422C
:1051200001D8002DECD123685B6913F08003E7D12F
:105130002022236384F83D2084F83E30226C84F8DA
:105140003C3042F020022264012070BD2DE9F04382
:105150001546026885B0DDE90C789946136843F47A
:10516000807313600E463B46CDF8008000224FF05E
:1051700001110446FFF73EFF236838B11B68DB05C9
:1051800002D54FF400732364032620E006F0FE06E8
:105190001E611A4943463A462046FFF76BFFA8B9FD
:1051A000236803905A6903929B69039342463946E8
:1051B0002046039BFFF7A0FF064660B1236C042B3B
:1051C00001BF2268136843F4007313600126304660
:1051D00005B0BDE8F083B9F1010F236802D1EDB24B
:1051E0001D61F4E72A0A1A61394642462046FFF754
:1051F00083FF0028E2D12368F1E700BF020001002D
:105200002DE9FF479A46036815461A6842F4806202
:105210001A601A68DDE90C7842F480721A600E4652
:105220003B46CDF8008000224FF001110446FFF705
:10523000E1FE236838B11B68DB0544BF4FF40073FF
:105240002364032021E05FFA86F906F0FE061E6162
:105250002B4943463A462046FFF70CFFA0B9236886
:1052600003905A6903929B6903934246394620464C
:10527000039BFFF741FF58B1236C042B01BF226849
:10528000136843F400731360012004B0BDE8F08795
:10529000BAF1010F23681AD1EDB242461D613946B9
:1052A0002046FFF729FF02460028E5D121680B6858
:1052B00043F480730B602046CDF800803B464FF0EE
:1052C0000111FFF797FE226860B11368B4E72A0A5C
:1052D0001A61394642462046FFF70EFF0028CBD11F
:1052E0002368D9E749F001031361054943463A466B
:1052F0002046FFF7BFFE003818BF0120C5E700BFFA
:105300000200010070B504460D46164623685B692D
:105310005B0701D500201EE02046FFF751FEC8B90B
:105320006A1CF3D0FFF7C8F9801BA84201D8002DF2
:10533000ECD123685B6913F00403E7D120222363D7
:1053400084F83D2084F83E30226C84F83C3042F0F2
:1053500020022264012070BD70B504460D46164639
:1053600021684B6913F0400301D0002011E04A6925
:10537000D2060FD56FF010024A612022236384F811
:105380003D2084F83E30236C2364002384F83C30B5
:10539000012070BDFFF790F9801BA84201D8002DB5
:1053A000DED123685B6913F04003D9D12022236347
:1053B00084F83D2084F83E30236C1343E4E700007A
:1053C00070B5044608B9012070BD90F83D3003F077
:1053D000FF021BB980F83C20FCF7D0FD242384F8A1
:1053E0003D3023681A6822F001021A601A6842F4FC
:1053F00000421A601A6822F400421A6000F0A8FE07
:105400003F4B65689D4294BF3E4B3F4B98428CBFDB
:1054100000230123002BD6D12268394E51683B4B23
:10542000B0FBF3F321F03F011943B542516088BF4F
:105430004FF49676116A88BF734321F03F0184BF11
:105440004FF47A76B3FBF6F301330B431362D16961
:10545000431E2B4821F44F41854221F0FF0132D8F1
:105460006D0040F6FC70B3FBF5F30133034242D00C
:10547000C3F30B031943D161D4E907301168034327
:1054800021F0C0010B4313609168D4E9030321F4B8
:105490000341034321F0FF010B439360D4E905303E
:1054A000D168034321F0FF010B43D360136843F03D
:1054B0000103136000202023206484F83D30206322
:1054C00084F83E0080E7A06850B905EB4505B3FBC2
:1054D000F5F30133C3F30B037BB143F40043C9E796
:1054E00019206843B3FBF0F30133C3F30B0323B17B
:1054F00043F44043BEE70423BCE70123BAE700BFFF
:10550000A08601007F841E00FF083D0040420F007E
:105510002DE9F743044699460C9E0F469046FFF747
:10552000CBF894F83D30202B054603D0022003B081
:10553000BDE8F08300903C49192301222046FFF783
:1055400059FD0028F2D194F83C30012BEED02068B0
:10555000012384F83C300368D9075EBF036843F039
:1055600001030360036823F400630360212384F8CC
:105570003D30402384F83E30002323640A9B63625D
:10558000BDF82C306385638D2385284BE36242464A
:10559000CDE900654B4639462046FFF7D7FD002888
:1055A0002AD00120C3E7FFF7A7FD40B1236C042BED
:1055B00001BF2268136843F400731360F1E7636A64
:1055C00027681A4612F8011B39616262628D218DCB
:1055D000013A92B262857A69481E80B252072085EC
:1055E0000AD548B15A783A6102336362638D013B50
:1055F00002399BB221856385238D2A463146204698
:10560000002BD0D1FFF77EFE0028CFD1226813688F
:1056100043F400731360202384F83D3084F83C0089
:1056200084F83E0083E700BF020010000000FFFF87
:105630002DE9F043044687B09946109F0D469046E9
:10564000FFF73AF894F83D30202B064604D00225A7
:10565000284607B0BDE8F08300907A49192301225B
:105660002046FFF7C7FC0028F1D194F83C30012B0D
:10567000EDD02068012384F83C300368DB075EBF6F
:10568000036843F001030360036823F400630360CD
:10569000222384F83D30402384F83E3000232364E5
:1056A0000E9B6362BDF83C306385638D2385664B3A
:1056B000E3622946CDE900764B4642462046FFF795
:1056C0009FFD054608B10125C2E7228D2368B2B9C6
:1056D00002905A6902929A690292029A1A6842F4F6
:1056E00000721A60DFF86481238D002B2CD12022F8
:1056F00084F83D2084F83C3084F83E30A8E7012A45
:105700000AD11A6822F480621A6003905A690392DF
:105710009A690392039AE1E7022A0ED11A6822F4E9
:1057200080621A601A6842F400621A6004905A6932
:1057300004929B690493049BD4E705905A690592EF
:105740009B690593059BCDE7032B56D8012B15D1FB
:10575000324639462046FFF7FFFD0028B3D12368C3
:105760001A69636A1A70636A01336362238D013BAD
:105770002385638D013B9BB26385B5E7022B0096C1
:105780003B464FF000024146204619D1FFF732FC5C
:10579000002898D123681A6842F400721A601A69C6
:1057A000636A1A70626A531C6362238D013B23850E
:1057B000638D013B9BB2638523681B695370D2E7FD
:1057C000FFF718FC024600287FF47DAF23681968B4
:1057D00021F4806119601969636A1970636A013381
:1057E0006362238D013B2385638D013B9BB26385FF
:1057F000414600963B462046C8E732463946204699
:10580000FFF7AAFD00287FF45EAF23681A69636A78
:105810001A70628D616A013A92B24B1C62852268ED
:105820006362238D5069013B9BB2400723857FF55E
:105830005BAF032B02BF136823F48063136013690B
:105840004B7090E7020010000000FFFF0400010011
:1058500010B590F83D30202BDCB216D1242380F80F
:105860003D3003681A6822F001021A605A6A22F079
:1058700010025A625A6A114359621A6842F00102D0
:105880001A6080F83D40002010BD0220FCE730B5D2
:1058900090F83D30202BDCB216D10268242380F82A
:1058A0003D30136823F001031360556A4FF6F0731F
:1058B0002B400B439BB25362136843F00103136008
:1058C00080F83D40002030BD0220FCE70068D1F8A0
:1058D00000C0D201843283182DE9F043C6685D68A8
:1058E0004C68D1F8189005F470455D60C5680CF1FE
:1058F0000107C5F30B45C6F30B4626443D4445EA74
:1059000006455D60C668CD68C6F30A062E449D68EC
:1059100005F470459D60C7688D68C7F30A070135B7
:105920003D4445EA06459D601D690E6925F0070561
:105930001D614FF0000E1E6191F832709D6991F863
:105940003180C3F818E091F8305045EA096545EA1E
:10595000082545EA07459D615D6925F0FF055D6104
:105960004D695D61DD6925F4E06525F00705DD61C0
:10597000D1E907573D43DD619D6A4D6AC3F828E0D0
:10598000072E9D629CBF0E4DAE5DDD6A05F0E025E1
:10599000DD6288BF01268D6AC96AA4EB0C047443DA
:1059A0007543033444EA0544DC621C6B6FF30A045C
:1059B0001C631963835843F001038350BDE8F083EF
:1059C0004037020838B50446002863D090F8A1306B
:1059D00003F0FF021BB980F8A020FCF72BFB022389
:1059E00084F8A13023689A6922F070429A61D4E960
:1059F00001200243E06899690243206902430A4397
:105A00009A619A68244960690A409A609A6842EAF1
:105A10000042A06902439A60DA68E0690A40DA60ED
:105A2000DA6842EA0042206A0243DA601A69606A70
:105A30000A401A611A6942EA0042A06A02431A61E6
:105A40005A690A405A615A69E16A42EA0142216B85
:105A50000A435A61DA6A94F8350094F8361002F075
:105A60007F42DA62DD6A94F834202A4342EA002257
:105A700042EA0142DA625A6B42F006025A639A69BC
:105A800042F001029A6100200123C4F8A40084F8C6
:105A9000A13038BD0120FCE700F800F070477047E6
:105AA000036870B59E6B5D6B7207044614D5690779
:105AB00012D55A6B22F004025A630422DA63D0F83A
:105AC000A43043F00103C0F8A430002380F8A120E3
:105AD00080F8A030FFF7E2FFB20716D5AB0714D568
