:020000040800F2
:10000000000003205D060008292600082B260008B2
:100010002D2600082F2600083126000800000000C9
:10002000000000000000000000000000018F000838
:100030003326000800000000918F00080B8800089C
:10004000AD060008AD060008AD060008AD060008C4
:10005000AD060008AD060008AD060008AD060008B4
:10006000AD060008AD060008AD060008AD060008A4
:10007000AD060008AD060008AD060008AD06000894
:10008000AD060008AD06000835260008AD060008DC
:10009000AD060008AD060008AD060008AD06000874
:1000A000AD060008AD060008AD060008AD06000864
:1000B000AD060008AD060008AD060008AD06000854
:1000C000AD060008AD060008AD060008AD06000844
:1000D000AD060008AD060008AD060008AD06000834
:1000E000AD060008AD060008AD060008AD06000824
:1000F000AD060008AD060008AD060008AD06000814
:10010000AD060008AD060008AD060008AD06000803
:10011000AD060008AD06000841260008AD0600083F
:10012000AD060008AD060008AD060008AD060008E3
:10013000AD060008AD060008AD060008AD060008D3
:10014000AD060008AD060008AD060008AD060008C3
:10015000AD060008AD060008AD060008AD060008B3
:10016000AD060008AD060008AD060008AD060008A3
:10017000AD060008AD060008AD060008000000004E
:10018000AD060008AD060008AD060008AD06000883
:10019000AD060008AD060008AD060008AD06000873
:0C01A0004D260008AD0600085926000896
:1001B00010B5054C237833B9044B13B10448AFF3A1
:1001C00000800123237010BD800300200000000088
:1001D0006039020808B5034B1BB103490348AFF36C
:1001E000008008BD00000000840300206039020880
:1001F00001F0FF01102A2BDB10F0070F08D010F8D8
:10020000013B013A8B422DD010F0070F42B3F6D1DB
:10021000F0B441EA012141EA014122F007047FF0F4
:1002200000070023F0E80256083C85EA010586EA4B
:10023000010685FA47F5A3FA87F586FA47F6A5FA87
:1002400087F68EB9EED1F0BC01F0FF0102F0070293
:1002500032B110F8013B013A83EA010313B1F8D13E
:100260000020704701387047002D06BF354603381F
:10027000073815F0010F07D1013015F4807F02BF58
:10028000013015F4C03F0130F0BC0138704700BFA9
:100290007BB972B90029BEBF00204FF0004106E0D3
:1002A00008BF00281CBF6FF000414FF0FF3000F086
:1002B000D3B9ADF1080C6DE904CE002909DB002BA0
:1002C0001ADB00F04DF8DDF804E0DDE9022304B0AC
:1002D0007047404261EB4101002B1BDB00F040F80E
:1002E000DDF804E0DDE9022304B0404261EB4101A6
:1002F000524263EB43037047524263EB430300F007
:100300002FF8DDF804E0DDE9022304B0404261EBA0
:1003100041017047524263EB430300F021F8DDF8DE
:1003200004E0DDE9022304B0524263EB430370476B
:1003300053B94AB9002908BF00281CBF4FF0FF314C
:100340004FF0FF3000F088B9ADF1080C6DE904CE34
:1003500000F006F8DDF804E0DDE9022304B07047A0
:100360002DE9F047089D8E4604468846002B4AD169
:100370008A42174662D9B2FA82F64EB1C6F120031C
:1003800001FA06F820FA03F3B74043EA0808B4403C
:100390004FEA174E1FFA87FCB8FBFEF1230C0EFB49
:1003A000118843EA084301FB0CF29A4209D9FB1871
:1003B00001F1FF3080F0EA809A4240F2E780023992
:1003C0003B449A1AA3B2B2FBFEF00EFB102243EAA2
:1003D000024300FB0CFC9C4509D9FB1800F1FF32DD
:1003E00080F0D6809C4540F2D3803B44023840EAFE
:1003F0000140A3EB0C0300211DB1F3400022C5E92D
:100400000032BDE8F0878B4205D90DB1C5E9000186
:1004100000210846F5E7B3FA83F1002946D1734578
:1004200002D3824200F20581841A6EEB030201209E
:100430009046002DE5D0C5E90048E2E7002A00F02B
:100440009080B2FA82F6002E40F0A4808A1A030C43
:100450004FEA174E80B2BCB20121B2FBFEFC0EFB8C
:100460001C2243EA024304FB0CF29A4207D9FB1810
:100470000CF1FF3802D29A4200F2E080C4469B1A87
:10048000B3FBFEF20EFB123340EA034302FB04F41B
:100490009C4207D9FB1802F1FF3002D29C4200F2C5
:1004A000CA8002461B1B42EA0C40A5E7C1F12006A8
:1004B0008B4022FA06F71F430EFA01F420FA06F3E6
:1004C0002EFA06FE4FEA1749234300FA01F81FFAF5
:1004D00087FCBEFBF9F01C0C09FB10EE44EA0E444D
:1004E00000FB0CFEA64502FA01F209D93C1900F105
:1004F000FF3A80F09C80A64540F2998002383C4447
:10050000A4EB0E041FFA83FEB4FBF9F309FB1344BA
:100510004EEA044403FB0CFCA44508D93C1903F142
:10052000FF3E80F08280A4457FD9023B3C4443EAF1
:100530000040A4EB0C04A0FB02EC64457346E146CA
:1005400062D35FD05DB1B8EB030264EB090404FA37
:1005500006F622FA01F31E43CC40C5E900640021EF
:100560004FE7B1FBF2FC010C41EA0E4180B240EAD8
:1005700001423B4638463C46B846BE462026B1FBC3
:10058000F7F1A2EB080241EA0C4166E7014618E7E1
:1005900010462CE7C6F120022EFA02F3B740B14014
:1005A00020FA02F24FEA174E0A43B3FBFEF8BCB240
:1005B0000EFB1833110C41EA034108FB04F9B0406B
:1005C00089454FEA104380B23ED9791808F1FF3CC3
:1005D00001D289451FD8A1EB0901B1FBFEF909FB46
:1005E00004F80EFB191192B242EA0142424529D2A7
:1005F000BA1809F1FF31C4D24245C2D2A9F10201B1
:100600003A44BEE7F0459DD2BEEB02036CEB070C0B
:100610000138E14696E7A7EB09094944A8F1020C25
:10062000B1FBFEF909FB04F8DBE773467FE75046B0
:1006300066E70846FDE63B44023A33E7ACF1020CBC
:100640003B441CE749469CE7A1EB0901C446B1FBCA
:10065000FEF909FB04F8C4E7704700BFDFF834D0A7
:10066000002103E00C4B5B58435004310B480C4B0A
:1006700042189A42F6D30B4A02E0002342F8043BA8
:10068000094B9A42F9D304F0DDFF22F0FBFB01F0A5
:10069000B9F870470000032018AA0C0800000020D9
:1006A000640100208003002068530120FEE77047AA
:1006B00008B500F0BDFDBDE8084000F03FBD00F00A
:1006C000B9BD704710B50421044621F0EEF920466B
:1006D00010BD000038B50C4B0C4C18800C4B822020
:1006E00019806368984740F6110398420AD1094D72
:1006F00023682C60822098472B688220DB6898470B
:10070000002038BD0120FCE7A60300204C0000209B
:10071000A4030020A80300204FF4A071F020FFF7ED
:10072000D9BF0000F7B5394D2B6804461B698220FC
:100730009847208000284ED02B680DF106025B6997
:1007400001A982209847324B1B78002B4BD0BDF873
:10075000062040F674639A423FD9ADF80630BDF8E2
:1007600006209B1A9BB20A2B42D90B22B3FBF2F351
:10077000284A1288934201D9013A93B2BDF8042065
:10078000254840F6B8318A4234D8C2F571620E323B
:10079000016892B20F25B2FBF5F2204D2D88AA42D6
:1007A00084BF05F1FF35AAB28A4215468EB22AD916
:1007B000921B91B21A4E3768BB42BAB28CBF9A1ADA
:1007C000D21A92B211440529C4BF05603360036890
:1007D00063803368A38003B0F0BDB32A9CBFB4220A
:1007E000ADF80620BBE7BDF80630A3F5B473B9E752
:1007F0000023C3E7C2F56D62083292B20E2A016887
:10080000C8D800252A46891A89B2D3E7A803002050
:10081000482D0020A4030020A0030020A6030020F0
:100820009C03002037B568460D461446FFF77AFF53
:10083000BDF8000030B1BDF802302B60BDF80430C7
:100840002360012003B030BD032821D8DFE800F089
:10085000020B12190F4B1A68B2FA82F252090421E4
:100860000D4805F0DFBB0B4B5A68B2FA82F2520911
:100870000821F5E7074B9A68B2FA82F25209102173
:10088000EEE7044BDA68B2FA82F252092021E7E778
:10089000704700BFAC03002000100240032821D89D
:1008A000DFE800F0020B12190F4B1A68003A18BF6C
:1008B000012204210D4805F0B5BB0B4B5A68003AE4
:1008C00018BF01220821F5E7074B9A68003A18BFC4
:1008D00001221021EEE7044BDA68003A18BF01222A
:1008E0002021E7E7704700BFAC0300200010024062
:1008F00003280DD8DFE800F00206080A04210548A5
:1009000005F095BB0821FAE71021F8E72021F6E76A
:10091000704700BF0010024008B5032811D8DFE877
:1009200000F0020A0C0E0421074805F075FB431E77
:100930005842584108BD0821F6E71021F4E720216C
:10094000F2E70020F3E700BF0010024070B5084D49
:1009500000240126E0B2FFF7DFFF18B12B68012B5E
:1009600018BF2E600134052C05F10405F2D170BDCD
:10097000AC030020012380F8781080F879307047AC
:100980007047002070470000034B4164003918BFD6
:1009900001211970704700BF2746012070470020D1
:1009A0007047836B0BB10846184770474FF6FF70CE
:1009B0007047406803689B691847704770477047E5
:1009C0007047704710B5044600F04AFD236803499C
:1009D000D3F890302046BDE810401847000000D002
:1009E00008B503680446D3F8843098472368204646
:1009F000DB6F984700F0ECF8236820465B6F984760
:100A0000292001F03FFA00F0E3F8236820465B6FED
:100A10009847F8E710B504460BF088F8236820469D
:100A2000D3F8BC30BDE81040184700F0FDBC00F022
:100A300001BD00F033BD00F0D3BC00F043BD00F0B9
:100A40004BBD00F0D7BC0AF09FBA10B58421044614
:100A500021F02BF8204610BD10B590F8341090F816
:100A600078400C4B8C421A7809D03AB90A4A0B49A3
:100A70001488088810800C8001221A7010BD002A8A
:100A8000FCD0054A05491488088810800C80002293
:100A9000F3E700BF204601201C4601201E4601202E
:100AA00070B50D46194635B9094B0A4A0A4840F255
:100AB000FF2121F037FFC0E90F52084B003A18BF61
:100AC00001221A700368BDE87040D3F890301847CF
:100AD000D0390208083A0208563A02082646012090
:100AE00008B5094B1B888B4203D8084B1B889342DF
:100AF00005D9074B074A0848A32121F013FF074BEC
:100B00001980074B1A8008BD1C4601201E46012093
:100B10009B3A0208FE3A0208563A02082246012091
:100B200024460120034690F87A0018B158680368FB
:100B30001B68184770470000012108B500220846CD
:100B400007F0ECFE0A4B186028B90A4B0A4A282124
:100B50000A4821F0E7FE00220421012007F086FF69
:100B6000074B186018B9074B034A2C21F0E708BD62
:100B7000C0030020413B02088A3B0208B93B02083F
:100B8000BC0300200A3C0208024B4FF0FF311868FA
:100B900007F00EBFC0030020014B186807F034BFF8
:100BA000C0030020024B0021186807F001BF00BFFE
:100BB000C0030020FFF7F0BF03480449006800238A
:100BC0001A4607F08EBF00BFBC03002004000020BF
:100BD00013B5084C00231A4601A9206807F0B2FF9C
:100BE00020684FF0FF33002201A907F0ABFF02B0ED
:100BF00010BD00BFBC03002003685B6C18470120D8
:100C0000704703689B6A1847FEE740F2EF30704771
:100C1000054B0360054B4FF08062C3F88820BFF39B
:100C20004F8FBFF36F8F7047EC45020800E100E083
:100C300010B504464FF45A61FFF7EAFF204620F052
:100C400034FF204610BD000082B0002301930E4BFC
:100C50001A6B42F400021A631A6B02F4000201924A
:100C6000019A1A6942F400021A611A6922F4000218
:100C70001A61064B064A1A61064A5A61064B4FF042
:100C800080629A6002B0704700380240C42F002092
:100C9000E90E0008090C000800E100E008B50A2888
:100CA00009D8DFE800F006100E0808080810101038
:100CB0001000022008BD054B054A0648902121F08E
:100CC00031FE0020F6E70120F4E700BF4C3C0208AB
:100CD000673C0208B23C020838B50C46887FFFF733
:100CE000DDFFA58AE28A164B2169586342EA054274
:100CF0005A64628BD963521B1A642568082D0ED181
:100D00009A611A615862207F0E4A42EA0062DA61F3
:100D1000E2681A620C4A5961D9601A6038BD002233
:100D2000D8611A61E1680A0A480902F4784200F4BD
:100D3000FC600243C1F3C4010A439A63034AECE72F
:100D400000B002400900010001230200012303005A
:100D500008B50B280BD8DFE800F00612100A0A0AC3
:100D60000A0808080808022008BD0520FCE7054B12
:100D7000054A06486F2121F0D5FD0020F4E7012047
:100D8000F2E700BF4C3C0208013D0208B23C0208F9
:100D90002DE9F04191F81D800C464046FFF7D8FF41
:100DA000A77F05463846FFF7D3FF06463846FFF7CC
:100DB00075FFA18A628B444B521A1A649A61228B86
:100DC000521A1A61E28A586342EA01425A6421695E
:100DD0006268D963DA602068802828D0227F0FD823
:100DE000202867D0402865D004281AD0364B45EA21
:100DF000026545F40035B845DD6161D0334A44E011
:100E0000B0F5807F04D0B0F5007FEFD1304800E02E
:100E1000304840EA0262DA61E2681A625E62596151
:100E200032E045EA026242F40032DA61F6E7A06895
:100E3000021DDA62227F45EA026545F40035DD6174
:100E40005E625961017841B1012921D0224B234AC8
:100E500023484FF48D7121F065FDDA69418822F451
:100E60007F42013922F0100242EA0122DA610121B7
:100E7000154BDA6942F02002DA61DA699206FCD495
:100E800010229A600029B9D0164A1A60BDE8F08194
:100E9000B2F1FF01DA69408822F47F4200F1FF30AD
:100EA00022F0100242EA002242F0100218BF012193
:100EB000DA61DDE745EA0262034B42F40032B4E74F
:100EC00042F20132E1E700BF00B00240012301001D
:100ED000090002000A0002004B3D0208653D0208BD
:100EE000B23C020801230200024B1B6858680368E9
:100EF0005B6918472846012070B5044625460A4B11
:100F00000C30002660602672667245F8203B602235
:100F100029460AF061FF04F55A63EE6024359D42CC
:100F2000FBD1204670BD00BFEC450208034B1A6898
:100F3000D207FCD423229A60704700BF00B0024061
:100F40007047000030B50F4C2568ED07FCD4232511
:100F50000904A56041F001010225FF2B656361646E
:100F6000E0630AD00849656241EA0363E361074B25
:100F700022626061E060236030BDE561039BA36392
:100F8000034BF8E700B00240090001000100020035
:100F90000100030030B50E4C2568ED07FCD4232575
:100FA0001204A56042F001020225FF2B6563626412
:100FB000E063E16008D01B0643F00213E361054BD8
:100FC00065626061236030BD034BE3610123F9E793
:100FD00000B0024001000200020002FF30B50B4CDD
:100FE0002568ED07FCD4232512041B06A56043F4F5
:100FF0000033022542F0010265636264E063E16050
:10100000E361034B65626061236030BD00B0024064
:1010100001000200012070470C2070470C2303FBE5
:101020000100083070470C2303FB010008307047B3
:101030000120704741F62C00704741F62C0303FB5A
:1010400001000830704741F62C0303FB0100083013
:101050007047012070471020704700EB01100830E6
:10106000704700EB011008307047084601F07EBD64
:1010700010B5034B0360044609F0DDFC204610BDAB
:10108000A446020810B50446FFF7F2FF20461421DB
:1010900020F00BFD204610BD10B5034B0360044645
:1010A00009F0C9FC204610BD7046020810B5044680
:1010B000FFF7F2FF204641F6340120F0F6FC20460F
:1010C00010BD000010B5034B0360044609F0B3FCEB
:1010D000204610BD3C46020810B50446FFF7F2FF5B
:1010E0002046182120F0E1FC204610BD10B5084B29
:1010F0000360044600F5C350FFF7BAFF04F12C006B
:10110000FFF7CAFF04F11400FFF7DCFF204610BD13
:10111000D846020808B50248FFF7E8FF08BD00BF3F
:101120009C12002010B50446FFF7E0FF204641F670
:10113000D41120F0BAFC204610BD00002DE9F34187
:1011400001F0F0FA054601F0F1FA002401462346C9
:1011500028462246009411F015FC284B284A1A60B4
:10116000204602F07DF9274D274B284A28489A60EF
:1011700011F070FB2B68BFF35B8FDB0737D4284679
:1011800020F095FC98B3234C234B236004F5C35700
:1011900007F1180604F1140004F12C086060C4F88B
:1011A0000880E760266109F047FC1C4B63614046FC
:1011B00009F042FC1A4BE362384609F03DFC04F5A5
:1011C000805303F67400174AC3F8602803F0BCFA92
:1011D000224607F11401304602F0AEF9304601F024
:1011E000C5FC114821F0BCFB284620F06CFC0F48E0
:1011F00002B0BDE8F041FFF7E5BB00BF8C4601201F
:101200004804002098120020680400204C040020AC
:10121000080000209C120020D84602083C46020824
:1012200070460208A446020815110008C4030020F5
:10123000704700000148FFF7D3BB00BFC403002084
:1012400070B5264E264C274D274B23603046FFF7BE
:1012500053FE284616F09CFC24480FF085FC244BD6
:101260002448DC6000224FF48071C3E91212224945
:101270001A86C3E91A12214983F85820C3E91E01CE
:101280001F49C3F880101F491F480B60F021C3E9B4
:101290000422C3E90622C3E90822C3E90A22C3E9FA
:1012A0000E22C3E91022C3E91422C3E917225A66A9
:1012B00083F870205A67C3E90165018013480180F3
:1012C00013484FF4A07101801248018012490A703E
:1012D000012283F83420114A1A6070BDF404002002
:1012E0009412002068040020C03902084C04002039
:1012F000C4030020000001010100000100045000AF
:101300001A001400284601201C4601202246012014
:101310001E460120244601202046012000450208E7
:101320000148FFF775BC00BFF4040020002070479F
:1013300081807047C180704701817047418170474B
:101340007047704770477047704710B4C48803688F
:10135000121B84885B6D091B12B25DF8044B09B245
:1013600018474FF6FF7383814FF0FF330362136812
:10137000C36110607047002070478B888380012014
:101380007047704780F82610704790F82600704725
:1013900010B50022B1F90840B1F90A10028042806C
:1013A0008480C18010BD0022028042808280C28081
:1013B00070470177704780ED080A704780F8241065
:1013C000704780F8251070470120704798307047AB
:1013D0008C3070478430704770477047704700000A
:1013E000034B902283F85A2383F85823704700BF99
:1013F00000E100E0094A0A49D3680A48C3F30A0336
:10140000013B9BB20B801169C1F30A0101390180D4
:101410001364536B43F0010353637047006801404A
:10142000722C0020702C0020014BD3F8AC007047C8
:1014300000680140024B0122C3F8AC105A627047A9
:101440000068014010B52C21044620F02EFB2046F8
:1014500010BD10B5BC21044620F027FB204610BD6E
:1014600070B5044609F0E5FD23689D6E0EF014F991
:1014700001462046A8472368054AD3F88C502046E9
:10148000AC460023BDE87040A2F51631604700BFAE
:1014900000B004D009F0B4BD09F0BEBD09F07ABDBA
:1014A00009F0E9BE90F8252012B103685B6918477E
:1014B000704790F825201AB190F8242002B11860E6
:1014C00070470000034B4FF080629A604FF08072CB
:1014D0009A60704700E100E0084B4FF08062C3F86B
:1014E0008820BFF34F8FBFF36F8F4FF08072C3F828
:1014F0008820BFF34F8FBFF36F8F704700E100E08C
:1015000070B50023124E8380124B0360336893F84A
:10151000582005460AB1D86C00B998680368DB6AA0
:1015200098473368B0FA80F4D86C640930B1036826
:10153000DB6A9847002808BF44F001042CB9064B29
:10154000064A07482C2121F0EDF9284670BD00BF5E
:1015500028460120EC460208A33D0208013E02088D
:101560003A3E020870B5254E3568BFF35B8F15F023
:10157000010540D1304620F09AFA00283BD0204C9B
:10158000204B256104F13400C4E90035C4E902555B
:10159000E584A562A5850FF0CCFD04F158000CF0A0
:1015A000CFF8194BA3652046184B40F8843BFFF752
:1015B000A7FF174BC4F884302433C4F88C304FF4A1
:1015C000C803C4E928350023C4F8AC30C4F8B030EF
:1015D000C4F8B430C4F8B8300E480F4BC4F890507B
:1015E000C4F89C50C4F8A850C4F8983021F0B8F959
:1015F000304620F068FA024870BD00BF742C00200D
:10160000782C0020885002080C4702088447020802
:101610003C500208DD1300081C50020838B5184C75
:1016200023685BB3174B184A1B6C11888B4216D189
:10163000164B198805F0E0FA236893F86A20002514
:10164000013283F86A2083F87C50FFF7B5FA2068EE
:101650000AF06CFA2846BDE83840FFF7F5B805F007
:10166000CBFA2468236820461B6A9847012384F834
:101670007C300020BDE83840FFF710B938BD00BF0E
:101680002846012000680140722C0020702C0020A8
:10169000034B1A68B2F1A53F0CBF58680020704791
:1016A00000000E0807B5064BADF806001B6805489C
:1016B00001220DF1060106F06DF803B05DF804FBA0
:1016C0000C000020602E002007B51B4C1B4D23781A
:1016D000012B12D12B78DC2B23D9522318488DF8FB
:1016E000073000220A230DF10701006807F0F9F91D
:1016F00000231448237004F099F81348042104F0DF
:101700008BFC024648B9114846238DF80730006823
:101710000A230DF1070107F0E4F9102007F0F2F8B1
:10172000D5E71D2BE4D84C238DF8073008480A2351
:1017300000220DF10701D8E7382D0020392D0020B7
:10174000442D00200C300020001802403C2D0020C9
:10175000402D002010B54FF0FF331446024892B2DE
:1017600006F06DFF204610BD882D002030B595B0E5
:10177000102200210AA821F0DCFA1422002103A87B
:1017800021F0D7FA00241D4B01941A6C42F08052CC
:101790001A641B6C03F080530193019B184B029455
:1017A0001A6842F440421A601B6803F440430293F3
:1017B0000122029B4FF48033CDE9082302254FF428
:1017C0008003CDE90E5308214FF4A873CDE910131F
:1017D00008A807231393129505F02CFA0F23CDE9DF
:1017E00003354FF4A0504FF48053CDE90603052193
:1017F00003A8059405F0FAFB15B030BD003802408F
:10180000007000402DE980489BB003F029FFFFF7EE
:10181000ADFF142200210DA821F08BFA0024C74B44
:1018200000941A6BC64842F010021A631A6B02F059
:1018300010020092009A01941A6B42F020021A637F
:101840001A6B02F020020192019A02941A6B42F084
:1018500080021A631A6B02F080020292029A0394C9
:101860001A6B42F004021A631A6B02F0040203922C
:10187000039A04941A6B42F001021A631A6B02F085
:1018800001020492049A05941A6B42F002021A6350
:101890001A6B02F002020592059A06941A6B42F046
:1018A00040021A631A6B02F040020692069A0794ED
:1018B0001A6B42F008021A631B6B03F008032246FE
:1018C00007933C21079B04F0ADFB9E4801220221B7
:1018D00004F0A8FB22469B48042104F0A3FB224607
:1018E00099484FF4405104F09DFB01263C23CDE97B
:1018F0000D3693480F9403230DA90227109304F08B
:10190000A7FA90480DA9CDE90D760425CDE90F443D
:1019100004F09EFA8B480DA9CDE90D56CDE90F478D
:1019200004F096FA4FF4405387480DA9CDE90D36DF
:10193000CDE90F4704F08CFA0DA984480F96CDE944
:101940000D5404F085FA8248824B834D036004F005
:1019500075F9824A824B2C62C5E9002328464FF470
:101960008043C5E90434C5E90244C5E9064404F0EE
:1019700067FD1021284604F0ABFF2146284604F0FD
:10198000C6FF784D7849AC624FF48273C5E9001305
:101990004FF400701823C5E906030A232846C5E959
:1019A0000244C5E90444C5E90844EB6205F096FE2B
:1019B0008F232246394663488DF824308DF8344011
:1019C00004F030FB32464FF47A7309A9284605F03B
:1019D000E1FE4FF47A7332460DA9284606F086F8E8
:1019E000324639465748614D04F01CFB9DF83430AF
:1019F000D32B04BF5E4B1E705E4B01264FF01008C8
:101A0000C5E9003640230024C5E904834FF4C073C0
:101A1000C5E906344FF40063C5E908344FF40053B8
:101A200002274FF004094FF0030BAB620DA9072307
:101A30002846CDE90D73CDE90F934FF0080AC5E9AB
:101A40000249CDE911B7139705F02BFD4FF6FF7250
:101A500009A92846CDE90AA6099608940C9405F030
:101A600040FD304603F028FE4FF6FF7209A92846D4
:101A7000CDE9097ACDE90B6405F033FD4FF6FF722D
:101A800009A92846CDE909BACDE90B9405F029FD4D
:101A90004FF40C730893089B0C934FF6FF7209A93F
:101AA0002846CDE9099A0B9605F01BFD40F26A51D4
:101AB000284605F034FD342221460DEB020021F0CA
:101AC00038F92D4D2D4B2C61C5E900340923C5E9AA
:101AD00005361D23C5E9073B40F20D1240F24313C2
:101AE000C5E9092340F2171140F247132846C5E91A
:101AF0000B13C5E90244AC8685F8364004F09AFF22
:101B0000FF21F022CDE912144FF4806005214FF43B
:101B1000A073CDE91401CDE90E240DA9CDE916423B
:101B200028462246164D1893CDE910370D94ADF88E
:101B300064408DF8664005F031F823E0003802403B
:101B40000010024000080240000C02400018024051
:101B50000430002000300240702F0020005C004064
:101B6000A0860100602E002000500140542D00206E
:101B7000482D0020400100A0C82E00200068014030
:101B8000342D0020694B2B601B68DFF8FCB19847AF
:101B90002B68674DDB689847664B2846C5E90034DB
:101BA000C5E90274C5E90A47C5E90C4404F056F8D2
:101BB0003146284604F008F9424621460DA821F096
:101BC000B8F85D4DDFF8C4C1EE614FF48033C5E96C
:101BD00000C34FF00073AB602846584BAB626E6198
:101BE0002C612C7685F82040EC62EC6085F8304062
:101BF00003F076FD0DA90D232846CDE90D360F948F
:101C000003F02CFFDFF888E14D484E4E04614FF49D
:101C1000E133C0E900E30C23C0E90534C0E9024424
:101C2000C46106F0DDFC4848484B036005F0E2FB68
:101C3000424621460DA821F07CF84FF0804A5323FC
:101C4000C6E900A330464FF6FF73C6E90334B4601B
:101C5000B461CDE9094406F093F94FF480530DA91E
:101C600030460D9306F076FA09A93046CDE90944CD
:101C7000374E06F0B7FB1C2221460DA8CDE90944DA
:101C800021F057F86823C6E900B330466323C6E95C
:101C90000334B460B46106F09FF909A93046CDE978
:101CA000094406F09FFB4A4660230DA93046CDE962
:101CB0000D340F94119406F0EBF9304600F098FBC8
:101CC000FEF7F6FCFEF7F3FC224B28461C7003F0EF
:101CD000ADFD4946304606F043FB06F0A3FD1E4A23
:101CE0003946404606F0C2FE1C4B1D4A1860394674
:101CF000404606F0BBFE1B4B1B4A18603946404667
:101D000006F0B4FE194B1A4A18602146194806F02D
:101D1000B5FD194B194A18602146194806F0AEFD69
:101D2000184B186006F090FDFEE700BF140000207D
:101D3000C42F002000B002400C3000200100000F32
:101D4000882D0020182E0020B82E002000080650F4
:101D5000D02D0020382D0020F8470208442D002007
:101D6000E0470208402D0020C84702083C2D002013
:101D700034480208C9160008502D002010480208F7
:101D8000BF0600084C2D0020000400400020014048
:101D900000100140704770477FB5094B8DF8172040
:101DA0001B6802930DF117020123009201930A466A
:101DB0000146044804F0ECFB07B05DF804FB00BFEB
:101DC00010000020702F00207FB500238DF8173001
:101DD000084B1B6802930A4601230DF1170100917D
:101DE00001930146044804F063FC9DF8170007B016
:101DF0005DF804FB10000020702F00201FB5084C78
:101E000024680092CDE901340A46012301460548C1
:101E100004F04EFC003818BF012004B010BD00BF14
:101E200010000020702F002003F046BC10B5064CB7
:101E300000222046042104F0F5F820460122BDE8E6
:101E40001040042104F0EEB80008024038B50B4DF4
:101E5000044601220A484FF4005104F0E3F800223E
:101E60000421284604F0DEF82046FFF71BFC284634
:101E70000122BDE83840042104F0D4B80008024033
:101E8000000C024038B50B4D044600220A484FF4BE
:101E9000005104F0C7F800220421284604F0C2F8DB
:101EA0002046FFF7FFFB28460122BDE83840042109
:101EB00004F0B8B800080240000C0240F7B5144E18
:101EC000144F05460C4630460022042104F0AAF8BF
:101ED00000224FF40051384604F0A4F82846FFF7DA
:101EE000E1FB0D4B0D481B68224601A905F0FEFDE4
:101EF000384601224FF40051019C04F093F830461B
:101F00000122042104F08EF8204603B0F0BD00BF8A
:101F100000080240000C02400C000020602E00204F
:101F200003F0CABB08B5054B834206D103F002FD9E
:101F3000034B1870034B01221A7008BD0C300020AF
:101F4000392D0020382D00200268034B9A4201D120
:101F500003F0A0BB704700BF0010004070470000B6
:101F600082B00E4B00220092596C41F480415964BA
:101F7000596C01F48041009100990192196C41F073
:101F8000805119641B6C03F080530193019B0F2156
:101F90006FF0010002B003F011BE00BF0038024034
:101FA00010B5044688B01422002103A820F0C1FE19
:101FB0002268164B9A4226D103F58C3300240194F3
:101FC0005A6C134842F480725A645A6C02F480725C
:101FD0000192019A02941A6B42F004021A631B6B7D
:101FE00003F0040302930822029B03A90323CDE913
:101FF000032303F02DFF12202246052103F0DEFD0E
:10200000122003F00DFE08B010BD00BF00200140FB
:10201000000802400268094B9A4282B00BD10023AB
:102020000193074B1A6B42F480521A631B6B03F443
:1020300080530193019B02B0704700BF0030024003
:102040000038024007B50F4B02689A4216D10022B1
:10205000A3F5F0430192196B41F4000119631B6B66
:1020600003F40003019305215A20019B03F0A6FD10
:102070005A2003B05DF804EB03F0D2BD03B05DF865
:1020800004FB00BF00B002402DE9F043044689B0D4
:102090001422002103A820F04CFE2268244B9A420F
:1020A00043D1244C244800250095236B43F00403BE
:1020B0002363236B03F004030093009B0195236BC0
:1020C00043F001032363236B03F001030193019B9E
:1020D0004FF012094FF400734FF001080327042654
:1020E00003A9CDE90339CDE90587079603F0B0FED2
:1020F0004FF480731148079603A9CDE90339CDE960
:10210000058703F0A5FE0295236C43F400032364C6
:10211000236C03F400030293029B236A43F400033D
:102120002362236A23F40003236209B0BDE8F0832D
:10213000005C0040003802400008024000000240FD
:10214000F0B599B004461422002107A820F0F1FD53
:1021500030220DEB0200002120F0EBFD22685E4BE7
:102160009A4240F0B78008230C93C02310930423B5
:1021700012930CA84FF40033159305F00FF808B133
:10218000FFF7ECFE554B5648002400945A6C42F081
:1021900080625A645A6C02F080620092009A019444
:1021A0001A6B42F020021A631A6B02F020020192AD
:1021B000019A02941A6B42F001021A631A6B02F040
:1021C00001020292029A03941A6B42F002021A630D
:1021D0001A6B02F002020392039A04941A6B42F003
:1021E00040021A631A6B02F040020492049A0594AA
:1021F0001A6B42F004021A631A6B02F00402059291
:10220000059A06941A6B42F008021A631B6B03F0DE
:102210000803069302250E26069B0B964FF4806357
:1022200007A9CDE90735CDE9094503F011FE41F6CF
:1022300058032C480B9607A9CDE907350927CDE9A6
:10224000094503F005FE032327480B9707A9CDE9AD
:102250000735CDE9094503F0FBFD4FF470632248D3
:102260000B9607A9CDE90735CDE9094503F0F0FD47
:102270004FF40C631D480B9607A9CDE90735CDE94E
:10228000094503F0E5FDC02319480B9607A9CDE9E0
:102290000735CDE9094503F0DBFD082315480B960A
:1022A00007A9CDE90735CDE9094503F0D1FD4FF484
:1022B000A0530E480B9707A9CDE90735CDE909458D
:1022C00003F0C6FD58202246052103F077FC582074
:1022D00003F0A6FC19B0F0BD0068014000380240D0
:1022E00000140240000002400004024000180240B6
:1022F00000080240000C02400268094B9A4282B07A
:102300000BD100230193074B5A6B42F040025A63F2
:102310005B6B03F040030193019B02B0704700BF69
:10232000000806500038024010B5044688B0142258
:10233000002103A820F0FDFC2268144B9A4223D10F
:1023400003F56843002101915A6C114842F4801250
:102350005A645A6C02F480120192019A02911A6B2B
:1023600042F020021A631B6B03F020030293029BCE
:102370004FF4607202230321CDE903230523CDE945
:10238000061303A903F064FD08B010BD005001401E
:10239000001402400368B3F1804F82B00BD10023D8
:1023A0000193064B1A6C42F001021A641B6C03F095
:1023B00001030193019B02B0704700BF0038024047
:1023C0000268094B9A4282B00BD100230193074B5C
:1023D0001A6C42F002021A641B6C03F002030193B0
:1023E000019B02B0704700BF00040040003802406B
:1023F00010B5044686B01422002101A820F099FCF3
:1024000022680D4B9A4214D1002300930B4B0C48C9
:102410001A6B42F001021A631B6B03F00103009375
:10242000009B8022022301A9CDE90123059303F03B
:102430000FFD06B010BD00BF000400400038024090
:102440000000024010B5044688B01422002103A801
:1024500020F06FFC2268144B9A4223D103F5943389
:10246000002101915A6C114842F010025A645A6CD2
:1024700002F010020192019A02911A6B42F00102DD
:102480001A631B6B03F001030293029B4FF4C062BB
:1024900002230321CDE903230723CDE9061303A972
:1024A00003F0D6FC08B010BD00100140000002404F
:1024B0002DE9F04186B0002303932B4B1C68002CC0
:1024C0004FD14FF00108C3F80080284B00949A6B5D
:1024D000274842EA08029A639B6B03EA08030093C9
:1024E000022703260C25009B01A94FF63F03CDE9E7
:1024F0000137CDE9046503F0ABFC1E48059501A941
:10250000CDE90187CDE9034603F0A2FC48F233137D
:102510001948059501A9CDE90137CDE9034603F036
:1025200097FC4FF683731548059501A9CDE901374E
:10253000CDE9034603F08CFC4CF20373104805957B
:1025400001A9CDE90137CDE9034603F081FC602301
:102550000C48059501A9CDE90137CDE9034603F003
:1025600077FC06B0BDE8F08154300020003802400E
:10257000001402400008024000180240001002400F
:10258000000C02400004024070B588B000230293A2
:10259000204B1A6C42F010021A641B6C03F01003FB
:1025A0000293054601A903A8029B04F0D9FD069BEE
:1025B0004BBB04F0B5FD184E184B336040F2E733C7
:1025C000F360174BB0FBF3F3013B7360304600231D
:1025D0003361B360B36105F0D3FC044680B9304683
:1025E00005F0A8FB044658B9362003F019FB0F2D5F
:1025F0000DD822462946362003F0E0FA094B1D602B
:10260000204608B070BD04F08BFD4000D3E70124E4
:10261000F6E700BF003802405830002000100040AC
:1026200040420F007C0000207047FEE7FEE7FEE717
:10263000FEE77047014803F082B900BF0C3000206C
:10264000014805F0B5BB00BF58300020014804F038
:1026500048BA00BFC82E0020014803F02BBB00BFC2
:10266000C42F00200120704708B520F005FC162378
:1026700003604FF0FF3008BD08B520F0FDFB1623C6
:102680000360FEE770B50D4614460E46731B9C4270
:1026900001DC204670BDAFF3008006F8010BF5E7C2
:1026A0004FF0FF3070474FF400534B6000207047ED
:1026B00001207047002070470A4A116808B5034698
:1026C00009B9094911601068694603448B4206D96B
:1026D00020F0D2FB0C2303604FF0FF3008BD1360E5
:1026E000FCE700BFA030002068530120704710B500
:1026F000042104461FF0D9F9204610BD012908B570
:1027000006D0022908D059B900F0E8FE006808BDDB
:1027100000F0E4FE4068FAE700F0E0FE8068F6E7CB
:102720000020F4E7004870476C48020825207047F5
:1027300013B5002451B1036801948DF8034001AA38
:102740009C680DF10303A04702B010BD0846FBE7EB
:10275000C0897047008A7047C0887047808870477A
:10276000807A00F07F007047807AC00970470020AF
:10277000704700009FED010A704700BF0000000095
:102780007047704700F598730868496803C370473D
:10279000704770474160704770477047064BC0F8FC
:1027A0004C310023C0F8503100F5A273C0F8480145
:1027B000C0F84031704700BFA92900080123037207
:1027C0007047704710B4C26841685410034601EB6B
:1027D0006200D20748BF0A599B685DF8044B48BFA6
:1027E000D35818470346406830B19A681AB9D86878
:1027F00000F0010070470120704710B50C2104461D
:102800001FF053F9204610BD10B5102104461FF0EB
:102810004CF9204610BD10B54FF4AE7104461FF0C0
:1028200044F9204610BD10B50CF036FF0368BDE832
:102830001040DB6B184710B50446D0F8400158B182
:102840000368DB68984738B1D4F8400103689B6897
:1028500098470023C4F8403110BD00002DE9F14F26
:10286000D0E9556A0746B06803681B6A984741F685
:102870002B03984205D8444B444AA321444820F0F6
:1028800051F8706803681B6A98470F2803D8414BBA
:102890003E4AA421F2E7F06803681B6A98470B28B8
:1028A00003D83D4B394AA521E8E70CF0F5FEDFF8E7
:1028B000F09004300CF015FFD9F8000010B1036857
:1028C000DB689847D9F8000010B103681B68984787
:1028D000DFF8D080D8F8000010B103685B69984732
:1028E000D7F83C0110B103685B689847D8F800003E
:1028F00010B103681B689847D7F83C0110B1036812
:102900009B689847F068036800215B6A98474FF01E
:10291000000B224BC0F804B0044680F808B00360F6
:10292000B068036859465B6A9847054601F03EFB6C
:102930007068036859465B6A98472946064600F066
:1029400013FE331DC7F83C61C9F80040C8F80050B9
:10295000CAF800302B68C6F808A02846DB68EE638A
:102960009847336830461B689847214628460FF041
:1029700043F8236820461B69984723685B69204613
:1029800001B0BDE8F04F1847C63E0208543F0208A8
:102990002C4002087340020816410208C44B02088A
:1029A000704601206C4601202DE9F14FD0E9556AAF
:1029B0000746B06803681B6A9847B0F5E47F05D204
:1029C000444B454AA32145481FF0ACFF706803689B
:1029D0001B6A98470F2803D8414B3F4AA421F2E7CE
:1029E000F06803681B6A98470B2803D83D4B3A4AA6
:1029F000A521E8E70CF050FEDFF8F09004300CF071
:102A000070FED9F8000010B10368DB689847D9F868
:102A1000000010B103681B689847DFF8D480D8F82D
:102A2000000010B103685B699847D7F83C0110B10A
:102A300003685B689847D8F8000010B103681B680A
:102A40009847D7F83C0110B103689B689847F06835
:102A5000036800215B6A98474FF0000B224BC0F8D7
:102A600004B0044680F808B00360B06803685946B3
:102A70005B6A9847054601F0FBFD7068036859469C
:102A80005B6A98472946064601F0D0FD331DC7F81A
:102A90003C61C9F80040C8F80050CAF800302B6803
:102AA000C6F808A02846DB68EE63984733683046CE
:102AB0001B689847214628460EF09EFF2368204653
:102AC0001B69984723685B69204601B0BDE8F04F59
:102AD000184700BFC63E0208B94102082C40020850
:102AE0007340020816410208C44B020870460120D8
:102AF0006C460120044B1B6893F858200AB1D86C2F
:102B000000B99868704700BF2846012070B5044698
:102B10000D4616460CF082FE104A1460104A2260E0
:102B2000104A0023C4E95123C4E95333C4E94F33A5
:102B30000D4B1868036801219B68C4E955659847E7
:102B4000FFF7D8FF16F0CDFEFFF7D4FF16F044FFD5
:102B5000FFF7D0FF16F04CFF204670BD7C460120E9
:102B6000704B0208584B020828460120064BC0F85B
:102B70004C310023C0F8503100F5A273C0F8480171
:102B8000C0F84031704700BFA9290008064BC0F8C3
:102B90004C310023C0F8503100F5A273C0F8480151
:102BA000C0F84031704700BF5D280008704770478B
:102BB0007047704770477047704710B54FF4BA714F
:102BC00004461EF072FF204610BD70B5036804462F
:102BD0001B6B154698472368294620465B6BBDE86A
:102BE00070401847002310B5C0E90133C0E9033332
:102BF000C0E90733C0E905334FF480738384064B83
:102C000003600B88C384FF23044680F828300AF051
:102C1000F2FD204610BD00BFB45102082DE9F04F6F
:102C2000044685B00EF03CFD624A2260624A0026EE
:102C3000C4E910264FF4807204F16C0AA4F86420F1
:102C4000FF2284F866204FF6FF7504F1980903A966
:102C5000C4E91266C4E91466C4E91666E66326662A
:102C6000A666504604F1C408ADF80C50FFF7BAFF51
:102C700003A9484604F1F007ADF80C50FFF7B2FF86
:102C800003A94046ADF80C50FFF7ACFF03A9384646
:102C9000ADF80C50FFF7A6FF04F58E7303A9184694
:102CA0000093ADF80C50FFF79DFF04F5A473184690
:102CB00004F1400B03A90193ADF80C50FFF792FF0C
:102CC000324631465846FFF780FF5846F021FEF75E
:102CD00033FB58464FF4A071251DFEF72FFB4FF034
:102CE0007F42A2665946284607F0B8FE3246314672
:102CF0005046FFF76AFF4FF0010B03A95046ADF8AD
:102D00000CB00AF078FD5146DFF8B0A0284607F075
:102D1000A5FE524631464846FFF757FF03A94846ED
:102D2000ADF80CB00AF067FD4946284607F096FE5C
:102D3000324631464046FFF748FF03A94046ADF80A
:102D40000C600AF058FD4146284607F087FE5246BF
:102D500031463846FFF739FF03A93846ADF80C6015
:102D60000AF049FD3946284607F078FE00983246B9
:102D70005121FFF72AFF11220098ADF80C2003A97A
:102D80000AF039FD0099284607F068FE324601989E
:102D90001221FFF71AFF22230198ADF80C3003A986
:102DA0000AF029FD2846019907F058FE204605B093
:102DB000BDE8F08FE84B02084C510208C0FEFFFF4F
:102DC000406A7047806A704770478A880B8810B5E0
:102DD000D20A4C88C1699BB251F8220043EA0443ED
:102DE000184410BD10B50446BAB1107B68B1537BCE
:102DF000D27A1B0203F4E0631A43236A03EB8203D3
:102E00001A888A4202D193F9020010BD05D8013810
:102E100080B204330028F3D1F7E70020F5E710B5BE
:102E20002C2104461EF041FE204610BD30B58BB06B
:102E30000446BDF860500895BDF85C5007959DF8B4
:102E4000505006959DF84C5005959DF848500495B6
:102E50009DF8445003959DF8405002959DF83C50D4
:102E60000195BDF8385000950EF020FA064B23600E
:102E7000159BE361169B2362199B63621A9BA362F5
:102E800020460BB030BD00BF1C4C0208806A704762
:102E9000704770477047704730B4C2684468551037
:102EA000034604EB6200D20748BF62599B6830BCFE
:102EB00048BFD35818470346406830B19A681AB9DA
:102EC000D86800F0010070470120704790F82D305D
:102ED00080F85C3070470146343091F82C3013B1E3
:102EE00062310AF088BC6031FBE710B5642104460A
:102EF0001EF0DBFD204610BD10B5102104461EF06B
:102F0000D4FD204610BD10B54FF4DE7104461EF00E
:102F1000CCFD204610BD10B50446006B50B10368CF
:102F2000DB68984730B1206B036821469B68BDE899
:102F30001040184710BD0B7970B590F82C6004460E
:102F40000D460BB916B170BD002EFCD0B3FA83F359
:102F50005B0984F82C3023682046D3F88C309847DE
:102F6000236820465B699847002EECD02B79012B13
:102F7000E9D123682046D3F88830BDE8704018476F
:102F800000F58E70884208B505D10CF085FBBDE8D0
:102F90000840FFF7FBBD08BD074A02600022C0E9F8
:102FA0000122C0E90322C0E90522C0E907224FF44B
:102FB00080728284704700BF8452020870B5036833
:102FC00004469B6B15469847236829462046DB6BD1
:102FD000BDE8704018470B8870B5A0F86030054612
:102FE000138825F8623F044628460FF0DFFC0646AA
:102FF00028460FF00FFD314602462046FFF7DEFF60
:1030000023682046D3F88C30BDE870401847000094
:103010002DE9F04F804687B0464600240EF040FB75
:103020007D4AC8F83C4046F8402B214626223046CF
:103030001FF07FFE3046FFF7AFFF784AC8F8402008
:1030400008F16C0BFF224FF6FF7588F8662008F137
:10305000980A05A9C8F868405846ADF81450FFF71B
:10306000C1FD05A95046ADF81450FFF7BBFD08F1AE
:10307000C40305A918460193ADF81450FFF7B2FD3B
:1030800008F1F00308F58E7705A918460293ADF80C
:103090001450FFF7A7FD3846FFF77EFF4FF47F423D
:1030A0004FF0010308F5A879A8F848215C4A88F890
:1030B0004031C8F81C2105A9C8F84441C8F84C4162
:1030C0004846ADF81450FFF78DFD2246A8F87C5114
:1030D000A8F87E5121464846FFF777FD4946384615
:1030E00007F0BCFC08F5C073184605A90393ADF8BA
:1030F0001450FFF777FD4B4AC8E96B284A4A21462E
:10310000C8E96D2430462246FFF75FFD30464FF494
:10311000A072F021FFF752FF08F104054FF07F4243
:10312000C8F868203146284607F098FC2246214618
:103130005846FFF74AFD3D4E4FF0010305A958469A
:10314000ADF814300AF057FB5946284607F086FCC4
:10315000324621465046FFF738FD4FF0010305A9DE
:103160005046ADF814300AF046FB5146284607F0A9
:1031700075FC224601982146FFF727FD0198ADF81E
:10318000144005A90AF037FB0199284607F066FCB0
:10319000324602982146FFF718FD0298ADF8144018
:1031A00005A90AF028FB0299284607F057FC2422BB
:1031B000ADF81020ADF8142004A905AA3846FFF791
:1031C0000AFF224621464846FFF7FFFC08F5D67263
:1031D000C8F84C2138467C223521FFF7F6FC0F2237
:1031E00038468721FFF7EAFE3946284607F036FCC5
:1031F000039822465121FFF7E8FC11220398ADF80D
:10320000142005A90AF0F7FA2846039907F026FCCE
:10321000404607B0BDE8F08F3C4D02084C51020813
:10322000844C0208244D0208812F0008C0FEFFFFD5
:103230007047000030B5164D2C6814F001048FB0B3
:10324000BFF35B8F20D128461EF031FCE0B13F2355
:103250000993104B0893104B104911480A9401220E
:10326000CDE906430423CDE903320A230093CDE9D7
:103270000B44CDE901440594FFF7D8FD09481FF040
:103280006FFB28461EF01FFC05480FB030BD00BF85
:10329000A43000208C5C0208985C02085C5C020888
:1032A000A8300020313200087047000030B5164DBC
:1032B0002C6814F001048FB0BFF35B8F20D1284637
:1032C0001EF0F5FBE0B13F230993104B0893104B20
:1032D000104911480A940122CDE906430423CDE99F
:1032E000033214230093CDE90B44CDE90144059446
:1032F000FFF79CFD09481FF033FB28461EF0E3FB57
:1033000005480FB030BD00BFD4300020905C0208EB
:103310009C5C02086C5C0208D8300020A9320008CE
:103320007047000030B5164D2C6814F001048FB0C2
:10333000BFF35B8F20D128461EF0B9FBE0B13F23DD
:103340000993104B0893104B104911480A9401221D
:10335000CDE906430423CDE9033228230093CDE9C8
:103360000B44CDE901440594FFF760FD09481FF0C7
:10337000F7FA28461EF0A7FB05480FB030BD00BF86
:1033800004310020945C0208A05C02087C5C020806
:1033900008310020213300080020704700207047CA
:1033A0000EB403B503AB002153F8042B01930DF0C9
:1033B000FBF902B05DF804EB03B070470CB407B53D
:1033C00004AB53F8042B01930DF0EEF903B05DF854
:1033D00004EB02B070470000436C10B5044673B3B1
:1033E000038F2BB9184B194AC52119481FF09AFAB7
:1033F000C38E00EB43035B8C0BB30EF0F0FF238F07
:10340000012B03D8134B144ACB21EEE7E28E531C59
:103410009BB2092B194688BFA3F10A0104EB4101B5
:1034200040F63F10498C814209D10A2B04EB42023D
:1034300028BF002304EB4303508C5884518420465A
:10344000BDE810400EF0CEBE914202089A4202083A
:10345000454302088F4302089D4302080EF089BECF
:1034600038B518BB124B13481C681349B4B1226815
:1034700022440260626822440A60A26814440F4B2E
:1034800000221A8000F02AF8054600F025F80C4BBF
:103490001C600C4B1D600C4B188007E00B4B03604D
:1034A0000B4B0B600B4B1C68002CE8D138BD00BFE8
:1034B0004031002038310020343100203C310020E0
:1034C000804601208846012084460120A85C02082D
:1034D000A45C0208AC5C02080020704700487047FA
:1034E0004431002010B5FFF7E1FE044C2060FFF7E7
:1034F00019FF6060FFF79EFEA06010BD4431002000
:1035000010B5002404600C6014601C6010BD70478E
:1035100010B54FF4AE7104461EF0C7FA204610BD38
:1035200010B50446D0F8580101F011F92046BDE865
:1035300010400CF033B9000010B50446FFF7E6FA6E
:10354000014B2360204610BD704D020870470438BF
:103550007047704710B5102104461EF0A6FA2046A9
:1035600010BDA0F10400F5E700228260024A02606B
:1035700018324260C1607047C44D020870470000B5
:1035800070B500F58054414B0360D4F8EC37054624
:1035900000F5BF501B680C309847D4F8C03705F5CC
:1035A000BE501B68984741F2907441F288662B59CF
:1035B00028191B682C3C9847B442F8D141F2846426
:1035C00041F27C562B5928191B682C3C9847B44271
:1035D000F8D141F2445441F268462B5928191B682E
:1035E0002C3C9847B442F8D141F2B0262B59281907
:1035F0001B682C3C9847B442F8D141F2F8062B598D
:1036000028191B682C3C9847B442F8D12B5928192B
:103610001B682C3C9847B4F5746FF7D140F6885678
:103620002B5928191B682C3C9847B442F8D12B59C8
:1036300028191B682C3C9847B4F53D6FF7D140F62C
:1036400018262B5928191B682C3C9847B442F8D1EE
:103650002B5928191B682C3C9847B4F5D56FF7D126
:103660002B5928191B682C3C9847B4F54E7FF7D18D
:103670002B5928191B682C3C9847B4F5C07FF7D10B
:103680002846FFF798FA284670BD00BFEC4D0208A7
:1036900010B50446FFF774FF204641F62C011EF0DA
:1036A00004FA204610BD00000648074BB3FBF1F1B9
:1036B00003684A1E4908DA6299630421C26004F073
:1036C0004FBE00BFD02D002040420F000148042112
:1036D00004F086BED02D002010B400F5805484F88C
:1036E0002438002384F82538A4F826380123C4F8A8
:1036F0001C18C4F8202884F8283809685DF8044BA1
:10370000FFF7D2BF024A03490123FFF7E5BF00BF1D
:10371000444E0208484E0208024A03490323FFF7B9
:10372000DBBF00BF304E0208384E0208024A034990
:103730000423FFF7D1BF00BF184E0208204E020835
:103740002DE9F04FD0F87431C24A01335A43B2F137
:10375000333F87B00446C0F8743120D8BE4A534383
:10376000B3F1113F9FBF90F87C31B3FA83F35B094B
:1037700080F87C3190F87D31002B00F03B811F2BCD
:103780004FF0FF3318BF0023DBB284F87D3194F88B
:103790007E31FF2B40F030811F2384F87E31B4F856
:1037A0007821B4F87A31AD49023202331BB212B239
:1037B000002A08BF0A46B3F5A07F08BF0023A4F87B
:1037C0007A31A4F8CA30A4F8723094F87C31A4F8A5
:1037D0007821A4F8F620A4F89E20002B00F0118197
:1037E000012B00F01B819E4E9E4D306805F0DAF9EA
:1037F00088B14FF0FF33306800220DF1130105F05E
:10380000A1F99DF81330522B05D1AB79022B02D1CF
:10381000284601F04AFC944E306805F0C3F988B19F
:103820004FF0FF33306800220DF1130105F08AF9E3
:103830009DF813304C2B05D1AB79022B02D189486E
:1038400001F02DFC894E306805F0ACF9002800F03D
:10385000F2804FF0FF33306800220DF1130105F0C4
:1038600071F99DF81330462B01D10123EB717D4B8B
:1038700000937C4F04F2D46304F5597601934FF022
:10388000000A97F80E80B8F1020F00F0D680B8F168
:10389000030F00F0DB80B8F1010F11D1B946336896
:1038A00039F9081F9B6DB7F90A20304698474846FA
:1038B00086F82580022101F029F82046FFF722FF33
:1038C000019B2C369E4207F11007DAD1B5F9022090
:1038D000B5F9001004F5C070FDF737FDAB79032B87
:1038E00056D1002304F5805784F8A53197F9A43503
:1038F00083B96A8829880123083A083904F5AB504E
:10390000183087F89D3512B209B2FDF71EFD20462A
:10391000FFF70CFF97F8A465013676B20A2287F804
:10392000A46596FBF2F302FB136676B286BB504A9F
:1039300004F5AB5808F1180832F81330ADF814301C
:1039400005A9404609F057FF97F9A435272B1FDD3D
:10395000012384F8A53105A9092387F8A465404609
:10396000ADF8143009F047FF95F84C3187F89D65A4
:10397000012B84BF03F1FF3385F84C3195F84C31AE
:103980002C2202FB0343002283F8D1210223AB71D6
:1039900004F6442604F6FC33324F029303964FF0AC
:1039A000000941F26F5B4FF0010A97F85A31032B7F
:1039B00000F09B80042B00F0D180022B5ED1D6F862
:1039C000B831B7F956219B6DB7F9541106F5DC7083
:1039D00098473368B7F956219B6DB7F954113046B3
:1039E000984797F85F31002B44D086F8DDA186F820
:1039F000259043E01F23C8E61F2B0CBF0023FF23A5
:103A0000CBE694F87D3184F8183184F8EC3094F8E2
:103A10007E3184F8C03084F89430E4E694F87D3147
:103A200084F8C03084F8943094F87E3184F81831EA
:103A300084F8EC30D7E6E87119E73368B7F90A2063
:103A40009B6DB7F908103046984739E786F825A0EE
:103A500036E700BFCDCCCCCCEFEEEEEEC0FEFFFFE4
:103A6000442D002054310020402D00203C2D00200A
:103A7000604E020886F825A086F8DD31029B2C36C0
:103A80009E4207F11C0790D104F66C736F4F0293AE
:103A900004F6B4564FF0000941F26F5B4FF0010A93
:103AA00097F87232032B00F09780042B00F0CA8045
:103AB000022B5AD1D6F8B831B7F96E229B6DB7F9FF
:103AC0006C1206F5DC7098473368B7F96E229B6D6F
:103AD000B7F96C123046984797F87732002B40D0F0
:103AE00086F8DDA186F825903FE086F8DD9186F81E
:103AF000259004EB0B034FF0000813F9012F01325E
:103B000026D12046FFF708FE04EB080241F270536D
:103B10000021D1542C2303FB08F841F2944308EB15
:103B20000300A044B7F85621B7F8541158F80330F1
:103B3000083A08399B6D12B209B22044984741F205
:103B4000B943012208F80320042387F85A3195E786
:103B500008F10108B8F1050FCFD18FE786F8DD91A4
:103B600045E786F825A086F8DD31029B2C369E427B
:103B700007F11C0794D104F5895604F5965A334F82
:103B800004360AF11C0A4FF000094FF0010B97F8B8
:103B90008A33032B00F03881042B00F06C81022B58
:103BA0005AD1D6F8B831B7F986239B6DB7F984138B
:103BB00006F5DC7098473368B7F986239B6DB7F933
:103BC00084133046984797F88F33002B40D086F8FF
:103BD000DDB186F825903FE086F8DD9186F82590E6
:103BE00004EB0B034FF0000813F9012F013223D12E
:103BF00004EB080241F270530021D1542C2303FB43
:103C000008F841F2944308EB0300A044B7F86E2291
:103C1000B7F86C1258F80330083A08399B6D12B2A5
:103C200009B22044984741F2B943012208F8032021
:103C3000042387F8723298E708F10108B8F1050FFC
:103C4000D2D192E786F8DD914CE700BF54310020D5
:103C500086F825B086F8DD312C36564507F11C076D
:103C600095D104F5AB5704F5A45B04F5AB5ADFF826
:103C700034930F370BF1140B0AF1140A4FF00308B9
:103C800017F9016F731C24D0013676B296FBF8F257
:103C900002EB42033E70F61A76B2D6B9DBF800307A
:103CA00039F812201B6EADF8142005A95846984724
:103CB00097F900300E2B0CDDFF233B70DBF8003052
:103CC00009221B6EADF8142005A9584698478BF8B9
:103CD000256057450BF12C0BD2D1019EB04F4FF010
:103CE000000997F89E84B8F1020F00F0C780B8F180
:103CF000030F00F0CC80B8F1010F0ED13368B7F993
:103D000098149B6DB7F99A243046984786F8258019
:103D1000022107F5936000F0F9FD039B2C369E42CB
:103D200007F11007DDD104F58056D5F8D875D6F81F
:103D3000B0369F4240F0AE80D5F8D875D6F8BC3783
:103D40009F4200F2CF80D5F8DC75D6F818389F4234
:103D500040F0F08092490022012391F85A0101328B
:103D6000022808BF00230A2A01F11C01F5D18C4961
:103D7000002291F872020132022808BF00230A2AA9
:103D800001F11C01F5D10022009991F88A13022952
:103D9000009902F1010208BF00231C310A2A009198
:103DA000F2D13BB17E4BD3F8DC050130C3F8DC0522
:103DB00000F0F6FF96F8283803B3B6F8262896F8F0
:103DC0002538D6F82018013292B2A6F8262831F804
:103DD0001310914212D896F824280133DBB2002543
:103DE0009A4286F82538A6F8265840F2D280D6F8AE
:103DF0001C28204652F82310FFF756FC201D0CF01B
:103E0000FDFD07B0BDE8F08F04F5AB5386F8DD91FA
:103E100086F825900F334FF0000813F9012F013277
:103E200023D104EB080241F270530021D1542C231A
:103E300003FB08F841F2944308EB0300A044B7F8F1
:103E40008623B7F8841358F80330083A08399B6D75
:103E500012B209B22044984741F2B943012208F84E
:103E60000320042387F88A33F6E608F10108B8F145
:103E7000050FD2D1F0E686F8DD91AAE63368B7F9EE
:103E80009A249B6DB7F998143046984745E786F811
:103E9000259042E704F5B45004F5AB58DFF808A1CB
:103EA000C6F8B076043008F11C084FF00A09B7FBD9
:103EB000F9F309FB1372BB461F4603683AF8122058
:103EC0001B6E0190ADF8142005A9984701980123B5
:103ED000BBF1090F80F825307FF62EAF2C38404516
:103EE000E5D129E704F5BC5004F5B458DFF8B8A0D3
:103EF000C6F8BC77103008F108084FF00A09B7FB84
:103F0000F9F309FB1372BB461F4603683AF8122007
:103F10001B6E0190ADF8142005A998470198012364
:103F2000BBF1090F80F825307FF60DAF2C384045E6
:103F3000E5D108E74FF00A08DFF86CA0B7FBF8F509
:103F400008FB1572D6F8EC373AF812201B6EC6F84B
:103F5000187804F5BF50ADF8142005A90C30984727
:103F60004FF00109092F86F811987FF6F3AED6F8C5
:103F7000C0371A6EB5FBF8F308FB135305A93AF8DE
:103F80001330ADF8143004F5BE50904786F8E5972D
:103F9000E0E62046FFF79AFB86F828582EE700BF98
:103FA00054310020684E02084C4E02082DE9F04FB3
:103FB00004468BB0FEF732FE04F5C07BC34B236092
:103FC0004FF6FF7609A95846ADF82460FEF70AFEC1
:103FD00004F5D67904F559774D46284609A92C35BC
:103FE000ADF82460FEF7FEFDBD42F6D104F2D466C2
:103FF0004FF6FF77284609A92C35ADF82470FEF757
:10400000F1FDB542F6D104F644264FF6FF77284677
:1040100009A92C35ADF82470FEF7E4FDB542F6D1C0
:1040200004F6FC3307932E464FF6FF77304609A976
:10403000ADF82470FEF7D6FD079B2C369E42F5D1D5
:10404000984604F6B4564FF6FF77404609A908F1A2
:104050002C08ADF82470FEF7C5FDB045F5D104F687
:104060006C73069346464FF6FF77304609A9ADF8C4
:104070002470FEF7B7FD069B2C369E42F5D104F561
:1040800089561F4604364FF6FF7A384609A92C3761
:10409000ADF824A0FEF7A6FDB742F6D104F596537D
:1040A0001C3304933E464FF6FF7A304609A9ADF81B
:1040B00024A0FEF797FD049B2C369E42F5D104F513
:1040C000A45A1E460AF1140A4FF6FF73304609A996
:1040D0002C36ADF82430FEF785FD56454FF6FF73BC
:1040E000F4D104F5AB5A02960AF1100A304609A938
:1040F0002C36ADF82430FEF775FD56454FF6FF73AC
:10410000F4D104F5AB5A0AF1180A09A95046ADF8E2
:104110002430FEF767FD04F5AD5308330193019E8B
:1041200004F5B55310334FF6FF72304609A90093DA
:10413000ADF82420FEF756FD009B2C369E424FF62C
:10414000FF72F2D104F5B553143304F5BD52009358
:104150001C324FF6FF76184609A905920393ADF875
:104160002460FEF73FFD039B059A2C339342F2D166
:1041700004F5BE5309A918460593ADF82460FEF76F
:1041800031FD04F5BF530C3309A918460393ADF86C
:104190002460FEF727FD4FF6C063C4F87831002392
:1041A000A4F87C311022584684F87E6109A9ADF844
:1041B0002420261D09F01FFB4FF48C7258467021F5
:1041C000FEF703FD5946304606F048FC14225046DF
:1041D00009A9ADF8242009F00EFB00231A46194660
:1041E0005046FEF7F2FC5146304606F037FC04F527
:1041F0008052002382F89D359A464FF0120BD9F871
:10420000003048461B6EADF824B009A998474FF41A
:1042100096720FFA8AF148460AF1100AFEF7D5FCA9
:104220001FFA8AFA4946304606F018FC0122BAF114
:10423000A00F89F8252009F12C09E0D1244B04F2C4
:10424000D11093F84C114FF02C0C0023994200F33D
:10425000B5814FF459794FF0130B54F8093004EB42
:10426000090A1B6EADF824B009A9504698470022F0
:1042700011465046FEF7A9FC5146304606F0EEFBCB
:1042800009F12C0940F2D4639945E6D14FF0080BAF
:1042900054F8093004EB090A1B6EADF824B009A9E3
:1042A00050469847002211465046FEF78EFC514674
:1042B000304606F0D3FB09F12C0940F6442399451A
:1042C000E6D1DFF80C90CB4604E000BFEC4D0208CD
:1042D000543100202A684FF00E03126EADF82430DE
:1042E000284609A99047002211462846FEF76DFC92
:1042F0002946304606F0B2FBD5F8B8214FF000034E
:1043000005F5DC7A0F2185F82530126EADF8241002
:10431000504609A99047BBF95621BBF954115046A4
:10432000FEF753FC5146304606F098FB079B2C35B0
:104330009D420BF11C0BCDD1A34D02234FF0000B7E
:10434000D8F800204046126EADF8243009A99047F5
:10435000002211464046FEF738FC4146304606F042
:104360007DFBD8F8B82188F825B008F5DC7A032160
:10437000126EADF82410504609A99047B5F96E2287
:10438000B5F96C125046FEF720FC5146304606F057
:1043900065FB069B08F12C08984505F11C054FF0BC
:1043A0000203CDD14FF0060A4FF000083B683846B3
:1043B0001B6EADF824A009A9984700221146384683
:1043C000FEF703FC3946304606F048FBD7F8B83113
:1043D00087F8258007F5DC7507221B6EADF82420D1
:1043E00009A928469847B9F98623B9F984132846BC
:1043F000FEF7EBFB2946304606F030FB049B2C37DA
:104400009F4209F11C09D1D104F5AB5504F5AB5716
:104410000F3514374FF0090A4FF000094FF0FF082D
:10442000029B02981B6809A91B6EADF824A098474F
:10443000002211460298FEF7C8FB029B304683F823
:104440002590194606F00AFB029B05F8018F2C33D4
:10445000BD420293E4D100274FF01809B846019BF2
:1044600001981B6809A91B6EADF82490984739B2D2
:1044700001980822FEF7A9FB019B304683F82580AE
:10448000194606F0EBFA0837019BBFB22C33282FF0
:104490000193E4D104F5805504F5B45AD5F8843677
:1044A0000AF1040A1B6EADF8249009A950469847FA
:1044B000394608225046FEF788FB5146304606F042
:1044C000CDFA6427C5F8B0864FF018094FF0000800
:1044D000009B00981B6809A91B6EADF824909847B3
:1044E00039B200980822FEF770FB009B304683F833
:1044F0002580194606F0B2FA0837009BBFB22C336C
:10450000942F0093E4D1FDF7C3F804F5B45807469F
:10451000C5F8BC072D4B04F5BC50103008F1080855
:104520004FF00A094FF0010BB7FBF9F209FB1271CA
:10453000BA461746026833F81110126E0090ADF8B3
:10454000241009A990470098BAF1090F80F825B006
:1045500003D92C3880451D4BE6D105984FF018083B
:1045600009A90027ADF8248009F045F9082205982B
:10457000D221FEF72AFB059985F8E577304606F04B
:104580006DFAD5F8EC3703981B6EADF8248009A9B5
:10459000984703980822DA21FEF717FB3046039963
:1045A00085F8117806F05AFA074BC5F818780122F9
:1045B0002046C3F8DC250BB0BDE8F08F0CFB03FEF2
:1045C000013300F80E2041E6543100204C4E020821
:1045D00000B58BB0FEF7F0FA2022002102A81EF0F1
:1045E000A8FB084B01934FF480421823CDE9062322
:1045F000002101AA044804F041F9044B18600BB0F3
:104600005DF804FB6F4402084D4E00085031002055
:10461000704704387047704710B5102104461DF0EC
:1046200044FA204610BDA0F10400F5E700228260A4
:10463000024A026018324260C16070477C4E020834
:104640007047000010B5034B03600446FEF722FCE0
:10465000204610BDA44E020810B50446FFF7F2FF35
:1046600020464FF4E4711DF020FA204610BD0000F2
:1046700010B50446FEF7CCFC064B23604FF6C06332
:10468000C4F8C0310023A4F8C431FF2384F8C63134
:10469000204610BDA44E0208FEF7FDBBD0F8BC3189
:1046A000274A01335A43B2F1333FC0F8BC311DD819
:1046B000244A5343B3F1113F9FBF90F8C431B3FA7A
:1046C00083F35B0980F8C43190F8C531B3B11F2B77
:1046D0004FF0FF3318BF0023DBB280F8C53190F8EC
:1046E000C631FF2B0CD11F2380F8C63190F8C4319E
:1046F0005BB1012B16D004300CF080B91F23ECE71E
:104700001F2B0CBF0023FF23EEE790F8C53180F884
:10471000183180F8EC3090F8C63180F8C03080F85D
:104720009430E8E790F8C53180F8C03080F89430D4
:1047300090F8C63180F8183180F8EC30DBE700BF24
:10474000CDCCCCCCEFEEEEEE00220260704770478D
:1047500010B5044600F078F8024B2360322323831F
:10476000204610BDD84E020810B5034B0360044626
:1047700000F07EF8204610BDD84E020810B5044661
:1047800000F062F8034B23604FF4C8732383204684
:1047900010BD00BFE44E020810B5034B0360044691
:1047A00000F066F8204610BDE44E020810B504463D
:1047B00000F0AAF80023236040F60303A38003233C
:1047C000A3715023A360204610BDF8B504461D46D2
:1047D0000F46164600F098F840F60303A380012325
:1047E000A371502327806680E560A3602046F8BD52
:1047F0004288C368134443808368002B02DC032192
:1048000000F084B8013B8360002BF8D070470000B3
:1048100010B5044600F018F8024B236050232383A0
:10482000204610BDF04E020810B5034B036004464D
:1048300000F01EF8204610BDF04E020802238180D1
:10484000C28083727047000010B50446043000F047
:104850005BF8054B236041F2100323810023E372D0
:10486000024BE360204610BDFC4E020852501E0170
:1048700010B5044B044640F8043B00F046F82046CF
:1048800010BD00BFFC4E020838B5437B013B13F05E
:10489000FF03044615D04373A37B013B13F0FF03D2
:1048A00003BF1E23A373E37BA37302BFB3FA83F397
:1048B0005B09E373237C0133DBB2132B0AD8237427
:1048C00038BD50234373037B522B0CBF4C23522320
:1048D0000373E1E700250748257402F0D7FD1E2386
:1048E000B0FBF3F202FB130010B90123E372E7E718
:1048F000E572E5E7B82E00208388013B838070478E
:104900008388013383807047704770478171704797
:1049100010B5028803790C881344A34210DD0B798B
:1049200023449A420CDA438842794C881A44A242C2
:1049300006DD4A7922449342ACBF0020012010BD1D
:104940000020FCE7F8B5054600F06AFB05F5A87401
:104950002E4605F51A7720461C34FFF70FFFBC42A0
:10496000F9D105F5607720461C34FFF7F1FEBC4213
:10497000F9D105F5936720461C34FFF749FFBC4287
:10498000F9D105F5BB6720461034FFF70FFFBC4295
:10499000F9D10023C5F86437C5F86837C5F8E035A4
:1049A0002A460A2330200221A2F8543114339BB244
:1049B000D22BA2F8560182F85A1102F11C02F3D14F
:1049C0002A4614235C200221A2F86C3214339BB2D5
:1049D000DC2BA2F86E0282F8721202F11C02F3D1F3
:1049E0000A2346210222A6F8843314339BB2D22B29
:1049F000A6F8861386F88A2306F11C06F3D1002355
:104A0000C5F8D8352846F8BD70B5044600F5BB6634
:104A100000F59365AE4204D0103E3046FFF775FFB7
:104A2000F8E704F56076AE4204D01C3D2846FFF757
:104A3000FBFEF8E704F51A75B54204D01C3E30467B
:104A4000FFF792FEF8E704F5A876B54204D01C3DC6
:104A50002846FFF7A1FEF8E7204600F0FFFA2046BF
:104A600070BD2DE9F041D0F86477044637B1D0F835
:104A70006837002B04DD013BC4F86837BDE8F081DE
:104A800090F8E435D0F8E855D0F8EC6586464FF05C
:104A9000010847450EF10C0E16DC013FC4F864779F
:104AA0000BBB1C2104F5AD7001FB03F2875C042FE6
:104AB00014D102F5A8702244D2F850311B68324656
:104AC0002946204498470CE00EF2E45207CA0EF53E
:104AD000BB6C8CE8070008F10108DAE701330A2B08
:104AE000E2D10C23C8E7012B12D100221C2104F2D1
:104AF000722001FB02F3C75C042F05D103F51A7085
:104B00002344D3F86832D9E701320A2AF1D1E8E721
:104B1000022BE6D100221C2104F28A3001FB02F3B1
:104B2000C75C042F05D103F560702344D3F88033AC
:104B3000C4E701320A2AF1D1D3E72DE9F04FD0F8CA
:104B4000E0350133092B87B00446C0F8E03524DD99
:104B5000C3790BB100F0AFFA0023C4F8E03504F5D7
:104B6000A87504F51A762B7B4C2B284670D1FFF7DD
:104B7000C3FE95F824314C2B05F58C706BD1FFF7F3
:104B8000BBFE95F83C324C2B05F50C7066D1FFF757
:104B9000B3FE1C35B542E6D101E09B07DFD02746C6
:104BA00004F58C78254604F5A0720DF1080995F8F6
:104BB0005A31033B012B54D81C354545F7D12546C6
:104BC00004F5A0720DF1080995F87232033B012B30
:104BD00075D81C354545F7D1254604F5A0720DF171
:104BE000080995F88A33033B012B00F296801C35A7
:104BF0004545F6D104F5A07802AD4FF0030997F8CA
:104C00009E34032B1BD0D7F89C14D7F8980485E862
:104C1000030094E80300ADF81410090C04908DF81B
:104C20001610284604A9FFF773FE064604A8FFF7EE
:104C30006CFE2846FFF769FE0EB184F80690103727
:104C4000B845DCD1204607B0BDE8F04FFFF709BFFB
:104C5000FFF756FE8DE7FFF753FE92E7FFF750FE92
:104C600097E7264605F5AA7B0DF1100AB37B032BC7
:104C700021D09BE8030089E80300D6E902018AE815
:104C80000300514648460192FFF742FE009050460D
:104C9000FFF73BFE4846FFF738FEDDE9003253B12F
:104CA0000323B37385F85A31B5F86811D4F8D835B1
:104CB0000B44C4F8D83510369642D7D17CE7264647
:104CC00005F51B7B0DF1100AB37B032B21D09BE86C
:104CD000030089E80300D6E902018AE8030051468F
:104CE00048460192FFF714FE00905046FFF70DFE74
:104CF0004846FFF70AFEDDE9003253B10323B373E0
:104D000085F87232B5F88012D4F8D8350B44C4F85F
:104D1000D8351036B242D7D15BE7264605F5617B20
:104D20000DF1100AB37B032B21D09BE8030089E827
:104D30000300D6E902018AE8030051464846019281
:104D4000FFF7E6FD00905046FFF7DFFD4846FFF70E
:104D5000DCFDDDE9003253B10323B37385F88A33F8
:104D6000B5F89813D4F8D8350B44C4F8D8351036B4
:104D7000B242D7D13BE702290B46B8BF0223013B21
:104D8000E022B2FBF3F2102AD8BF14224B1E534389
:104D9000C3F1E00303EBD373504300EB63007047B0
:104DA0002DE9F0470A284FEA400700EB4004264E61
:104DB0008146A8BF4FF00A090A2FA8BF0A270A2C6C
:104DC000A8BF0A24B0460025A94508F11C0A0DDC3D
:104DD000DFF874800025AF4208F11C0915DC0025BE
:104DE000AC4206F11C071FDCBDE8F08749462846A7
:104DF000FFF7C1FFDAF8343101461B6808F5A870E7
:104E0000142298470135D046DEE739462846FFF799
:104E1000B2FFD9F84C3201461B6808F51A703C22E3
:104E200098470135C846D6E721462846FFF7A3FF35
:104E3000D7F8643301461B6806F560706422984712
:104E400001353E46CCE700BF543100202DE9F04F3C
:104E5000DFF8B09185B000274846FFF76EFE484660
:104E6000684C00F00DF925464FF0000BA04695F870
:104E70005A31022B2AD105F5A870FFF705FD95F8E8
:104E80005B311BB385F85B712346002693F89E24A3
:104E9000032A40F0A480B5F85621B5F85411EA462B
:104EA00008320631042392B289B25046FFF78DFCD6
:104EB0009AE80F0008EB061606F5936C8CE80F00D5
:104EC0005046FFF722FD012386F89E340BF1010BBB
:104ED000BBF10A0F05F11C05C9D14A4D4FF0000B7B
:104EE000EA4695F87232022B03D105F51A70FFF7E6
:104EF000CBFC95F873320BB385F87372234600260A
:104F000093F89E24032A71D1B5F86E22B5F86C127D
:104F100008320631042392B289B25046FFF755FC9D
:104F20009AE80F0008EB061606F5936C8CE80F0064
:104F30005046FFF7EAFC012386F89E340BF1010B83
:104F4000BBF10A0F05F11C05CBD12E4D4FF0000B24
:104F5000EA4695F88A33022B03D105F56070FFF716
:104F600093FC95F88B330BB385F88B73234600269F
:104F700093F89E24032A3FD1B5F88623B5F884130D
:104F800008320631042392B289B25046FFF71DFC65
:104F90009AE80F0008EB061606F5936C8CE80F00F4
:104FA0005046FFF7B2FC012386F89E340BF1010B4B
:104FB000BBF10A0F05F11C05CBD1002594F89E34F6
:104FC000022B03D104F59360FFF712FC0135142D79
:104FD00004F11004F2D1102003F094FC3CE70136F8
:104FE000142E03F110037FF451AF6FE70136142E36
:104FF00003F1100384D1A1E70136142E03F110034D
:10500000B6D1D3E7543100200148FFF79BBC00BF65
:10501000543100200148FFF7F7BC00BF5431002095
:1050200070B50446FFF770FC0023E37104F1080536
:1050300004F5A47628461035FFF7B8FBB542F9D140
:105040000A2384F84C31044B236041F21003A380FF
:105050000223A371204670BD3200180170B50446CA
:1050600000F5A47500F10806B54204D0103D2846AD
:10507000FFF74BFCF8E72046FFF747FC204670BDE2
:1050800038B500F1080500F5A474AB79022B02D104
:105090002846FFF7ADFB1035A542F6D138BD038891
:1050A000022B84BF023B038070470388DD2B9CBF2B
:1050B0000233038070477FB50446002300F10E02DF
:1050C0001E01915D032919D1628821886D46083A35
:1050D00006316FF0060392B289B22846FFF775FBDE
:1050E00095E80F00264406F1080484E80F002846DE
:1050F000FFF70BFC0123B37304B070BD0133142B15
:10510000DED1F9E7F02070474FF4A07070472920F6
:10511000FCF7B8BE2820FCF7B5BE08B5FCF786FE44
:10512000CA20FCF7AFFEC320FCF790FE0820FCF776
:105130008DFE5020FCF78AFECF20FCF7A3FE002056
:10514000FCF784FEC120FCF781FE3020FCF77EFED8
:10515000ED20FCF797FE6420FCF778FE0320FCF7B7
:1051600075FE1220FCF772FE8120FCF76FFEE8202E
:10517000FCF788FE8520FCF769FE0020FCF766FE40
:105180007820FCF763FECB20FCF77CFE3920FCF78F
:105190005DFE2C20FCF75AFE0020FCF757FE342061
:1051A000FCF754FE0220FCF751FEF720FCF76AFEE4
:1051B0002020FCF74BFEEA20FCF764FE0020FCF701
:1051C00045FE0020FCF742FEB120FCF75BFE00200C
:1051D000FCF73CFE1B20FCF739FEB620FCF752FE24
:1051E0000A20FCF733FEA220FCF730FEC020FCF7BB
:1051F00049FE1020FCF72AFEC120FCF743FE1020D8
:10520000FCF724FEC520FCF73DFE4520FCF71EFE02
:105210001520FCF71BFEC720FCF734FE9020FCF79E
:1052200015FE3620FCF72EFEC820FCF70FFEF220FC
:10523000FCF728FE0020FCF709FEB020FCF722FE58
:10524000C220FCF703FEB620FCF71CFE0A20FCF788
:10525000FDFDA720FCF7FAFD2720FCF7F7FD042051
:10526000FCF7F4FD2A20FCF70DFE0020FCF7EEFD14
:105270000020FCF7EBFD0020FCF7E8FDEF20FCF739
:10528000E5FD2B20FCF7FEFD0020FCF7DFFD0020F4
:10529000FCF7DCFD0120FCF7D9FD3F20FCF7D6FD33
:1052A000F620FCF7EFFD0120FCF7D0FD0020FCF715
:1052B000CDFD0620FCF7CAFD2C20FCF7E3FDC8203D
:1052C000FCF72EFE2620FCF7DDFD0120FCF7BEFDDD
:1052D000E020FCF7D7FD0F20FCF7B8FD2920FCF7F4
:1052E000B5FD2420FCF7B2FD0C20FCF7AFFD0E202D
:1052F000FCF7ACFD0920FCF7A9FD4E20FCF7A6FD4C
:105300007820FCF7A3FD3C20FCF7A0FD0920FCF76A
:105310009DFD1320FCF79AFD0520FCF797FD172053
:10532000FCF794FD1120FCF791FD0020FCF78EFDA9
:10533000E120FCF7A7FD0020FCF788FD1620FCF714
:1053400085FD1B20FCF782FD0420FCF77FFD11206A
:10535000FCF77CFD0720FCF779FD3120FCF776FD9A
:105360003320FCF773FD4220FCF770FD0520FCF7AD
:105370006DFD0C20FCF76AFD0A20FCF767FD282074
:10538000FCF764FD2F20FCF761FD0F20FCF75EFDAC
:105390001120FCF777FDC820FCF7C2FD2920FCF79F
:1053A00071FDBDE808402C20FCF76CBD08B5FCF78A
:1053B0003DFD0321D320FCF781FD80B208BD10B56F
:1053C000C4B2022203212046FCF7E6FC0A20FCF7C7
:1053D0002BFD204600220321FCF7DEFCBDE8104037
:1053E0000220FCF721BD38B50446E4B2FCF7D2FC3C
:1053F00000212046FCF7E8FC012105462046FCF789
:10540000E3FC40EA052080B238BD10B5C4B24021AB
:105410002046FCF7D9FC030607D54C212046FCF7B3
:10542000D3FC003818BF012010BD01224B212046BB
:10543000FCF7B2FC204600224B21FCF7ADFC00201B
:10544000F2E773B50423C4B20E461546D7210DEB1F
:1054500003022046FCF7D2FC019B1BBA1A0DC3F3D2
:105460000B23328020462B8001224B21FCF794FC39
:1054700000224B212046FCF78FFC02B070BD0000DB
:1054800010B50A4A1378984204460DD051788842E4
:105490000AD00BB141B90123D454FCF77BFC204660
:1054A000BDE81040FFF78BBF10BD00BFC038002023
:1054B00010B5C4B209212046FCF786FC40F0010279
:1054C000D2B220460921BDE81040FCF765BC10B5FA
:1054D000C4B209212046FCF777FC092100F0FE0246
:1054E0002046BDE81040FCF757BC38B5C4B20D46A5
:1054F00020460A21FCF768FC40EA0502D2B22046A9
:105500000A21BDE83840FCF747BC10B50446FCF75B
:1055100042FC20461F21FFF7E8FF2046BDE810406F
:10552000FFF7C6BF38B5C4B20D4620460A21FCF7C6
:105530004BFC20EA0502D2B220460A21BDE83840E1
:10554000FCF72ABC10B50446FFF7C1FF20461F2117
:10555000BDE81040FFF7E6BF10B5C0B20C460B2106
:10556000FCF732FC204010BD1F21FFF7F5BF0A46B3
:10557000C0B20B21FCF710BC1F21FFF7F8BF38B5F4
:10558000C4B20D4620461721FCF71EFC20EA050296
:10559000D2B220461721BDE83840FCF7FDBB70B5FC
:1055A000C4B2064604212046FCF70EFC042100F09C
:1055B000FB0205462046FCF7EFFB3046F021FFF7E3
:1055C000DEFF05F0F80220460421FCF7E5FB492246
:1055D00020212046FCF7E0FB0220FCF725FC2046BA
:1055E00001222121FCF7D8FB20469A224121FCF719
:1055F000D3FB204601224A21FCF7CEFB20460122A4
:105600004B21FCF7C9FB204600224B21FCF7C4FBD1
:10561000204601225621FCF7BFFB204601225821DB
:10562000FCF7BAFB204601224021FCF7B5FB2046DF
:10563000FF220B21FCF7B0FBBDE870400220FCF715
:10564000F3BB0000054BD3F8882042F47002C3F886
:1056500088204FF000629A60704700BF00ED00E0C4
:1056600008B50B4B1A6842F400721A601A6842F4CB
:1056700080621A601A6842F480721A60032000F097
:105680008BFA0020FCF780FFFCF76AFC002008BDC5
:10569000003C0240034A044B11681B780B44136022
:1056A000704700BFC438002078000020014B186804
:1056B000704700BFC438002038B50446FFF7F6FF36
:1056C000631C1CBF054B1B78054618BFE418FFF789
:1056D000EDFF431BA342FAD338BD00BF7800002082
:1056E00038B50446002800F09B80056C25B9FCF70E
:1056F00057FC656484F83C50236CDB0600F18E8017
:10570000236C23F4885323F0020343F00203236441
:10571000444B5A6822F440325A605A6861680A431E
:105720005A60236821695A6822F480725A605A6864
:1057300042EA01225A605A68A16822F040725A6017
:105740005A680A435A609A68E16822F400629A60D3
:105750009A680A439A603449A26A8A4252D0996888
:1057600021F07061996099680A439A609A68E16AC9
:1057700022F040529A609A680A439A609A6822F02E
:1057800002029A609A68217E42EA41029A6094F885
:105790002020002A3ED05A68616A42F400625A60B2
:1057A0005A6822F460425A605A68013942EA41322A
:1057B0005A60DA6AE16922F47002DA62DA6A01395F
:1057C00042EA0152DA629A6822F400729A609A6898
:1057D00094F8301042EA41229A609A68616922F492
:1057E00080629A609A68002042EA81229A6060642E
:1057F000236C23F0030343F001032364002384F8A4
:105800003C3038BD9A6822F070629A609A6822F043
:105810004052B2E75A6822F40062C9E70120EDE77E
:105820000120EEE7002301400100000F82B00023B9
:10583000019390F83C30012B6FD0012380F83C306D
:1058400003689A68D2070BD59A68D1071AD4036CFB
:1058500043F010030364436C43F00103436452E0DC
:105860009A682F4942F001029A602E4A1268B2FBF0
:10587000F1F202EB42020192019A002AE4D0019A6D
:10588000013AF8E7026C22F4E06222F0010242F4ED
:10589000807202645A68520541BF026C22F4405281
:1058A00042F480520264026C12F480521CBF426CBB
:1058B00022F006024264002280F83C206FF02202AF
:1058C0001A605A6842F0806242F020025A60164A1A
:1058D000516811F01F0F15491CD18B4207D001F5FB
:1058E00080718B420CD1526812F01F0F0BD19A6855
:1058F00012F0405F07D19A6842F080429A6002E05D
:105900000B498B4202D0002002B07047526812F05F
:10591000100FEBE78B42F6D1E9E70220F4E700BF76
:1059200040420F007400002000230140002001408D
:10593000002201400368D86C7047704770470368C5
:1059400070B51E685D68B20704462BD5A80629D538
:10595000226CD1065EBF226C42F4007222649A6807
:1059600012F0405F17D1227EAAB9DA6A12F4700FE2
:1059700002D09A6852050ED45A6822F020025A606A
:10598000236C23F480732364236CD8045EBF236CE0
:1059900043F0010323642046FCF7C4FA23686FF048
:1059A00012021A60710733D52A0631D5236CDB0643
:1059B0005EBF236C43F40053236423689A6812F497
:1059C000401F1ED19A6B12F4401F02D09A685005F6
:1059D00017D45A68510514D49A6812F0405F10D158
:1059E000227E72B95A6822F080025A60236C23F436
:1059F00080532364236CDA055EBF236C43F00103FC
:105A00002364204600F0C6F823686FF00C021A6089
:105A1000F30710D568060ED523681B68D9070AD589
:105A2000236C43F4803323642046FFF786FF23680A
:105A30006FF001021A60B2060ED56B010CD5636CD3
:105A400043F00203636423686FF020051D60204665
:105A5000FFF774FF23681D6070BD0000F7B50023D9
:105A6000019390F83C30012B054600F0868001231D
:105A700080F83C3008682B688E68092884B233D9D6
:105A800004EB4402DF681E3A4FF0070C0CFA02FCEC
:105A900027EA0C07DF60DF6806FA02F23A43DA60B1
:105AA0004968062901EB81022DD8596B053A1F265A
:105AB000964021EA06015963596B04FA02F20A433F
:105AC0005A632F4A93420AD1122837D12D4B5A6874
:105AD00022F400025A605A6842F480025A600020A0
