:020000040800F2
:10000000000003205D060008D5240008D72400085E
:10001000D9240008DB240008DD24000800000000CB
:10002000000000000000000000000000E187000860
:10003000DF2400080000000071880008F380000839
:10004000AD060008AD060008AD060008AD060008C4
:10005000AD060008AD060008AD060008AD060008B4
:10006000AD060008AD060008AD060008AD060008A4
:10007000AD060008AD060008AD060008AD06000894
:10008000AD060008AD060008E1240008AD06000832
:10009000AD060008AD060008AD060008AD06000874
:1000A000AD060008AD060008AD060008AD06000864
:1000B000AD060008AD060008AD060008AD06000854
:1000C000AD060008AD060008AD060008AD06000844
:1000D000AD060008AD060008AD060008AD06000834
:1000E000AD060008AD060008AD060008AD06000824
:1000F000AD060008AD060008AD060008AD06000814
:10010000AD060008AD060008AD060008AD06000803
:10011000AD060008AD060008ED240008AD06000895
:10012000AD060008AD060008AD060008AD060008E3
:10013000AD060008AD060008AD060008AD060008D3
:10014000AD060008AD060008AD060008AD060008C3
:10015000AD060008AD060008AD060008AD060008B3
:10016000AD060008AD060008AD060008AD060008A3
:10017000AD060008AD060008AD060008000000004E
:10018000AD060008AD060008AD060008AD06000883
:10019000AD060008AD060008AD060008AD06000873
:0C01A000F9240008AD0600080525000841
:1001B00010B5054C237833B9044B13B10448AFF3A1
:1001C00000800123237010BD800300200000000088
:1001D0004032020808B5034B1BB103490348AFF393
:1001E000008008BD000000008403002040320208A7
:1001F00001F0FF01102A2BDB10F0070F08D010F8D8
:10020000013B013A8B422DD010F0070F42B3F6D1DB
:10021000F0B441EA012141EA014122F007047FF0F4
:1002200000070023F0E80256083C85EA010586EA4B
:10023000010685FA47F5A3FA87F586FA47F6A5FA87
:1002400087F68EB9EED1F0BC01F0FF0102F0070293
:1002500032B110F8013B013A83EA010313B1F8D13E
:100260000020704701387047002D06BF354603381F
:10027000073815F0010F07D1013015F4807F02BF58
:10028000013015F4C03F0130F0BC0138704700BFA9
:100290007BB972B90029BEBF00204FF0004106E0D3
:1002A00008BF00281CBF6FF000414FF0FF3000F086
:1002B000D3B9ADF1080C6DE904CE002909DB002BA0
:1002C0001ADB00F04DF8DDF804E0DDE9022304B0AC
:1002D0007047404261EB4101002B1BDB00F040F80E
:1002E000DDF804E0DDE9022304B0404261EB4101A6
:1002F000524263EB43037047524263EB430300F007
:100300002FF8DDF804E0DDE9022304B0404261EBA0
:1003100041017047524263EB430300F021F8DDF8DE
:1003200004E0DDE9022304B0524263EB430370476B
:1003300053B94AB9002908BF00281CBF4FF0FF314C
:100340004FF0FF3000F088B9ADF1080C6DE904CE34
:1003500000F006F8DDF804E0DDE9022304B07047A0
:100360002DE9F047089D8E4604468846002B4AD169
:100370008A42174662D9B2FA82F64EB1C6F120031C
:1003800001FA06F820FA03F3B74043EA0808B4403C
:100390004FEA174E1FFA87FCB8FBFEF1230C0EFB49
:1003A000118843EA084301FB0CF29A4209D9FB1871
:1003B00001F1FF3080F0EA809A4240F2E780023992
:1003C0003B449A1AA3B2B2FBFEF00EFB102243EAA2
:1003D000024300FB0CFC9C4509D9FB1800F1FF32DD
:1003E00080F0D6809C4540F2D3803B44023840EAFE
:1003F0000140A3EB0C0300211DB1F3400022C5E92D
:100400000032BDE8F0878B4205D90DB1C5E9000186
:1004100000210846F5E7B3FA83F1002946D1734578
:1004200002D3824200F20581841A6EEB030201209E
:100430009046002DE5D0C5E90048E2E7002A00F02B
:100440009080B2FA82F6002E40F0A4808A1A030C43
:100450004FEA174E80B2BCB20121B2FBFEFC0EFB8C
:100460001C2243EA024304FB0CF29A4207D9FB1810
:100470000CF1FF3802D29A4200F2E080C4469B1A87
:10048000B3FBFEF20EFB123340EA034302FB04F41B
:100490009C4207D9FB1802F1FF3002D29C4200F2C5
:1004A000CA8002461B1B42EA0C40A5E7C1F12006A8
:1004B0008B4022FA06F71F430EFA01F420FA06F3E6
:1004C0002EFA06FE4FEA1749234300FA01F81FFAF5
:1004D00087FCBEFBF9F01C0C09FB10EE44EA0E444D
:1004E00000FB0CFEA64502FA01F209D93C1900F105
:1004F000FF3A80F09C80A64540F2998002383C4447
:10050000A4EB0E041FFA83FEB4FBF9F309FB1344BA
:100510004EEA044403FB0CFCA44508D93C1903F142
:10052000FF3E80F08280A4457FD9023B3C4443EAF1
:100530000040A4EB0C04A0FB02EC64457346E146CA
:1005400062D35FD05DB1B8EB030264EB090404FA37
:1005500006F622FA01F31E43CC40C5E900640021EF
:100560004FE7B1FBF2FC010C41EA0E4180B240EAD8
:1005700001423B4638463C46B846BE462026B1FBC3
:10058000F7F1A2EB080241EA0C4166E7014618E7E1
:1005900010462CE7C6F120022EFA02F3B740B14014
:1005A00020FA02F24FEA174E0A43B3FBFEF8BCB240
:1005B0000EFB1833110C41EA034108FB04F9B0406B
:1005C00089454FEA104380B23ED9791808F1FF3CC3
:1005D00001D289451FD8A1EB0901B1FBFEF909FB46
:1005E00004F80EFB191192B242EA0142424529D2A7
:1005F000BA1809F1FF31C4D24245C2D2A9F10201B1
:100600003A44BEE7F0459DD2BEEB02036CEB070C0B
:100610000138E14696E7A7EB09094944A8F1020C25
:10062000B1FBFEF909FB04F8DBE773467FE75046B0
:1006300066E70846FDE63B44023A33E7ACF1020CBC
:100640003B441CE749469CE7A1EB0901C446B1FBCA
:10065000FEF909FB04F8C4E7704700BFDFF834D0A7
:10066000002103E00C4B5B58435004310B480C4B0A
:1006700042189A42F6D30B4A02E0002342F8043BA8
:10068000094B9A42F9D304F0F1FE22F06BF801F025
:10069000BBF8704700000320E8A20C08000000200F
:1006A0006401002080030020BC530120FEE7704756
:1006B00008B500F0BFFDBDE8084000F041BD00F006
:1006C000BBBD704710B50421044620F05EFE2046F5
:1006D00010BD000038B50C4B0C4C18800C4B822020
:1006E00019806368984740F6110398420AD1094D72
:1006F00023682C60822098472B688220DB6898470B
:10070000002038BD0120FCE7A60300204C0000209B
:10071000A4030020A80300204FF4A071F020FFF7ED
:10072000D9BF0000F7B5394D2B6804461B698220FC
:100730009847208000284ED02B680DF106025B6997
:1007400001A982209847324B1B78002B4BD0BDF873
:10075000062040F674639A423FD9ADF80630BDF8E2
:1007600006209B1A9BB20A2B42D90B22B3FBF2F351
:10077000284A1288934201D9013A93B2BDF8042065
:10078000254840F6B8318A4234D8C2F571620E323B
:10079000016892B20F25B2FBF5F2204D2D88AA42D6
:1007A00084BF05F1FF35AAB28A4215468EB22AD916
:1007B000921B91B21A4E3768BB42BAB28CBF9A1ADA
:1007C000D21A92B211440529C4BF05603360036890
:1007D00063803368A38003B0F0BDB32A9CBFB4220A
:1007E000ADF80620BBE7BDF80630A3F5B473B9E752
:1007F0000023C3E7C2F56D62083292B20E2A016887
:10080000C8D800252A46891A89B2D3E7A803002050
:10081000382D0020A4030020A0030020A603002000
:100820009C03002037B568460D461446FFF77AFF53
:10083000BDF8000030B1BDF802302B60BDF80430C7
:100840002360012003B030BD032821D8DFE800F089
:10085000020B12190F4B1A68B2FA82F252090421E4
:100860000D4805F0F3BA0B4B5A68B2FA82F25209FE
:100870000821F5E7074B9A68B2FA82F25209102173
:10088000EEE7044BDA68B2FA82F252092021E7E778
:10089000704700BFAC03002000100240032821D89D
:1008A000DFE800F0020B12190F4B1A68003A18BF6C
:1008B000012204210D4805F0C9BA0B4B5A68003AD1
:1008C00018BF01220821F5E7074B9A68003A18BFC4
:1008D00001221021EEE7044BDA68003A18BF01222A
:1008E0002021E7E7704700BFAC0300200010024062
:1008F00003280DD8DFE800F00206080A04210548A5
:1009000005F0A9BA0821FAE71021F8E72021F6E757
:10091000704700BF0010024008B5032811D8DFE877
:1009200000F0020A0C0E0421074805F089FA431E64
:100930005842584108BD0821F6E71021F4E720216C
:10094000F2E70020F3E700BF0010024070B5084D49
:1009500000240126E0B2FFF7DFFF18B12B68012B5E
:1009600018BF2E600134052C05F10405F2D170BDCD
:10097000AC030020012380F8781080F879307047AC
:100980007047002070470000034B4164003918BFD6
:1009900001211970704700BF7B460120704700207D
:1009A0007047836B0BB10846184770474FF6FF70CE
:1009B0007047406803689B691847704770477047E5
:1009C0007047704710B5044600F04CFD236803499A
:1009D000D3F890302046BDE810401847000000D002
:1009E00008B503680446D3F8843098472368204646
:1009F000DB6F984700F0ECF8236820465B6F984760
:100A0000292001F0EDF900F0E3F8236820465B6F40
:100A10009847F8E710B504460AF0F8FC236820462A
:100A2000D3F8BC30BDE81040184700F0FFBC00F020
:100A300003BD00F035BD00F0D5BC00F045BD00F0B1
:100A40004DBD00F0D9BC09F00FBF10B5842104469C
:100A500020F09BFC204610BD10B590F8341090F8A3
:100A600078400C4B8C421A7809D03AB90A4A0B49A3
:100A70001488088810800C8001221A7010BD002A8A
:100A8000FCD0054A05491488088810800C80002293
:100A9000F3E700BF74460120704601207246012032
:100AA00070B50D46194635B9094B0A4A0A4840F255
:100AB000FF2121F0A7FBC0E90F52084B003A18BFF5
:100AC00001221A700368BDE87040D3F890301847CF
:100AD000D8320208103302085E3302087A46012039
:100AE00008B5094B1B888B4203D8084B1B889342DF
:100AF00005D9074B074A0848A32121F083FB074B80
:100B00001980074B1A8008BD7046012072460120EB
:100B1000A3330208063402085E3302087646012039
:100B200078460120034690F87A0018B158680368A7
:100B30001B68184770470000012108B500220846CD
:100B400007F060FB0A4B186028B90A4B0A4A2821B3
:100B50000A4821F057FB00220421012007F0FAFB8C
:100B6000074B186018B9074B034A2C21F0E708BD62
:100B7000C00300204934020892340208C13402083C
:100B8000BC0300200D350208024B4FF0FF311868FE
:100B900007F082BBC0030020014B186807F0A8BB18
:100BA000C0030020024B0021186807F075BB00BF8E
:100BB000C0030020FFF7F0BF03480449006800238A
:100BC0001A4607F002BC00BFBC030020040000204E
:100BD00013B5084C00231A4601A9206807F026FC2B
:100BE00020684FF0FF33002201A907F01FFC02B07C
:100BF00010BD00BFBC03002003685B6C18470120D8
:100C0000704703689B6A1847FEE740F2EF30704771
:100C1000054B0360054B4FF08062C3F88820BFF39B
:100C20004F8FBFF36F8F7047EC3E020800E100E08A
:100C300010B504464FF45A61FFF7EAFF204620F052
:100C4000A4FB204610BD000082B0002301930E4B90
:100C50001A6B42F400021A631A6B02F4000201924A
:100C6000019A1A6942F400021A611A6922F4000218
:100C70001A61064B064A1A61064A5A61064B4FF042
:100C800080629A6002B0704700380240242F002032
:100C9000E90E0008090C000800E100E008B50A2888
:100CA00009D8DFE800F006100E0808080810101038
:100CB0001000022008BD054B054A0648902121F08E
:100CC000A1FA0020F6E70120F4E700BF4F35020843
:100CD0006A350208B535020838B50C46887FFFF73B
:100CE000DDFFA58AE28A164B2169586342EA054274
:100CF0005A64628BD963521B1A642568082D0ED181
:100D00009A611A615862207F0E4A42EA0062DA61F3
:100D1000E2681A620C4A5961D9601A6038BD002233
:100D2000D8611A61E1680A0A480902F4784200F4BD
:100D3000FC600243C1F3C4010A439A63034AECE72F
:100D400000B002400900010001230200012303005A
:100D500008B50B280BD8DFE800F00612100A0A0AC3
:100D60000A0808080808022008BD0520FCE7054B12
:100D7000054A06486F2121F045FA0020F4E70120DA
:100D8000F2E700BF4F350208FF350208B53502080B
:100D90002DE9F04191F81D800C464046FFF7D8FF41
:100DA000A77F05463846FFF7D3FF06463846FFF7CC
:100DB00075FFA18A628B444B521A1A649A61228B86
:100DC000521A1A61E28A586342EA01425A6421695E
:100DD0006268D963DA602068802828D0227F0FD823
:100DE000202867D0402865D004281AD0364B45EA21
:100DF000026545F40035B845DD6161D0334A44E011
:100E0000B0F5807F04D0B0F5007FEFD1304800E02E
:100E1000304840EA0262DA61E2681A625E62596151
:100E200032E045EA026242F40032DA61F6E7A06895
:100E3000021DDA62227F45EA026545F40035DD6174
:100E40005E625961017841B1012921D0224B234AC8
:100E500023484FF48D7121F0D5F9DA69418822F4E5
:100E60007F42013922F0100242EA0122DA610121B7
:100E7000154BDA6942F02002DA61DA699206FCD495
:100E800010229A600029B9D0164A1A60BDE8F08194
:100E9000B2F1FF01DA69408822F47F4200F1FF30AD
:100EA00022F0100242EA002242F0100218BF012193
:100EB000DA61DDE745EA0262034B42F40032B4E74F
:100EC00042F20132E1E700BF00B00240012301001D
:100ED000090002000A0002004936020863360208CF
:100EE000B535020801230200024B1B6858680368ED
:100EF0005B6918477C46012070B5044625460A4BBD
:100F00000C30002660602672667245F8203B602235
:100F100029460AF0D1FB04F55A63EE6024359D4260
:100F2000FBD1204670BD00BFEC3E0208034B1A689F
:100F3000D207FCD423229A60704700BF00B0024061
:100F40007047000030B50F4C2568ED07FCD4232511
:100F50000904A56041F001010225FF2B656361646E
:100F6000E0630AD00849656241EA0363E361074B25
:100F700022626061E060236030BDE561039BA36392
:100F8000034BF8E700B00240090001000100020035
:100F90000100030030B50E4C2568ED07FCD4232575
:100FA0001204A56042F001020225FF2B6563626412
:100FB000E063E16008D01B0643F00213E361054BD8
:100FC00065626061236030BD034BE3610123F9E793
:100FD00000B0024001000200020002FF30B50B4CDD
:100FE0002568ED07FCD4232512041B06A56043F4F5
:100FF0000033022542F0010265636264E063E16050
:10100000E361034B65626061236030BD00B0024064
:1010100001000200012070470C2070470C2303FBE5
:101020000100083070470C2303FB010008307047B3
:101030000120704741F61C00704741F61C0303FB7A
:1010400001000830704741F61C0303FB0100083023
:101050007047012070471020704700EB01100830E6
:10106000704700EB011008307047084601F0D4BC0F
:1010700010B5034B0360044609F04DF9204610BD3E
:10108000A43F020810B50446FFF7F2FF20461421E2
:1010900020F07BF9204610BD10B5034B03600446D9
:1010A00009F039F9204610BD703F020810B504461A
:1010B000FFF7F2FF204641F6240120F066F92046B2
:1010C00010BD000010B5034B0360044609F023F97E
:1010D000204610BD3C3F020810B50446FFF7F2FF62
:1010E0002046182120F051F9204610BD10B5094BBB
:1010F0000360044600F5C2501030FFF7B9FF04F159
:101100002C00FFF7C9FF04F11400FFF7DBFF2046B6
:1011100010BD00BFD83F020808B50248FFF7E6FF40
:1011200008BD00BF9C12002010B50446FFF7DEFF8B
:10113000204641F6C41120F028F9204610BD0000D9
:101140002DE9F34101F044FA054601F045FA002487
:101150000146234628462246009411F083F8274B87
:10116000274A1A60204602F0D1F8264D264B274A1E
:1011700027489A6010F0DEFF2B68BFF35B8FDB0718
:1011800036D4284620F003F990B3224C224F234B4B
:10119000236007F1180604F1140004F12C086060C4
:1011A000C4F80880E760266109F0B6F81C4B63615B
:1011B000404609F0B1F81B4BE362384609F0ACF841
:1011C00004F5805303F66400174AC3F8502803F06F
:1011D00097F9224607F11401304602F003F9304630
:1011E00001F01AFC114821F02BF8284620F0DBF81A
:1011F0000F4802B0BDE8F041FFF7E4BBE046012034
:101200004804002098120020680400204C040020AC
:10121000080000209C120020EC2A0020D83F020881
:101220003C3F0208703F0208A43F02081911000861
:10123000C4030020704700000148FFF7D1BB00BF86
:10124000C403002070B5264E264C274D274B236043
:101250003046FFF751FE284616F00AF924480FF0F1
:10126000F3F8244B2448DC6000224FF48071C3E97A
:10127000121222491A86C3E91A12214983F858200A
:10128000C3E91E011F49C3F880101F491F480B60A6
:10129000F021C3E90422C3E90622C3E90822C3E915
:1012A0000A22C3E90E22C3E91022C3E91422C3E9CA
:1012B00017225A6683F870205A67C3E901650180D6
:1012C0001348018013484FF4A07101801248018037
:1012D00012490A70012283F83420114A1A6070BD45
:1012E000F40400209412002068040020C832020890
:1012F0004C040020C4030020000001010100000193
:10130000000450001A0014007C46012070460120A1
:10131000764601207246012078460120744601205D
:10132000003E02080148FFF773BC00BFF404002030
:101330000020704781807047C180704701817047ED
:10134000418170477047704770477047704710B4CD
:10135000C4880368121B84885B6D091B12B25DF898
:10136000044B09B218474FF6FF7383814FF0FF33E8
:1013700003621368C36110607047002070478B8858
:10138000838001207047704780F82610704790F8DE
:101390002600704710B50022B1F90840B1F90A10D3
:1013A000028042808480C18010BD00220280428081
:1013B0008280C28070470177704780ED080A7047CD
:1013C00080F82410704780F825107047012070477E
:1013D000983070478C307047843070477047704742
:1013E00070470000034B902283F85A2383F8582358
:1013F000704700BF00E100E0094A0A49D3680A4883
:10140000C3F30A03013B9BB20B801169C1F30A01CC
:10141000013901801364536B43F001035363704738
:1014200000680140622C0020602C0020014BD3F8A2
:10143000AC00704700680140024B0122C3F8AC10B9
:101440005A6270470068014010B52C2104461FF015
:101450009CFF204610BD10B5BC2104461FF095FF2F
:10146000204610BD70B5044609F053FA23689D6EFE
:101470000DF082FD01462046A8472368054AD3F8AF
:101480008C502046AC460023BDE87040A2F51631D2
:10149000604700BF00B004D009F022BA09F02CBAAE
:1014A00009F0E8B909F057BB90F8252012B103689C
:1014B0005B691847704790F825201AB190F82420EE
:1014C00002B1186070470000034B4FF080629A60D1
:1014D0004FF080729A60704700E100E0084B4FF0D7
:1014E0008062C3F88820BFF34F8FBFF36F8F4FF038
:1014F0008072C3F88820BFF34F8FBFF36F8F7047A0
:1015000000E100E070B50023124E8380124B0360AF
:10151000336893F8582005460AB1D86C00B998682A
:101520000368DB6A98473368B0FA80F4D86C6409C2
:1015300030B10368DB6A9847002808BF44F0010413
:101540002CB9064B064A07482C2120F05BFE2846A2
:1015500070BD00BF7C460120EC3F0208A1360208A6
:10156000FF3602083837020870B5254E3568BFF3DC
:101570005B8F15F0010540D130461FF008FF0028B1
:101580003BD0204C204B256104F13400C4E90035E8
:10159000C4E90255E584A562A5850FF03AFA04F185
:1015A00058000BF03DFD194BA3652046184B40F841
:1015B000843BFFF7A7FF174BC4F884302433C4F8EB
:1015C0008C304FF4C803C4E928350023C4F8AC308C
:1015D000C4F8B030C4F8B430C4F8B8300E480F4B7B
:1015E000C4F89050C4F89C50C4F8A850C4F898307F
:1015F00020F026FE30461FF0D6FE024870BD00BF28
:10160000642C0020682C0020544902080C40020879
:101610008440020808490208E1130008E84802086B
:1016200038B5184C23685BB3174B184A1B6C1188EC
:101630008B4216D1164B198805F010FA236893F8DF
:101640006A200025013283F86A2083F87C50FFF776
:10165000B3FA206809F0DAFE2846BDE83840FFF703
:10166000F3B805F0FBF92468236820461B6A984705
:10167000012384F87C300020BDE83840FFF70EB924
:1016800038BD00BF7C46012000680140622C00206C
:10169000602C0020034B1A68B2F1A53F0CBF5868BC
:1016A0000020704700000E0807B5064BADF8060095
:1016B0001B68054801220DF1060105F09DFF03B0EE
:1016C0005DF804FB0C000020C02D002007B51B4C6A
:1016D0001B4D2378012B12D12B78DC2B23D95223DD
:1016E00018488DF8073000220A230DF10701006821
:1016F00006F06BFE00231448237003F0ABFF134881
:10170000042104F09DFB024648B9114846238DF898
:10171000073000680A230DF1070106F056FE10207D
:1017200006F064FDD5E71D2BE4D84C238DF8073077
:1017300008480A2300220DF10701D8E7282D0020D0
:10174000292D0020342D00206C2F0020001802408D
:101750002C2D0020302D002010B54FF0FF33144603
:10176000024892B206F0DFFB204610BD782D002023
:1017700030B595B0102200210AA820F04AFF1422AB
:10178000002103A820F045FF00241D4B01941A6C92
:1017900042F080521A641B6C03F080530193019B4A
:1017A000184B02941A6842F440421A601B6803F412
:1017B000404302930122029B4FF48033CDE908237A
:1017C00002254FF48003CDE90E5308214FF4A8738E
:1017D000CDE9101308A807231393129505F05CF9BF
:1017E0000F23CDE903354FF4A0504FF48053CDE9DA
:1017F0000603052103A8059405F02AFB15B030BDAA
:1018000000380240007000402DE980489BB003F092
:101810003BFEFFF7ADFF142200210DA820F0F9FEDA
:101820000024C84B00941A6BC748DFF85883DFF8D0
:10183000589342F010021A631A6B02F010020092E1
:10184000009A01941A6B42F020021A631A6B02F09C
:1018500020020192019A02941A6B42F080021A63EC
:101860001A6B02F080020292029A03941A6B42F001
:1018700004021A631A6B02F004020392039A04949E
:101880001A6B42F001021A631A6B02F00102049211
:10189000049A05941A6B42F002021A631A6B02F062
:1018A00002020592059A06941A6B42F040021A63EE
:1018B0001A6B02F040020692069A07941A6B42F0E5
:1018C00008021A631B6B03F00803224607933C21AE
:1018D000079B04F0BBFA9D480122022104F0B6FAEE
:1018E00022469A48042104F0B1FA224698484FF45F
:1018F000405104F0ABFA01263C23CDE90D36924865
:101900000F9403230DA90227109304F0B5F98F4813
:101910000DA9CDE90D760425CDE90F4404F0ACF90D
:101920008A480DA9CDE90D56CDE90F4704F0A4F979
:101930004FF4405386480DA9CDE90D36CDE90F4748
:1019400004F09AF90DA983480F96CDE90D5404F0DF
:1019500093F98148814B824D036004F083F8814BF9
:101960002C62C5E9008328464FF48043C5E904345E
:10197000C5E90244C5E9064404F076FC1021284676
:1019800004F0BAFE21462846774D04F0D4FE4FF409
:101990008273C5E900934FF4007A1823C5E906A3C2
:1019A00028460A23C5E90244C5E90444C5E90844B8
:1019B000AC62EB6205F0C4FD8F23224639466348D2
:1019C0008DF824308DF8344004F040FA32464FF45C
:1019D0007A7309A9284605F00FFE4FF47A73324650
:1019E0000DA9284605F0B4FF3246394657485F4DE9
:1019F00004F02CFA9DF83430D32B04BF5C4B1E70DE
:101A00005C4B01264FF01008C5E900364023002446
:101A1000C5E904834FF4C073C5E906344FF400638D
:101A2000C5E908344FF4005302274FF0040AAB62B3
:101A30004FF0030B07230DA92846CDE90D73CDE91F
:101A40000FA34FF00809C5E9024ACDE911B7139772
:101A500005F059FC4FF6FF7209A92846CDE90A9610
:101A6000089409960C9405F06EFC304603F038FD9E
:101A70004FF6FF7209A92846CDE90979CDE90B6433
:101A800005F061FC4FF6FF7209A92846CDE909B9B6
:101A9000CDE90BA405F057FC4FF40C730893089B99
:101AA0000C934FF6FF7209A92846CDE909A90B96B8
:101AB00005F049FC40F26A51284605F062FC3422E8
:101AC00021460DEB020020F0A4FD2B4D2B4B2C6189
:101AD000C5E900340923C5E905361D23C5E9073BDF
:101AE00040F20D1240F24313C5E9092340F21711E9
:101AF00040F247132846C5E90B13C5E90244AC86FA
:101B000085F8364004F0B2FEFF21F022CDE9121430
:101B10004FF4806005214FF4A073CDE91401CDE9A5
:101B20000E240DA9CDE9164228462246144D1893DD
:101B3000CDE910370D94ADF864408DF8664004F09F
:101B400060FF23E00038024000100240000802401D
:101B5000000C024000180240642F002000300240B8
:101B6000D02E0020A0860100C02D0020442D002092
:101B7000382D0020400100A0282E002000680140E0
:101B8000242D0020005C004000500140414B2B60A0
:101B90001B6898472B68404DDB6898473F4B2846A9
:101BA000C5E90034C5E90274C5E90A47C5E90C4432
:101BB00003F068FF3146284604F01AF842462146F1
:101BC0000DA820F026FD364DDFF81CC12C614FF426
:101BD0008033C5E900C34FF00073AB602846314B3A
:101BE000AB622C7685F82040EC62EC60EE6185F803
:101BF00030406E6103F088FC0DA90D232846CDE925
:101C00000D360F9403F03EFEDFF8E0E026484FF477
:101C1000E133C0E900E30C23C0E90534C0E9024424
:101C20000461C46106F050F92048214B036005F0BF
:101C300013FBFEF73DFDFEF73AFD1E4B28461C70D8
:101C400003F008FD06F062FA1B4A3946404606F0EA
:101C500081FB1A4B1A4A18603946404606F07AFB57
:101C6000184B194A18603946404606F073FB174B6B
:101C7000174A18602146174806F074FA164B174A9F
:101C800018602146164806F06DFA164B186006F0EB
:101C90004FFAFEE714000020242F002000B002407D
:101CA0006C2F00200100000F782D0020182E00203E
:101CB00000080650282D0020F8400208342D00208E
:101CC000E0400208302D0020C84002082C2D0020E2
:101CD00034410208CD160008402D002010410208B2
:101CE000BF0600083C2D00200020014000100140EC
:101CF000704770477FB5094B8DF817201B6802931A
:101D00000DF117020123009201930A46014604488F
:101D100004F052FB07B05DF804FB00BF1000002088
:101D2000D02E00207FB500238DF81730084B1B689C
:101D300002930A4601230DF1170100910193014618
:101D4000044804F0C9FB9DF8170007B05DF804FBD8
:101D500010000020D02E00201FB5084C24680092EF
:101D6000CDE901340A4601230146054804F0B4FBDD
:101D7000003818BF012004B010BD00BF10000020C3
:101D8000D02E002003F0ACBB10B5064C002220463C
:101D9000042104F05BF820460122BDE81040042134
:101DA00004F054B80008024038B50B4D0446012237
:101DB0000A484FF4005104F049F800220421284653
:101DC00004F044F82046FFF76FFC28460122BDE8E6
:101DD0003840042104F03AB800080240000C0240E8
:101DE00038B50B4D044600220A484FF4005104F068
:101DF0002DF800220421284604F028F82046FFF799
:101E000053FC28460122BDE83840042104F01EB8E6
:101E100000080240000C0240F7B5144E144F05466E
:101E20000C4630460022042104F010F800224FF442
:101E30000051384604F00AF82846FFF735FC0D4BF0
:101E40000D481B68224601A905F082FD3846012293
:101E50004FF40051019C03F0F9FF304601220421A8
:101E600003F0F4FF204603B0F0BD00BF00080240BD
:101E7000000C02400C000020C02D002003F030BBFD
:101E800008B5054B834206D103F068FC034B18707C
:101E9000034B01221A7008BD6C2F0020292D002051
:101EA000282D00200268034B9A4201D103F006BBA3
:101EB000704700BF001000407047000082B00E4B1A
:101EC00000220092596C41F480415964596C01F42C
:101ED0008041009100990192196C41F08051196480
:101EE0001B6C03F080530193019B0F216FF00100E5
:101EF00002B003F077BD00BF0038024010B50446C1
:101F000088B01422002103A820F083FB2268164B1E
:101F10009A4226D103F58C33002401945A6C13485D
:101F200042F480725A645A6C02F480720192019AEF
:101F300002941A6B42F004021A631B6B03F0040351
:101F400002930822029B03A90323CDE9032303F094
:101F500093FE12202246052103F044FD122003F0D7
:101F600073FD08B010BD00BF002001400008024012
:101F70000268094B9A4282B00BD100230193074BB0
:101F80001A6B42F480521A631B6B03F48053019363
:101F9000019B02B0704700BF003002400038024091
:101FA00007B50F4B02689A4216D10022A3F5F04301
:101FB0000192196B41F4000119631B6B03F40003D8
:101FC000019305215A20019B03F00CFD5A2003B018
:101FD0005DF804EB03F038BD03B05DF804FB00BF0F
:101FE00000B002402DE9F043044689B014220021DC
:101FF00003A820F00EFB2268244B9A4243D1244CC4
:10200000244800250095236B43F004032363236BCE
:1020100003F004030093009B0195236B43F001033D
:102020002363236B03F001030193019B4FF012091B
:102030004FF400734FF001080327042603A9CDE9EC
:102040000339CDE90587079603F016FE4FF4807338
:102050001148079603A9CDE90339CDE9058703F0B7
:102060000BFE0295236C43F400032364236C03F4FA
:1020700000030293029B236A43F400032362236A52
:1020800023F40003236209B0BDE8F083005C004044
:10209000003802400008024000000240F0B599B04C
:1020A00004461422002107A820F0B3FA30220DEBD9
:1020B0000200002120F0ADFA22685E4B9A4240F007
:1020C000B78008230C93C0231093042312930CA809
:1020D0004FF40033159304F093FF08B1FFF7ECFEC3
:1020E000554B5648002400945A6C42F080625A6462
:1020F0005A6C02F080620092009A01941A6B42F0CE
:1021000020021A631A6B02F020020192019A0294D3
:102110001A6B42F001021A631A6B02F0010202927A
:10212000029A03941A6B42F002021A631A6B02F0CD
:1021300002020392039A04941A6B42F040021A635B
:102140001A6B02F040020492049A05941A6B42F052
:1021500004021A631A6B02F004020592059A0694AF
:102160001A6B42F008021A631B6B03F00803069314
:1021700002250E26069B0B964FF4806307A9CDE936
:102180000735CDE9094503F077FD41F658032C48A2
:102190000B9607A9CDE907350927CDE9094503F0D5
:1021A0006BFD032327480B9707A9CDE90735CDE938
:1021B000094503F061FD4FF4706322480B9607A9AF
:1021C000CDE90735CDE9094503F056FD4FF40C6321
:1021D0001D480B9607A9CDE90735CDE9094503F060
:1021E0004BFDC02319480B9607A9CDE90735CDE96A
:1021F000094503F041FD082315480B9607A9CDE9D1
:102200000735CDE9094503F037FD4FF4A0530E48DB
:102210000B9707A9CDE90735CDE9094503F02CFD5A
:1022200058202246052103F0DDFB582003F00CFC6A
:1022300019B0F0BD006801400038024000140240AF
:102240000000024000040240001802400008024062
:10225000000C02400268094B9A4282B00BD1002365
:102260000193074B5A6B42F040025A635B6B03F0D9
:1022700040030193019B02B0704700BF0008065065
:102280000038024010B5044688B01422002103A88B
:1022900020F0BFF92268144B9A4223D103F568431A
:1022A000002101915A6C114842F480125A645A6C10
:1022B00002F480120192019A02911A6B42F02002FC
:1022C0001A631B6B03F020030293029B4FF46072AE
:1022D00002230321CDE903230523CDE9061303A936
:1022E00003F0CAFC08B010BD0050014000140240C9
:1022F00010B5044688B01422002103A820F089F903
:102300002268144B9A4223D103F5943300210191A2
:102310005A6C114842F010025A645A6C02F01002D2
:102320000192019A02911A6B42F001021A631B6B2F
:1023300003F001030293029B4FF4C06202230321C6
:10234000CDE903230723CDE9061303A903F094FC89
:1023500008B010BD00100140000002402DE9F0411E
:1023600086B0002303932B4B1C68002C4FD14FF0F9
:102370000108C3F80080284B00949A6B274842EA72
:1023800008029A639B6B03EA080300930227032663
:102390000C25009B01A94FF63F03CDE90137CDE99C
:1023A000046503F069FC1E48059501A9CDE9018784
:1023B000CDE9034603F060FC48F233131948059554
:1023C00001A9CDE90137CDE9034603F055FC4FF6ED
:1023D00083731548059501A9CDE90137CDE9034679
:1023E00003F04AFC4CF203731048059501A9CDE9AE
:1023F0000137CDE9034603F03FFC60230C48059507
:1024000001A9CDE90137CDE9034603F035FC06B05B
:10241000BDE8F081B42F00200038024000140240D3
:10242000000802400018024000100240000C024068
:102430000004024070B588B000230293204B1A6C50
:1024400042F010021A641B6C03F01003029305465D
:1024500001A903A8029B04F0B5FD069B4BBB04F049
:1024600091FD184E184B336040F2E733F360174B81
:10247000B0FBF3F3013B7360304600233361B3607C
:10248000B36105F035FC044680B9304605F006FB23
:10249000044658B9362003F0D7FA0F2D0DD822463E
:1024A0002946362003F09EFA094B1D60204608B0ED
:1024B00070BD04F067FD4000D3E70124F6E700BFDC
:1024C00000380240B82F00200010004040420F00AA
:1024D0007C0000207047FEE7FEE7FEE7FEE770475E
:1024E000014803F040B900BF6C2F0020014805F0FF
:1024F00013BB00BFB82F0020014804F025BA00BF6D
:10250000282E0020014803F0E9BA00BF242F002044
:102510000120704708B520F01FF9162303604FF023
:10252000FF3008BD08B520F017F916230360FEE759
:1025300070B50D4614460E46731B9C4201DC2046C6
:1025400070BDAFF3008006F8010BF5E74FF0FF30E8
:1025500070474FF400534B600020704701207047D4
:10256000002070470A4A116808B5034609B90949AD
:1025700011601068694603448B4206D920F0ECF8DC
:102580000C2303604FF0FF3008BD1360FCE700BF71
:1025900000300020C0530120704710B504210446CC
:1025A0001EF0F3FE204610BD012908B506D0022911
:1025B00008D059B900F0E8FE006808BD00F0E4FE5C
:1025C0004068FAE700F0E0FE8068F6E70020F4E7F4
:1025D000004870476C4102082520704713B500245D
:1025E00051B1036801948DF8034001AA9C680DF174
:1025F0000303A04702B010BD0846FBE7C08970473F
:10260000008A7047C088704780887047807A00F0E1
:102610007F007047807AC009704700207047000033
:102620009FED010A704700BF00000000704770472F
:1026300000F598730868496803C37047704770478E
:102640004160704770477047064BC0F84C3100231B
:10265000C0F8503100F5A273C0F84801C0F840310D
:10266000704700BF55280008012303727047704768
:1026700010B4C26841685410034601EB6200D207EF
:1026800048BF0A599B685DF8044B48BFD3581847A8
:102690000346406830B19A681AB9D86800F0010062
:1026A00070470120704710B50C2104461EF06DFEE6
:1026B000204610BD10B5102104461EF066FE2046CF
:1026C00010BD10B54FF4AE7104461EF05EFE2046FC
:1026D00010BD10B50CF050FC0368BDE81040DB6B7A
:1026E000184710B50446D0F8400158B10368DB68BC
:1026F000984738B1D4F8400103689B689847002395
:10270000C4F8403110BD00002DE9F14FD0E9556A01
:102710000746B06803681B6A984741F61B03984256
:1027200005D8444B444AA32144481FF06BFD706810
:1027300003681B6A98470F2803D8414B3E4AA421DF
:10274000F2E7F06803681B6A98470B2803D83D4BF3
:10275000394AA521E8E70CF00FFCDFF8F0900430CF
:102760000CF02FFCD9F8000010B10368DB68984723
:10277000D9F8000010B103681B689847DFF8D080D3
:10278000D8F8000010B103685B699847D7F83C019E
:1027900010B103685B689847D8F8000010B103686F
:1027A0001B689847D7F83C0110B103689B689847AD
:1027B000F068036800215B6A98474FF0000B224BDA
:1027C000C0F804B0044680F808B00360B06803683D
:1027D00059465B6A9847054601F0C4FA7068036879
:1027E00059465B6A98472946064600F013FE331D9A
:1027F000C7F83C61C9F80040C8F80050CAF800307A
:102800002B68C6F808A02846DB68EE639847336853
:1028100030461B689847214628460EF05DFD236828
:1028200020461B69984723685B69204601B0BDE8D4
:10283000F04F1847C4370208523802082A390208F4
:1028400071390208143A0208C4440208C44601203F
:10285000C04601202DE9F14FD0E9556A0746B0681E
:1028600003681B6A9847B0F5E47F05D2444B454A9C
:10287000A32145481FF0C6FC706803681B6A98478F
:102880000F2803D8414B3F4AA421F2E7F0680368C0
:102890001B6A98470B2803D83D4B3A4AA521E8E725
:1028A0000CF06AFBDFF8F09004300CF08AFBD9F8EA
:1028B000000010B10368DB689847D9F8000010B138
:1028C00003681B689847DFF8D480D8F8000010B17F
:1028D00003685B699847D7F83C0110B103685B68EF
:1028E0009847D8F8000010B103681B689847D7F8DC
:1028F0003C0110B103689B689847F06803680021A9
:102900005B6A98474FF0000B224BC0F804B00446B6
:1029100080F808B00360B068036859465B6A98475E
:10292000054601F081FD7068036859465B6A984767
:102930002946064601F056FD331DC7F83C61C9F82B
:102940000040C8F80050CAF800302B68C6F808A04C
:102950002846DB68EE639847336830461B68984723
:10296000214628460EF0B8FC236820461B6998478C
:1029700023685B69204601B0BDE8F04F184700BFEF
:10298000C4370208B73A02082A3902087139020826
:10299000143A0208C4440208C4460120C04601207B
:1029A000044B1B6893F858200AB1D86C00B998689A
:1029B000704700BF7C46012070B504460D461646A0
:1029C0000CF09CFB104A1460104A2260104A00234D
:1029D000C4E95123C4E95333C4E94F330D4B18689C
:1029E000036801219B68C4E955659847FFF7D8FF44
:1029F00016F0E7FBFFF7D4FF16F05EFCFFF7D0FF01
:102A000016F066FC204670BDD046012070440208D6
:102A1000584402087C460120064BC0F84C31002384
:102A2000C0F8503100F5A273C0F84801C0F8403139
:102A3000704700BF55280008064BC0F84C310023F2
:102A4000C0F8503100F5A273C0F84801C0F8403119
:102A5000704700BF092700087047704770477047EC
:102A600070477047704710B54FF4BA7104461EF0B6
:102A70008CFC204610BD70B5036804461B6B1546E0
:102A800098472368294620465B6BBDE8704018478D
:102A9000002310B5C0E90133C0E90333C0E90733AF
:102AA000C0E905334FF480738384064B03600B88C1
:102AB000C384FF23044680F828300AF00CFB20462C
:102AC00010BD00BF804A02082DE9F04F044685B0D2
:102AD0000EF056FA624A2260624A0026C4E91026C5
:102AE0004FF4807204F16C0AA4F86420FF2284F889
:102AF00066204FF6FF7504F1980903A9C4E9126630
:102B0000C4E91466C4E91666E6632666A6665046FE
:102B100004F1C408ADF80C50FFF7BAFF03A948460A
:102B200004F1F007ADF80C50FFF7B2FF03A94046DF
:102B3000ADF80C50FFF7ACFF03A93846ADF80C50C8
:102B4000FFF7A6FF04F58E7303A918460093ADF8AE
:102B50000C50FFF79DFF04F5A473184604F1400BD9
:102B600003A90193ADF80C50FFF792FF32463146AE
:102B70005846FFF780FF5846F021FEF7DFFB584626
:102B80004FF4A071251DFEF7DBFB4FF07F42A266DC
:102B90005946284607F0D2FB324631465046FFF7E9
:102BA0006AFF4FF0010B03A95046ADF80CB00AF0D4
:102BB00092FA5146DFF8B0A0284607F0BFFB524614
:102BC00031464846FFF757FF03A94846ADF80CB019
:102BD0000AF081FA4946284607F0B0FB32463146F2
:102BE0004046FFF748FF03A94046ADF80C600AF0E5
:102BF00072FA4146284607F0A1FB52463146384654
:102C0000FFF739FF03A93846ADF80C600AF063FA04
:102C10003946284607F092FB009832465121FFF7CB
:102C20002AFF11220098ADF80C2003A90AF053FAEC
:102C30000099284607F082FB324601981221FFF7DF
:102C40001AFF22230198ADF80C3003A90AF043FAC9
:102C50002846019907F072FB204605B0BDE8F08FC9
:102C6000E8440208184A0208C0FEFFFF406A7047A5
:102C7000806A704770478A880B8810B5D20A4C88E2
:102C8000C1699BB251F8220043EA0443184410BDC5
:102C900010B50446BAB1107B68B1537BD27A1B02DF
:102CA00003F4E0631A43236A03EB82031A888A421F
:102CB00002D193F9020010BD05D8013880B2043367
:102CC0000028F3D1F7E70020F5E710B52C210446E2
:102CD0001EF05BFB204610BD30B58BB00446BDF83E
:102CE00060500895BDF85C5007959DF850500695CA
:102CF0009DF84C5005959DF8485004959DF844501A
:102D000003959DF8405002959DF83C500195BDF803
:102D1000385000950DF03AFF064B2360159BE36198
:102D2000169B2362199B63621A9BA36220460BB019
:102D300030BD00BF1C450208806A7047704770476D
:102D40007047704730B4C26844685510034604EBBE
:102D50006200D20748BF62599B6830BC48BFD35855
:102D600018470346406830B19A681AB9D86800F02D
:102D7000010070470120704790F82D3080F85C30DA
:102D800070470146343091F82C3013B162310AF0AB
:102D9000A2B96031FBE710B5642104461EF0F5FAD4
:102DA000204610BD10B5102104461EF0EEFA204654
:102DB00010BD10B54FF4DE7104461EF0E6FA204651
:102DC00010BD10B50446006B50B10368DB6898472E
:102DD00030B1206B036821469B68BDE8104018475E
:102DE00010BD0B7970B590F82C6004460D460BB9F8
:102DF00016B170BD002EFCD0B3FA83F35B0984F8E2
:102E00002C3023682046D3F88C309847236820461E
:102E10005B699847002EECD02B79012BE9D1236810
:102E20002046D3F88830BDE87040184700F58E7012
:102E3000884208B505D10CF09FF8BDE80840FFF7BF
:102E4000FBBD08BD074A02600022C0E90122C0E9BB
:102E50000322C0E90522C0E907224FF48072828470
:102E6000704700BF504B020870B5036804469B6B67
:102E700015469847236829462046DB6BBDE870401D
:102E800018470B8870B5A0F860300546138825F800
:102E9000623F044628460FF0F9F9064628460FF02F
:102EA00029FA314602462046FFF7DEFF2368204616
:102EB000D3F88C30BDE87040184700002DE9F04F82
:102EC000804687B0464600240EF05AF87D4AC8F87E
:102ED0003C4046F8402B2146262230461FF099FB05
:102EE0003046FFF7AFFF784AC8F8402008F16C0B76
:102EF000FF224FF6FF7588F8662008F1980A05A9A9
:102F0000C8F868405846ADF81450FFF7C1FD05A950
:102F10005046ADF81450FFF7BBFD08F1C40305A9F6
:102F200018460193ADF81450FFF7B2FD08F1F00315
:102F300008F58E7705A918460293ADF81450FFF7EF
:102F4000A7FD3846FFF77EFF4FF47F424FF00103A5
:102F500008F5A879A8F848215C4A88F84031C8F8F3
:102F60001C2105A9C8F84441C8F84C414846ADF8B1
:102F70001450FFF78DFD2246A8F87C51A8F87E5129
:102F800021464846FFF777FD4946384607F0D6F90F
:102F900008F5C073184605A90393ADF81450FFF760
:102FA00077FD4B4AC8E96B284A4A2146C8E96D2497
:102FB00030462246FFF75FFD30464FF4A072F02105
:102FC000FFF752FF08F104054FF07F42C8F8682070
:102FD0003146284607F0B2F9224621465846FFF707
:102FE0004AFD3D4E4FF0010305A95846ADF8143097
:102FF0000AF071F85946284607F0A0F932462146F2
:103000005046FFF738FD4FF0010305A95046ADF8D3
:1030100014300AF060F85146284607F08FF922462E
:1030200001982146FFF727FD0198ADF8144005A946
:103030000AF051F80199284607F080F932460298C3
:103040002146FFF718FD0298ADF8144005A90AF0D3
:1030500042F80299284607F071F92422ADF81020B1
:10306000ADF8142004A905AA3846FFF70AFF224646
:1030700021464846FFF7FFFC08F5D672C8F84C21F8
:1030800038467C223521FFF7F6FC0F22384687218F
:10309000FFF7EAFE3946284607F050F90398224622
:1030A0005121FFF7E8FC11220398ADF8142005A97F
:1030B0000AF011F82846039907F040F9404607B096
:1030C000BDE8F08F3C460208184A02088445020811
:1030D000244602082D2E0008C0FEFFFF70470000A6
:1030E00030B5164D2C6814F001048FB0BFF35B8F20
:1030F00020D128461EF04BF9E0B13F230993104B35
:103100000893104B104911480A940122CDE9064357
:103110000423CDE903320A230093CDE90B44CDE922
:1031200001440594FFF7D8FD09481FF089F82846A7
:103130001EF039F905480FB030BD00BF0430002043
:103140005855020864550208285502080830002026
:10315000DD3000087047000030B5164D2C6814F0C3
:1031600001048FB0BFF35B8F20D128461EF00FF90A
:10317000E0B13F230993104B0893104B10491148BD
:103180000A940122CDE906430423CDE90332142336
:103190000093CDE90B44CDE901440594FFF79CFD74
:1031A00009481FF04DF828461EF0FDF805480FB0FD
:1031B00030BD00BF343000205C550208685502085D
:1031C000385502083830002055310008704700009B
:1031D00030B5164D2C6814F001048FB0BFF35B8F2F
:1031E00020D128461EF0D3F8E0B13F230993104BBD
:1031F0000893104B104911480A940122CDE9064367
:103200000423CDE9033228230093CDE90B44CDE913
:1032100001440594FFF760FD09481FF011F82846A6
:103220001EF0C1F805480FB030BD00BF643000206B
:10323000605502086C5502084855020868300020A5
:10324000CD31000800207047002070470EB403B550
:1032500003AB002153F8042B01930CF015FF02B0CF
:103260005DF804EB03B070470CB407B504AB53F83A
:10327000042B01930CF008FF03B05DF804EB02B0DF
:1032800070470000436C10B5044673B3038F2BB92D
:10329000184B194AC52119481EF0B4FFC38E00EB24
:1032A00043035B8C0BB30EF00AFD238F012B03D875
:1032B000134B144ACB21EEE7E28E531C9BB2092B31
:1032C000194688BFA3F10A0104EB410140F63F1003
:1032D000498C814209D10A2B04EB420228BF00230A
:1032E00004EB4303508C588451842046BDE81040C1
:1032F0000EF0E8BB8F3B0208983B0208433C0208F3
:103300008D3C02089B3C02080EF0A3BB38B518BBED
:10331000124B13481C681349B4B12268224402605E
:10332000626822440A60A26814440F4B00221A808B
:1033300000F02AF8054600F025F80C4B1C600C4BF9
:103340001D600C4B188007E00B4B03600B4B0B60B0
:103350000B4B1C68002CE8D138BD00BFA03000200A
:1033600098300020943000209C300020D44601206A
:10337000DC460120D8460120745502087055020829
:10338000785502080020704700487047A43000209C
:1033900010B5FFF7E1FE044C2060FFF719FF6060F5
:1033A000FFF79EFEA06010BDA430002010B50024E1
:1033B00004600C6014601C6010BD704710B54FF4C1
:1033C000AE7104461DF0E1FF204610BD10B5044665
:1033D000D0F8580101F097F82046BDE810400BF0F6
:1033E0004DBE000010B50446FFF7E6FA014B23601E
:1033F000204610BD70460208704704387047704779
:1034000010B5102104461DF0C0FF204610BDA0F1EC
:103410000400F5E700228260024A0260183242602E
:10342000C1607047C4460208704700002DE9F04FA4
:10343000D0F87431BF4A01335A43B2F1333F87B0F9
:103440000446C0F8743120D8BB4A5343B3F1113F4E
:103450009FBF90F87C31B3FA83F35B0980F87C312D
:1034600090F87D31002B00F035811F2B4FF0FF339A
:1034700018BF0023DBB284F87D3194F87E31FF2B36
:1034800040F02A811F2384F87E31B4F87821B4F803
:103490007A31AA49023202331BB212B2002A08BFA3
:1034A0000A46B3F5A07F08BF0023A4F87A31A4F838
:1034B000CA30A4F8723094F87C31A4F87821A4F8CA
:1034C000F620A4F89E20002B00F00B81012B00F0C9
:1034D00015819B4E9B4D306804F0D8FF88B14FF0AA
:1034E000FF33306800220DF1130104F09FFF9DF8B7
:1034F0001330522B05D1AB79022B02D1284601F0B3
:10350000B0FC914E306804F0C1FF88B14FF0FF333A
:10351000306800220DF1130104F088FF9DF813308C
:103520004C2B05D1AB79022B02D1864801F093FCDC
:10353000864E306804F0AAFF002800F0EC804FF0BF
:10354000FF33306800220DF1130104F06FFF9DF886
:103550001330462B01D10123EB717A4B0093794F45
:1035600004F2D46304F5597601934FF0000A97F8FA
:103570000E80B8F1020F00F0D080B8F1030F00F018
:10358000D580B8F1010F0ED1B946336839F9081F5B
:103590009B6DB7F90A203046984786F825800221AE
:1035A000484601F08FF8019B2C369E4207F1100728
:1035B000DDD1B5F90220B5F9001004F5C070FDF7B2
:1035C000C6FEAB79032B53D1002304F5805784F852
:1035D000A53197F9A4356BB96A8829880123083A7F
:1035E000083904F5AB5087F89D3512B209B218308E
:1035F000FDF7ADFE97F8A465013676B20A2287F88A
:10360000A46596FBF2F302FB136676B286BB504AC2
:1036100004F5AB5808F1180832F81330ADF814303F
:1036200005A9404609F057FD97F9A435272B1FDD62
:10363000012384F8A53105A9092387F8A46540462C
:10364000ADF8143009F047FD95F84C3187F89D65C9
:10365000012B84BF03F1FF3385F84C3195F84C31D1
:103660002C2202FB0343002283F8D1210223AB71F9
:1036700004F6442604F6FC33324F029303964FF0CF
:10368000000941F26F5B4FF0010A97F85A31032BA2
:1036900000F09B80042B00F0CE80022B5ED1D6F888
:1036A000B831B7F956219B6DB7F9541106F5DC70A6
:1036B00098473368B7F956219B6DB7F954113046D6
:1036C000984797F85F31002B44D086F8DDA186F843
:1036D000259043E01F23CEE61F2B0CBF0023FF23C2
:1036E000D1E694F87D3184F8183184F8EC3094F800
:1036F0007E3184F8C03084F89430EAE694F87D3165
:1037000084F8C03084F8943094F87E3184F818310D
:1037100084F8EC30DDE6E8711FE73368B7F90A207A
:103720009B6DB7F90810304698473CE786F825A00E
:1037300039E700BFCDCCCCCCEFEEEEEEC0FEFFFF04
:10374000342D0020A8310020302D00202C2D002009
:103750002C47020886F825A086F8DD31029B2C361E
:103760009E4207F11C0790D104F66C736D4F0293D3
:1037700004F6B4564FF0000941F26F5B4FF0010AB6
:1037800097F87232032B00F09480042B00F0C7806E
:10379000022B57D1D6F8B831B7F96E229B6DB7F925
:1037A0006C1206F5DC7098473368B7F96E229B6D92
:1037B000B7F96C123046984797F87732002B3DD016
:1037C00086F8DDA186F825903CE086F8DD9186F844
:1037D000259004EB0B034FF0000813F9012F013281
:1037E00023D104EB080241F270530021D1542C2361
:1037F00003FB08F841F2944308EB0300A044B7F838
:103800005621B7F8541158F80330083A08399B6D1F
:1038100012B209B22044984741F2B943012208F894
:103820000320042387F85A3198E708F10108B8F11A
:10383000050FD2D192E786F8DD9148E786F825A0FA
:1038400086F8DD31029B2C369E4207F11C0797D18A
:1038500004F5895604F5965A324F04360AF11C0ACB
:103860004FF000094FF0010B97F88A33032B00F05B
:103870001381042B00F04781022B59D1D6F8B831BF
:10388000B7F986239B6DB7F9841306F5DC7098476A
:103890003368B7F986239B6DB7F984133046984790
:1038A00097F88F33002B3FD086F8DDB186F825904E
:1038B0003EE086F8DD9186F8259004EB0B034FF08F
:1038C000000813F9012F013223D104EB080241F261
:1038D00070530021D1542C2303FB08F841F2944388
:1038E00008EB0300A044B7F86E22B7F86C1258F842
:1038F0000330083A08399B6D12B209B22044984748
:1039000041F2B943012208F80320042387F87232F8
:1039100098E708F10108B8F1050FD2D192E786F8CF
:10392000DD914FE7A831002086F825B086F8DD311B
:103930002C36564507F11C0796D104F5AB5704F514
:10394000A45B04F5AB5ADFF8E0920F370BF1140BD0
:103950000AF1140A4FF0030817F9016F731C24D001
:10396000013676B296FBF8F202EB42033E70F61A8D
:1039700076B2D6B9DBF8003039F812201B6EADF8FC
:10398000142005A95846984797F900300E2B0CDDF6
:10399000FF233B70DBF8003009221B6EADF81420CA
:1039A00005A9584698478BF8256057450BF12C0B15
:1039B000D2D1019E9B4F4FF0000997F89E84B8F139
:1039C000020F00F0A380B8F1030F00F0A880B8F157
:1039D000010F0ED13368B7F998149B6DB7F99A248B
:1039E0003046984786F82580022107F5936000F05D
:1039F00069FE039B2C369E4207F11007DDD104F5CA
:103A00008056D5F8D875D6F8B0369F4240F08A80F7
:103A1000D5F8D875D6F8BC379F4200F2AB80D5F800
:103A2000DC75D6F818389F4240F0CC807D490022E2
:103A3000012391F85A010132022808BF00230A2A03
:103A400001F11C01F5D17749002291F8720201328F
:103A5000022808BF00230A2A01F11C01F5D1002227
:103A6000009991F88A130229009902F1010208BF16
:103A700000231C310A2A0091F2D13BB1694BD3F8E3
:103A8000DC050130C3F8DC0501F066F8201D0CF000
:103A900025FC07B0BDE8F08F04F5AB5386F8DD9147
:103AA00086F825900F334FF0000813F9012F0132EB
:103AB00023D104EB080241F270530021D1542C238E
:103AC00003FB08F841F2944308EB0300A044B7F865
:103AD0008623B7F8841358F80330083A08399B6DE9
:103AE00012B209B22044984741F2B943012208F8C2
:103AF0000320042387F88A331AE708F10108B8F194
:103B0000050FD2D114E786F8DD91CFE63368B7F917
:103B10009A249B6DB7F998143046984769E786F860
:103B2000259066E704F5B45004F5AB58DFF8FCA027
:103B3000C6F8B076043008F11C084FF00A09B7FB4C
:103B4000F9F309FB1372BB461F4603683AF81220CB
:103B50001B6E0190ADF8142005A998470198012328
:103B6000BBF1090F80F825307FF652AF2C38404565
:103B7000E5D14DE704F5BC5004F5B458DFF8ACA02E
:103B8000C6F8BC77103008F108084FF00A09B7FBF7
:103B9000F9F309FB1372BB461F4603683AF812207B
:103BA0001B6E0190ADF8142005A9984701980123D8
:103BB000BBF1090F80F825307FF631AF2C38404536
:103BC000E5D12CE74FF00A08DFF860A0B7FBF8F565
:103BD00008FB1572D6F8EC373AF812201B6EC6F8BF
:103BE000187804F5BF50ADF8142005A90C3098479B
:103BF0004FF00109092F86F811987FF617AFD6F814
:103C0000C0371A6EB5FBF8F308FB135305A93AF851
:103C10001330ADF8143004F5BE50904786F8E597A0
:103C200004E700BFA8310020344702081847020803
:103C300070B500F58054414B0360D4F8EC3705466D
:103C400000F5BF501B680C309847D4F8C03705F515
:103C5000BE501B68984741F2907441F288662B5918
:103C600028191B682C3C9847B442F8D141F284646F
:103C700041F27C562B5928191B682C3C9847B442BA
:103C8000F8D141F2445441F268462B5928191B6877
:103C90002C3C9847B442F8D141F2B0262B59281950
:103CA0001B682C3C9847B442F8D141F2F8062B59D6
:103CB00028191B682C3C9847B442F8D12B59281975
:103CC0001B682C3C9847B4F5746FF7D140F68856C2
:103CD0002B5928191B682C3C9847B442F8D12B5912
:103CE00028191B682C3C9847B4F53D6FF7D140F676
:103CF00018262B5928191B682C3C9847B442F8D138
:103D00002B5928191B682C3C9847B4F5D56FF7D16F
:103D10002B5928191B682C3C9847B4F54E7FF7D1D6
:103D20002B5928191B682C3C9847B4F5C07FF7D154
:103D30002846FEF796FE284670BD00BFEC460208F6
:103D400010B50446FFF774FF204641F61C011DF034
:103D50001CFB204610BD0000014801F0E3B800BF85
:103D6000B03000202DE9F04F04468BB0FEF7ACFEDA
:103D700004F5C07BC34B23604FF6FF7609A9584674
:103D8000ADF82460FEF784FE04F5D67904F5597782
:103D90004D46284609A92C35ADF82460FEF778FE7B
:103DA000BD42F6D104F2D4664FF6FF77284609A942
:103DB0002C35ADF82470FEF76BFEB542F6D104F653
:103DC00044264FF6FF77284609A92C35ADF8247014
:103DD000FEF75EFEB542F6D104F6FC3307932E469D
:103DE0004FF6FF77304609A9ADF82470FEF750FE74
:103DF000079B2C369E42F5D1984604F6B4564FF6F2
:103E0000FF77404609A908F12C08ADF82470FEF7A9
:103E10003FFEB045F5D104F66C73069346464FF667
:103E2000FF77304609A9ADF82470FEF731FE069BF6
:103E30002C369E42F5D104F589561F4604364FF6BE
:103E4000FF7A384609A92C37ADF824A0FEF720FEEA
:103E5000B742F6D104F596531C3304933E464FF611
:103E6000FF7A304609A9ADF824A0FEF711FE049BA5
:103E70002C369E42F5D104F5A45A1E460AF1140AC6
:103E80004FF6FF73304609A92C36ADF82430FEF703
:103E9000FFFD56454FF6FF73F4D104F5AB5A029679
:103EA0000AF1100A304609A92C36ADF82430FEF785
:103EB000EFFD56454FF6FF73F4D104F5AB5A0AF106
:103EC000180A09A95046ADF82430FEF7E1FD04F5C3
:103ED000AD5308330193019E04F5B55310334FF6EB
:103EE000FF72304609A90093ADF82420FEF7D0FDFB
:103EF000009B2C369E424FF6FF72F2D104F5B5536B
:103F0000143304F5BD5200931C324FF6FF76184669
:103F100009A905920393ADF82460FEF7B9FD039B50
:103F2000059A2C339342F2D104F5BE5309A91846E1
:103F30000593ADF82460FEF7ABFD04F5BF530C33D9
:103F400009A918460393ADF82460FEF7A1FD4FF6CA
:103F5000C063C4F878310023A4F87C31102258469D
:103F600084F87E6109A9ADF82420261D09F0B3F874
:103F70004FF48C7258467021FEF77DFD594630464D
:103F800006F0DCF91422504609A9ADF8242009F006
:103F9000A2F800231A4619465046FEF76CFD51461A
:103FA000304606F0CBF904F58052002382F89D35A7
:103FB0009A464FF0120BD9F8003048461B6EADF808
:103FC00024B009A998474FF496720FFA8AF148462F
:103FD0000AF1100AFEF74FFD1FFA8AFA49463046E9
:103FE00006F0ACF90122BAF1A00F89F8252009F1F9
:103FF0002C09E0D1244B04F2D11093F84C114FF06E
:104000002C0C0023994200F3B5814FF459794FF0FD
:10401000130B54F8093004EB090A1B6EADF824B0F9
:1040200009A950469847002211465046FEF723FD45
:104030005146304606F082F909F12C0940F2D4636A
:104040009945E6D14FF0080B54F8093004EB090A02
:104050001B6EADF824B009A95046984700221146BE
:104060005046FEF708FD5146304606F067F909F163
:104070002C0940F644239945E6D1DFF80C90CB4655
:1040800004E000BFEC460208A83100202A684FF087
:104090000E03126EADF82430284609A9904700227D
:1040A00011462846FEF7E7FC2946304606F046F959
:1040B000D5F8B8214FF0000305F5DC7A0F2185F81B
:1040C0002530126EADF82410504609A99047BBF96F
:1040D0005621BBF954115046FEF7CDFC51463046EF
:1040E00006F02CF9079B2C359D420BF11C0BCDD112
:1040F000A34D02234FF0000BD8F800204046126E6B
:10410000ADF8243009A99047002211464046FEF739
:10411000B2FC4146304606F011F9D8F8B82188F8CB
:1041200025B008F5DC7A0321126EADF82410504654
:1041300009A99047B5F96E22B5F96C125046FEF701
:104140009AFC5146304606F0F9F8069B08F12C0817
:10415000984505F11C054FF00203CDD14FF0060A3A
:104160004FF000083B6838461B6EADF824A009A943
:104170009847002211463846FEF77DFC3946304606
:1041800006F0DCF8D7F8B83187F8258007F5DC753C
:1041900007221B6EADF8242009A928469847B9F9D3
:1041A0008623B9F984132846FEF765FC2946304674
:1041B00006F0C4F8049B2C379F4209F11C09D1D1A9
:1041C00004F5AB5504F5AB570F3514374FF0090A1A
:1041D0004FF000094FF0FF08029B02981B6809A9E5
:1041E0001B6EADF824A09847002211460298FEF7F6
:1041F00042FC029B304683F82590194606F09EF853
:10420000029B05F8018F2C33BD420293E4D10027B5
:104210004FF01809B846019B01981B6809A91B6E4D
:10422000ADF82490984739B201980822FEF723FC94
:10423000019B304683F82580194606F07FF8083741
:10424000019BBFB22C33282F0193E4D104F5805594
:1042500004F5B45AD5F884360AF1040A1B6EADF899
:10426000249009A950469847394608225046FEF73F
:1042700002FC5146304606F061F86427C5F8B08666
:104280004FF018094FF00008009B00981B6809A91F
:104290001B6EADF82490984739B200980822FEF7BB
:1042A000EAFB009B304683F82580194606F046F865
:1042B0000837009BBFB22C33942F0093E4D1FDF755
:1042C000E9F904F5B4580746C5F8BC072D4B04F5C9
:1042D000BC50103008F108084FF00A094FF0010BEC
:1042E000B7FBF9F209FB1271BA461746026833F8B8
:1042F0001110126E0090ADF8241009A99047009893
:10430000BAF1090F80F825B003D92C3880451D4B30
:10431000E6D105984FF0180809A90027ADF82480C8
:1043200008F0D9FE08220598D221FEF7A4FB0599D2
:1043300085F8E577304606F001F8D5F8EC370398B4
:104340001B6EADF8248009A9984703980822DA214A
:10435000FEF791FB3046039985F8117805F0EEFFE2
:10436000074BC5F8187801222046C3F8DC250BB0AE
:10437000BDE8F08F0CFB03FE013300F80E2041E690
:10438000A83100201847020800B58BB0FEF76AFB81
:104390002022002102A81EF03CF9084B01934FF4A3
:1043A00080421823CDE90623002101AA044803F026
:1043B000D9FE044B18600BB05DF804FB6D3D02089C
:1043C000054C0008A431002070470438704770473E
:1043D00010B5102104461CF0D8FF204610BDA0F1F6
:1043E0000400F5E700228260024A0260183242604F
:1043F000C1607047484702087047000010B5034B82
:1044000003600446FEF79CFC204610BD704702087E
:1044100010B50446FFF7F2FF20464FF4E4711CF09C
:10442000B4FF204610BD000010B50446FEF746FD5F
:10443000064B23604FF6C063C4F8C0310023A4F8D4
:10444000C431FF2384F8C631204610BD70470208EE
:10445000FEF777BCD0F8BC31274A01335A43B2F19A
:10446000333FC0F8BC311DD8244A5343B3F1113F48
:104470009FBF90F8C431B3FA83F35B0980F8C4316D
:1044800090F8C531B3B11F2B4FF0FF3318BF002395
:10449000DBB280F8C53190F8C631FF2B0CD11F2359
:1044A00080F8C63190F8C4315BB1012B16D00430CE
:1044B0000BF014BF1F23ECE71F2B0CBF0023FF23BF
:1044C000EEE790F8C53180F8183180F8EC3090F8BC
:1044D000C63180F8C03080F89430E8E790F8C531F4
:1044E00080F8C03080F8943090F8C63180F81831E8
:1044F00080F8EC30DBE700BFCDCCCCCCEFEEEEEEBD
:10450000002202607047704710B5044600F078F84A
:10451000024B236032232383204610BDA4470208A8
:1045200010B5034B0360044600F07EF8204610BD32
:10453000A447020810B5044600F062F8034B23605C
:104540004FF4C8732383204610BD00BFB047020854
:1045500010B5034B0360044600F066F8204610BD1A
:10456000B047020810B5044600F0AAF80023236003
:1045700040F60303A3800323A3715023A3602046C6
:1045800010BDF8B504461D460F46164600F098F8D3
:1045900040F60303A3800123A37150232780668084
:1045A000E560A3602046F8BD4288C3681344438099
:1045B0008368002B02DC032100F084B8013B836098
:1045C000002BF8D07047000010B5044600F018F832
:1045D000024B236050232383204610BDBC470208B2
:1045E00010B5034B0360044600F01EF8204610BDD2
:1045F000BC47020802238180C2808372704700009A
:1046000010B50446043000F05BF8054B236041F21E
:10461000100323810023E372024BE360204610BDA8
:10462000C847020852501E0110B5044B044640F81A
:10463000043B00F046F8204610BD00BFC847020802
:1046400038B5437B013B13F0FF03044615D0437399
:10465000A37B013B13F0FF0303BF1E23A373E37B84
:10466000A37302BFB3FA83F35B09E373237C0133C3
:10467000DBB2132B0AD8237438BD50234373037B5A
:10468000522B0CBF4C2352230373E1E7002507484C
:10469000257402F02DFE1E23B0FBF3F202FB130083
:1046A00010B90123E372E7E7E572E5E7182E002071
:1046B0008388013B83807047838801338380704700
:1046C000704770478171704710B5028803790C8874
:1046D0001344A34210DD0B7923449A420CDA438839
:1046E00042794C881A44A24206DD4A792244934218
:1046F000ACBF0020012010BD0020FCE7F8B5054646
:1047000000F06AFB05F5A8742E4605F51A772046D9
:104710001C34FFF70FFFBC42F9D105F56077204646
:104720001C34FFF7F1FEBC42F9D105F59367204632
:104730001C34FFF749FFBC42F9D105F5BB672046A1
:104740001034FFF70FFFBC42F9D10023C5F86437DE
:10475000C5F86837C5F8E0352A460A23302002211B
:10476000A2F8543114339BB2D22BA2F8560182F82E
:104770005A1102F11C02F3D12A4614235C200221B3
:10478000A2F86C3214339BB2DC2BA2F86E0282F8D2
:10479000721202F11C02F3D10A2346210222A6F86A
:1047A000843314339BB2D22BA6F8861386F88A235F
:1047B00006F11C06F3D10023C5F8D8352846F8BD0C
:1047C00070B5044600F5BB6600F59365AE4204D0B3
:1047D000103E3046FFF775FFF8E704F56076AE420D
:1047E00004D01C3D2846FFF7FBFEF8E704F51A75D8
:1047F000B54204D01C3E3046FFF792FEF8E704F5C0
:10480000A876B54204D01C3D2846FFF7A1FEF8E784
:10481000204600F0FFFA204670BD2DE9F041D0F8A7
:104820006477044637B1D0F86837002B04DD013BCC
:10483000C4F86837BDE8F08190F8E435D0F8E85561
:10484000D0F8EC6586464FF0010847450EF10C0E96
:1048500016DC013FC4F864770BBB1C2104F5AD7076
:1048600001FB03F2875C042F14D102F5A8702244E7
:10487000D2F850311B6832462946204498470CE054
:104880000EF2E45207CA0EF5BB6C8CE8070008F183
:104890000108DAE701330A2BE2D10C23C8E7012B28
:1048A00012D100221C2104F2722001FB02F3C75C2A
:1048B000042F05D103F51A702344D3F86832D9E7E1
:1048C00001320A2AF1D1E8E7022BE6D100221C21AD
:1048D00004F28A3001FB02F3C75C042F05D103F513
:1048E00060702344D3F88033C4E701320A2AF1D13F
:1048F000D3E72DE9F04FD0F8E0350133092B87B02D
:104900000446C0F8E03524DDC3790BB100F0AFFAFE
:104910000023C4F8E03504F5A87504F51A762B7B5E
:104920004C2B284670D1FFF7C3FE95F824314C2B51
:1049300005F58C706BD1FFF7BBFE95F83C324C2B24
:1049400005F50C7066D1FFF7B3FE1C35B542E6D114
:1049500001E09B07DFD0274604F58C78254604F557
:10496000A0720DF1080995F85A31033B012B54D878
:104970001C354545F7D1254604F5A0720DF108090F
:1049800095F87232033B012B75D81C354545F7D19C
:10499000254604F5A0720DF1080995F88A33033B0A
:1049A000012B00F296801C354545F6D104F5A07820
:1049B00002AD4FF0030997F89E34032B1BD0D7F8B4
:1049C0009C14D7F8980485E8030094E80300ADF838
:1049D0001410090C04908DF81610284604A9FFF74E
:1049E00073FE064604A8FFF76CFE2846FFF769FE33
:1049F0000EB184F806901037B845DCD1204607B0D8
:104A0000BDE8F04FFFF709BFFFF756FE8DE7FFF750
:104A100053FE92E7FFF750FE97E7264605F5AA7B7F
:104A20000DF1100AB37B032B21D09BE8030089E82A
:104A30000300D6E902018AE8030051464846019284
:104A4000FFF742FE00905046FFF73BFE4846FFF757
:104A500038FEDDE9003253B10323B37385F85A31D0
:104A6000B5F86811D4F8D8350B44C4F8D8351036E9
:104A70009642D7D17CE7264605F51B7B0DF1100A3F
:104A8000B37B032B21D09BE8030089E80300D6E920
:104A900002018AE80300514648460192FFF714FEDE
:104AA00000905046FFF70DFE4846FFF70AFEDDE98D
:104AB000003253B10323B37385F87232B5F8801214
:104AC000D4F8D8350B44C4F8D8351036B242D7D113
:104AD0005BE7264605F5617B0DF1100AB37B032BDE
:104AE00021D09BE8030089E80300D6E902018AE8A7
:104AF0000300514648460192FFF7E6FD00905046FC
:104B0000FFF7DFFD4846FFF7DCFDDDE9003253B17A
:104B10000323B37385F88A33B5F89813D4F8D835DE
:104B20000B44C4F8D8351036B242D7D13BE702293E
:104B30000B46B8BF0223013BE022B2FBF3F2102A7E
:104B4000D8BF14224B1E5343C3F1E00303EBD373CE
:104B5000504300EB630070472DE9F0470A284FEA05
:104B6000400700EB4004264E8146A8BF4FF00A09DB
:104B70000A2FA8BF0A270A2CA8BF0A24B04600257E
:104B8000A94508F11C0A0DDCDFF874800025AF424E
:104B900008F11C0915DC0025AC4206F11C071FDCDE
:104BA000BDE8F08749462846FFF7C1FFDAF83431FF
:104BB00001461B6808F5A870142298470135D046B5
:104BC000DEE739462846FFF7B2FFD9F84C320146F6
:104BD0001B6808F51A703C2298470135C846D6E78D
:104BE00021462846FFF7A3FFD7F8643301461B6828
:104BF00006F560706422984701353E46CCE700BF59
:104C0000A83100202DE9F04FDFF8B09185B00027E2
:104C10004846FFF76EFE4846684C00F00DF9254601
:104C20004FF0000BA04695F85A31022B2AD105F51A
:104C3000A870FFF705FD95F85B311BB385F85B7134
:104C40002346002693F89E24032A40F0A480B5F85A
:104C50005621B5F85411EA4608320631042392B2BF
:104C600089B25046FFF78DFC9AE80F0008EB061654
:104C700006F5936C8CE80F005046FFF722FD0123E8
:104C800086F89E340BF1010BBBF10A0F05F11C05F0
:104C9000C9D14A4D4FF0000BEA4695F87232022B0B
:104CA00003D105F51A70FFF7CBFC95F873320BB3FF
:104CB00085F873722346002693F89E24032A71D147
:104CC000B5F86E22B5F86C1208320631042392B2A0
:104CD00089B25046FFF755FC9AE80F0008EB06161C
:104CE00006F5936C8CE80F005046FFF7EAFC0123B1
:104CF00086F89E340BF1010BBBF10A0F05F11C0580
:104D0000CBD12E4D4FF0000BEA4695F88A33022B9B
:104D100003D105F56070FFF793FC95F88B330BB367
:104D200085F88B732346002693F89E24032A3FD1EF
:104D3000B5F88623B5F8841308320631042392B2FD
:104D400089B25046FFF71DFC9AE80F0008EB0616E3
:104D500006F5936C8CE80F005046FFF7B2FC012378
:104D600086F89E340BF1010BBBF10A0F05F11C050F
:104D7000CBD1002594F89E34022B03D104F5936027
:104D8000FFF712FC0135142D04F11004F2D11020AC
:104D900003F02CFA3CE70136142E03F110037FF4E4
:104DA00051AF6FE70136142E03F1100384D1A1E750
:104DB0000136142E03F11003B6D1D3E7A831002039
:104DC0000148FFF79BBC00BFA83100200148FFF756
:104DD000F7BC00BFA831002070B50446FFF770FC97
:104DE0000023E37104F1080504F5A4762846103584
:104DF000FFF7B8FBB542F9D10A2384F84C31044BD4
:104E0000236041F21003A3800223A371204670BDEA
:104E10003200180170B5044600F5A47500F10806CB
:104E2000B54204D0103D2846FFF74BFCF8E720467A
:104E3000FFF747FC204670BD38B500F1080500F5C6
:104E4000A474AB79022B02D12846FFF7ADFB1035D5
:104E5000A542F6D138BD0388022B84BF023B0380F4
:104E600070470388DD2B9CBF0233038070477FB5FA
:104E70000446002300F10E021E01915D032919D1A1
:104E8000628821886D46083A06316FF0060392B2B7
:104E900089B22846FFF775FB95E80F00264406F116
:104EA000080484E80F002846FFF70BFC0123B373C6
:104EB00004B070BD0133142BDED1F9E700230129C2
:104EC00080F8F03002D0022912D07047037083803E
:104ED000C380114B322242801A6882605A68C260D5
:104EE0009A680261DA684261032380F8F030704703
:104EF00003708380C380084B1E2242801A6982603F
:104F00005A69C2609A690261DA6942611A6A826109
:104F10005A6AC2610423E8E75832020880F8F210A6
:104F2000FFF7CCBF08B50021FFF7F8FF08BDF02060
:104F300070474FF4A07070472920FCF751BF28201C
:104F4000FCF74EBF08B5FCF71FFFCA20FCF748FF6F
:104F5000C320FCF729FF0820FCF726FF5020FCF7B0
:104F600023FFCF20FCF73CFF0020FCF71DFFC120F2
:104F7000FCF71AFF3020FCF717FFED20FCF730FF9D
:104F80006420FCF711FF0320FCF70EFF1220FCF752
:104F90000BFF8120FCF708FFE820FCF721FF8520AC
:104FA000FCF702FF0020FCF7FFFE7820FCF7FCFE78
:104FB000CB20FCF715FF3920FCF7F6FE2C20FCF780
:104FC000F3FE0020FCF7F0FE3420FCF7EDFE02209B
:104FD000FCF7EAFEF720FCF703FF2020FCF7E4FED5
:104FE000EA20FCF7FDFE0020FCF7DEFE0020FCF7C7
:104FF000DBFEB120FCF7F4FE0020FCF7D5FE1B2001
:10500000FCF7D2FEB620FCF7EBFE0A20FCF7CCFE44
:10501000A220FCF7C9FEC020FCF7E2FE1020FCF73E
:10502000C3FEC120FCF7DCFE1020FCF7BDFEC5204E
:10503000FCF7D6FE4520FCF7B7FE1520FCF7B4FEC2
:10504000C720FCF7CDFE9020FCF7AEFE3620FCF723
:10505000C7FEC820FCF7A8FEF220FCF7C1FE002026
:10506000FCF7A2FEB020FCF7BBFEC220FCF79CFEC2
:10507000B620FCF7B5FE0A20FCF796FEA720FCF749
:1050800093FE2720FCF790FE0420FCF78DFE2A20DB
:10509000FCF7A6FE0020FCF787FE0020FCF784FE4C
:1050A0000020FCF781FEEF20FCF77EFE2B20FCF7B2
:1050B00097FE0020FCF778FE0020FCF775FE01202B
:1050C000FCF772FE3F20FCF76FFEF620FCF788FE2F
:1050D0000120FCF769FE0020FCF766FE0620FCF7C5
:1050E00063FE2C20FCF77CFEC820FCF7C7FE2620C0
:1050F000FCF776FE0120FCF757FEE020FCF770FE7F
:105100000F20FCF751FE2920FCF74EFE2420FCF76F
:105110004BFE0C20FCF748FE0E20FCF745FE092054
:10512000FCF742FE4E20FCF73FFE7820FCF73CFEE9
:105130003C20FCF739FE0920FCF736FE1320FCF773
:1051400033FE0520FCF730FE1720FCF72DFE112062
:10515000FCF72AFE0020FCF727FEE120FCF740FECA
:105160000020FCF721FE1620FCF71EFE1B20FCF79A
:105170001BFE0420FCF718FE1120FCF715FE07208B
:10518000FCF712FE3120FCF70FFE3320FCF70CFE7B
:105190004220FCF709FE0520FCF706FE0C20FCF778
:1051A00003FE0A20FCF700FE2820FCF7FDFD2F205F
:1051B000FCF7FAFD0F20FCF7F7FD1120FCF710FEBD
:1051C000C820FCF75BFE2920FCF70AFEBDE808407A
:1051D0002C20FCF705BE08B5FCF7D6FD0321D32033
:1051E000FCF71AFE80B208BD10B5C4B2022203213A
:1051F0002046FCF77FFD0A20FCF7C4FD2046002274
:105200000321FCF777FDBDE810400220FCF7BABD92
:1052100038B50446E4B2FCF76BFD00212046FCF7EC
:1052200081FD012105462046FCF77CFD40EA052072
:1052300080B238BD10B5C4B240212046FCF772FDE3
:10524000030607D54C212046FCF76CFD003818BF3B
:10525000012010BD01224B212046FCF74BFD2046CA
:1052600000224B21FCF746FD0020F2E773B5042332
:10527000C4B20E461546D7210DEB03022046FCF7BB
:105280006BFD019B1BBA1A0DC3F30B233280204622
:105290002B8001224B21FCF72DFD00224B212046C3
:1052A000FCF728FD02B070BD10B50A4A1378984289
:1052B00004460DD0517888420AD00BB141B9012380
:1052C000D454FCF715FD2046BDE81040FFF78CBF15
:1052D00010BD00BF1439002010B5C4B2092120460A
:1052E000FCF720FD40F00102D2B220460921BDE8C2
:1052F0001040FCF7FFBC10B5C4B209212046FCF7F2
:1053000011FD092100F0FE022046BDE81040FCF727
:10531000F1BC38B5C4B20D4620460A21FCF702FDA7
:1053200040EA0502D2B220460A21BDE83840FCF727
:10533000E1BC10B50446FCF7DCFC20461F21FFF75A
:10534000E8FF2046BDE81040FFF7C6BF38B5C4B23D
:105350000D4620460A21FCF7E5FC20EA0502D2B200
:1053600020460A21BDE83840FCF7C4BC10B504460D
:10537000FFF7C1FF20461F21BDE81040FFF7E6BF41
:1053800010B5C0B20C460B21FCF7CCFC204010BD80
:105390001F21FFF7F5BF0A46C0B20B21FCF7AABCDC
:1053A0001F21FFF7F8BF38B5C4B20D4620461721BC
:1053B000FCF7B8FC20EA0502D2B220461721BDE86E
:1053C0003840FCF797BC70B5C4B2064604212046AD
:1053D000FCF7A8FC042100F0FB0205462046FCF780
:1053E00089FC3046F021FFF7DEFF05F0F802204689
:1053F0000421FCF77FFC492220212046FCF77AFC9F
:105400000220FCF7BFFC204601222121FCF772FCA0
:1054100020469A224121FCF76DFC204601224A21B8
:10542000FCF768FC204601224B21FCF763FC204678
:1054300000224B21FCF75EFC204601225621FCF79E
:1054400059FC204601225821FCF754FC2046012239
:105450004021FCF74FFC2046FF220B21FCF74AFCC1
:10546000BDE870400220FCF78DBC0000054BD3F86E
:10547000882042F47002C3F888204FF000629A60DE
:10548000704700BF00ED00E008B50B4B1A6842F40E
:1054900000721A601A6842F480621A601A6842F454
:1054A00080721A60032000F08BFA0020FCF7C2FF24
:1054B000FCF704FD002008BD003C0240034A044BF9
:1054C00011681B780B441360704700BF1839002027
:1054D00078000020014B1868704700BF1839002081
:1054E00038B50446FFF7F6FF631C1CBF054B1B785D
:1054F000054618BFE418FFF7EDFF431BA342FAD39C
:1055000038BD00BF7800002038B50446002800F000
:105510009B80056C25B9FCF7F1FC656484F83C5070
:10552000236CDB0600F18E80236C23F4885323F078
:10553000020343F002032364444B5A6822F44032CE
:105540005A605A6861680A435A60236821695A6838
:1055500022F480725A605A6842EA01225A605A68FC
:10556000A16822F040725A605A680A435A609A68E9
:10557000E16822F400629A609A680A439A603449AA
:10558000A26A8A4252D0996821F070619960996844
:105590000A439A609A68E16A22F040529A609A68D7
:1055A0000A439A609A6822F002029A609A68217E01
:1055B00042EA41029A6094F82020002A3ED05A68BC
:1055C000616A42F400625A605A6822F460425A608A
:1055D0005A68013942EA41325A60DA6AE16922F4D2
:1055E0007002DA62DA6A013942EA0152DA629A68D2
:1055F00022F400729A609A6894F8301042EA4122CC
:105600009A609A68616922F480629A609A680020C0
:1056100042EA81229A606064236C23F0030343F022
:1056200001032364002384F83C3038BD9A6822F0DB
:1056300070629A609A6822F04052B2E75A6822F487
:105640000062C9E70120EDE70120EEE700230140F9
:105650000100000F82B00023019390F83C30012B31
:105660006FD0012380F83C3003689A68D2070BD5CD
:105670009A68D1071AD4036C43F010030364436C97
:1056800043F00103436452E09A682F4942F001025B
:105690009A602E4A1268B2FBF1F202EB42020192CA
:1056A000019A002AE4D0019A013AF8E7026C22F448
:1056B000E06222F0010242F4807202645A685205EC
:1056C00041BF026C22F4405242F480520264026CE8
:1056D00012F480521CBF426C22F006024264002287
:1056E00080F83C206FF022021A605A6842F0806213
:1056F00042F020025A60164A516811F01F0F1549F6
:105700001CD18B4207D001F580718B420CD15268BD
:1057100012F01F0F0BD19A6812F0405F07D19A6800
:1057200042F080429A6002E00B498B4202D0002096
:1057300002B07047526812F0100FEBE78B42F6D1BF
:10574000E9E70220F4E700BF40420F0074000020A8
:105750000023014000200140002201400368D86C72
:10576000704770477047036870B51E685D68B20780
:1057700004462BD5A80629D5226CD1065EBF226C23
:1057800042F4007222649A6812F0405F17D1227EC0
:10579000AAB9DA6A12F4700F02D09A6852050ED4D0
:1057A0005A6822F020025A60236C23F48073236429
:1057B000236CD8045EBF236C43F0010323642046AE
:1057C000FCF75EFB23686FF012021A60710733D595
:1057D0002A0631D5236CDB065EBF236C43F40053ED
:1057E000236423689A6812F4401F1ED19A6B12F446
:1057F000401F02D09A68500517D45A68510514D436
:105800009A6812F0405F10D1227E72B95A6822F075
:1058100080025A60236C23F480532364236CDA05DE
:105820005EBF236C43F001032364204600F0C6F8FA
:1058300023686FF00C021A60F30710D568060ED5C6
:1058400023681B68D9070AD5236C43F4803323648B
:105850002046FFF786FF23686FF001021A60B20648
:105860000ED56B010CD5636C43F0020363642368AF
:105870006FF020051D602046FFF774FF23681D6050
:1058800070BD0000F7B50023019390F83C30012B68
:10589000054600F08680012380F83C3008682B68BC
:1058A0008E68092884B233D904EB4402DF681E3ABB
:1058B0004FF0070C0CFA02FC27EA0C07DF60DF68E8
:1058C00006FA02F23A43DA604968062901EB8102DE
:1058D0002DD8596B053A1F26964021EA06015963D7
:1058E000596B04FA02F20A435A632F4A93420AD1CF
:1058F000122837D12D4B5A6822F400025A605A6898
:1059000042F480025A60002085F83C0003B0F0BDEC
:105910001A6900EB400C072707FA0CF722EA070286
:105920001A611A6906FA0CF616431E61CCE70C29B7
:105930004FF01F010BD81E6B233A914026EA01015C
:105940001963196B04FA02F20A431A63CDE7DE6A9F
:10595000413A914026EA0101D962D96A94400C4348
:10596000DC62C2E7124B984201D01128CBD10F4B19
:105970005A6822F480025A605A6842F400025A605F
:105980000B4B9842BFD10B4B0B4A1B68B3FBF2F396
:105990000A2253430193019B002BB4D0019B013B8E
:1059A000F8E70220B2E700BF0020014000230140D9
:1059B000120000107400002040420F0070470000E9
:1059C0000749CA6822F4E0620302120403F4E063A8
:1059D000120C134343F0BF6343F40033CB607047B2
:1059E00000ED00E0164B30B5DC68C4F30224C4F1CE
:1059F0000703251D042B28BF0423062D4FF0FF3578
:105A00008CBF033C002405FA03F321EA0303A540FD
:105A100022EA0502A340002843EA0203ACBF00F1DA
:105A20006040084A4FEA0313B8BF00F00F00DBB232
:105A3000AABF00F56140135480F8003330BD00BFA9
:105A400000ED00E014ED00E0002807DB044A410906
:105A5000012300F01F00834042F82130704700BF4F
:105A600000E100E010B5044650B1437903F0FF02B5
:105A700013B90271FCF77CFA01236371002010BD99
:105A80000120FCE710B5044620B390F8393003F04C
:105A9000FF021BB980F83820FCF782FA022384F851
:105AA0003930236861681A6822F440320A431A6068
:105AB0005A6BA16822F007020A435A631A6CE16824
:105AC0006FF30D020A431A6400200123E06384F897
:105AD000393010BD0120FCE770477047036870B58E
